{
	"contracts/14_modifiers.sol": {
		"demo3": {
			"abi": [
				{
					"inputs": [
						{
							"internalType": "uint256",
							"name": "a",
							"type": "uint256"
						}
					],
					"name": "f1",
					"outputs": [
						{
							"internalType": "bool",
							"name": "",
							"type": "bool"
						}
					],
					"stateMutability": "pure",
					"type": "function"
				}
			],
			"devdoc": {
				"kind": "dev",
				"methods": {},
				"version": 1
			},
			"evm": {
				"assembly": "    /* \"contracts/14_modifiers.sol\":1311:1516  contract demo3{... */\n  mstore(0x40, 0x80)\n  callvalue\n  dup1\n  iszero\n  tag_1\n  jumpi\n  revert(0x00, 0x00)\ntag_1:\n  pop\n  dataSize(sub_0)\n  dup1\n  dataOffset(sub_0)\n  0x00\n  codecopy\n  0x00\n  return\nstop\n\nsub_0: assembly {\n        /* \"contracts/14_modifiers.sol\":1311:1516  contract demo3{... */\n      mstore(0x40, 0x80)\n      callvalue\n      dup1\n      iszero\n      tag_1\n      jumpi\n      revert(0x00, 0x00)\n    tag_1:\n      pop\n      jumpi(tag_2, lt(calldatasize, 0x04))\n      shr(0xe0, calldataload(0x00))\n      dup1\n      0x9adbf691\n      eq\n      tag_3\n      jumpi\n    tag_2:\n      revert(0x00, 0x00)\n        /* \"contracts/14_modifiers.sol\":1426:1511  function f1(uint a) public pure isEven(a) returns(bool){... */\n    tag_3:\n      tag_4\n      0x04\n      dup1\n      calldatasize\n      sub\n      dup2\n      add\n      swap1\n      tag_5\n      swap2\n      swap1\n      tag_6\n      jump\t// in\n    tag_5:\n      tag_7\n      jump\t// in\n    tag_4:\n      mload(0x40)\n      tag_8\n      swap2\n      swap1\n      tag_9\n      jump\t// in\n    tag_8:\n      mload(0x40)\n      dup1\n      swap2\n      sub\n      swap1\n      return\n    tag_7:\n        /* \"contracts/14_modifiers.sol\":1476:1480  bool */\n      0x00\n        /* \"contracts/14_modifiers.sol\":1465:1466  a */\n      dup2\n        /* \"contracts/14_modifiers.sol\":1381:1382  0 */\n      0x00\n        /* \"contracts/14_modifiers.sol\":1376:1377  2 */\n      0x02\n        /* \"contracts/14_modifiers.sol\":1374:1375  a */\n      dup3\n        /* \"contracts/14_modifiers.sol\":1374:1377  a%2 */\n      tag_11\n      swap2\n      swap1\n      tag_12\n      jump\t// in\n    tag_11:\n        /* \"contracts/14_modifiers.sol\":1374:1382  a%2 == 0 */\n      eq\n        /* \"contracts/14_modifiers.sol\":1366:1400  require(a%2 == 0, \"a is not even\") */\n      tag_13\n      jumpi\n      mload(0x40)\n      0x08c379a000000000000000000000000000000000000000000000000000000000\n      dup2\n      mstore\n      0x04\n      add\n      tag_14\n      swap1\n      tag_15\n      jump\t// in\n    tag_14:\n      mload(0x40)\n      dup1\n      swap2\n      sub\n      swap1\n      revert\n    tag_13:\n        /* \"contracts/14_modifiers.sol\":1499:1503  true */\n      0x01\n        /* \"contracts/14_modifiers.sol\":1492:1503  return true */\n      swap2\n      pop\n        /* \"contracts/14_modifiers.sol\":1426:1511  function f1(uint a) public pure isEven(a) returns(bool){... */\n      pop\n      swap2\n      swap1\n      pop\n      jump\t// out\n        /* \"#utility.yul\":88:205   */\n    tag_18:\n        /* \"#utility.yul\":197:198   */\n      0x00\n        /* \"#utility.yul\":194:195   */\n      0x00\n        /* \"#utility.yul\":187:199   */\n      revert\n        /* \"#utility.yul\":334:411   */\n    tag_20:\n        /* \"#utility.yul\":371:378   */\n      0x00\n        /* \"#utility.yul\":400:405   */\n      dup2\n        /* \"#utility.yul\":389:405   */\n      swap1\n      pop\n        /* \"#utility.yul\":334:411   */\n      swap2\n      swap1\n      pop\n      jump\t// out\n        /* \"#utility.yul\":417:539   */\n    tag_21:\n        /* \"#utility.yul\":490:514   */\n      tag_35\n        /* \"#utility.yul\":508:513   */\n      dup2\n        /* \"#utility.yul\":490:514   */\n      tag_20\n      jump\t// in\n    tag_35:\n        /* \"#utility.yul\":483:488   */\n      dup2\n        /* \"#utility.yul\":480:515   */\n      eq\n        /* \"#utility.yul\":470:533   */\n      tag_36\n      jumpi\n        /* \"#utility.yul\":529:530   */\n      0x00\n        /* \"#utility.yul\":526:527   */\n      0x00\n        /* \"#utility.yul\":519:531   */\n      revert\n        /* \"#utility.yul\":470:533   */\n    tag_36:\n        /* \"#utility.yul\":417:539   */\n      pop\n      jump\t// out\n        /* \"#utility.yul\":545:684   */\n    tag_22:\n        /* \"#utility.yul\":591:596   */\n      0x00\n        /* \"#utility.yul\":629:635   */\n      dup2\n        /* \"#utility.yul\":616:636   */\n      calldataload\n        /* \"#utility.yul\":607:636   */\n      swap1\n      pop\n        /* \"#utility.yul\":645:678   */\n      tag_38\n        /* \"#utility.yul\":672:677   */\n      dup2\n        /* \"#utility.yul\":645:678   */\n      tag_21\n      jump\t// in\n    tag_38:\n        /* \"#utility.yul\":545:684   */\n      swap3\n      swap2\n      pop\n      pop\n      jump\t// out\n        /* \"#utility.yul\":690:1019   */\n    tag_6:\n        /* \"#utility.yul\":749:755   */\n      0x00\n        /* \"#utility.yul\":798:800   */\n      0x20\n        /* \"#utility.yul\":786:795   */\n      dup3\n        /* \"#utility.yul\":777:784   */\n      dup5\n        /* \"#utility.yul\":773:796   */\n      sub\n        /* \"#utility.yul\":769:801   */\n      slt\n        /* \"#utility.yul\":766:885   */\n      iszero\n      tag_40\n      jumpi\n        /* \"#utility.yul\":804:883   */\n      tag_41\n      tag_18\n      jump\t// in\n    tag_41:\n        /* \"#utility.yul\":766:885   */\n    tag_40:\n        /* \"#utility.yul\":924:925   */\n      0x00\n        /* \"#utility.yul\":949:1002   */\n      tag_42\n        /* \"#utility.yul\":994:1001   */\n      dup5\n        /* \"#utility.yul\":985:991   */\n      dup3\n        /* \"#utility.yul\":974:983   */\n      dup6\n        /* \"#utility.yul\":970:992   */\n      add\n        /* \"#utility.yul\":949:1002   */\n      tag_22\n      jump\t// in\n    tag_42:\n        /* \"#utility.yul\":939:1002   */\n      swap2\n      pop\n        /* \"#utility.yul\":895:1012   */\n      pop\n        /* \"#utility.yul\":690:1019   */\n      swap3\n      swap2\n      pop\n      pop\n      jump\t// out\n        /* \"#utility.yul\":1025:1115   */\n    tag_23:\n        /* \"#utility.yul\":1059:1066   */\n      0x00\n        /* \"#utility.yul\":1102:1107   */\n      dup2\n        /* \"#utility.yul\":1095:1108   */\n      iszero\n        /* \"#utility.yul\":1088:1109   */\n      iszero\n        /* \"#utility.yul\":1077:1109   */\n      swap1\n      pop\n        /* \"#utility.yul\":1025:1115   */\n      swap2\n      swap1\n      pop\n      jump\t// out\n        /* \"#utility.yul\":1121:1230   */\n    tag_24:\n        /* \"#utility.yul\":1202:1223   */\n      tag_45\n        /* \"#utility.yul\":1217:1222   */\n      dup2\n        /* \"#utility.yul\":1202:1223   */\n      tag_23\n      jump\t// in\n    tag_45:\n        /* \"#utility.yul\":1197:1200   */\n      dup3\n        /* \"#utility.yul\":1190:1224   */\n      mstore\n        /* \"#utility.yul\":1121:1230   */\n      pop\n      pop\n      jump\t// out\n        /* \"#utility.yul\":1236:1446   */\n    tag_9:\n        /* \"#utility.yul\":1323:1327   */\n      0x00\n        /* \"#utility.yul\":1361:1363   */\n      0x20\n        /* \"#utility.yul\":1350:1359   */\n      dup3\n        /* \"#utility.yul\":1346:1364   */\n      add\n        /* \"#utility.yul\":1338:1364   */\n      swap1\n      pop\n        /* \"#utility.yul\":1374:1439   */\n      tag_47\n        /* \"#utility.yul\":1436:1437   */\n      0x00\n        /* \"#utility.yul\":1425:1434   */\n      dup4\n        /* \"#utility.yul\":1421:1438   */\n      add\n        /* \"#utility.yul\":1412:1418   */\n      dup5\n        /* \"#utility.yul\":1374:1439   */\n      tag_24\n      jump\t// in\n    tag_47:\n        /* \"#utility.yul\":1236:1446   */\n      swap3\n      swap2\n      pop\n      pop\n      jump\t// out\n        /* \"#utility.yul\":1452:1632   */\n    tag_25:\n        /* \"#utility.yul\":1500:1577   */\n      0x4e487b7100000000000000000000000000000000000000000000000000000000\n        /* \"#utility.yul\":1497:1498   */\n      0x00\n        /* \"#utility.yul\":1490:1578   */\n      mstore\n        /* \"#utility.yul\":1597:1601   */\n      0x12\n        /* \"#utility.yul\":1594:1595   */\n      0x04\n        /* \"#utility.yul\":1587:1602   */\n      mstore\n        /* \"#utility.yul\":1621:1625   */\n      0x24\n        /* \"#utility.yul\":1618:1619   */\n      0x00\n        /* \"#utility.yul\":1611:1626   */\n      revert\n        /* \"#utility.yul\":1638:1814   */\n    tag_12:\n        /* \"#utility.yul\":1670:1671   */\n      0x00\n        /* \"#utility.yul\":1687:1707   */\n      tag_50\n        /* \"#utility.yul\":1705:1706   */\n      dup3\n        /* \"#utility.yul\":1687:1707   */\n      tag_20\n      jump\t// in\n    tag_50:\n        /* \"#utility.yul\":1682:1707   */\n      swap2\n      pop\n        /* \"#utility.yul\":1721:1741   */\n      tag_51\n        /* \"#utility.yul\":1739:1740   */\n      dup4\n        /* \"#utility.yul\":1721:1741   */\n      tag_20\n      jump\t// in\n    tag_51:\n        /* \"#utility.yul\":1716:1741   */\n      swap3\n      pop\n        /* \"#utility.yul\":1760:1761   */\n      dup3\n        /* \"#utility.yul\":1750:1785   */\n      tag_52\n      jumpi\n        /* \"#utility.yul\":1765:1783   */\n      tag_53\n      tag_25\n      jump\t// in\n    tag_53:\n        /* \"#utility.yul\":1750:1785   */\n    tag_52:\n        /* \"#utility.yul\":1806:1807   */\n      dup3\n        /* \"#utility.yul\":1803:1804   */\n      dup3\n        /* \"#utility.yul\":1799:1808   */\n      mod\n        /* \"#utility.yul\":1794:1808   */\n      swap1\n      pop\n        /* \"#utility.yul\":1638:1814   */\n      swap3\n      swap2\n      pop\n      pop\n      jump\t// out\n        /* \"#utility.yul\":1820:1989   */\n    tag_26:\n        /* \"#utility.yul\":1904:1915   */\n      0x00\n        /* \"#utility.yul\":1938:1944   */\n      dup3\n        /* \"#utility.yul\":1933:1936   */\n      dup3\n        /* \"#utility.yul\":1926:1945   */\n      mstore\n        /* \"#utility.yul\":1978:1982   */\n      0x20\n        /* \"#utility.yul\":1973:1976   */\n      dup3\n        /* \"#utility.yul\":1969:1983   */\n      add\n        /* \"#utility.yul\":1954:1983   */\n      swap1\n      pop\n        /* \"#utility.yul\":1820:1989   */\n      swap3\n      swap2\n      pop\n      pop\n      jump\t// out\n        /* \"#utility.yul\":1995:2158   */\n    tag_27:\n        /* \"#utility.yul\":2135:2150   */\n      0x61206973206e6f74206576656e00000000000000000000000000000000000000\n        /* \"#utility.yul\":2131:2132   */\n      0x00\n        /* \"#utility.yul\":2123:2129   */\n      dup3\n        /* \"#utility.yul\":2119:2133   */\n      add\n        /* \"#utility.yul\":2112:2151   */\n      mstore\n        /* \"#utility.yul\":1995:2158   */\n      pop\n      jump\t// out\n        /* \"#utility.yul\":2164:2530   */\n    tag_28:\n        /* \"#utility.yul\":2306:2309   */\n      0x00\n        /* \"#utility.yul\":2327:2394   */\n      tag_57\n        /* \"#utility.yul\":2391:2393   */\n      0x0d\n        /* \"#utility.yul\":2386:2389   */\n      dup4\n        /* \"#utility.yul\":2327:2394   */\n      tag_26\n      jump\t// in\n    tag_57:\n        /* \"#utility.yul\":2320:2394   */\n      swap2\n      pop\n        /* \"#utility.yul\":2403:2496   */\n      tag_58\n        /* \"#utility.yul\":2492:2495   */\n      dup3\n        /* \"#utility.yul\":2403:2496   */\n      tag_27\n      jump\t// in\n    tag_58:\n        /* \"#utility.yul\":2521:2523   */\n      0x20\n        /* \"#utility.yul\":2516:2519   */\n      dup3\n        /* \"#utility.yul\":2512:2524   */\n      add\n        /* \"#utility.yul\":2505:2524   */\n      swap1\n      pop\n        /* \"#utility.yul\":2164:2530   */\n      swap2\n      swap1\n      pop\n      jump\t// out\n        /* \"#utility.yul\":2536:2955   */\n    tag_15:\n        /* \"#utility.yul\":2702:2706   */\n      0x00\n        /* \"#utility.yul\":2740:2742   */\n      0x20\n        /* \"#utility.yul\":2729:2738   */\n      dup3\n        /* \"#utility.yul\":2725:2743   */\n      add\n        /* \"#utility.yul\":2717:2743   */\n      swap1\n      pop\n        /* \"#utility.yul\":2789:2798   */\n      dup2\n        /* \"#utility.yul\":2783:2787   */\n      dup2\n        /* \"#utility.yul\":2779:2799   */\n      sub\n        /* \"#utility.yul\":2775:2776   */\n      0x00\n        /* \"#utility.yul\":2764:2773   */\n      dup4\n        /* \"#utility.yul\":2760:2777   */\n      add\n        /* \"#utility.yul\":2753:2800   */\n      mstore\n        /* \"#utility.yul\":2817:2948   */\n      tag_60\n        /* \"#utility.yul\":2943:2947   */\n      dup2\n        /* \"#utility.yul\":2817:2948   */\n      tag_28\n      jump\t// in\n    tag_60:\n        /* \"#utility.yul\":2809:2948   */\n      swap1\n      pop\n        /* \"#utility.yul\":2536:2955   */\n      swap2\n      swap1\n      pop\n      jump\t// out\n\n    auxdata: 0xa264697066735822122002492d205c603334a5dbe9c88f86803c24b8b20ec357a5f0bfff00560bbd94cf64736f6c634300081d0033\n}\n",
				"bytecode": {
					"linkReferences": {},
					"object": "6080604052348015600e575f5ffd5b506102578061001c5f395ff3fe608060405234801561000f575f5ffd5b5060043610610029575f3560e01c80639adbf6911461002d575b5f5ffd5b610047600480360381019061004291906100ee565b61005d565b6040516100549190610133565b60405180910390f35b5f815f60028261006d9190610179565b146100ad576040517f08c379a00000000000000000000000000000000000000000000000000000000081526004016100a490610203565b60405180910390fd5b6001915050919050565b5f5ffd5b5f819050919050565b6100cd816100bb565b81146100d7575f5ffd5b50565b5f813590506100e8816100c4565b92915050565b5f60208284031215610103576101026100b7565b5b5f610110848285016100da565b91505092915050565b5f8115159050919050565b61012d81610119565b82525050565b5f6020820190506101465f830184610124565b92915050565b7f4e487b71000000000000000000000000000000000000000000000000000000005f52601260045260245ffd5b5f610183826100bb565b915061018e836100bb565b92508261019e5761019d61014c565b5b828206905092915050565b5f82825260208201905092915050565b7f61206973206e6f74206576656e000000000000000000000000000000000000005f82015250565b5f6101ed600d836101a9565b91506101f8826101b9565b602082019050919050565b5f6020820190508181035f83015261021a816101e1565b905091905056fea264697066735822122002492d205c603334a5dbe9c88f86803c24b8b20ec357a5f0bfff00560bbd94cf64736f6c634300081d0033",
					"opcodes": "PUSH1 0x80 PUSH1 0x40 MSTORE CALLVALUE DUP1 ISZERO PUSH1 0xE JUMPI PUSH0 PUSH0 REVERT JUMPDEST POP PUSH2 0x257 DUP1 PUSH2 0x1C PUSH0 CODECOPY PUSH0 RETURN INVALID PUSH1 0x80 PUSH1 0x40 MSTORE CALLVALUE DUP1 ISZERO PUSH2 0xF JUMPI PUSH0 PUSH0 REVERT JUMPDEST POP PUSH1 0x4 CALLDATASIZE LT PUSH2 0x29 JUMPI PUSH0 CALLDATALOAD PUSH1 0xE0 SHR DUP1 PUSH4 0x9ADBF691 EQ PUSH2 0x2D JUMPI JUMPDEST PUSH0 PUSH0 REVERT JUMPDEST PUSH2 0x47 PUSH1 0x4 DUP1 CALLDATASIZE SUB DUP2 ADD SWAP1 PUSH2 0x42 SWAP2 SWAP1 PUSH2 0xEE JUMP JUMPDEST PUSH2 0x5D JUMP JUMPDEST PUSH1 0x40 MLOAD PUSH2 0x54 SWAP2 SWAP1 PUSH2 0x133 JUMP JUMPDEST PUSH1 0x40 MLOAD DUP1 SWAP2 SUB SWAP1 RETURN JUMPDEST PUSH0 DUP2 PUSH0 PUSH1 0x2 DUP3 PUSH2 0x6D SWAP2 SWAP1 PUSH2 0x179 JUMP JUMPDEST EQ PUSH2 0xAD JUMPI PUSH1 0x40 MLOAD PUSH32 0x8C379A000000000000000000000000000000000000000000000000000000000 DUP2 MSTORE PUSH1 0x4 ADD PUSH2 0xA4 SWAP1 PUSH2 0x203 JUMP JUMPDEST PUSH1 0x40 MLOAD DUP1 SWAP2 SUB SWAP1 REVERT JUMPDEST PUSH1 0x1 SWAP2 POP POP SWAP2 SWAP1 POP JUMP JUMPDEST PUSH0 PUSH0 REVERT JUMPDEST PUSH0 DUP2 SWAP1 POP SWAP2 SWAP1 POP JUMP JUMPDEST PUSH2 0xCD DUP2 PUSH2 0xBB JUMP JUMPDEST DUP2 EQ PUSH2 0xD7 JUMPI PUSH0 PUSH0 REVERT JUMPDEST POP JUMP JUMPDEST PUSH0 DUP2 CALLDATALOAD SWAP1 POP PUSH2 0xE8 DUP2 PUSH2 0xC4 JUMP JUMPDEST SWAP3 SWAP2 POP POP JUMP JUMPDEST PUSH0 PUSH1 0x20 DUP3 DUP5 SUB SLT ISZERO PUSH2 0x103 JUMPI PUSH2 0x102 PUSH2 0xB7 JUMP JUMPDEST JUMPDEST PUSH0 PUSH2 0x110 DUP5 DUP3 DUP6 ADD PUSH2 0xDA JUMP JUMPDEST SWAP2 POP POP SWAP3 SWAP2 POP POP JUMP JUMPDEST PUSH0 DUP2 ISZERO ISZERO SWAP1 POP SWAP2 SWAP1 POP JUMP JUMPDEST PUSH2 0x12D DUP2 PUSH2 0x119 JUMP JUMPDEST DUP3 MSTORE POP POP JUMP JUMPDEST PUSH0 PUSH1 0x20 DUP3 ADD SWAP1 POP PUSH2 0x146 PUSH0 DUP4 ADD DUP5 PUSH2 0x124 JUMP JUMPDEST SWAP3 SWAP2 POP POP JUMP JUMPDEST PUSH32 0x4E487B7100000000000000000000000000000000000000000000000000000000 PUSH0 MSTORE PUSH1 0x12 PUSH1 0x4 MSTORE PUSH1 0x24 PUSH0 REVERT JUMPDEST PUSH0 PUSH2 0x183 DUP3 PUSH2 0xBB JUMP JUMPDEST SWAP2 POP PUSH2 0x18E DUP4 PUSH2 0xBB JUMP JUMPDEST SWAP3 POP DUP3 PUSH2 0x19E JUMPI PUSH2 0x19D PUSH2 0x14C JUMP JUMPDEST JUMPDEST DUP3 DUP3 MOD SWAP1 POP SWAP3 SWAP2 POP POP JUMP JUMPDEST PUSH0 DUP3 DUP3 MSTORE PUSH1 0x20 DUP3 ADD SWAP1 POP SWAP3 SWAP2 POP POP JUMP JUMPDEST PUSH32 0x61206973206E6F74206576656E00000000000000000000000000000000000000 PUSH0 DUP3 ADD MSTORE POP JUMP JUMPDEST PUSH0 PUSH2 0x1ED PUSH1 0xD DUP4 PUSH2 0x1A9 JUMP JUMPDEST SWAP2 POP PUSH2 0x1F8 DUP3 PUSH2 0x1B9 JUMP JUMPDEST PUSH1 0x20 DUP3 ADD SWAP1 POP SWAP2 SWAP1 POP JUMP JUMPDEST PUSH0 PUSH1 0x20 DUP3 ADD SWAP1 POP DUP2 DUP2 SUB PUSH0 DUP4 ADD MSTORE PUSH2 0x21A DUP2 PUSH2 0x1E1 JUMP JUMPDEST SWAP1 POP SWAP2 SWAP1 POP JUMP INVALID LOG2 PUSH5 0x6970667358 0x22 SLT KECCAK256 MUL BLOBHASH 0x2D KECCAK256 TLOAD PUSH1 0x33 CALLVALUE 0xA5 0xDB 0xE9 0xC8 DUP16 DUP7 DUP1 EXTCODECOPY 0x24 0xB8 0xB2 0xE 0xC3 JUMPI 0xA5 CREATE 0xBF SELFDESTRUCT STOP JUMP SIGNEXTEND 0xBD SWAP5 0xCF PUSH5 0x736F6C6343 STOP ADDMOD SAR STOP CALLER "
				},
				"gasEstimates": {
					"creation": {
						"codeDepositCost": "119800",
						"executionCost": "163",
						"totalCost": "119963"
					},
					"external": {
						"f1(uint256)": "infinite"
					}
				},
				"methodIdentifiers": {
					"f1(uint256)": "9adbf691"
				}
			},
			"storageLayout": {
				"storage": [],
				"types": null
			},
			"userdoc": {
				"kind": "user",
				"methods": {},
				"version": 1
			}
		}
	}
}