{
	"contracts/14_modifiers.sol": {
		"demo2": {
			"abi": [
				{
					"inputs": [],
					"name": "f1",
					"outputs": [
						{
							"internalType": "uint256",
							"name": "",
							"type": "uint256"
						}
					],
					"stateMutability": "pure",
					"type": "function"
				},
				{
					"inputs": [],
					"name": "f2",
					"outputs": [
						{
							"internalType": "uint256",
							"name": "",
							"type": "uint256"
						}
					],
					"stateMutability": "pure",
					"type": "function"
				},
				{
					"inputs": [],
					"name": "f3",
					"outputs": [
						{
							"internalType": "uint256",
							"name": "",
							"type": "uint256"
						}
					],
					"stateMutability": "pure",
					"type": "function"
				},
				{
					"inputs": [],
					"name": "f4",
					"outputs": [
						{
							"internalType": "uint256",
							"name": "",
							"type": "uint256"
						}
					],
					"stateMutability": "pure",
					"type": "function"
				}
			],
			"devdoc": {
				"kind": "dev",
				"methods": {},
				"version": 1
			},
			"evm": {
				"assembly": "    /* \"contracts/14_modifiers.sol\":718:1252  contract demo2{... */\n  mstore(0x40, 0x80)\n  callvalue\n  dup1\n  iszero\n  tag_1\n  jumpi\n  revert(0x00, 0x00)\ntag_1:\n  pop\n  dataSize(sub_0)\n  dup1\n  dataOffset(sub_0)\n  0x00\n  codecopy\n  0x00\n  return\nstop\n\nsub_0: assembly {\n        /* \"contracts/14_modifiers.sol\":718:1252  contract demo2{... */\n      mstore(0x40, 0x80)\n      callvalue\n      dup1\n      iszero\n      tag_1\n      jumpi\n      revert(0x00, 0x00)\n    tag_1:\n      pop\n      jumpi(tag_2, lt(calldatasize, 0x04))\n      shr(0xe0, calldataload(0x00))\n      dup1\n      0x9942ec6f\n      eq\n      tag_3\n      jumpi\n      dup1\n      0xaaf05f3d\n      eq\n      tag_4\n      jumpi\n      dup1\n      0xc27fc305\n      eq\n      tag_5\n      jumpi\n      dup1\n      0xc3f90202\n      eq\n      tag_6\n      jumpi\n    tag_2:\n      revert(0x00, 0x00)\n        /* \"contracts/14_modifiers.sol\":1018:1091  function f2() public pure isTrue returns(uint){... */\n    tag_3:\n      tag_7\n      tag_8\n      jump\t// in\n    tag_7:\n      mload(0x40)\n      tag_9\n      swap2\n      swap1\n      tag_10\n      jump\t// in\n    tag_9:\n      mload(0x40)\n      dup1\n      swap2\n      sub\n      swap1\n      return\n        /* \"contracts/14_modifiers.sol\":1097:1170  function f3() public pure isTrue returns(uint){... */\n    tag_4:\n      tag_11\n      tag_12\n      jump\t// in\n    tag_11:\n      mload(0x40)\n      tag_13\n      swap2\n      swap1\n      tag_10\n      jump\t// in\n    tag_13:\n      mload(0x40)\n      dup1\n      swap2\n      sub\n      swap1\n      return\n        /* \"contracts/14_modifiers.sol\":939:1012  function f1() public pure isTrue returns(uint){... */\n    tag_5:\n      tag_14\n      tag_15\n      jump\t// in\n    tag_14:\n      mload(0x40)\n      tag_16\n      swap2\n      swap1\n      tag_10\n      jump\t// in\n    tag_16:\n      mload(0x40)\n      dup1\n      swap2\n      sub\n      swap1\n      return\n        /* \"contracts/14_modifiers.sol\":1176:1249  function f4() public pure isTrue returns(uint){... */\n    tag_6:\n      tag_17\n      tag_18\n      jump\t// in\n    tag_17:\n      mload(0x40)\n      tag_19\n      swap2\n      swap1\n      tag_10\n      jump\t// in\n    tag_19:\n      mload(0x40)\n      dup1\n      swap2\n      sub\n      swap1\n      return\n        /* \"contracts/14_modifiers.sol\":1018:1091  function f2() public pure isTrue returns(uint){... */\n    tag_8:\n        /* \"contracts/14_modifiers.sol\":1059:1063  uint */\n      0x00\n        /* \"contracts/14_modifiers.sol\":784:789  false */\n      0x00\n        /* \"contracts/14_modifiers.sol\":776:789  true == false */\n      iszero\n      iszero\n        /* \"contracts/14_modifiers.sol\":776:780  true */\n      0x01\n        /* \"contracts/14_modifiers.sol\":776:789  true == false */\n      iszero\n      iszero\n      eq\n        /* \"contracts/14_modifiers.sol\":768:809  require(true == false,\"True is not true\") */\n      tag_21\n      jumpi\n      mload(0x40)\n      0x08c379a000000000000000000000000000000000000000000000000000000000\n      dup2\n      mstore\n      0x04\n      add\n      tag_22\n      swap1\n      tag_23\n      jump\t// in\n    tag_22:\n      mload(0x40)\n      dup1\n      swap2\n      sub\n      swap1\n      revert\n    tag_21:\n        /* \"contracts/14_modifiers.sol\":1082:1083  2 */\n      0x02\n        /* \"contracts/14_modifiers.sol\":1075:1083  return 2 */\n      swap1\n      pop\n        /* \"contracts/14_modifiers.sol\":1018:1091  function f2() public pure isTrue returns(uint){... */\n      swap1\n      jump\t// out\n        /* \"contracts/14_modifiers.sol\":1097:1170  function f3() public pure isTrue returns(uint){... */\n    tag_12:\n        /* \"contracts/14_modifiers.sol\":1138:1142  uint */\n      0x00\n        /* \"contracts/14_modifiers.sol\":784:789  false */\n      0x00\n        /* \"contracts/14_modifiers.sol\":776:789  true == false */\n      iszero\n      iszero\n        /* \"contracts/14_modifiers.sol\":776:780  true */\n      0x01\n        /* \"contracts/14_modifiers.sol\":776:789  true == false */\n      iszero\n      iszero\n      eq\n        /* \"contracts/14_modifiers.sol\":768:809  require(true == false,\"True is not true\") */\n      tag_26\n      jumpi\n      mload(0x40)\n      0x08c379a000000000000000000000000000000000000000000000000000000000\n      dup2\n      mstore\n      0x04\n      add\n      tag_27\n      swap1\n      tag_23\n      jump\t// in\n    tag_27:\n      mload(0x40)\n      dup1\n      swap2\n      sub\n      swap1\n      revert\n    tag_26:\n        /* \"contracts/14_modifiers.sol\":1161:1162  3 */\n      0x03\n        /* \"contracts/14_modifiers.sol\":1154:1162  return 3 */\n      swap1\n      pop\n        /* \"contracts/14_modifiers.sol\":1097:1170  function f3() public pure isTrue returns(uint){... */\n      swap1\n      jump\t// out\n        /* \"contracts/14_modifiers.sol\":939:1012  function f1() public pure isTrue returns(uint){... */\n    tag_15:\n        /* \"contracts/14_modifiers.sol\":980:984  uint */\n      0x00\n        /* \"contracts/14_modifiers.sol\":784:789  false */\n      0x00\n        /* \"contracts/14_modifiers.sol\":776:789  true == false */\n      iszero\n      iszero\n        /* \"contracts/14_modifiers.sol\":776:780  true */\n      0x01\n        /* \"contracts/14_modifiers.sol\":776:789  true == false */\n      iszero\n      iszero\n      eq\n        /* \"contracts/14_modifiers.sol\":768:809  require(true == false,\"True is not true\") */\n      tag_30\n      jumpi\n      mload(0x40)\n      0x08c379a000000000000000000000000000000000000000000000000000000000\n      dup2\n      mstore\n      0x04\n      add\n      tag_31\n      swap1\n      tag_23\n      jump\t// in\n    tag_31:\n      mload(0x40)\n      dup1\n      swap2\n      sub\n      swap1\n      revert\n    tag_30:\n        /* \"contracts/14_modifiers.sol\":1003:1004  1 */\n      0x01\n        /* \"contracts/14_modifiers.sol\":996:1004  return 1 */\n      swap1\n      pop\n        /* \"contracts/14_modifiers.sol\":939:1012  function f1() public pure isTrue returns(uint){... */\n      swap1\n      jump\t// out\n        /* \"contracts/14_modifiers.sol\":1176:1249  function f4() public pure isTrue returns(uint){... */\n    tag_18:\n        /* \"contracts/14_modifiers.sol\":1217:1221  uint */\n      0x00\n        /* \"contracts/14_modifiers.sol\":784:789  false */\n      0x00\n        /* \"contracts/14_modifiers.sol\":776:789  true == false */\n      iszero\n      iszero\n        /* \"contracts/14_modifiers.sol\":776:780  true */\n      0x01\n        /* \"contracts/14_modifiers.sol\":776:789  true == false */\n      iszero\n      iszero\n      eq\n        /* \"contracts/14_modifiers.sol\":768:809  require(true == false,\"True is not true\") */\n      tag_34\n      jumpi\n      mload(0x40)\n      0x08c379a000000000000000000000000000000000000000000000000000000000\n      dup2\n      mstore\n      0x04\n      add\n      tag_35\n      swap1\n      tag_23\n      jump\t// in\n    tag_35:\n      mload(0x40)\n      dup1\n      swap2\n      sub\n      swap1\n      revert\n    tag_34:\n        /* \"contracts/14_modifiers.sol\":1240:1241  4 */\n      0x04\n        /* \"contracts/14_modifiers.sol\":1233:1241  return 4 */\n      swap1\n      pop\n        /* \"contracts/14_modifiers.sol\":1176:1249  function f4() public pure isTrue returns(uint){... */\n      swap1\n      jump\t// out\n        /* \"#utility.yul\":7:84   */\n    tag_37:\n        /* \"#utility.yul\":44:51   */\n      0x00\n        /* \"#utility.yul\":73:78   */\n      dup2\n        /* \"#utility.yul\":62:78   */\n      swap1\n      pop\n        /* \"#utility.yul\":7:84   */\n      swap2\n      swap1\n      pop\n      jump\t// out\n        /* \"#utility.yul\":90:208   */\n    tag_38:\n        /* \"#utility.yul\":177:201   */\n      tag_45\n        /* \"#utility.yul\":195:200   */\n      dup2\n        /* \"#utility.yul\":177:201   */\n      tag_37\n      jump\t// in\n    tag_45:\n        /* \"#utility.yul\":172:175   */\n      dup3\n        /* \"#utility.yul\":165:202   */\n      mstore\n        /* \"#utility.yul\":90:208   */\n      pop\n      pop\n      jump\t// out\n        /* \"#utility.yul\":214:436   */\n    tag_10:\n        /* \"#utility.yul\":307:311   */\n      0x00\n        /* \"#utility.yul\":345:347   */\n      0x20\n        /* \"#utility.yul\":334:343   */\n      dup3\n        /* \"#utility.yul\":330:348   */\n      add\n        /* \"#utility.yul\":322:348   */\n      swap1\n      pop\n        /* \"#utility.yul\":358:429   */\n      tag_47\n        /* \"#utility.yul\":426:427   */\n      0x00\n        /* \"#utility.yul\":415:424   */\n      dup4\n        /* \"#utility.yul\":411:428   */\n      add\n        /* \"#utility.yul\":402:408   */\n      dup5\n        /* \"#utility.yul\":358:429   */\n      tag_38\n      jump\t// in\n    tag_47:\n        /* \"#utility.yul\":214:436   */\n      swap3\n      swap2\n      pop\n      pop\n      jump\t// out\n        /* \"#utility.yul\":442:611   */\n    tag_39:\n        /* \"#utility.yul\":526:537   */\n      0x00\n        /* \"#utility.yul\":560:566   */\n      dup3\n        /* \"#utility.yul\":555:558   */\n      dup3\n        /* \"#utility.yul\":548:567   */\n      mstore\n        /* \"#utility.yul\":600:604   */\n      0x20\n        /* \"#utility.yul\":595:598   */\n      dup3\n        /* \"#utility.yul\":591:605   */\n      add\n        /* \"#utility.yul\":576:605   */\n      swap1\n      pop\n        /* \"#utility.yul\":442:611   */\n      swap3\n      swap2\n      pop\n      pop\n      jump\t// out\n        /* \"#utility.yul\":617:783   */\n    tag_40:\n        /* \"#utility.yul\":757:775   */\n      0x54727565206973206e6f74207472756500000000000000000000000000000000\n        /* \"#utility.yul\":753:754   */\n      0x00\n        /* \"#utility.yul\":745:751   */\n      dup3\n        /* \"#utility.yul\":741:755   */\n      add\n        /* \"#utility.yul\":734:776   */\n      mstore\n        /* \"#utility.yul\":617:783   */\n      pop\n      jump\t// out\n        /* \"#utility.yul\":789:1155   */\n    tag_41:\n        /* \"#utility.yul\":931:934   */\n      0x00\n        /* \"#utility.yul\":952:1019   */\n      tag_51\n        /* \"#utility.yul\":1016:1018   */\n      0x10\n        /* \"#utility.yul\":1011:1014   */\n      dup4\n        /* \"#utility.yul\":952:1019   */\n      tag_39\n      jump\t// in\n    tag_51:\n        /* \"#utility.yul\":945:1019   */\n      swap2\n      pop\n        /* \"#utility.yul\":1028:1121   */\n      tag_52\n        /* \"#utility.yul\":1117:1120   */\n      dup3\n        /* \"#utility.yul\":1028:1121   */\n      tag_40\n      jump\t// in\n    tag_52:\n        /* \"#utility.yul\":1146:1148   */\n      0x20\n        /* \"#utility.yul\":1141:1144   */\n      dup3\n        /* \"#utility.yul\":1137:1149   */\n      add\n        /* \"#utility.yul\":1130:1149   */\n      swap1\n      pop\n        /* \"#utility.yul\":789:1155   */\n      swap2\n      swap1\n      pop\n      jump\t// out\n        /* \"#utility.yul\":1161:1580   */\n    tag_23:\n        /* \"#utility.yul\":1327:1331   */\n      0x00\n        /* \"#utility.yul\":1365:1367   */\n      0x20\n        /* \"#utility.yul\":1354:1363   */\n      dup3\n        /* \"#utility.yul\":1350:1368   */\n      add\n        /* \"#utility.yul\":1342:1368   */\n      swap1\n      pop\n        /* \"#utility.yul\":1414:1423   */\n      dup2\n        /* \"#utility.yul\":1408:1412   */\n      dup2\n        /* \"#utility.yul\":1404:1424   */\n      sub\n        /* \"#utility.yul\":1400:1401   */\n      0x00\n        /* \"#utility.yul\":1389:1398   */\n      dup4\n        /* \"#utility.yul\":1385:1402   */\n      add\n        /* \"#utility.yul\":1378:1425   */\n      mstore\n        /* \"#utility.yul\":1442:1573   */\n      tag_54\n        /* \"#utility.yul\":1568:1572   */\n      dup2\n        /* \"#utility.yul\":1442:1573   */\n      tag_41\n      jump\t// in\n    tag_54:\n        /* \"#utility.yul\":1434:1573   */\n      swap1\n      pop\n        /* \"#utility.yul\":1161:1580   */\n      swap2\n      swap1\n      pop\n      jump\t// out\n\n    auxdata: 0xa264697066735822122064f9dc94718bc9dbcbd35385b28bcc7a40308abcd608a4ad42313380020537a464736f6c634300081d0033\n}\n",
				"bytecode": {
					"linkReferences": {},
					"object": "6080604052348015600e575f5ffd5b506102e18061001c5f395ff3fe608060405234801561000f575f5ffd5b506004361061004a575f3560e01c80639942ec6f1461004e578063aaf05f3d1461006c578063c27fc3051461008a578063c3f90202146100a8575b5f5ffd5b6100566100c6565b604051610063919061021a565b60405180910390f35b610074610115565b604051610081919061021a565b60405180910390f35b610092610164565b60405161009f919061021a565b60405180910390f35b6100b06101b3565b6040516100bd919061021a565b60405180910390f35b5f5f1515600115151461010e576040517f08c379a00000000000000000000000000000000000000000000000000000000081526004016101059061028d565b60405180910390fd5b6002905090565b5f5f1515600115151461015d576040517f08c379a00000000000000000000000000000000000000000000000000000000081526004016101549061028d565b60405180910390fd5b6003905090565b5f5f151560011515146101ac576040517f08c379a00000000000000000000000000000000000000000000000000000000081526004016101a39061028d565b60405180910390fd5b6001905090565b5f5f151560011515146101fb576040517f08c379a00000000000000000000000000000000000000000000000000000000081526004016101f29061028d565b60405180910390fd5b6004905090565b5f819050919050565b61021481610202565b82525050565b5f60208201905061022d5f83018461020b565b92915050565b5f82825260208201905092915050565b7f54727565206973206e6f742074727565000000000000000000000000000000005f82015250565b5f610277601083610233565b915061028282610243565b602082019050919050565b5f6020820190508181035f8301526102a48161026b565b905091905056fea264697066735822122064f9dc94718bc9dbcbd35385b28bcc7a40308abcd608a4ad42313380020537a464736f6c634300081d0033",
					"opcodes": "PUSH1 0x80 PUSH1 0x40 MSTORE CALLVALUE DUP1 ISZERO PUSH1 0xE JUMPI PUSH0 PUSH0 REVERT JUMPDEST POP PUSH2 0x2E1 DUP1 PUSH2 0x1C PUSH0 CODECOPY PUSH0 RETURN INVALID PUSH1 0x80 PUSH1 0x40 MSTORE CALLVALUE DUP1 ISZERO PUSH2 0xF JUMPI PUSH0 PUSH0 REVERT JUMPDEST POP PUSH1 0x4 CALLDATASIZE LT PUSH2 0x4A JUMPI PUSH0 CALLDATALOAD PUSH1 0xE0 SHR DUP1 PUSH4 0x9942EC6F EQ PUSH2 0x4E JUMPI DUP1 PUSH4 0xAAF05F3D EQ PUSH2 0x6C JUMPI DUP1 PUSH4 0xC27FC305 EQ PUSH2 0x8A JUMPI DUP1 PUSH4 0xC3F90202 EQ PUSH2 0xA8 JUMPI JUMPDEST PUSH0 PUSH0 REVERT JUMPDEST PUSH2 0x56 PUSH2 0xC6 JUMP JUMPDEST PUSH1 0x40 MLOAD PUSH2 0x63 SWAP2 SWAP1 PUSH2 0x21A JUMP JUMPDEST PUSH1 0x40 MLOAD DUP1 SWAP2 SUB SWAP1 RETURN JUMPDEST PUSH2 0x74 PUSH2 0x115 JUMP JUMPDEST PUSH1 0x40 MLOAD PUSH2 0x81 SWAP2 SWAP1 PUSH2 0x21A JUMP JUMPDEST PUSH1 0x40 MLOAD DUP1 SWAP2 SUB SWAP1 RETURN JUMPDEST PUSH2 0x92 PUSH2 0x164 JUMP JUMPDEST PUSH1 0x40 MLOAD PUSH2 0x9F SWAP2 SWAP1 PUSH2 0x21A JUMP JUMPDEST PUSH1 0x40 MLOAD DUP1 SWAP2 SUB SWAP1 RETURN JUMPDEST PUSH2 0xB0 PUSH2 0x1B3 JUMP JUMPDEST PUSH1 0x40 MLOAD PUSH2 0xBD SWAP2 SWAP1 PUSH2 0x21A JUMP JUMPDEST PUSH1 0x40 MLOAD DUP1 SWAP2 SUB SWAP1 RETURN JUMPDEST PUSH0 PUSH0 ISZERO ISZERO PUSH1 0x1 ISZERO ISZERO EQ PUSH2 0x10E JUMPI PUSH1 0x40 MLOAD PUSH32 0x8C379A000000000000000000000000000000000000000000000000000000000 DUP2 MSTORE PUSH1 0x4 ADD PUSH2 0x105 SWAP1 PUSH2 0x28D JUMP JUMPDEST PUSH1 0x40 MLOAD DUP1 SWAP2 SUB SWAP1 REVERT JUMPDEST PUSH1 0x2 SWAP1 POP SWAP1 JUMP JUMPDEST PUSH0 PUSH0 ISZERO ISZERO PUSH1 0x1 ISZERO ISZERO EQ PUSH2 0x15D JUMPI PUSH1 0x40 MLOAD PUSH32 0x8C379A000000000000000000000000000000000000000000000000000000000 DUP2 MSTORE PUSH1 0x4 ADD PUSH2 0x154 SWAP1 PUSH2 0x28D JUMP JUMPDEST PUSH1 0x40 MLOAD DUP1 SWAP2 SUB SWAP1 REVERT JUMPDEST PUSH1 0x3 SWAP1 POP SWAP1 JUMP JUMPDEST PUSH0 PUSH0 ISZERO ISZERO PUSH1 0x1 ISZERO ISZERO EQ PUSH2 0x1AC JUMPI PUSH1 0x40 MLOAD PUSH32 0x8C379A000000000000000000000000000000000000000000000000000000000 DUP2 MSTORE PUSH1 0x4 ADD PUSH2 0x1A3 SWAP1 PUSH2 0x28D JUMP JUMPDEST PUSH1 0x40 MLOAD DUP1 SWAP2 SUB SWAP1 REVERT JUMPDEST PUSH1 0x1 SWAP1 POP SWAP1 JUMP JUMPDEST PUSH0 PUSH0 ISZERO ISZERO PUSH1 0x1 ISZERO ISZERO EQ PUSH2 0x1FB JUMPI PUSH1 0x40 MLOAD PUSH32 0x8C379A000000000000000000000000000000000000000000000000000000000 DUP2 MSTORE PUSH1 0x4 ADD PUSH2 0x1F2 SWAP1 PUSH2 0x28D JUMP JUMPDEST PUSH1 0x40 MLOAD DUP1 SWAP2 SUB SWAP1 REVERT JUMPDEST PUSH1 0x4 SWAP1 POP SWAP1 JUMP JUMPDEST PUSH0 DUP2 SWAP1 POP SWAP2 SWAP1 POP JUMP JUMPDEST PUSH2 0x214 DUP2 PUSH2 0x202 JUMP JUMPDEST DUP3 MSTORE POP POP JUMP JUMPDEST PUSH0 PUSH1 0x20 DUP3 ADD SWAP1 POP PUSH2 0x22D PUSH0 DUP4 ADD DUP5 PUSH2 0x20B JUMP JUMPDEST SWAP3 SWAP2 POP POP JUMP JUMPDEST PUSH0 DUP3 DUP3 MSTORE PUSH1 0x20 DUP3 ADD SWAP1 POP SWAP3 SWAP2 POP POP JUMP JUMPDEST PUSH32 0x54727565206973206E6F74207472756500000000000000000000000000000000 PUSH0 DUP3 ADD MSTORE POP JUMP JUMPDEST PUSH0 PUSH2 0x277 PUSH1 0x10 DUP4 PUSH2 0x233 JUMP JUMPDEST SWAP2 POP PUSH2 0x282 DUP3 PUSH2 0x243 JUMP JUMPDEST PUSH1 0x20 DUP3 ADD SWAP1 POP SWAP2 SWAP1 POP JUMP JUMPDEST PUSH0 PUSH1 0x20 DUP3 ADD SWAP1 POP DUP2 DUP2 SUB PUSH0 DUP4 ADD MSTORE PUSH2 0x2A4 DUP2 PUSH2 0x26B JUMP JUMPDEST SWAP1 POP SWAP2 SWAP1 POP JUMP INVALID LOG2 PUSH5 0x6970667358 0x22 SLT KECCAK256 PUSH5 0xF9DC94718B 0xC9 0xDB 0xCB 0xD3 MSTORE8 DUP6 0xB2 DUP12 0xCC PUSH27 0x40308ABCD608A4AD42313380020537A464736F6C634300081D0033 "
				},
				"gasEstimates": {
					"creation": {
						"codeDepositCost": "147400",
						"executionCost": "194",
						"totalCost": "147594"
					},
					"external": {
						"f1()": "485",
						"f2()": "441",
						"f3()": "463",
						"f4()": "507"
					}
				},
				"methodIdentifiers": {
					"f1()": "c27fc305",
					"f2()": "9942ec6f",
					"f3()": "aaf05f3d",
					"f4()": "c3f90202"
				}
			},
			"storageLayout": {
				"storage": [],
				"types": null
			},
			"userdoc": {
				"kind": "user",
				"methods": {},
				"version": 1
			}
		}
	}
}