{
	"contracts/18_data_Locations.sol": {
		"demo1": {
			"abi": [
				{
					"inputs": [
						{
							"internalType": "uint256",
							"name": "",
							"type": "uint256"
						}
					],
					"name": "arr1",
					"outputs": [
						{
							"internalType": "uint256",
							"name": "",
							"type": "uint256"
						}
					],
					"stateMutability": "view",
					"type": "function"
				},
				{
					"inputs": [
						{
							"internalType": "uint256[]",
							"name": "_arr",
							"type": "uint256[]"
						}
					],
					"name": "insertArr",
					"outputs": [],
					"stateMutability": "nonpayable",
					"type": "function"
				},
				{
					"inputs": [],
					"name": "myarr",
					"outputs": [
						{
							"internalType": "uint256[]",
							"name": "",
							"type": "uint256[]"
						}
					],
					"stateMutability": "view",
					"type": "function"
				}
			],
			"devdoc": {
				"kind": "dev",
				"methods": {},
				"version": 1
			},
			"evm": {
				"assembly": "    /* \"contracts/18_data_Locations.sol\":73:288  contract demo1{... */\n  mstore(0x40, 0x80)\n  callvalue\n  dup1\n  iszero\n  tag_1\n  jumpi\n  revert(0x00, 0x00)\ntag_1:\n  pop\n  dataSize(sub_0)\n  dup1\n  dataOffset(sub_0)\n  0x00\n  codecopy\n  0x00\n  return\nstop\n\nsub_0: assembly {\n        /* \"contracts/18_data_Locations.sol\":73:288  contract demo1{... */\n      mstore(0x40, 0x80)\n      callvalue\n      dup1\n      iszero\n      tag_1\n      jumpi\n      revert(0x00, 0x00)\n    tag_1:\n      pop\n      jumpi(tag_2, lt(calldatasize, 0x04))\n      shr(0xe0, calldataload(0x00))\n      dup1\n      0x44226fe9\n      eq\n      tag_3\n      jumpi\n      dup1\n      0x56aa23f6\n      eq\n      tag_4\n      jumpi\n      dup1\n      0x6987b1fb\n      eq\n      tag_5\n      jumpi\n    tag_2:\n      revert(0x00, 0x00)\n        /* \"contracts/18_data_Locations.sol\":204:285  function myarr() public view returns(uint[] memory){... */\n    tag_3:\n      tag_6\n      tag_7\n      jump\t// in\n    tag_6:\n      mload(0x40)\n      tag_8\n      swap2\n      swap1\n      tag_9\n      jump\t// in\n    tag_8:\n      mload(0x40)\n      dup1\n      swap2\n      sub\n      swap1\n      return\n        /* \"contracts/18_data_Locations.sol\":121:196  function insertArr(uint[] memory _arr) public{... */\n    tag_4:\n      tag_10\n      0x04\n      dup1\n      calldatasize\n      sub\n      dup2\n      add\n      swap1\n      tag_11\n      swap2\n      swap1\n      tag_12\n      jump\t// in\n    tag_11:\n      tag_13\n      jump\t// in\n    tag_10:\n      stop\n        /* \"contracts/18_data_Locations.sol\":94:112  uint[] public arr1 */\n    tag_5:\n      tag_14\n      0x04\n      dup1\n      calldatasize\n      sub\n      dup2\n      add\n      swap1\n      tag_15\n      swap2\n      swap1\n      tag_16\n      jump\t// in\n    tag_15:\n      tag_17\n      jump\t// in\n    tag_14:\n      mload(0x40)\n      tag_18\n      swap2\n      swap1\n      tag_19\n      jump\t// in\n    tag_18:\n      mload(0x40)\n      dup1\n      swap2\n      sub\n      swap1\n      return\n        /* \"contracts/18_data_Locations.sol\":204:285  function myarr() public view returns(uint[] memory){... */\n    tag_7:\n        /* \"contracts/18_data_Locations.sol\":241:254  uint[] memory */\n      0x60\n        /* \"contracts/18_data_Locations.sol\":273:277  arr1 */\n      0x00\n        /* \"contracts/18_data_Locations.sol\":266:277  return arr1 */\n      dup1\n      sload\n      dup1\n      0x20\n      mul\n      0x20\n      add\n      mload(0x40)\n      swap1\n      dup2\n      add\n      0x40\n      mstore\n      dup1\n      swap3\n      swap2\n      swap1\n      dup2\n      dup2\n      mstore\n      0x20\n      add\n      dup3\n      dup1\n      sload\n      dup1\n      iszero\n      tag_21\n      jumpi\n      0x20\n      mul\n      dup3\n      add\n      swap2\n      swap1\n      0x00\n      mstore\n      keccak256(0x00, 0x20)\n      swap1\n    tag_22:\n      dup2\n      sload\n      dup2\n      mstore\n      0x20\n      add\n      swap1\n      0x01\n      add\n      swap1\n      dup1\n      dup4\n      gt\n      tag_22\n      jumpi\n    tag_21:\n      pop\n      pop\n      pop\n      pop\n      pop\n      swap1\n      pop\n        /* \"contracts/18_data_Locations.sol\":204:285  function myarr() public view returns(uint[] memory){... */\n      swap1\n      jump\t// out\n        /* \"contracts/18_data_Locations.sol\":121:196  function insertArr(uint[] memory _arr) public{... */\n    tag_13:\n        /* \"contracts/18_data_Locations.sol\":184:188  _arr */\n      dup1\n        /* \"contracts/18_data_Locations.sol\":177:181  arr1 */\n      0x00\n        /* \"contracts/18_data_Locations.sol\":177:188  arr1 = _arr */\n      swap1\n      dup1\n      mload\n      swap1\n      0x20\n      add\n      swap1\n      tag_24\n      swap3\n      swap2\n      swap1\n      tag_25\n      jump\t// in\n    tag_24:\n      pop\n        /* \"contracts/18_data_Locations.sol\":121:196  function insertArr(uint[] memory _arr) public{... */\n      pop\n      jump\t// out\n        /* \"contracts/18_data_Locations.sol\":94:112  uint[] public arr1 */\n    tag_17:\n      0x00\n      dup2\n      dup2\n      sload\n      dup2\n      lt\n      tag_26\n      jumpi\n      0x00\n      dup1\n      revert\n    tag_26:\n      swap1\n      0x00\n      mstore\n      keccak256(0x00, 0x20)\n      add\n      0x00\n      swap2\n      pop\n      swap1\n      pop\n      sload\n      dup2\n      jump\t// out\n    tag_25:\n      dup3\n      dup1\n      sload\n      dup3\n      dup3\n      sstore\n      swap1\n      0x00\n      mstore\n      keccak256(0x00, 0x20)\n      swap1\n      dup2\n      add\n      swap3\n      dup3\n      iszero\n      tag_28\n      jumpi\n      swap2\n      0x20\n      mul\n      dup3\n      add\n    tag_29:\n      dup3\n      dup2\n      gt\n      iszero\n      tag_30\n      jumpi\n      dup3\n      mload\n      dup3\n      sstore\n      swap2\n      0x20\n      add\n      swap2\n      swap1\n      0x01\n      add\n      swap1\n      jump(tag_29)\n    tag_30:\n    tag_28:\n      pop\n      swap1\n      pop\n      tag_31\n      swap2\n      swap1\n      tag_32\n      jump\t// in\n    tag_31:\n      pop\n      swap1\n      jump\t// out\n    tag_32:\n    tag_33:\n      dup1\n      dup3\n      gt\n      iszero\n      tag_34\n      jumpi\n      0x00\n      dup2\n      0x00\n      swap1\n      sstore\n      pop\n      0x01\n      add\n      jump(tag_33)\n    tag_34:\n      pop\n      swap1\n      jump\t// out\n        /* \"#utility.yul\":7:121   */\n    tag_35:\n        /* \"#utility.yul\":74:80   */\n      0x00\n        /* \"#utility.yul\":108:113   */\n      dup2\n        /* \"#utility.yul\":102:114   */\n      mload\n        /* \"#utility.yul\":92:114   */\n      swap1\n      pop\n        /* \"#utility.yul\":7:121   */\n      swap2\n      swap1\n      pop\n      jump\t// out\n        /* \"#utility.yul\":127:311   */\n    tag_36:\n        /* \"#utility.yul\":226:237   */\n      0x00\n        /* \"#utility.yul\":260:266   */\n      dup3\n        /* \"#utility.yul\":255:258   */\n      dup3\n        /* \"#utility.yul\":248:267   */\n      mstore\n        /* \"#utility.yul\":300:304   */\n      0x20\n        /* \"#utility.yul\":295:298   */\n      dup3\n        /* \"#utility.yul\":291:305   */\n      add\n        /* \"#utility.yul\":276:305   */\n      swap1\n      pop\n        /* \"#utility.yul\":127:311   */\n      swap3\n      swap2\n      pop\n      pop\n      jump\t// out\n        /* \"#utility.yul\":317:449   */\n    tag_37:\n        /* \"#utility.yul\":384:388   */\n      0x00\n        /* \"#utility.yul\":407:410   */\n      dup2\n        /* \"#utility.yul\":399:410   */\n      swap1\n      pop\n        /* \"#utility.yul\":437:441   */\n      0x20\n        /* \"#utility.yul\":432:435   */\n      dup3\n        /* \"#utility.yul\":428:442   */\n      add\n        /* \"#utility.yul\":420:442   */\n      swap1\n      pop\n        /* \"#utility.yul\":317:449   */\n      swap2\n      swap1\n      pop\n      jump\t// out\n        /* \"#utility.yul\":455:532   */\n    tag_38:\n        /* \"#utility.yul\":492:499   */\n      0x00\n        /* \"#utility.yul\":521:526   */\n      dup2\n        /* \"#utility.yul\":510:526   */\n      swap1\n      pop\n        /* \"#utility.yul\":455:532   */\n      swap2\n      swap1\n      pop\n      jump\t// out\n        /* \"#utility.yul\":538:646   */\n    tag_39:\n        /* \"#utility.yul\":615:639   */\n      tag_64\n        /* \"#utility.yul\":633:638   */\n      dup2\n        /* \"#utility.yul\":615:639   */\n      tag_38\n      jump\t// in\n    tag_64:\n        /* \"#utility.yul\":610:613   */\n      dup3\n        /* \"#utility.yul\":603:640   */\n      mstore\n        /* \"#utility.yul\":538:646   */\n      pop\n      pop\n      jump\t// out\n        /* \"#utility.yul\":652:831   */\n    tag_40:\n        /* \"#utility.yul\":721:731   */\n      0x00\n        /* \"#utility.yul\":742:788   */\n      tag_66\n        /* \"#utility.yul\":784:787   */\n      dup4\n        /* \"#utility.yul\":776:782   */\n      dup4\n        /* \"#utility.yul\":742:788   */\n      tag_39\n      jump\t// in\n    tag_66:\n        /* \"#utility.yul\":820:824   */\n      0x20\n        /* \"#utility.yul\":815:818   */\n      dup4\n        /* \"#utility.yul\":811:825   */\n      add\n        /* \"#utility.yul\":797:825   */\n      swap1\n      pop\n        /* \"#utility.yul\":652:831   */\n      swap3\n      swap2\n      pop\n      pop\n      jump\t// out\n        /* \"#utility.yul\":837:950   */\n    tag_41:\n        /* \"#utility.yul\":907:911   */\n      0x00\n        /* \"#utility.yul\":939:943   */\n      0x20\n        /* \"#utility.yul\":934:937   */\n      dup3\n        /* \"#utility.yul\":930:944   */\n      add\n        /* \"#utility.yul\":922:944   */\n      swap1\n      pop\n        /* \"#utility.yul\":837:950   */\n      swap2\n      swap1\n      pop\n      jump\t// out\n        /* \"#utility.yul\":986:1718   */\n    tag_42:\n        /* \"#utility.yul\":1105:1108   */\n      0x00\n        /* \"#utility.yul\":1134:1188   */\n      tag_69\n        /* \"#utility.yul\":1182:1187   */\n      dup3\n        /* \"#utility.yul\":1134:1188   */\n      tag_35\n      jump\t// in\n    tag_69:\n        /* \"#utility.yul\":1204:1290   */\n      tag_70\n        /* \"#utility.yul\":1283:1289   */\n      dup2\n        /* \"#utility.yul\":1278:1281   */\n      dup6\n        /* \"#utility.yul\":1204:1290   */\n      tag_36\n      jump\t// in\n    tag_70:\n        /* \"#utility.yul\":1197:1290   */\n      swap4\n      pop\n        /* \"#utility.yul\":1314:1370   */\n      tag_71\n        /* \"#utility.yul\":1364:1369   */\n      dup4\n        /* \"#utility.yul\":1314:1370   */\n      tag_37\n      jump\t// in\n    tag_71:\n        /* \"#utility.yul\":1393:1400   */\n      dup1\n        /* \"#utility.yul\":1424:1425   */\n      0x00\n        /* \"#utility.yul\":1409:1693   */\n    tag_72:\n        /* \"#utility.yul\":1434:1440   */\n      dup4\n        /* \"#utility.yul\":1431:1432   */\n      dup2\n        /* \"#utility.yul\":1428:1441   */\n      lt\n        /* \"#utility.yul\":1409:1693   */\n      iszero\n      tag_74\n      jumpi\n        /* \"#utility.yul\":1510:1516   */\n      dup2\n        /* \"#utility.yul\":1504:1517   */\n      mload\n        /* \"#utility.yul\":1537:1600   */\n      tag_75\n        /* \"#utility.yul\":1596:1599   */\n      dup9\n        /* \"#utility.yul\":1581:1594   */\n      dup3\n        /* \"#utility.yul\":1537:1600   */\n      tag_40\n      jump\t// in\n    tag_75:\n        /* \"#utility.yul\":1530:1600   */\n      swap8\n      pop\n        /* \"#utility.yul\":1623:1683   */\n      tag_76\n        /* \"#utility.yul\":1676:1682   */\n      dup4\n        /* \"#utility.yul\":1623:1683   */\n      tag_41\n      jump\t// in\n    tag_76:\n        /* \"#utility.yul\":1613:1683   */\n      swap3\n      pop\n        /* \"#utility.yul\":1469:1693   */\n      pop\n        /* \"#utility.yul\":1456:1457   */\n      0x01\n        /* \"#utility.yul\":1453:1454   */\n      dup2\n        /* \"#utility.yul\":1449:1458   */\n      add\n        /* \"#utility.yul\":1444:1458   */\n      swap1\n      pop\n        /* \"#utility.yul\":1409:1693   */\n      jump(tag_72)\n    tag_74:\n        /* \"#utility.yul\":1413:1427   */\n      pop\n        /* \"#utility.yul\":1709:1712   */\n      dup6\n        /* \"#utility.yul\":1702:1712   */\n      swap4\n      pop\n        /* \"#utility.yul\":1110:1718   */\n      pop\n      pop\n      pop\n        /* \"#utility.yul\":986:1718   */\n      swap3\n      swap2\n      pop\n      pop\n      jump\t// out\n        /* \"#utility.yul\":1724:2097   */\n    tag_9:\n        /* \"#utility.yul\":1867:1871   */\n      0x00\n        /* \"#utility.yul\":1905:1907   */\n      0x20\n        /* \"#utility.yul\":1894:1903   */\n      dup3\n        /* \"#utility.yul\":1890:1908   */\n      add\n        /* \"#utility.yul\":1882:1908   */\n      swap1\n      pop\n        /* \"#utility.yul\":1954:1963   */\n      dup2\n        /* \"#utility.yul\":1948:1952   */\n      dup2\n        /* \"#utility.yul\":1944:1964   */\n      sub\n        /* \"#utility.yul\":1940:1941   */\n      0x00\n        /* \"#utility.yul\":1929:1938   */\n      dup4\n        /* \"#utility.yul\":1925:1942   */\n      add\n        /* \"#utility.yul\":1918:1965   */\n      mstore\n        /* \"#utility.yul\":1982:2090   */\n      tag_78\n        /* \"#utility.yul\":2085:2089   */\n      dup2\n        /* \"#utility.yul\":2076:2082   */\n      dup5\n        /* \"#utility.yul\":1982:2090   */\n      tag_42\n      jump\t// in\n    tag_78:\n        /* \"#utility.yul\":1974:2090   */\n      swap1\n      pop\n        /* \"#utility.yul\":1724:2097   */\n      swap3\n      swap2\n      pop\n      pop\n      jump\t// out\n        /* \"#utility.yul\":2103:2178   */\n    tag_43:\n        /* \"#utility.yul\":2136:2142   */\n      0x00\n        /* \"#utility.yul\":2169:2171   */\n      0x40\n        /* \"#utility.yul\":2163:2172   */\n      mload\n        /* \"#utility.yul\":2153:2172   */\n      swap1\n      pop\n        /* \"#utility.yul\":2103:2178   */\n      swap1\n      jump\t// out\n        /* \"#utility.yul\":2184:2301   */\n    tag_44:\n        /* \"#utility.yul\":2293:2294   */\n      0x00\n        /* \"#utility.yul\":2290:2291   */\n      0x00\n        /* \"#utility.yul\":2283:2295   */\n      revert\n        /* \"#utility.yul\":2307:2424   */\n    tag_45:\n        /* \"#utility.yul\":2416:2417   */\n      0x00\n        /* \"#utility.yul\":2413:2414   */\n      0x00\n        /* \"#utility.yul\":2406:2418   */\n      revert\n        /* \"#utility.yul\":2430:2547   */\n    tag_46:\n        /* \"#utility.yul\":2539:2540   */\n      0x00\n        /* \"#utility.yul\":2536:2537   */\n      0x00\n        /* \"#utility.yul\":2529:2541   */\n      revert\n        /* \"#utility.yul\":2553:2655   */\n    tag_47:\n        /* \"#utility.yul\":2594:2600   */\n      0x00\n        /* \"#utility.yul\":2645:2647   */\n      0x1f\n        /* \"#utility.yul\":2641:2648   */\n      not\n        /* \"#utility.yul\":2636:2638   */\n      0x1f\n        /* \"#utility.yul\":2629:2634   */\n      dup4\n        /* \"#utility.yul\":2625:2639   */\n      add\n        /* \"#utility.yul\":2621:2649   */\n      and\n        /* \"#utility.yul\":2611:2649   */\n      swap1\n      pop\n        /* \"#utility.yul\":2553:2655   */\n      swap2\n      swap1\n      pop\n      jump\t// out\n        /* \"#utility.yul\":2661:2841   */\n    tag_48:\n        /* \"#utility.yul\":2709:2786   */\n      0x4e487b7100000000000000000000000000000000000000000000000000000000\n        /* \"#utility.yul\":2706:2707   */\n      0x00\n        /* \"#utility.yul\":2699:2787   */\n      mstore\n        /* \"#utility.yul\":2806:2810   */\n      0x41\n        /* \"#utility.yul\":2803:2804   */\n      0x04\n        /* \"#utility.yul\":2796:2811   */\n      mstore\n        /* \"#utility.yul\":2830:2834   */\n      0x24\n        /* \"#utility.yul\":2827:2828   */\n      0x00\n        /* \"#utility.yul\":2820:2835   */\n      revert\n        /* \"#utility.yul\":2847:3128   */\n    tag_49:\n        /* \"#utility.yul\":2930:2957   */\n      tag_86\n        /* \"#utility.yul\":2952:2956   */\n      dup3\n        /* \"#utility.yul\":2930:2957   */\n      tag_47\n      jump\t// in\n    tag_86:\n        /* \"#utility.yul\":2922:2928   */\n      dup2\n        /* \"#utility.yul\":2918:2958   */\n      add\n        /* \"#utility.yul\":3060:3066   */\n      dup2\n        /* \"#utility.yul\":3048:3058   */\n      dup2\n        /* \"#utility.yul\":3045:3067   */\n      lt\n        /* \"#utility.yul\":3024:3042   */\n      0xffffffffffffffff\n        /* \"#utility.yul\":3012:3022   */\n      dup3\n        /* \"#utility.yul\":3009:3043   */\n      gt\n        /* \"#utility.yul\":3006:3068   */\n      or\n        /* \"#utility.yul\":3003:3091   */\n      iszero\n      tag_87\n      jumpi\n        /* \"#utility.yul\":3071:3089   */\n      tag_88\n      tag_48\n      jump\t// in\n    tag_88:\n        /* \"#utility.yul\":3003:3091   */\n    tag_87:\n        /* \"#utility.yul\":3111:3121   */\n      dup1\n        /* \"#utility.yul\":3107:3109   */\n      0x40\n        /* \"#utility.yul\":3100:3122   */\n      mstore\n        /* \"#utility.yul\":2890:3128   */\n      pop\n        /* \"#utility.yul\":2847:3128   */\n      pop\n      pop\n      jump\t// out\n        /* \"#utility.yul\":3134:3263   */\n    tag_50:\n        /* \"#utility.yul\":3168:3174   */\n      0x00\n        /* \"#utility.yul\":3195:3215   */\n      tag_90\n      tag_43\n      jump\t// in\n    tag_90:\n        /* \"#utility.yul\":3185:3215   */\n      swap1\n      pop\n        /* \"#utility.yul\":3224:3257   */\n      tag_91\n        /* \"#utility.yul\":3252:3256   */\n      dup3\n        /* \"#utility.yul\":3244:3250   */\n      dup3\n        /* \"#utility.yul\":3224:3257   */\n      tag_49\n      jump\t// in\n    tag_91:\n        /* \"#utility.yul\":3134:3263   */\n      swap2\n      swap1\n      pop\n      jump\t// out\n        /* \"#utility.yul\":3269:3580   */\n    tag_51:\n        /* \"#utility.yul\":3346:3350   */\n      0x00\n        /* \"#utility.yul\":3436:3454   */\n      0xffffffffffffffff\n        /* \"#utility.yul\":3428:3434   */\n      dup3\n        /* \"#utility.yul\":3425:3455   */\n      gt\n        /* \"#utility.yul\":3422:3478   */\n      iszero\n      tag_93\n      jumpi\n        /* \"#utility.yul\":3458:3476   */\n      tag_94\n      tag_48\n      jump\t// in\n    tag_94:\n        /* \"#utility.yul\":3422:3478   */\n    tag_93:\n        /* \"#utility.yul\":3508:3512   */\n      0x20\n        /* \"#utility.yul\":3500:3506   */\n      dup3\n        /* \"#utility.yul\":3496:3513   */\n      mul\n        /* \"#utility.yul\":3488:3513   */\n      swap1\n      pop\n        /* \"#utility.yul\":3568:3572   */\n      0x20\n        /* \"#utility.yul\":3562:3566   */\n      dup2\n        /* \"#utility.yul\":3558:3573   */\n      add\n        /* \"#utility.yul\":3550:3573   */\n      swap1\n      pop\n        /* \"#utility.yul\":3269:3580   */\n      swap2\n      swap1\n      pop\n      jump\t// out\n        /* \"#utility.yul\":3586:3703   */\n    tag_52:\n        /* \"#utility.yul\":3695:3696   */\n      0x00\n        /* \"#utility.yul\":3692:3693   */\n      0x00\n        /* \"#utility.yul\":3685:3697   */\n      revert\n        /* \"#utility.yul\":3709:3831   */\n    tag_53:\n        /* \"#utility.yul\":3782:3806   */\n      tag_97\n        /* \"#utility.yul\":3800:3805   */\n      dup2\n        /* \"#utility.yul\":3782:3806   */\n      tag_38\n      jump\t// in\n    tag_97:\n        /* \"#utility.yul\":3775:3780   */\n      dup2\n        /* \"#utility.yul\":3772:3807   */\n      eq\n        /* \"#utility.yul\":3762:3825   */\n      tag_98\n      jumpi\n        /* \"#utility.yul\":3821:3822   */\n      0x00\n        /* \"#utility.yul\":3818:3819   */\n      0x00\n        /* \"#utility.yul\":3811:3823   */\n      revert\n        /* \"#utility.yul\":3762:3825   */\n    tag_98:\n        /* \"#utility.yul\":3709:3831   */\n      pop\n      jump\t// out\n        /* \"#utility.yul\":3837:3976   */\n    tag_54:\n        /* \"#utility.yul\":3883:3888   */\n      0x00\n        /* \"#utility.yul\":3921:3927   */\n      dup2\n        /* \"#utility.yul\":3908:3928   */\n      calldataload\n        /* \"#utility.yul\":3899:3928   */\n      swap1\n      pop\n        /* \"#utility.yul\":3937:3970   */\n      tag_100\n        /* \"#utility.yul\":3964:3969   */\n      dup2\n        /* \"#utility.yul\":3937:3970   */\n      tag_53\n      jump\t// in\n    tag_100:\n        /* \"#utility.yul\":3837:3976   */\n      swap3\n      swap2\n      pop\n      pop\n      jump\t// out\n        /* \"#utility.yul\":3999:4709   */\n    tag_55:\n        /* \"#utility.yul\":4095:4100   */\n      0x00\n        /* \"#utility.yul\":4120:4201   */\n      tag_102\n        /* \"#utility.yul\":4136:4200   */\n      tag_103\n        /* \"#utility.yul\":4193:4199   */\n      dup5\n        /* \"#utility.yul\":4136:4200   */\n      tag_51\n      jump\t// in\n    tag_103:\n        /* \"#utility.yul\":4120:4201   */\n      tag_50\n      jump\t// in\n    tag_102:\n        /* \"#utility.yul\":4111:4201   */\n      swap1\n      pop\n        /* \"#utility.yul\":4221:4226   */\n      dup1\n        /* \"#utility.yul\":4250:4256   */\n      dup4\n        /* \"#utility.yul\":4243:4248   */\n      dup3\n        /* \"#utility.yul\":4236:4257   */\n      mstore\n        /* \"#utility.yul\":4284:4288   */\n      0x20\n        /* \"#utility.yul\":4277:4282   */\n      dup3\n        /* \"#utility.yul\":4273:4289   */\n      add\n        /* \"#utility.yul\":4266:4289   */\n      swap1\n      pop\n        /* \"#utility.yul\":4337:4341   */\n      0x20\n        /* \"#utility.yul\":4329:4335   */\n      dup5\n        /* \"#utility.yul\":4325:4342   */\n      mul\n        /* \"#utility.yul\":4317:4323   */\n      dup4\n        /* \"#utility.yul\":4313:4343   */\n      add\n        /* \"#utility.yul\":4366:4369   */\n      dup6\n        /* \"#utility.yul\":4358:4364   */\n      dup2\n        /* \"#utility.yul\":4355:4370   */\n      gt\n        /* \"#utility.yul\":4352:4474   */\n      iszero\n      tag_104\n      jumpi\n        /* \"#utility.yul\":4385:4464   */\n      tag_105\n      tag_52\n      jump\t// in\n    tag_105:\n        /* \"#utility.yul\":4352:4474   */\n    tag_104:\n        /* \"#utility.yul\":4500:4506   */\n      dup4\n        /* \"#utility.yul\":4483:4703   */\n    tag_106:\n        /* \"#utility.yul\":4517:4523   */\n      dup2\n        /* \"#utility.yul\":4512:4515   */\n      dup2\n        /* \"#utility.yul\":4509:4524   */\n      lt\n        /* \"#utility.yul\":4483:4703   */\n      iszero\n      tag_108\n      jumpi\n        /* \"#utility.yul\":4592:4595   */\n      dup1\n        /* \"#utility.yul\":4621:4658   */\n      tag_109\n        /* \"#utility.yul\":4654:4657   */\n      dup9\n        /* \"#utility.yul\":4642:4652   */\n      dup3\n        /* \"#utility.yul\":4621:4658   */\n      tag_54\n      jump\t// in\n    tag_109:\n        /* \"#utility.yul\":4616:4619   */\n      dup5\n        /* \"#utility.yul\":4609:4659   */\n      mstore\n        /* \"#utility.yul\":4688:4692   */\n      0x20\n        /* \"#utility.yul\":4683:4686   */\n      dup5\n        /* \"#utility.yul\":4679:4693   */\n      add\n        /* \"#utility.yul\":4672:4693   */\n      swap4\n      pop\n        /* \"#utility.yul\":4559:4703   */\n      pop\n        /* \"#utility.yul\":4543:4547   */\n      0x20\n        /* \"#utility.yul\":4538:4541   */\n      dup2\n        /* \"#utility.yul\":4534:4548   */\n      add\n        /* \"#utility.yul\":4527:4548   */\n      swap1\n      pop\n        /* \"#utility.yul\":4483:4703   */\n      jump(tag_106)\n    tag_108:\n        /* \"#utility.yul\":4487:4508   */\n      pop\n        /* \"#utility.yul\":4101:4709   */\n      pop\n      pop\n        /* \"#utility.yul\":3999:4709   */\n      swap4\n      swap3\n      pop\n      pop\n      pop\n      jump\t// out\n        /* \"#utility.yul\":4732:5102   */\n    tag_56:\n        /* \"#utility.yul\":4803:4808   */\n      0x00\n        /* \"#utility.yul\":4852:4855   */\n      dup3\n        /* \"#utility.yul\":4845:4849   */\n      0x1f\n        /* \"#utility.yul\":4837:4843   */\n      dup4\n        /* \"#utility.yul\":4833:4850   */\n      add\n        /* \"#utility.yul\":4829:4856   */\n      slt\n        /* \"#utility.yul\":4819:4941   */\n      tag_111\n      jumpi\n        /* \"#utility.yul\":4860:4939   */\n      tag_112\n      tag_46\n      jump\t// in\n    tag_112:\n        /* \"#utility.yul\":4819:4941   */\n    tag_111:\n        /* \"#utility.yul\":4977:4983   */\n      dup2\n        /* \"#utility.yul\":4964:4984   */\n      calldataload\n        /* \"#utility.yul\":5002:5096   */\n      tag_113\n        /* \"#utility.yul\":5092:5095   */\n      dup5\n        /* \"#utility.yul\":5084:5090   */\n      dup3\n        /* \"#utility.yul\":5077:5081   */\n      0x20\n        /* \"#utility.yul\":5069:5075   */\n      dup7\n        /* \"#utility.yul\":5065:5082   */\n      add\n        /* \"#utility.yul\":5002:5096   */\n      tag_55\n      jump\t// in\n    tag_113:\n        /* \"#utility.yul\":4993:5096   */\n      swap2\n      pop\n        /* \"#utility.yul\":4809:5102   */\n      pop\n        /* \"#utility.yul\":4732:5102   */\n      swap3\n      swap2\n      pop\n      pop\n      jump\t// out\n        /* \"#utility.yul\":5108:5647   */\n    tag_12:\n        /* \"#utility.yul\":5192:5198   */\n      0x00\n        /* \"#utility.yul\":5241:5243   */\n      0x20\n        /* \"#utility.yul\":5229:5238   */\n      dup3\n        /* \"#utility.yul\":5220:5227   */\n      dup5\n        /* \"#utility.yul\":5216:5239   */\n      sub\n        /* \"#utility.yul\":5212:5244   */\n      slt\n        /* \"#utility.yul\":5209:5328   */\n      iszero\n      tag_115\n      jumpi\n        /* \"#utility.yul\":5247:5326   */\n      tag_116\n      tag_44\n      jump\t// in\n    tag_116:\n        /* \"#utility.yul\":5209:5328   */\n    tag_115:\n        /* \"#utility.yul\":5395:5396   */\n      0x00\n        /* \"#utility.yul\":5384:5393   */\n      dup3\n        /* \"#utility.yul\":5380:5397   */\n      add\n        /* \"#utility.yul\":5367:5398   */\n      calldataload\n        /* \"#utility.yul\":5425:5443   */\n      0xffffffffffffffff\n        /* \"#utility.yul\":5417:5423   */\n      dup2\n        /* \"#utility.yul\":5414:5444   */\n      gt\n        /* \"#utility.yul\":5411:5528   */\n      iszero\n      tag_117\n      jumpi\n        /* \"#utility.yul\":5447:5526   */\n      tag_118\n      tag_45\n      jump\t// in\n    tag_118:\n        /* \"#utility.yul\":5411:5528   */\n    tag_117:\n        /* \"#utility.yul\":5552:5630   */\n      tag_119\n        /* \"#utility.yul\":5622:5629   */\n      dup5\n        /* \"#utility.yul\":5613:5619   */\n      dup3\n        /* \"#utility.yul\":5602:5611   */\n      dup6\n        /* \"#utility.yul\":5598:5620   */\n      add\n        /* \"#utility.yul\":5552:5630   */\n      tag_56\n      jump\t// in\n    tag_119:\n        /* \"#utility.yul\":5542:5630   */\n      swap2\n      pop\n        /* \"#utility.yul\":5338:5640   */\n      pop\n        /* \"#utility.yul\":5108:5647   */\n      swap3\n      swap2\n      pop\n      pop\n      jump\t// out\n        /* \"#utility.yul\":5653:5982   */\n    tag_16:\n        /* \"#utility.yul\":5712:5718   */\n      0x00\n        /* \"#utility.yul\":5761:5763   */\n      0x20\n        /* \"#utility.yul\":5749:5758   */\n      dup3\n        /* \"#utility.yul\":5740:5747   */\n      dup5\n        /* \"#utility.yul\":5736:5759   */\n      sub\n        /* \"#utility.yul\":5732:5764   */\n      slt\n        /* \"#utility.yul\":5729:5848   */\n      iszero\n      tag_121\n      jumpi\n        /* \"#utility.yul\":5767:5846   */\n      tag_122\n      tag_44\n      jump\t// in\n    tag_122:\n        /* \"#utility.yul\":5729:5848   */\n    tag_121:\n        /* \"#utility.yul\":5887:5888   */\n      0x00\n        /* \"#utility.yul\":5912:5965   */\n      tag_123\n        /* \"#utility.yul\":5957:5964   */\n      dup5\n        /* \"#utility.yul\":5948:5954   */\n      dup3\n        /* \"#utility.yul\":5937:5946   */\n      dup6\n        /* \"#utility.yul\":5933:5955   */\n      add\n        /* \"#utility.yul\":5912:5965   */\n      tag_54\n      jump\t// in\n    tag_123:\n        /* \"#utility.yul\":5902:5965   */\n      swap2\n      pop\n        /* \"#utility.yul\":5858:5975   */\n      pop\n        /* \"#utility.yul\":5653:5982   */\n      swap3\n      swap2\n      pop\n      pop\n      jump\t// out\n        /* \"#utility.yul\":5988:6106   */\n    tag_57:\n        /* \"#utility.yul\":6075:6099   */\n      tag_125\n        /* \"#utility.yul\":6093:6098   */\n      dup2\n        /* \"#utility.yul\":6075:6099   */\n      tag_38\n      jump\t// in\n    tag_125:\n        /* \"#utility.yul\":6070:6073   */\n      dup3\n        /* \"#utility.yul\":6063:6100   */\n      mstore\n        /* \"#utility.yul\":5988:6106   */\n      pop\n      pop\n      jump\t// out\n        /* \"#utility.yul\":6112:6334   */\n    tag_19:\n        /* \"#utility.yul\":6205:6209   */\n      0x00\n        /* \"#utility.yul\":6243:6245   */\n      0x20\n        /* \"#utility.yul\":6232:6241   */\n      dup3\n        /* \"#utility.yul\":6228:6246   */\n      add\n        /* \"#utility.yul\":6220:6246   */\n      swap1\n      pop\n        /* \"#utility.yul\":6256:6327   */\n      tag_127\n        /* \"#utility.yul\":6324:6325   */\n      0x00\n        /* \"#utility.yul\":6313:6322   */\n      dup4\n        /* \"#utility.yul\":6309:6326   */\n      add\n        /* \"#utility.yul\":6300:6306   */\n      dup5\n        /* \"#utility.yul\":6256:6327   */\n      tag_57\n      jump\t// in\n    tag_127:\n        /* \"#utility.yul\":6112:6334   */\n      swap3\n      swap2\n      pop\n      pop\n      jump\t// out\n\n    auxdata: 0xa2646970667358221220557a25e72acd8710fb82a6197f7137a20e022950f9d1698432446dfbcae564a564736f6c634300081d0033\n}\n",
				"bytecode": {
					"linkReferences": {},
					"object": "6080604052348015600e575f5ffd5b506104db8061001c5f395ff3fe608060405234801561000f575f5ffd5b506004361061003f575f3560e01c806344226fe91461004357806356aa23f6146100615780636987b1fb1461007d575b5f5ffd5b61004b6100ad565b6040516100589190610260565b60405180910390f35b61007b6004803603810190610076919061040b565b610102565b005b61009760048036038101906100929190610452565b61011b565b6040516100a4919061048c565b60405180910390f35b60605f8054806020026020016040519081016040528092919081815260200182805480156100f857602002820191905f5260205f20905b8154815260200190600101908083116100e4575b5050505050905090565b805f908051906020019061011792919061013a565b5050565b5f8181548110610129575f80fd5b905f5260205f20015f915090505481565b828054828255905f5260205f20908101928215610174579160200282015b82811115610173578251825591602001919060010190610158565b5b5090506101819190610185565b5090565b5b8082111561019c575f815f905550600101610186565b5090565b5f81519050919050565b5f82825260208201905092915050565b5f819050602082019050919050565b5f819050919050565b6101db816101c9565b82525050565b5f6101ec83836101d2565b60208301905092915050565b5f602082019050919050565b5f61020e826101a0565b61021881856101aa565b9350610223836101ba565b805f5b8381101561025357815161023a88826101e1565b9750610245836101f8565b925050600181019050610226565b5085935050505092915050565b5f6020820190508181035f8301526102788184610204565b905092915050565b5f604051905090565b5f5ffd5b5f5ffd5b5f5ffd5b5f601f19601f8301169050919050565b7f4e487b71000000000000000000000000000000000000000000000000000000005f52604160045260245ffd5b6102db82610295565b810181811067ffffffffffffffff821117156102fa576102f96102a5565b5b80604052505050565b5f61030c610280565b905061031882826102d2565b919050565b5f67ffffffffffffffff821115610337576103366102a5565b5b602082029050602081019050919050565b5f5ffd5b610355816101c9565b811461035f575f5ffd5b50565b5f813590506103708161034c565b92915050565b5f6103886103838461031d565b610303565b905080838252602082019050602084028301858111156103ab576103aa610348565b5b835b818110156103d457806103c08882610362565b8452602084019350506020810190506103ad565b5050509392505050565b5f82601f8301126103f2576103f1610291565b5b8135610402848260208601610376565b91505092915050565b5f602082840312156104205761041f610289565b5b5f82013567ffffffffffffffff81111561043d5761043c61028d565b5b610449848285016103de565b91505092915050565b5f6020828403121561046757610466610289565b5b5f61047484828501610362565b91505092915050565b610486816101c9565b82525050565b5f60208201905061049f5f83018461047d565b9291505056fea2646970667358221220557a25e72acd8710fb82a6197f7137a20e022950f9d1698432446dfbcae564a564736f6c634300081d0033",
					"opcodes": "PUSH1 0x80 PUSH1 0x40 MSTORE CALLVALUE DUP1 ISZERO PUSH1 0xE JUMPI PUSH0 PUSH0 REVERT JUMPDEST POP PUSH2 0x4DB DUP1 PUSH2 0x1C PUSH0 CODECOPY PUSH0 RETURN INVALID PUSH1 0x80 PUSH1 0x40 MSTORE CALLVALUE DUP1 ISZERO PUSH2 0xF JUMPI PUSH0 PUSH0 REVERT JUMPDEST POP PUSH1 0x4 CALLDATASIZE LT PUSH2 0x3F JUMPI PUSH0 CALLDATALOAD PUSH1 0xE0 SHR DUP1 PUSH4 0x44226FE9 EQ PUSH2 0x43 JUMPI DUP1 PUSH4 0x56AA23F6 EQ PUSH2 0x61 JUMPI DUP1 PUSH4 0x6987B1FB EQ PUSH2 0x7D JUMPI JUMPDEST PUSH0 PUSH0 REVERT JUMPDEST PUSH2 0x4B PUSH2 0xAD JUMP JUMPDEST PUSH1 0x40 MLOAD PUSH2 0x58 SWAP2 SWAP1 PUSH2 0x260 JUMP JUMPDEST PUSH1 0x40 MLOAD DUP1 SWAP2 SUB SWAP1 RETURN JUMPDEST PUSH2 0x7B PUSH1 0x4 DUP1 CALLDATASIZE SUB DUP2 ADD SWAP1 PUSH2 0x76 SWAP2 SWAP1 PUSH2 0x40B JUMP JUMPDEST PUSH2 0x102 JUMP JUMPDEST STOP JUMPDEST PUSH2 0x97 PUSH1 0x4 DUP1 CALLDATASIZE SUB DUP2 ADD SWAP1 PUSH2 0x92 SWAP2 SWAP1 PUSH2 0x452 JUMP JUMPDEST PUSH2 0x11B JUMP JUMPDEST PUSH1 0x40 MLOAD PUSH2 0xA4 SWAP2 SWAP1 PUSH2 0x48C JUMP JUMPDEST PUSH1 0x40 MLOAD DUP1 SWAP2 SUB SWAP1 RETURN JUMPDEST PUSH1 0x60 PUSH0 DUP1 SLOAD DUP1 PUSH1 0x20 MUL PUSH1 0x20 ADD PUSH1 0x40 MLOAD SWAP1 DUP2 ADD PUSH1 0x40 MSTORE DUP1 SWAP3 SWAP2 SWAP1 DUP2 DUP2 MSTORE PUSH1 0x20 ADD DUP3 DUP1 SLOAD DUP1 ISZERO PUSH2 0xF8 JUMPI PUSH1 0x20 MUL DUP3 ADD SWAP2 SWAP1 PUSH0 MSTORE PUSH1 0x20 PUSH0 KECCAK256 SWAP1 JUMPDEST DUP2 SLOAD DUP2 MSTORE PUSH1 0x20 ADD SWAP1 PUSH1 0x1 ADD SWAP1 DUP1 DUP4 GT PUSH2 0xE4 JUMPI JUMPDEST POP POP POP POP POP SWAP1 POP SWAP1 JUMP JUMPDEST DUP1 PUSH0 SWAP1 DUP1 MLOAD SWAP1 PUSH1 0x20 ADD SWAP1 PUSH2 0x117 SWAP3 SWAP2 SWAP1 PUSH2 0x13A JUMP JUMPDEST POP POP JUMP JUMPDEST PUSH0 DUP2 DUP2 SLOAD DUP2 LT PUSH2 0x129 JUMPI PUSH0 DUP1 REVERT JUMPDEST SWAP1 PUSH0 MSTORE PUSH1 0x20 PUSH0 KECCAK256 ADD PUSH0 SWAP2 POP SWAP1 POP SLOAD DUP2 JUMP JUMPDEST DUP3 DUP1 SLOAD DUP3 DUP3 SSTORE SWAP1 PUSH0 MSTORE PUSH1 0x20 PUSH0 KECCAK256 SWAP1 DUP2 ADD SWAP3 DUP3 ISZERO PUSH2 0x174 JUMPI SWAP2 PUSH1 0x20 MUL DUP3 ADD JUMPDEST DUP3 DUP2 GT ISZERO PUSH2 0x173 JUMPI DUP3 MLOAD DUP3 SSTORE SWAP2 PUSH1 0x20 ADD SWAP2 SWAP1 PUSH1 0x1 ADD SWAP1 PUSH2 0x158 JUMP JUMPDEST JUMPDEST POP SWAP1 POP PUSH2 0x181 SWAP2 SWAP1 PUSH2 0x185 JUMP JUMPDEST POP SWAP1 JUMP JUMPDEST JUMPDEST DUP1 DUP3 GT ISZERO PUSH2 0x19C JUMPI PUSH0 DUP2 PUSH0 SWAP1 SSTORE POP PUSH1 0x1 ADD PUSH2 0x186 JUMP JUMPDEST POP SWAP1 JUMP JUMPDEST PUSH0 DUP2 MLOAD SWAP1 POP SWAP2 SWAP1 POP JUMP JUMPDEST PUSH0 DUP3 DUP3 MSTORE PUSH1 0x20 DUP3 ADD SWAP1 POP SWAP3 SWAP2 POP POP JUMP JUMPDEST PUSH0 DUP2 SWAP1 POP PUSH1 0x20 DUP3 ADD SWAP1 POP SWAP2 SWAP1 POP JUMP JUMPDEST PUSH0 DUP2 SWAP1 POP SWAP2 SWAP1 POP JUMP JUMPDEST PUSH2 0x1DB DUP2 PUSH2 0x1C9 JUMP JUMPDEST DUP3 MSTORE POP POP JUMP JUMPDEST PUSH0 PUSH2 0x1EC DUP4 DUP4 PUSH2 0x1D2 JUMP JUMPDEST PUSH1 0x20 DUP4 ADD SWAP1 POP SWAP3 SWAP2 POP POP JUMP JUMPDEST PUSH0 PUSH1 0x20 DUP3 ADD SWAP1 POP SWAP2 SWAP1 POP JUMP JUMPDEST PUSH0 PUSH2 0x20E DUP3 PUSH2 0x1A0 JUMP JUMPDEST PUSH2 0x218 DUP2 DUP6 PUSH2 0x1AA JUMP JUMPDEST SWAP4 POP PUSH2 0x223 DUP4 PUSH2 0x1BA JUMP JUMPDEST DUP1 PUSH0 JUMPDEST DUP4 DUP2 LT ISZERO PUSH2 0x253 JUMPI DUP2 MLOAD PUSH2 0x23A DUP9 DUP3 PUSH2 0x1E1 JUMP JUMPDEST SWAP8 POP PUSH2 0x245 DUP4 PUSH2 0x1F8 JUMP JUMPDEST SWAP3 POP POP PUSH1 0x1 DUP2 ADD SWAP1 POP PUSH2 0x226 JUMP JUMPDEST POP DUP6 SWAP4 POP POP POP POP SWAP3 SWAP2 POP POP JUMP JUMPDEST PUSH0 PUSH1 0x20 DUP3 ADD SWAP1 POP DUP2 DUP2 SUB PUSH0 DUP4 ADD MSTORE PUSH2 0x278 DUP2 DUP5 PUSH2 0x204 JUMP JUMPDEST SWAP1 POP SWAP3 SWAP2 POP POP JUMP JUMPDEST PUSH0 PUSH1 0x40 MLOAD SWAP1 POP SWAP1 JUMP JUMPDEST PUSH0 PUSH0 REVERT JUMPDEST PUSH0 PUSH0 REVERT JUMPDEST PUSH0 PUSH0 REVERT JUMPDEST PUSH0 PUSH1 0x1F NOT PUSH1 0x1F DUP4 ADD AND SWAP1 POP SWAP2 SWAP1 POP JUMP JUMPDEST PUSH32 0x4E487B7100000000000000000000000000000000000000000000000000000000 PUSH0 MSTORE PUSH1 0x41 PUSH1 0x4 MSTORE PUSH1 0x24 PUSH0 REVERT JUMPDEST PUSH2 0x2DB DUP3 PUSH2 0x295 JUMP JUMPDEST DUP2 ADD DUP2 DUP2 LT PUSH8 0xFFFFFFFFFFFFFFFF DUP3 GT OR ISZERO PUSH2 0x2FA JUMPI PUSH2 0x2F9 PUSH2 0x2A5 JUMP JUMPDEST JUMPDEST DUP1 PUSH1 0x40 MSTORE POP POP POP JUMP JUMPDEST PUSH0 PUSH2 0x30C PUSH2 0x280 JUMP JUMPDEST SWAP1 POP PUSH2 0x318 DUP3 DUP3 PUSH2 0x2D2 JUMP JUMPDEST SWAP2 SWAP1 POP JUMP JUMPDEST PUSH0 PUSH8 0xFFFFFFFFFFFFFFFF DUP3 GT ISZERO PUSH2 0x337 JUMPI PUSH2 0x336 PUSH2 0x2A5 JUMP JUMPDEST JUMPDEST PUSH1 0x20 DUP3 MUL SWAP1 POP PUSH1 0x20 DUP2 ADD SWAP1 POP SWAP2 SWAP1 POP JUMP JUMPDEST PUSH0 PUSH0 REVERT JUMPDEST PUSH2 0x355 DUP2 PUSH2 0x1C9 JUMP JUMPDEST DUP2 EQ PUSH2 0x35F JUMPI PUSH0 PUSH0 REVERT JUMPDEST POP JUMP JUMPDEST PUSH0 DUP2 CALLDATALOAD SWAP1 POP PUSH2 0x370 DUP2 PUSH2 0x34C JUMP JUMPDEST SWAP3 SWAP2 POP POP JUMP JUMPDEST PUSH0 PUSH2 0x388 PUSH2 0x383 DUP5 PUSH2 0x31D JUMP JUMPDEST PUSH2 0x303 JUMP JUMPDEST SWAP1 POP DUP1 DUP4 DUP3 MSTORE PUSH1 0x20 DUP3 ADD SWAP1 POP PUSH1 0x20 DUP5 MUL DUP4 ADD DUP6 DUP2 GT ISZERO PUSH2 0x3AB JUMPI PUSH2 0x3AA PUSH2 0x348 JUMP JUMPDEST JUMPDEST DUP4 JUMPDEST DUP2 DUP2 LT ISZERO PUSH2 0x3D4 JUMPI DUP1 PUSH2 0x3C0 DUP9 DUP3 PUSH2 0x362 JUMP JUMPDEST DUP5 MSTORE PUSH1 0x20 DUP5 ADD SWAP4 POP POP PUSH1 0x20 DUP2 ADD SWAP1 POP PUSH2 0x3AD JUMP JUMPDEST POP POP POP SWAP4 SWAP3 POP POP POP JUMP JUMPDEST PUSH0 DUP3 PUSH1 0x1F DUP4 ADD SLT PUSH2 0x3F2 JUMPI PUSH2 0x3F1 PUSH2 0x291 JUMP JUMPDEST JUMPDEST DUP2 CALLDATALOAD PUSH2 0x402 DUP5 DUP3 PUSH1 0x20 DUP7 ADD PUSH2 0x376 JUMP JUMPDEST SWAP2 POP POP SWAP3 SWAP2 POP POP JUMP JUMPDEST PUSH0 PUSH1 0x20 DUP3 DUP5 SUB SLT ISZERO PUSH2 0x420 JUMPI PUSH2 0x41F PUSH2 0x289 JUMP JUMPDEST JUMPDEST PUSH0 DUP3 ADD CALLDATALOAD PUSH8 0xFFFFFFFFFFFFFFFF DUP2 GT ISZERO PUSH2 0x43D JUMPI PUSH2 0x43C PUSH2 0x28D JUMP JUMPDEST JUMPDEST PUSH2 0x449 DUP5 DUP3 DUP6 ADD PUSH2 0x3DE JUMP JUMPDEST SWAP2 POP POP SWAP3 SWAP2 POP POP JUMP JUMPDEST PUSH0 PUSH1 0x20 DUP3 DUP5 SUB SLT ISZERO PUSH2 0x467 JUMPI PUSH2 0x466 PUSH2 0x289 JUMP JUMPDEST JUMPDEST PUSH0 PUSH2 0x474 DUP5 DUP3 DUP6 ADD PUSH2 0x362 JUMP JUMPDEST SWAP2 POP POP SWAP3 SWAP2 POP POP JUMP JUMPDEST PUSH2 0x486 DUP2 PUSH2 0x1C9 JUMP JUMPDEST DUP3 MSTORE POP POP JUMP JUMPDEST PUSH0 PUSH1 0x20 DUP3 ADD SWAP1 POP PUSH2 0x49F PUSH0 DUP4 ADD DUP5 PUSH2 0x47D JUMP JUMPDEST SWAP3 SWAP2 POP POP JUMP INVALID LOG2 PUSH5 0x6970667358 0x22 SLT KECCAK256 SSTORE PUSH27 0x25E72ACD8710FB82A6197F7137A20E022950F9D1698432446DFBCA JUMPF 0x64A5 PUSH5 0x736F6C6343 STOP ADDMOD SAR STOP CALLER "
				},
				"gasEstimates": {
					"creation": {
						"codeDepositCost": "248600",
						"executionCost": "285",
						"totalCost": "248885"
					},
					"external": {
						"arr1(uint256)": "infinite",
						"insertArr(uint256[])": "infinite",
						"myarr()": "infinite"
					}
				},
				"methodIdentifiers": {
					"arr1(uint256)": "6987b1fb",
					"insertArr(uint256[])": "56aa23f6",
					"myarr()": "44226fe9"
				}
			},
			"storageLayout": {
				"storage": [
					{
						"astId": 4,
						"contract": "contracts/18_data_Locations.sol:demo1",
						"label": "arr1",
						"offset": 0,
						"slot": "0",
						"type": "t_array(t_uint256)dyn_storage"
					}
				],
				"types": {
					"t_array(t_uint256)dyn_storage": {
						"base": "t_uint256",
						"encoding": "dynamic_array",
						"label": "uint256[]",
						"numberOfBytes": "32"
					},
					"t_uint256": {
						"encoding": "inplace",
						"label": "uint256",
						"numberOfBytes": "32"
					}
				}
			},
			"userdoc": {
				"kind": "user",
				"methods": {},
				"version": 1
			}
		}
	}
}