{
	"contracts/ALU12.sol": {
		"A": {
			"abi": [
				{
					"inputs": [
						{
							"internalType": "contract B",
							"name": "b",
							"type": "address"
						}
					],
					"name": "storeSum",
					"outputs": [],
					"stateMutability": "nonpayable",
					"type": "function"
				}
			],
			"devdoc": {
				"kind": "dev",
				"methods": {},
				"version": 1
			},
			"evm": {
				"assembly": "    /* \"contracts/ALU12.sol\":108:213  contract A{... */\n  mstore(0x40, 0x80)\n  callvalue\n  dup1\n  iszero\n  tag_1\n  jumpi\n  revert(0x00, 0x00)\ntag_1:\n  pop\n  dataSize(sub_0)\n  dup1\n  dataOffset(sub_0)\n  0x00\n  codecopy\n  0x00\n  return\nstop\n\nsub_0: assembly {\n        /* \"contracts/ALU12.sol\":108:213  contract A{... */\n      mstore(0x40, 0x80)\n      callvalue\n      dup1\n      iszero\n      tag_1\n      jumpi\n      revert(0x00, 0x00)\n    tag_1:\n      pop\n      jumpi(tag_2, lt(calldatasize, 0x04))\n      shr(0xe0, calldataload(0x00))\n      dup1\n      0x05846f0d\n      eq\n      tag_3\n      jumpi\n    tag_2:\n      revert(0x00, 0x00)\n        /* \"contracts/ALU12.sol\":142:209  function storeSum(B b) external{... */\n    tag_3:\n      tag_4\n      0x04\n      dup1\n      calldatasize\n      sub\n      dup2\n      add\n      swap1\n      tag_5\n      swap2\n      swap1\n      tag_6\n      jump\t// in\n    tag_5:\n      tag_7\n      jump\t// in\n    tag_4:\n      stop\n    tag_7:\n        /* \"contracts/ALU12.sol\":190:191  b */\n      dup1\n        /* \"contracts/ALU12.sol\":190:195  b.add */\n      0xffffffffffffffffffffffffffffffffffffffff\n      and\n      0x771602f7\n        /* \"contracts/ALU12.sol\":196:197  5 */\n      0x05\n        /* \"contracts/ALU12.sol\":198:200  10 */\n      0x0a\n        /* \"contracts/ALU12.sol\":190:201  b.add(5,10) */\n      mload(0x40)\n      dup4\n      0xffffffff\n      and\n      0xe0\n      shl\n      dup2\n      mstore\n      0x04\n      add\n      tag_9\n      swap3\n      swap2\n      swap1\n      tag_10\n      jump\t// in\n    tag_9:\n      0x20\n      mload(0x40)\n      dup1\n      dup4\n      sub\n      dup2\n      0x00\n      dup8\n      gas\n      call\n      iszero\n      dup1\n      iszero\n      tag_12\n      jumpi\n      returndatacopy(0x00, 0x00, returndatasize)\n      revert(0x00, returndatasize)\n    tag_12:\n      pop\n      pop\n      pop\n      pop\n      mload(0x40)\n      returndatasize\n      not(0x1f)\n      0x1f\n      dup3\n      add\n      and\n      dup3\n      add\n      dup1\n      0x40\n      mstore\n      pop\n      dup2\n      add\n      swap1\n      tag_13\n      swap2\n      swap1\n      tag_14\n      jump\t// in\n    tag_13:\n        /* \"contracts/ALU12.sol\":184:187  sum */\n      0x00\n        /* \"contracts/ALU12.sol\":184:201  sum = b.add(5,10) */\n      dup2\n      swap1\n      sstore\n      pop\n        /* \"contracts/ALU12.sol\":142:209  function storeSum(B b) external{... */\n      pop\n      jump\t// out\n        /* \"#utility.yul\":88:205   */\n    tag_16:\n        /* \"#utility.yul\":197:198   */\n      0x00\n        /* \"#utility.yul\":194:195   */\n      0x00\n        /* \"#utility.yul\":187:199   */\n      revert\n        /* \"#utility.yul\":334:460   */\n    tag_18:\n        /* \"#utility.yul\":371:378   */\n      0x00\n        /* \"#utility.yul\":411:453   */\n      0xffffffffffffffffffffffffffffffffffffffff\n        /* \"#utility.yul\":404:409   */\n      dup3\n        /* \"#utility.yul\":400:454   */\n      and\n        /* \"#utility.yul\":389:454   */\n      swap1\n      pop\n        /* \"#utility.yul\":334:460   */\n      swap2\n      swap1\n      pop\n      jump\t// out\n        /* \"#utility.yul\":466:562   */\n    tag_19:\n        /* \"#utility.yul\":503:510   */\n      0x00\n        /* \"#utility.yul\":532:556   */\n      tag_39\n        /* \"#utility.yul\":550:555   */\n      dup3\n        /* \"#utility.yul\":532:556   */\n      tag_18\n      jump\t// in\n    tag_39:\n        /* \"#utility.yul\":521:556   */\n      swap1\n      pop\n        /* \"#utility.yul\":466:562   */\n      swap2\n      swap1\n      pop\n      jump\t// out\n        /* \"#utility.yul\":568:672   */\n    tag_20:\n        /* \"#utility.yul\":613:620   */\n      0x00\n        /* \"#utility.yul\":642:666   */\n      tag_41\n        /* \"#utility.yul\":660:665   */\n      dup3\n        /* \"#utility.yul\":642:666   */\n      tag_19\n      jump\t// in\n    tag_41:\n        /* \"#utility.yul\":631:666   */\n      swap1\n      pop\n        /* \"#utility.yul\":568:672   */\n      swap2\n      swap1\n      pop\n      jump\t// out\n        /* \"#utility.yul\":678:816   */\n    tag_21:\n        /* \"#utility.yul\":759:791   */\n      tag_43\n        /* \"#utility.yul\":785:790   */\n      dup2\n        /* \"#utility.yul\":759:791   */\n      tag_20\n      jump\t// in\n    tag_43:\n        /* \"#utility.yul\":752:757   */\n      dup2\n        /* \"#utility.yul\":749:792   */\n      eq\n        /* \"#utility.yul\":739:810   */\n      tag_44\n      jumpi\n        /* \"#utility.yul\":806:807   */\n      0x00\n        /* \"#utility.yul\":803:804   */\n      0x00\n        /* \"#utility.yul\":796:808   */\n      revert\n        /* \"#utility.yul\":739:810   */\n    tag_44:\n        /* \"#utility.yul\":678:816   */\n      pop\n      jump\t// out\n        /* \"#utility.yul\":822:977   */\n    tag_22:\n        /* \"#utility.yul\":876:881   */\n      0x00\n        /* \"#utility.yul\":914:920   */\n      dup2\n        /* \"#utility.yul\":901:921   */\n      calldataload\n        /* \"#utility.yul\":892:921   */\n      swap1\n      pop\n        /* \"#utility.yul\":930:971   */\n      tag_46\n        /* \"#utility.yul\":965:970   */\n      dup2\n        /* \"#utility.yul\":930:971   */\n      tag_21\n      jump\t// in\n    tag_46:\n        /* \"#utility.yul\":822:977   */\n      swap3\n      swap2\n      pop\n      pop\n      jump\t// out\n        /* \"#utility.yul\":983:1328   */\n    tag_6:\n        /* \"#utility.yul\":1050:1056   */\n      0x00\n        /* \"#utility.yul\":1099:1101   */\n      0x20\n        /* \"#utility.yul\":1087:1096   */\n      dup3\n        /* \"#utility.yul\":1078:1085   */\n      dup5\n        /* \"#utility.yul\":1074:1097   */\n      sub\n        /* \"#utility.yul\":1070:1102   */\n      slt\n        /* \"#utility.yul\":1067:1186   */\n      iszero\n      tag_48\n      jumpi\n        /* \"#utility.yul\":1105:1184   */\n      tag_49\n      tag_16\n      jump\t// in\n    tag_49:\n        /* \"#utility.yul\":1067:1186   */\n    tag_48:\n        /* \"#utility.yul\":1225:1226   */\n      0x00\n        /* \"#utility.yul\":1250:1311   */\n      tag_50\n        /* \"#utility.yul\":1303:1310   */\n      dup5\n        /* \"#utility.yul\":1294:1300   */\n      dup3\n        /* \"#utility.yul\":1283:1292   */\n      dup6\n        /* \"#utility.yul\":1279:1301   */\n      add\n        /* \"#utility.yul\":1250:1311   */\n      tag_22\n      jump\t// in\n    tag_50:\n        /* \"#utility.yul\":1240:1311   */\n      swap2\n      pop\n        /* \"#utility.yul\":1196:1321   */\n      pop\n        /* \"#utility.yul\":983:1328   */\n      swap3\n      swap2\n      pop\n      pop\n      jump\t// out\n        /* \"#utility.yul\":1334:1419   */\n    tag_23:\n        /* \"#utility.yul\":1379:1386   */\n      0x00\n        /* \"#utility.yul\":1408:1413   */\n      dup2\n        /* \"#utility.yul\":1397:1413   */\n      swap1\n      pop\n        /* \"#utility.yul\":1334:1419   */\n      swap2\n      swap1\n      pop\n      jump\t// out\n        /* \"#utility.yul\":1425:1502   */\n    tag_24:\n        /* \"#utility.yul\":1462:1469   */\n      0x00\n        /* \"#utility.yul\":1491:1496   */\n      dup2\n        /* \"#utility.yul\":1480:1496   */\n      swap1\n      pop\n        /* \"#utility.yul\":1425:1502   */\n      swap2\n      swap1\n      pop\n      jump\t// out\n        /* \"#utility.yul\":1508:1568   */\n    tag_25:\n        /* \"#utility.yul\":1536:1539   */\n      0x00\n        /* \"#utility.yul\":1557:1562   */\n      dup2\n        /* \"#utility.yul\":1550:1562   */\n      swap1\n      pop\n        /* \"#utility.yul\":1508:1568   */\n      swap2\n      swap1\n      pop\n      jump\t// out\n        /* \"#utility.yul\":1574:1732   */\n    tag_26:\n        /* \"#utility.yul\":1632:1641   */\n      0x00\n        /* \"#utility.yul\":1665:1726   */\n      tag_55\n        /* \"#utility.yul\":1683:1725   */\n      tag_56\n        /* \"#utility.yul\":1692:1724   */\n      tag_57\n        /* \"#utility.yul\":1718:1723   */\n      dup5\n        /* \"#utility.yul\":1692:1724   */\n      tag_23\n      jump\t// in\n    tag_57:\n        /* \"#utility.yul\":1683:1725   */\n      tag_25\n      jump\t// in\n    tag_56:\n        /* \"#utility.yul\":1665:1726   */\n      tag_24\n      jump\t// in\n    tag_55:\n        /* \"#utility.yul\":1652:1726   */\n      swap1\n      pop\n        /* \"#utility.yul\":1574:1732   */\n      swap2\n      swap1\n      pop\n      jump\t// out\n        /* \"#utility.yul\":1738:1885   */\n    tag_27:\n        /* \"#utility.yul\":1833:1878   */\n      tag_59\n        /* \"#utility.yul\":1872:1877   */\n      dup2\n        /* \"#utility.yul\":1833:1878   */\n      tag_26\n      jump\t// in\n    tag_59:\n        /* \"#utility.yul\":1828:1831   */\n      dup3\n        /* \"#utility.yul\":1821:1879   */\n      mstore\n        /* \"#utility.yul\":1738:1885   */\n      pop\n      pop\n      jump\t// out\n        /* \"#utility.yul\":1891:1977   */\n    tag_28:\n        /* \"#utility.yul\":1937:1944   */\n      0x00\n        /* \"#utility.yul\":1966:1971   */\n      dup2\n        /* \"#utility.yul\":1955:1971   */\n      swap1\n      pop\n        /* \"#utility.yul\":1891:1977   */\n      swap2\n      swap1\n      pop\n      jump\t// out\n        /* \"#utility.yul\":1983:2143   */\n    tag_29:\n        /* \"#utility.yul\":2042:2051   */\n      0x00\n        /* \"#utility.yul\":2075:2137   */\n      tag_62\n        /* \"#utility.yul\":2093:2136   */\n      tag_63\n        /* \"#utility.yul\":2102:2135   */\n      tag_64\n        /* \"#utility.yul\":2129:2134   */\n      dup5\n        /* \"#utility.yul\":2102:2135   */\n      tag_28\n      jump\t// in\n    tag_64:\n        /* \"#utility.yul\":2093:2136   */\n      tag_25\n      jump\t// in\n    tag_63:\n        /* \"#utility.yul\":2075:2137   */\n      tag_24\n      jump\t// in\n    tag_62:\n        /* \"#utility.yul\":2062:2137   */\n      swap1\n      pop\n        /* \"#utility.yul\":1983:2143   */\n      swap2\n      swap1\n      pop\n      jump\t// out\n        /* \"#utility.yul\":2149:2298   */\n    tag_30:\n        /* \"#utility.yul\":2245:2291   */\n      tag_66\n        /* \"#utility.yul\":2285:2290   */\n      dup2\n        /* \"#utility.yul\":2245:2291   */\n      tag_29\n      jump\t// in\n    tag_66:\n        /* \"#utility.yul\":2240:2243   */\n      dup3\n        /* \"#utility.yul\":2233:2292   */\n      mstore\n        /* \"#utility.yul\":2149:2298   */\n      pop\n      pop\n      jump\t// out\n        /* \"#utility.yul\":2304:2670   */\n    tag_10:\n        /* \"#utility.yul\":2442:2446   */\n      0x00\n        /* \"#utility.yul\":2480:2482   */\n      0x40\n        /* \"#utility.yul\":2469:2478   */\n      dup3\n        /* \"#utility.yul\":2465:2483   */\n      add\n        /* \"#utility.yul\":2457:2483   */\n      swap1\n      pop\n        /* \"#utility.yul\":2493:2572   */\n      tag_68\n        /* \"#utility.yul\":2569:2570   */\n      0x00\n        /* \"#utility.yul\":2558:2567   */\n      dup4\n        /* \"#utility.yul\":2554:2571   */\n      add\n        /* \"#utility.yul\":2545:2551   */\n      dup6\n        /* \"#utility.yul\":2493:2572   */\n      tag_27\n      jump\t// in\n    tag_68:\n        /* \"#utility.yul\":2582:2663   */\n      tag_69\n        /* \"#utility.yul\":2659:2661   */\n      0x20\n        /* \"#utility.yul\":2648:2657   */\n      dup4\n        /* \"#utility.yul\":2644:2662   */\n      add\n        /* \"#utility.yul\":2635:2641   */\n      dup5\n        /* \"#utility.yul\":2582:2663   */\n      tag_30\n      jump\t// in\n    tag_69:\n        /* \"#utility.yul\":2304:2670   */\n      swap4\n      swap3\n      pop\n      pop\n      pop\n      jump\t// out\n        /* \"#utility.yul\":2676:2798   */\n    tag_31:\n        /* \"#utility.yul\":2749:2773   */\n      tag_71\n        /* \"#utility.yul\":2767:2772   */\n      dup2\n        /* \"#utility.yul\":2749:2773   */\n      tag_24\n      jump\t// in\n    tag_71:\n        /* \"#utility.yul\":2742:2747   */\n      dup2\n        /* \"#utility.yul\":2739:2774   */\n      eq\n        /* \"#utility.yul\":2729:2792   */\n      tag_72\n      jumpi\n        /* \"#utility.yul\":2788:2789   */\n      0x00\n        /* \"#utility.yul\":2785:2786   */\n      0x00\n        /* \"#utility.yul\":2778:2790   */\n      revert\n        /* \"#utility.yul\":2729:2792   */\n    tag_72:\n        /* \"#utility.yul\":2676:2798   */\n      pop\n      jump\t// out\n        /* \"#utility.yul\":2804:2947   */\n    tag_32:\n        /* \"#utility.yul\":2861:2866   */\n      0x00\n        /* \"#utility.yul\":2892:2898   */\n      dup2\n        /* \"#utility.yul\":2886:2899   */\n      mload\n        /* \"#utility.yul\":2877:2899   */\n      swap1\n      pop\n        /* \"#utility.yul\":2908:2941   */\n      tag_74\n        /* \"#utility.yul\":2935:2940   */\n      dup2\n        /* \"#utility.yul\":2908:2941   */\n      tag_31\n      jump\t// in\n    tag_74:\n        /* \"#utility.yul\":2804:2947   */\n      swap3\n      swap2\n      pop\n      pop\n      jump\t// out\n        /* \"#utility.yul\":2953:3304   */\n    tag_14:\n        /* \"#utility.yul\":3023:3029   */\n      0x00\n        /* \"#utility.yul\":3072:3074   */\n      0x20\n        /* \"#utility.yul\":3060:3069   */\n      dup3\n        /* \"#utility.yul\":3051:3058   */\n      dup5\n        /* \"#utility.yul\":3047:3070   */\n      sub\n        /* \"#utility.yul\":3043:3075   */\n      slt\n        /* \"#utility.yul\":3040:3159   */\n      iszero\n      tag_76\n      jumpi\n        /* \"#utility.yul\":3078:3157   */\n      tag_77\n      tag_16\n      jump\t// in\n    tag_77:\n        /* \"#utility.yul\":3040:3159   */\n    tag_76:\n        /* \"#utility.yul\":3198:3199   */\n      0x00\n        /* \"#utility.yul\":3223:3287   */\n      tag_78\n        /* \"#utility.yul\":3279:3286   */\n      dup5\n        /* \"#utility.yul\":3270:3276   */\n      dup3\n        /* \"#utility.yul\":3259:3268   */\n      dup6\n        /* \"#utility.yul\":3255:3277   */\n      add\n        /* \"#utility.yul\":3223:3287   */\n      tag_32\n      jump\t// in\n    tag_78:\n        /* \"#utility.yul\":3213:3287   */\n      swap2\n      pop\n        /* \"#utility.yul\":3169:3297   */\n      pop\n        /* \"#utility.yul\":2953:3304   */\n      swap3\n      swap2\n      pop\n      pop\n      jump\t// out\n\n    auxdata: 0xa2646970667358221220469d56bd2e1ea07211ab72829fcc9de70de8e6394b509f0e620d7ef644fc949364736f6c634300081d0033\n}\n",
				"bytecode": {
					"linkReferences": {},
					"object": "6080604052348015600e575f5ffd5b5061029e8061001c5f395ff3fe608060405234801561000f575f5ffd5b5060043610610029575f3560e01c806305846f0d1461002d575b5f5ffd5b6100476004803603810190610042919061013d565b610049565b005b8073ffffffffffffffffffffffffffffffffffffffff1663771602f76005600a6040518363ffffffff1660e01b81526004016100869291906101ec565b6020604051808303815f875af11580156100a2573d5f5f3e3d5ffd5b505050506040513d601f19601f820116820180604052508101906100c6919061023d565b5f8190555050565b5f5ffd5b5f73ffffffffffffffffffffffffffffffffffffffff82169050919050565b5f6100fb826100d2565b9050919050565b5f61010c826100f1565b9050919050565b61011c81610102565b8114610126575f5ffd5b50565b5f8135905061013781610113565b92915050565b5f60208284031215610152576101516100ce565b5b5f61015f84828501610129565b91505092915050565b5f819050919050565b5f819050919050565b5f819050919050565b5f61019d61019861019384610168565b61017a565b610171565b9050919050565b6101ad81610183565b82525050565b5f819050919050565b5f6101d66101d16101cc846101b3565b61017a565b610171565b9050919050565b6101e6816101bc565b82525050565b5f6040820190506101ff5f8301856101a4565b61020c60208301846101dd565b9392505050565b61021c81610171565b8114610226575f5ffd5b50565b5f8151905061023781610213565b92915050565b5f60208284031215610252576102516100ce565b5b5f61025f84828501610229565b9150509291505056fea2646970667358221220469d56bd2e1ea07211ab72829fcc9de70de8e6394b509f0e620d7ef644fc949364736f6c634300081d0033",
					"opcodes": "PUSH1 0x80 PUSH1 0x40 MSTORE CALLVALUE DUP1 ISZERO PUSH1 0xE JUMPI PUSH0 PUSH0 REVERT JUMPDEST POP PUSH2 0x29E DUP1 PUSH2 0x1C PUSH0 CODECOPY PUSH0 RETURN INVALID PUSH1 0x80 PUSH1 0x40 MSTORE CALLVALUE DUP1 ISZERO PUSH2 0xF JUMPI PUSH0 PUSH0 REVERT JUMPDEST POP PUSH1 0x4 CALLDATASIZE LT PUSH2 0x29 JUMPI PUSH0 CALLDATALOAD PUSH1 0xE0 SHR DUP1 PUSH4 0x5846F0D EQ PUSH2 0x2D JUMPI JUMPDEST PUSH0 PUSH0 REVERT JUMPDEST PUSH2 0x47 PUSH1 0x4 DUP1 CALLDATASIZE SUB DUP2 ADD SWAP1 PUSH2 0x42 SWAP2 SWAP1 PUSH2 0x13D JUMP JUMPDEST PUSH2 0x49 JUMP JUMPDEST STOP JUMPDEST DUP1 PUSH20 0xFFFFFFFFFFFFFFFFFFFFFFFFFFFFFFFFFFFFFFFF AND PUSH4 0x771602F7 PUSH1 0x5 PUSH1 0xA PUSH1 0x40 MLOAD DUP4 PUSH4 0xFFFFFFFF AND PUSH1 0xE0 SHL DUP2 MSTORE PUSH1 0x4 ADD PUSH2 0x86 SWAP3 SWAP2 SWAP1 PUSH2 0x1EC JUMP JUMPDEST PUSH1 0x20 PUSH1 0x40 MLOAD DUP1 DUP4 SUB DUP2 PUSH0 DUP8 GAS CALL ISZERO DUP1 ISZERO PUSH2 0xA2 JUMPI RETURNDATASIZE PUSH0 PUSH0 RETURNDATACOPY RETURNDATASIZE PUSH0 REVERT JUMPDEST POP POP POP POP PUSH1 0x40 MLOAD RETURNDATASIZE PUSH1 0x1F NOT PUSH1 0x1F DUP3 ADD AND DUP3 ADD DUP1 PUSH1 0x40 MSTORE POP DUP2 ADD SWAP1 PUSH2 0xC6 SWAP2 SWAP1 PUSH2 0x23D JUMP JUMPDEST PUSH0 DUP2 SWAP1 SSTORE POP POP JUMP JUMPDEST PUSH0 PUSH0 REVERT JUMPDEST PUSH0 PUSH20 0xFFFFFFFFFFFFFFFFFFFFFFFFFFFFFFFFFFFFFFFF DUP3 AND SWAP1 POP SWAP2 SWAP1 POP JUMP JUMPDEST PUSH0 PUSH2 0xFB DUP3 PUSH2 0xD2 JUMP JUMPDEST SWAP1 POP SWAP2 SWAP1 POP JUMP JUMPDEST PUSH0 PUSH2 0x10C DUP3 PUSH2 0xF1 JUMP JUMPDEST SWAP1 POP SWAP2 SWAP1 POP JUMP JUMPDEST PUSH2 0x11C DUP2 PUSH2 0x102 JUMP JUMPDEST DUP2 EQ PUSH2 0x126 JUMPI PUSH0 PUSH0 REVERT JUMPDEST POP JUMP JUMPDEST PUSH0 DUP2 CALLDATALOAD SWAP1 POP PUSH2 0x137 DUP2 PUSH2 0x113 JUMP JUMPDEST SWAP3 SWAP2 POP POP JUMP JUMPDEST PUSH0 PUSH1 0x20 DUP3 DUP5 SUB SLT ISZERO PUSH2 0x152 JUMPI PUSH2 0x151 PUSH2 0xCE JUMP JUMPDEST JUMPDEST PUSH0 PUSH2 0x15F DUP5 DUP3 DUP6 ADD PUSH2 0x129 JUMP JUMPDEST SWAP2 POP POP SWAP3 SWAP2 POP POP JUMP JUMPDEST PUSH0 DUP2 SWAP1 POP SWAP2 SWAP1 POP JUMP JUMPDEST PUSH0 DUP2 SWAP1 POP SWAP2 SWAP1 POP JUMP JUMPDEST PUSH0 DUP2 SWAP1 POP SWAP2 SWAP1 POP JUMP JUMPDEST PUSH0 PUSH2 0x19D PUSH2 0x198 PUSH2 0x193 DUP5 PUSH2 0x168 JUMP JUMPDEST PUSH2 0x17A JUMP JUMPDEST PUSH2 0x171 JUMP JUMPDEST SWAP1 POP SWAP2 SWAP1 POP JUMP JUMPDEST PUSH2 0x1AD DUP2 PUSH2 0x183 JUMP JUMPDEST DUP3 MSTORE POP POP JUMP JUMPDEST PUSH0 DUP2 SWAP1 POP SWAP2 SWAP1 POP JUMP JUMPDEST PUSH0 PUSH2 0x1D6 PUSH2 0x1D1 PUSH2 0x1CC DUP5 PUSH2 0x1B3 JUMP JUMPDEST PUSH2 0x17A JUMP JUMPDEST PUSH2 0x171 JUMP JUMPDEST SWAP1 POP SWAP2 SWAP1 POP JUMP JUMPDEST PUSH2 0x1E6 DUP2 PUSH2 0x1BC JUMP JUMPDEST DUP3 MSTORE POP POP JUMP JUMPDEST PUSH0 PUSH1 0x40 DUP3 ADD SWAP1 POP PUSH2 0x1FF PUSH0 DUP4 ADD DUP6 PUSH2 0x1A4 JUMP JUMPDEST PUSH2 0x20C PUSH1 0x20 DUP4 ADD DUP5 PUSH2 0x1DD JUMP JUMPDEST SWAP4 SWAP3 POP POP POP JUMP JUMPDEST PUSH2 0x21C DUP2 PUSH2 0x171 JUMP JUMPDEST DUP2 EQ PUSH2 0x226 JUMPI PUSH0 PUSH0 REVERT JUMPDEST POP JUMP JUMPDEST PUSH0 DUP2 MLOAD SWAP1 POP PUSH2 0x237 DUP2 PUSH2 0x213 JUMP JUMPDEST SWAP3 SWAP2 POP POP JUMP JUMPDEST PUSH0 PUSH1 0x20 DUP3 DUP5 SUB SLT ISZERO PUSH2 0x252 JUMPI PUSH2 0x251 PUSH2 0xCE JUMP JUMPDEST JUMPDEST PUSH0 PUSH2 0x25F DUP5 DUP3 DUP6 ADD PUSH2 0x229 JUMP JUMPDEST SWAP2 POP POP SWAP3 SWAP2 POP POP JUMP INVALID LOG2 PUSH5 0x6970667358 0x22 SLT KECCAK256 CHAINID SWAP14 JUMP 0xBD 0x2E 0x1E LOG0 PUSH19 0x11AB72829FCC9DE70DE8E6394B509F0E620D7E 0xF6 PREVRANDAO 0xFC SWAP5 SWAP4 PUSH5 0x736F6C6343 STOP ADDMOD SAR STOP CALLER "
				},
				"gasEstimates": {
					"creation": {
						"codeDepositCost": "134000",
						"executionCost": "175",
						"totalCost": "134175"
					},
					"external": {
						"storeSum(address)": "infinite"
					}
				},
				"methodIdentifiers": {
					"storeSum(address)": "05846f0d"
				}
			},
			"storageLayout": {
				"storage": [
					{
						"astId": 4,
						"contract": "contracts/ALU12.sol:A",
						"label": "sum",
						"offset": 0,
						"slot": "0",
						"type": "t_uint256"
					}
				],
				"types": {
					"t_uint256": {
						"encoding": "inplace",
						"label": "uint256",
						"numberOfBytes": "32"
					}
				}
			},
			"userdoc": {
				"kind": "user",
				"methods": {},
				"version": 1
			}
		}
	}
}