{
	"contracts/20_struct.sol": {
		"demo": {
			"abi": [
				{
					"inputs": [],
					"name": "getname",
					"outputs": [
						{
							"internalType": "string",
							"name": "",
							"type": "string"
						}
					],
					"stateMutability": "view",
					"type": "function"
				},
				{
					"inputs": [],
					"name": "getter",
					"outputs": [
						{
							"components": [
								{
									"internalType": "string",
									"name": "name",
									"type": "string"
								},
								{
									"internalType": "uint256",
									"name": "roll",
									"type": "uint256"
								},
								{
									"internalType": "bool",
									"name": "pass",
									"type": "bool"
								}
							],
							"internalType": "struct demo.studentsdata",
							"name": "",
							"type": "tuple"
						}
					],
					"stateMutability": "view",
					"type": "function"
				},
				{
					"inputs": [
						{
							"internalType": "string",
							"name": "_name",
							"type": "string"
						},
						{
							"internalType": "uint256",
							"name": "_roll",
							"type": "uint256"
						},
						{
							"internalType": "bool",
							"name": "_pass",
							"type": "bool"
						}
					],
					"name": "insert",
					"outputs": [],
					"stateMutability": "nonpayable",
					"type": "function"
				},
				{
					"inputs": [],
					"name": "student",
					"outputs": [
						{
							"internalType": "string",
							"name": "name",
							"type": "string"
						},
						{
							"internalType": "uint256",
							"name": "roll",
							"type": "uint256"
						},
						{
							"internalType": "bool",
							"name": "pass",
							"type": "bool"
						}
					],
					"stateMutability": "view",
					"type": "function"
				}
			],
			"devdoc": {
				"kind": "dev",
				"methods": {},
				"version": 1
			},
			"evm": {
				"assembly": "    /* \"contracts/20_struct.sol\":302:879  contract demo{... */\n  mstore(0x40, 0x80)\n  callvalue\n  dup1\n  iszero\n  tag_1\n  jumpi\n  revert(0x00, 0x00)\ntag_1:\n  pop\n  dataSize(sub_0)\n  dup1\n  dataOffset(sub_0)\n  0x00\n  codecopy\n  0x00\n  return\nstop\n\nsub_0: assembly {\n        /* \"contracts/20_struct.sol\":302:879  contract demo{... */\n      mstore(0x40, 0x80)\n      callvalue\n      dup1\n      iszero\n      tag_1\n      jumpi\n      revert(0x00, 0x00)\n    tag_1:\n      pop\n      jumpi(tag_2, lt(calldatasize, 0x04))\n      shr(0xe0, calldataload(0x00))\n      dup1\n      0x699450e8\n      eq\n      tag_3\n      jumpi\n      dup1\n      0x993a04b7\n      eq\n      tag_4\n      jumpi\n      dup1\n      0xc30655a2\n      eq\n      tag_5\n      jumpi\n      dup1\n      0xc6ea59b9\n      eq\n      tag_6\n      jumpi\n    tag_2:\n      revert(0x00, 0x00)\n        /* \"contracts/20_struct.sol\":419:446  studentsdata public student */\n    tag_3:\n      tag_7\n      tag_8\n      jump\t// in\n    tag_7:\n      mload(0x40)\n      tag_9\n      swap4\n      swap3\n      swap2\n      swap1\n      tag_10\n      jump\t// in\n    tag_9:\n      mload(0x40)\n      dup1\n      swap2\n      sub\n      swap1\n      return\n        /* \"contracts/20_struct.sol\":688:779  function getter() public view returns(studentsdata memory){... */\n    tag_4:\n      tag_11\n      tag_12\n      jump\t// in\n    tag_11:\n      mload(0x40)\n      tag_13\n      swap2\n      swap1\n      tag_14\n      jump\t// in\n    tag_13:\n      mload(0x40)\n      dup1\n      swap2\n      sub\n      swap1\n      return\n        /* \"contracts/20_struct.sol\":455:680  function insert(string memory _name, uint  _roll, bool _pass) public {... */\n    tag_5:\n      tag_15\n      0x04\n      dup1\n      calldatasize\n      sub\n      dup2\n      add\n      swap1\n      tag_16\n      swap2\n      swap1\n      tag_17\n      jump\t// in\n    tag_16:\n      tag_18\n      jump\t// in\n    tag_15:\n      stop\n        /* \"contracts/20_struct.sol\":785:876  function getname() public view returns(string memory){... */\n    tag_6:\n      tag_19\n      tag_20\n      jump\t// in\n    tag_19:\n      mload(0x40)\n      tag_21\n      swap2\n      swap1\n      tag_22\n      jump\t// in\n    tag_21:\n      mload(0x40)\n      dup1\n      swap2\n      sub\n      swap1\n      return\n        /* \"contracts/20_struct.sol\":419:446  studentsdata public student */\n    tag_8:\n      0x00\n      dup1\n      0x00\n      add\n      dup1\n      sload\n      tag_23\n      swap1\n      tag_24\n      jump\t// in\n    tag_23:\n      dup1\n      0x1f\n      add\n      0x20\n      dup1\n      swap2\n      div\n      mul\n      0x20\n      add\n      mload(0x40)\n      swap1\n      dup2\n      add\n      0x40\n      mstore\n      dup1\n      swap3\n      swap2\n      swap1\n      dup2\n      dup2\n      mstore\n      0x20\n      add\n      dup3\n      dup1\n      sload\n      tag_25\n      swap1\n      tag_24\n      jump\t// in\n    tag_25:\n      dup1\n      iszero\n      tag_26\n      jumpi\n      dup1\n      0x1f\n      lt\n      tag_27\n      jumpi\n      0x0100\n      dup1\n      dup4\n      sload\n      div\n      mul\n      dup4\n      mstore\n      swap2\n      0x20\n      add\n      swap2\n      jump(tag_26)\n    tag_27:\n      dup3\n      add\n      swap2\n      swap1\n      0x00\n      mstore\n      keccak256(0x00, 0x20)\n      swap1\n    tag_28:\n      dup2\n      sload\n      dup2\n      mstore\n      swap1\n      0x01\n      add\n      swap1\n      0x20\n      add\n      dup1\n      dup4\n      gt\n      tag_28\n      jumpi\n      dup3\n      swap1\n      sub\n      0x1f\n      and\n      dup3\n      add\n      swap2\n    tag_26:\n      pop\n      pop\n      pop\n      pop\n      pop\n      swap1\n      dup1\n      0x01\n      add\n      sload\n      swap1\n      dup1\n      0x02\n      add\n      0x00\n      swap1\n      sload\n      swap1\n      0x0100\n      exp\n      swap1\n      div\n      0xff\n      and\n      swap1\n      pop\n      dup4\n      jump\t// out\n        /* \"contracts/20_struct.sol\":688:779  function getter() public view returns(studentsdata memory){... */\n    tag_12:\n        /* \"contracts/20_struct.sol\":726:745  studentsdata memory */\n      tag_29\n      tag_30\n      jump\t// in\n    tag_29:\n        /* \"contracts/20_struct.sol\":764:771  student */\n      0x00\n        /* \"contracts/20_struct.sol\":757:771  return student */\n      mload(0x40)\n      dup1\n      0x60\n      add\n      0x40\n      mstore\n      swap1\n      dup2\n      0x00\n      dup3\n      add\n      dup1\n      sload\n      tag_32\n      swap1\n      tag_24\n      jump\t// in\n    tag_32:\n      dup1\n      0x1f\n      add\n      0x20\n      dup1\n      swap2\n      div\n      mul\n      0x20\n      add\n      mload(0x40)\n      swap1\n      dup2\n      add\n      0x40\n      mstore\n      dup1\n      swap3\n      swap2\n      swap1\n      dup2\n      dup2\n      mstore\n      0x20\n      add\n      dup3\n      dup1\n      sload\n      tag_33\n      swap1\n      tag_24\n      jump\t// in\n    tag_33:\n      dup1\n      iszero\n      tag_34\n      jumpi\n      dup1\n      0x1f\n      lt\n      tag_35\n      jumpi\n      0x0100\n      dup1\n      dup4\n      sload\n      div\n      mul\n      dup4\n      mstore\n      swap2\n      0x20\n      add\n      swap2\n      jump(tag_34)\n    tag_35:\n      dup3\n      add\n      swap2\n      swap1\n      0x00\n      mstore\n      keccak256(0x00, 0x20)\n      swap1\n    tag_36:\n      dup2\n      sload\n      dup2\n      mstore\n      swap1\n      0x01\n      add\n      swap1\n      0x20\n      add\n      dup1\n      dup4\n      gt\n      tag_36\n      jumpi\n      dup3\n      swap1\n      sub\n      0x1f\n      and\n      dup3\n      add\n      swap2\n    tag_34:\n      pop\n      pop\n      pop\n      pop\n      pop\n      dup2\n      mstore\n      0x20\n      add\n      0x01\n      dup3\n      add\n      sload\n      dup2\n      mstore\n      0x20\n      add\n      0x02\n      dup3\n      add\n      0x00\n      swap1\n      sload\n      swap1\n      0x0100\n      exp\n      swap1\n      div\n      0xff\n      and\n      iszero\n      iszero\n      iszero\n      iszero\n      dup2\n      mstore\n      pop\n      pop\n      swap1\n      pop\n        /* \"contracts/20_struct.sol\":688:779  function getter() public view returns(studentsdata memory){... */\n      swap1\n      jump\t// out\n        /* \"contracts/20_struct.sol\":455:680  function insert(string memory _name, uint  _roll, bool _pass) public {... */\n    tag_18:\n        /* \"contracts/20_struct.sol\":605:610  _name */\n      dup3\n        /* \"contracts/20_struct.sol\":590:597  student */\n      0x00\n        /* \"contracts/20_struct.sol\":590:602  student.name */\n      0x00\n      add\n        /* \"contracts/20_struct.sol\":590:610  student.name = _name */\n      swap1\n      dup2\n      tag_38\n      swap2\n      swap1\n      tag_39\n      jump\t// in\n    tag_38:\n      pop\n        /* \"contracts/20_struct.sol\":636:641  _roll */\n      dup2\n        /* \"contracts/20_struct.sol\":621:628  student */\n      0x00\n        /* \"contracts/20_struct.sol\":621:633  student.roll */\n      0x01\n      add\n        /* \"contracts/20_struct.sol\":621:641  student.roll = _roll */\n      dup2\n      swap1\n      sstore\n      pop\n        /* \"contracts/20_struct.sol\":667:672  _pass */\n      dup1\n        /* \"contracts/20_struct.sol\":652:659  student */\n      0x00\n        /* \"contracts/20_struct.sol\":652:664  student.pass */\n      0x02\n      add\n      0x00\n        /* \"contracts/20_struct.sol\":652:672  student.pass = _pass */\n      0x0100\n      exp\n      dup2\n      sload\n      dup2\n      0xff\n      mul\n      not\n      and\n      swap1\n      dup4\n      iszero\n      iszero\n      mul\n      or\n      swap1\n      sstore\n      pop\n        /* \"contracts/20_struct.sol\":455:680  function insert(string memory _name, uint  _roll, bool _pass) public {... */\n      pop\n      pop\n      pop\n      jump\t// out\n        /* \"contracts/20_struct.sol\":785:876  function getname() public view returns(string memory){... */\n    tag_20:\n        /* \"contracts/20_struct.sol\":824:837  string memory */\n      0x60\n        /* \"contracts/20_struct.sol\":856:863  student */\n      0x00\n        /* \"contracts/20_struct.sol\":856:868  student.name */\n      0x00\n      add\n        /* \"contracts/20_struct.sol\":849:868  return student.name */\n      dup1\n      sload\n      tag_41\n      swap1\n      tag_24\n      jump\t// in\n    tag_41:\n      dup1\n      0x1f\n      add\n      0x20\n      dup1\n      swap2\n      div\n      mul\n      0x20\n      add\n      mload(0x40)\n      swap1\n      dup2\n      add\n      0x40\n      mstore\n      dup1\n      swap3\n      swap2\n      swap1\n      dup2\n      dup2\n      mstore\n      0x20\n      add\n      dup3\n      dup1\n      sload\n      tag_42\n      swap1\n      tag_24\n      jump\t// in\n    tag_42:\n      dup1\n      iszero\n      tag_43\n      jumpi\n      dup1\n      0x1f\n      lt\n      tag_44\n      jumpi\n      0x0100\n      dup1\n      dup4\n      sload\n      div\n      mul\n      dup4\n      mstore\n      swap2\n      0x20\n      add\n      swap2\n      jump(tag_43)\n    tag_44:\n      dup3\n      add\n      swap2\n      swap1\n      0x00\n      mstore\n      keccak256(0x00, 0x20)\n      swap1\n    tag_45:\n      dup2\n      sload\n      dup2\n      mstore\n      swap1\n      0x01\n      add\n      swap1\n      0x20\n      add\n      dup1\n      dup4\n      gt\n      tag_45\n      jumpi\n      dup3\n      swap1\n      sub\n      0x1f\n      and\n      dup3\n      add\n      swap2\n    tag_43:\n      pop\n      pop\n      pop\n      pop\n      pop\n      swap1\n      pop\n        /* \"contracts/20_struct.sol\":785:876  function getname() public view returns(string memory){... */\n      swap1\n      jump\t// out\n    tag_30:\n      mload(0x40)\n      dup1\n      0x60\n      add\n      0x40\n      mstore\n      dup1\n      0x60\n      dup2\n      mstore\n      0x20\n      add\n      0x00\n      dup2\n      mstore\n      0x20\n      add\n      iszero(iszero(0x00))\n      dup2\n      mstore\n      pop\n      swap1\n      jump\t// out\n        /* \"#utility.yul\":7:106   */\n    tag_46:\n        /* \"#utility.yul\":59:65   */\n      0x00\n        /* \"#utility.yul\":93:98   */\n      dup2\n        /* \"#utility.yul\":87:99   */\n      mload\n        /* \"#utility.yul\":77:99   */\n      swap1\n      pop\n        /* \"#utility.yul\":7:106   */\n      swap2\n      swap1\n      pop\n      jump\t// out\n        /* \"#utility.yul\":112:281   */\n    tag_47:\n        /* \"#utility.yul\":196:207   */\n      0x00\n        /* \"#utility.yul\":230:236   */\n      dup3\n        /* \"#utility.yul\":225:228   */\n      dup3\n        /* \"#utility.yul\":218:237   */\n      mstore\n        /* \"#utility.yul\":270:274   */\n      0x20\n        /* \"#utility.yul\":265:268   */\n      dup3\n        /* \"#utility.yul\":261:275   */\n      add\n        /* \"#utility.yul\":246:275   */\n      swap1\n      pop\n        /* \"#utility.yul\":112:281   */\n      swap3\n      swap2\n      pop\n      pop\n      jump\t// out\n        /* \"#utility.yul\":287:426   */\n    tag_48:\n        /* \"#utility.yul\":376:382   */\n      dup3\n        /* \"#utility.yul\":371:374   */\n      dup2\n        /* \"#utility.yul\":366:369   */\n      dup4\n        /* \"#utility.yul\":360:383   */\n      mcopy\n        /* \"#utility.yul\":417:418   */\n      0x00\n        /* \"#utility.yul\":408:414   */\n      dup4\n        /* \"#utility.yul\":403:406   */\n      dup4\n        /* \"#utility.yul\":399:415   */\n      add\n        /* \"#utility.yul\":392:419   */\n      mstore\n        /* \"#utility.yul\":287:426   */\n      pop\n      pop\n      pop\n      jump\t// out\n        /* \"#utility.yul\":432:534   */\n    tag_49:\n        /* \"#utility.yul\":473:479   */\n      0x00\n        /* \"#utility.yul\":524:526   */\n      0x1f\n        /* \"#utility.yul\":520:527   */\n      not\n        /* \"#utility.yul\":515:517   */\n      0x1f\n        /* \"#utility.yul\":508:513   */\n      dup4\n        /* \"#utility.yul\":504:518   */\n      add\n        /* \"#utility.yul\":500:528   */\n      and\n        /* \"#utility.yul\":490:528   */\n      swap1\n      pop\n        /* \"#utility.yul\":432:534   */\n      swap2\n      swap1\n      pop\n      jump\t// out\n        /* \"#utility.yul\":540:917   */\n    tag_50:\n        /* \"#utility.yul\":628:631   */\n      0x00\n        /* \"#utility.yul\":656:695   */\n      tag_98\n        /* \"#utility.yul\":689:694   */\n      dup3\n        /* \"#utility.yul\":656:695   */\n      tag_46\n      jump\t// in\n    tag_98:\n        /* \"#utility.yul\":711:782   */\n      tag_99\n        /* \"#utility.yul\":775:781   */\n      dup2\n        /* \"#utility.yul\":770:773   */\n      dup6\n        /* \"#utility.yul\":711:782   */\n      tag_47\n      jump\t// in\n    tag_99:\n        /* \"#utility.yul\":704:782   */\n      swap4\n      pop\n        /* \"#utility.yul\":791:856   */\n      tag_100\n        /* \"#utility.yul\":849:855   */\n      dup2\n        /* \"#utility.yul\":844:847   */\n      dup6\n        /* \"#utility.yul\":837:841   */\n      0x20\n        /* \"#utility.yul\":830:835   */\n      dup7\n        /* \"#utility.yul\":826:842   */\n      add\n        /* \"#utility.yul\":791:856   */\n      tag_48\n      jump\t// in\n    tag_100:\n        /* \"#utility.yul\":881:910   */\n      tag_101\n        /* \"#utility.yul\":903:909   */\n      dup2\n        /* \"#utility.yul\":881:910   */\n      tag_49\n      jump\t// in\n    tag_101:\n        /* \"#utility.yul\":876:879   */\n      dup5\n        /* \"#utility.yul\":872:911   */\n      add\n        /* \"#utility.yul\":865:911   */\n      swap2\n      pop\n        /* \"#utility.yul\":632:917   */\n      pop\n        /* \"#utility.yul\":540:917   */\n      swap3\n      swap2\n      pop\n      pop\n      jump\t// out\n        /* \"#utility.yul\":923:1000   */\n    tag_51:\n        /* \"#utility.yul\":960:967   */\n      0x00\n        /* \"#utility.yul\":989:994   */\n      dup2\n        /* \"#utility.yul\":978:994   */\n      swap1\n      pop\n        /* \"#utility.yul\":923:1000   */\n      swap2\n      swap1\n      pop\n      jump\t// out\n        /* \"#utility.yul\":1006:1124   */\n    tag_52:\n        /* \"#utility.yul\":1093:1117   */\n      tag_104\n        /* \"#utility.yul\":1111:1116   */\n      dup2\n        /* \"#utility.yul\":1093:1117   */\n      tag_51\n      jump\t// in\n    tag_104:\n        /* \"#utility.yul\":1088:1091   */\n      dup3\n        /* \"#utility.yul\":1081:1118   */\n      mstore\n        /* \"#utility.yul\":1006:1124   */\n      pop\n      pop\n      jump\t// out\n        /* \"#utility.yul\":1130:1220   */\n    tag_53:\n        /* \"#utility.yul\":1164:1171   */\n      0x00\n        /* \"#utility.yul\":1207:1212   */\n      dup2\n        /* \"#utility.yul\":1200:1213   */\n      iszero\n        /* \"#utility.yul\":1193:1214   */\n      iszero\n        /* \"#utility.yul\":1182:1214   */\n      swap1\n      pop\n        /* \"#utility.yul\":1130:1220   */\n      swap2\n      swap1\n      pop\n      jump\t// out\n        /* \"#utility.yul\":1226:1335   */\n    tag_54:\n        /* \"#utility.yul\":1307:1328   */\n      tag_107\n        /* \"#utility.yul\":1322:1327   */\n      dup2\n        /* \"#utility.yul\":1307:1328   */\n      tag_53\n      jump\t// in\n    tag_107:\n        /* \"#utility.yul\":1302:1305   */\n      dup3\n        /* \"#utility.yul\":1295:1329   */\n      mstore\n        /* \"#utility.yul\":1226:1335   */\n      pop\n      pop\n      jump\t// out\n        /* \"#utility.yul\":1341:1862   */\n    tag_10:\n        /* \"#utility.yul\":1504:1508   */\n      0x00\n        /* \"#utility.yul\":1542:1544   */\n      0x60\n        /* \"#utility.yul\":1531:1540   */\n      dup3\n        /* \"#utility.yul\":1527:1545   */\n      add\n        /* \"#utility.yul\":1519:1545   */\n      swap1\n      pop\n        /* \"#utility.yul\":1591:1600   */\n      dup2\n        /* \"#utility.yul\":1585:1589   */\n      dup2\n        /* \"#utility.yul\":1581:1601   */\n      sub\n        /* \"#utility.yul\":1577:1578   */\n      0x00\n        /* \"#utility.yul\":1566:1575   */\n      dup4\n        /* \"#utility.yul\":1562:1579   */\n      add\n        /* \"#utility.yul\":1555:1602   */\n      mstore\n        /* \"#utility.yul\":1619:1697   */\n      tag_109\n        /* \"#utility.yul\":1692:1696   */\n      dup2\n        /* \"#utility.yul\":1683:1689   */\n      dup7\n        /* \"#utility.yul\":1619:1697   */\n      tag_50\n      jump\t// in\n    tag_109:\n        /* \"#utility.yul\":1611:1697   */\n      swap1\n      pop\n        /* \"#utility.yul\":1707:1779   */\n      tag_110\n        /* \"#utility.yul\":1775:1777   */\n      0x20\n        /* \"#utility.yul\":1764:1773   */\n      dup4\n        /* \"#utility.yul\":1760:1778   */\n      add\n        /* \"#utility.yul\":1751:1757   */\n      dup6\n        /* \"#utility.yul\":1707:1779   */\n      tag_52\n      jump\t// in\n    tag_110:\n        /* \"#utility.yul\":1789:1855   */\n      tag_111\n        /* \"#utility.yul\":1851:1853   */\n      0x40\n        /* \"#utility.yul\":1840:1849   */\n      dup4\n        /* \"#utility.yul\":1836:1854   */\n      add\n        /* \"#utility.yul\":1827:1833   */\n      dup5\n        /* \"#utility.yul\":1789:1855   */\n      tag_54\n      jump\t// in\n    tag_111:\n        /* \"#utility.yul\":1341:1862   */\n      swap5\n      swap4\n      pop\n      pop\n      pop\n      pop\n      jump\t// out\n        /* \"#utility.yul\":1868:2027   */\n    tag_55:\n        /* \"#utility.yul\":1942:1953   */\n      0x00\n        /* \"#utility.yul\":1976:1982   */\n      dup3\n        /* \"#utility.yul\":1971:1974   */\n      dup3\n        /* \"#utility.yul\":1964:1983   */\n      mstore\n        /* \"#utility.yul\":2016:2020   */\n      0x20\n        /* \"#utility.yul\":2011:2014   */\n      dup3\n        /* \"#utility.yul\":2007:2021   */\n      add\n        /* \"#utility.yul\":1992:2021   */\n      swap1\n      pop\n        /* \"#utility.yul\":1868:2027   */\n      swap3\n      swap2\n      pop\n      pop\n      jump\t// out\n        /* \"#utility.yul\":2033:2390   */\n    tag_56:\n        /* \"#utility.yul\":2111:2114   */\n      0x00\n        /* \"#utility.yul\":2139:2178   */\n      tag_114\n        /* \"#utility.yul\":2172:2177   */\n      dup3\n        /* \"#utility.yul\":2139:2178   */\n      tag_46\n      jump\t// in\n    tag_114:\n        /* \"#utility.yul\":2194:2255   */\n      tag_115\n        /* \"#utility.yul\":2248:2254   */\n      dup2\n        /* \"#utility.yul\":2243:2246   */\n      dup6\n        /* \"#utility.yul\":2194:2255   */\n      tag_55\n      jump\t// in\n    tag_115:\n        /* \"#utility.yul\":2187:2255   */\n      swap4\n      pop\n        /* \"#utility.yul\":2264:2329   */\n      tag_116\n        /* \"#utility.yul\":2322:2328   */\n      dup2\n        /* \"#utility.yul\":2317:2320   */\n      dup6\n        /* \"#utility.yul\":2310:2314   */\n      0x20\n        /* \"#utility.yul\":2303:2308   */\n      dup7\n        /* \"#utility.yul\":2299:2315   */\n      add\n        /* \"#utility.yul\":2264:2329   */\n      tag_48\n      jump\t// in\n    tag_116:\n        /* \"#utility.yul\":2354:2383   */\n      tag_117\n        /* \"#utility.yul\":2376:2382   */\n      dup2\n        /* \"#utility.yul\":2354:2383   */\n      tag_49\n      jump\t// in\n    tag_117:\n        /* \"#utility.yul\":2349:2352   */\n      dup5\n        /* \"#utility.yul\":2345:2384   */\n      add\n        /* \"#utility.yul\":2338:2384   */\n      swap2\n      pop\n        /* \"#utility.yul\":2115:2390   */\n      pop\n        /* \"#utility.yul\":2033:2390   */\n      swap3\n      swap2\n      pop\n      pop\n      jump\t// out\n        /* \"#utility.yul\":2396:2504   */\n    tag_57:\n        /* \"#utility.yul\":2473:2497   */\n      tag_119\n        /* \"#utility.yul\":2491:2496   */\n      dup2\n        /* \"#utility.yul\":2473:2497   */\n      tag_51\n      jump\t// in\n    tag_119:\n        /* \"#utility.yul\":2468:2471   */\n      dup3\n        /* \"#utility.yul\":2461:2498   */\n      mstore\n        /* \"#utility.yul\":2396:2504   */\n      pop\n      pop\n      jump\t// out\n        /* \"#utility.yul\":2510:2609   */\n    tag_58:\n        /* \"#utility.yul\":2581:2602   */\n      tag_121\n        /* \"#utility.yul\":2596:2601   */\n      dup2\n        /* \"#utility.yul\":2581:2602   */\n      tag_53\n      jump\t// in\n    tag_121:\n        /* \"#utility.yul\":2576:2579   */\n      dup3\n        /* \"#utility.yul\":2569:2603   */\n      mstore\n        /* \"#utility.yul\":2510:2609   */\n      pop\n      pop\n      jump\t// out\n        /* \"#utility.yul\":2675:3453   */\n    tag_59:\n        /* \"#utility.yul\":2798:2801   */\n      0x00\n        /* \"#utility.yul\":2834:2838   */\n      0x60\n        /* \"#utility.yul\":2829:2832   */\n      dup4\n        /* \"#utility.yul\":2825:2839   */\n      add\n        /* \"#utility.yul\":2921:2925   */\n      0x00\n        /* \"#utility.yul\":2914:2919   */\n      dup4\n        /* \"#utility.yul\":2910:2926   */\n      add\n        /* \"#utility.yul\":2904:2927   */\n      mload\n        /* \"#utility.yul\":2974:2977   */\n      dup5\n        /* \"#utility.yul\":2968:2972   */\n      dup3\n        /* \"#utility.yul\":2964:2978   */\n      sub\n        /* \"#utility.yul\":2957:2961   */\n      0x00\n        /* \"#utility.yul\":2952:2955   */\n      dup7\n        /* \"#utility.yul\":2948:2962   */\n      add\n        /* \"#utility.yul\":2941:2979   */\n      mstore\n        /* \"#utility.yul\":3000:3073   */\n      tag_123\n        /* \"#utility.yul\":3068:3072   */\n      dup3\n        /* \"#utility.yul\":3054:3066   */\n      dup3\n        /* \"#utility.yul\":3000:3073   */\n      tag_56\n      jump\t// in\n    tag_123:\n        /* \"#utility.yul\":2992:3073   */\n      swap2\n      pop\n        /* \"#utility.yul\":2849:3084   */\n      pop\n        /* \"#utility.yul\":3166:3170   */\n      0x20\n        /* \"#utility.yul\":3159:3164   */\n      dup4\n        /* \"#utility.yul\":3155:3171   */\n      add\n        /* \"#utility.yul\":3149:3172   */\n      mload\n        /* \"#utility.yul\":3185:3248   */\n      tag_124\n        /* \"#utility.yul\":3242:3246   */\n      0x20\n        /* \"#utility.yul\":3237:3240   */\n      dup7\n        /* \"#utility.yul\":3233:3247   */\n      add\n        /* \"#utility.yul\":3219:3231   */\n      dup3\n        /* \"#utility.yul\":3185:3248   */\n      tag_57\n      jump\t// in\n    tag_124:\n        /* \"#utility.yul\":3094:3258   */\n      pop\n        /* \"#utility.yul\":3340:3344   */\n      0x40\n        /* \"#utility.yul\":3333:3338   */\n      dup4\n        /* \"#utility.yul\":3329:3345   */\n      add\n        /* \"#utility.yul\":3323:3346   */\n      mload\n        /* \"#utility.yul\":3359:3416   */\n      tag_125\n        /* \"#utility.yul\":3410:3414   */\n      0x40\n        /* \"#utility.yul\":3405:3408   */\n      dup7\n        /* \"#utility.yul\":3401:3415   */\n      add\n        /* \"#utility.yul\":3387:3399   */\n      dup3\n        /* \"#utility.yul\":3359:3416   */\n      tag_58\n      jump\t// in\n    tag_125:\n        /* \"#utility.yul\":3268:3426   */\n      pop\n        /* \"#utility.yul\":3443:3447   */\n      dup1\n        /* \"#utility.yul\":3436:3447   */\n      swap2\n      pop\n        /* \"#utility.yul\":2803:3453   */\n      pop\n        /* \"#utility.yul\":2675:3453   */\n      swap3\n      swap2\n      pop\n      pop\n      jump\t// out\n        /* \"#utility.yul\":3459:3840   */\n    tag_14:\n        /* \"#utility.yul\":3606:3610   */\n      0x00\n        /* \"#utility.yul\":3644:3646   */\n      0x20\n        /* \"#utility.yul\":3633:3642   */\n      dup3\n        /* \"#utility.yul\":3629:3647   */\n      add\n        /* \"#utility.yul\":3621:3647   */\n      swap1\n      pop\n        /* \"#utility.yul\":3693:3702   */\n      dup2\n        /* \"#utility.yul\":3687:3691   */\n      dup2\n        /* \"#utility.yul\":3683:3703   */\n      sub\n        /* \"#utility.yul\":3679:3680   */\n      0x00\n        /* \"#utility.yul\":3668:3677   */\n      dup4\n        /* \"#utility.yul\":3664:3681   */\n      add\n        /* \"#utility.yul\":3657:3704   */\n      mstore\n        /* \"#utility.yul\":3721:3833   */\n      tag_127\n        /* \"#utility.yul\":3828:3832   */\n      dup2\n        /* \"#utility.yul\":3819:3825   */\n      dup5\n        /* \"#utility.yul\":3721:3833   */\n      tag_59\n      jump\t// in\n    tag_127:\n        /* \"#utility.yul\":3713:3833   */\n      swap1\n      pop\n        /* \"#utility.yul\":3459:3840   */\n      swap3\n      swap2\n      pop\n      pop\n      jump\t// out\n        /* \"#utility.yul\":3846:3921   */\n    tag_60:\n        /* \"#utility.yul\":3879:3885   */\n      0x00\n        /* \"#utility.yul\":3912:3914   */\n      0x40\n        /* \"#utility.yul\":3906:3915   */\n      mload\n        /* \"#utility.yul\":3896:3915   */\n      swap1\n      pop\n        /* \"#utility.yul\":3846:3921   */\n      swap1\n      jump\t// out\n        /* \"#utility.yul\":3927:4044   */\n    tag_61:\n        /* \"#utility.yul\":4036:4037   */\n      0x00\n        /* \"#utility.yul\":4033:4034   */\n      0x00\n        /* \"#utility.yul\":4026:4038   */\n      revert\n        /* \"#utility.yul\":4050:4167   */\n    tag_62:\n        /* \"#utility.yul\":4159:4160   */\n      0x00\n        /* \"#utility.yul\":4156:4157   */\n      0x00\n        /* \"#utility.yul\":4149:4161   */\n      revert\n        /* \"#utility.yul\":4173:4290   */\n    tag_63:\n        /* \"#utility.yul\":4282:4283   */\n      0x00\n        /* \"#utility.yul\":4279:4280   */\n      0x00\n        /* \"#utility.yul\":4272:4284   */\n      revert\n        /* \"#utility.yul\":4296:4413   */\n    tag_64:\n        /* \"#utility.yul\":4405:4406   */\n      0x00\n        /* \"#utility.yul\":4402:4403   */\n      0x00\n        /* \"#utility.yul\":4395:4407   */\n      revert\n        /* \"#utility.yul\":4419:4599   */\n    tag_65:\n        /* \"#utility.yul\":4467:4544   */\n      0x4e487b7100000000000000000000000000000000000000000000000000000000\n        /* \"#utility.yul\":4464:4465   */\n      0x00\n        /* \"#utility.yul\":4457:4545   */\n      mstore\n        /* \"#utility.yul\":4564:4568   */\n      0x41\n        /* \"#utility.yul\":4561:4562   */\n      0x04\n        /* \"#utility.yul\":4554:4569   */\n      mstore\n        /* \"#utility.yul\":4588:4592   */\n      0x24\n        /* \"#utility.yul\":4585:4586   */\n      0x00\n        /* \"#utility.yul\":4578:4593   */\n      revert\n        /* \"#utility.yul\":4605:4886   */\n    tag_66:\n        /* \"#utility.yul\":4688:4715   */\n      tag_135\n        /* \"#utility.yul\":4710:4714   */\n      dup3\n        /* \"#utility.yul\":4688:4715   */\n      tag_49\n      jump\t// in\n    tag_135:\n        /* \"#utility.yul\":4680:4686   */\n      dup2\n        /* \"#utility.yul\":4676:4716   */\n      add\n        /* \"#utility.yul\":4818:4824   */\n      dup2\n        /* \"#utility.yul\":4806:4816   */\n      dup2\n        /* \"#utility.yul\":4803:4825   */\n      lt\n        /* \"#utility.yul\":4782:4800   */\n      0xffffffffffffffff\n        /* \"#utility.yul\":4770:4780   */\n      dup3\n        /* \"#utility.yul\":4767:4801   */\n      gt\n        /* \"#utility.yul\":4764:4826   */\n      or\n        /* \"#utility.yul\":4761:4849   */\n      iszero\n      tag_136\n      jumpi\n        /* \"#utility.yul\":4829:4847   */\n      tag_137\n      tag_65\n      jump\t// in\n    tag_137:\n        /* \"#utility.yul\":4761:4849   */\n    tag_136:\n        /* \"#utility.yul\":4869:4879   */\n      dup1\n        /* \"#utility.yul\":4865:4867   */\n      0x40\n        /* \"#utility.yul\":4858:4880   */\n      mstore\n        /* \"#utility.yul\":4648:4886   */\n      pop\n        /* \"#utility.yul\":4605:4886   */\n      pop\n      pop\n      jump\t// out\n        /* \"#utility.yul\":4892:5021   */\n    tag_67:\n        /* \"#utility.yul\":4926:4932   */\n      0x00\n        /* \"#utility.yul\":4953:4973   */\n      tag_139\n      tag_60\n      jump\t// in\n    tag_139:\n        /* \"#utility.yul\":4943:4973   */\n      swap1\n      pop\n        /* \"#utility.yul\":4982:5015   */\n      tag_140\n        /* \"#utility.yul\":5010:5014   */\n      dup3\n        /* \"#utility.yul\":5002:5008   */\n      dup3\n        /* \"#utility.yul\":4982:5015   */\n      tag_66\n      jump\t// in\n    tag_140:\n        /* \"#utility.yul\":4892:5021   */\n      swap2\n      swap1\n      pop\n      jump\t// out\n        /* \"#utility.yul\":5027:5335   */\n    tag_68:\n        /* \"#utility.yul\":5089:5093   */\n      0x00\n        /* \"#utility.yul\":5179:5197   */\n      0xffffffffffffffff\n        /* \"#utility.yul\":5171:5177   */\n      dup3\n        /* \"#utility.yul\":5168:5198   */\n      gt\n        /* \"#utility.yul\":5165:5221   */\n      iszero\n      tag_142\n      jumpi\n        /* \"#utility.yul\":5201:5219   */\n      tag_143\n      tag_65\n      jump\t// in\n    tag_143:\n        /* \"#utility.yul\":5165:5221   */\n    tag_142:\n        /* \"#utility.yul\":5239:5268   */\n      tag_144\n        /* \"#utility.yul\":5261:5267   */\n      dup3\n        /* \"#utility.yul\":5239:5268   */\n      tag_49\n      jump\t// in\n    tag_144:\n        /* \"#utility.yul\":5231:5268   */\n      swap1\n      pop\n        /* \"#utility.yul\":5323:5327   */\n      0x20\n        /* \"#utility.yul\":5317:5321   */\n      dup2\n        /* \"#utility.yul\":5313:5328   */\n      add\n        /* \"#utility.yul\":5305:5328   */\n      swap1\n      pop\n        /* \"#utility.yul\":5027:5335   */\n      swap2\n      swap1\n      pop\n      jump\t// out\n        /* \"#utility.yul\":5341:5489   */\n    tag_69:\n        /* \"#utility.yul\":5439:5445   */\n      dup3\n        /* \"#utility.yul\":5434:5437   */\n      dup2\n        /* \"#utility.yul\":5429:5432   */\n      dup4\n        /* \"#utility.yul\":5416:5446   */\n      calldatacopy\n        /* \"#utility.yul\":5480:5481   */\n      0x00\n        /* \"#utility.yul\":5471:5477   */\n      dup4\n        /* \"#utility.yul\":5466:5469   */\n      dup4\n        /* \"#utility.yul\":5462:5478   */\n      add\n        /* \"#utility.yul\":5455:5482   */\n      mstore\n        /* \"#utility.yul\":5341:5489   */\n      pop\n      pop\n      pop\n      jump\t// out\n        /* \"#utility.yul\":5495:5920   */\n    tag_70:\n        /* \"#utility.yul\":5573:5578   */\n      0x00\n        /* \"#utility.yul\":5598:5664   */\n      tag_147\n        /* \"#utility.yul\":5614:5663   */\n      tag_148\n        /* \"#utility.yul\":5656:5662   */\n      dup5\n        /* \"#utility.yul\":5614:5663   */\n      tag_68\n      jump\t// in\n    tag_148:\n        /* \"#utility.yul\":5598:5664   */\n      tag_67\n      jump\t// in\n    tag_147:\n        /* \"#utility.yul\":5589:5664   */\n      swap1\n      pop\n        /* \"#utility.yul\":5687:5693   */\n      dup3\n        /* \"#utility.yul\":5680:5685   */\n      dup2\n        /* \"#utility.yul\":5673:5694   */\n      mstore\n        /* \"#utility.yul\":5725:5729   */\n      0x20\n        /* \"#utility.yul\":5718:5723   */\n      dup2\n        /* \"#utility.yul\":5714:5730   */\n      add\n        /* \"#utility.yul\":5763:5766   */\n      dup5\n        /* \"#utility.yul\":5754:5760   */\n      dup5\n        /* \"#utility.yul\":5749:5752   */\n      dup5\n        /* \"#utility.yul\":5745:5761   */\n      add\n        /* \"#utility.yul\":5742:5767   */\n      gt\n        /* \"#utility.yul\":5739:5851   */\n      iszero\n      tag_149\n      jumpi\n        /* \"#utility.yul\":5770:5849   */\n      tag_150\n      tag_64\n      jump\t// in\n    tag_150:\n        /* \"#utility.yul\":5739:5851   */\n    tag_149:\n        /* \"#utility.yul\":5860:5914   */\n      tag_151\n        /* \"#utility.yul\":5907:5913   */\n      dup5\n        /* \"#utility.yul\":5902:5905   */\n      dup3\n        /* \"#utility.yul\":5897:5900   */\n      dup6\n        /* \"#utility.yul\":5860:5914   */\n      tag_69\n      jump\t// in\n    tag_151:\n        /* \"#utility.yul\":5579:5920   */\n      pop\n        /* \"#utility.yul\":5495:5920   */\n      swap4\n      swap3\n      pop\n      pop\n      pop\n      jump\t// out\n        /* \"#utility.yul\":5940:6280   */\n    tag_71:\n        /* \"#utility.yul\":5996:6001   */\n      0x00\n        /* \"#utility.yul\":6045:6048   */\n      dup3\n        /* \"#utility.yul\":6038:6042   */\n      0x1f\n        /* \"#utility.yul\":6030:6036   */\n      dup4\n        /* \"#utility.yul\":6026:6043   */\n      add\n        /* \"#utility.yul\":6022:6049   */\n      slt\n        /* \"#utility.yul\":6012:6134   */\n      tag_153\n      jumpi\n        /* \"#utility.yul\":6053:6132   */\n      tag_154\n      tag_63\n      jump\t// in\n    tag_154:\n        /* \"#utility.yul\":6012:6134   */\n    tag_153:\n        /* \"#utility.yul\":6170:6176   */\n      dup2\n        /* \"#utility.yul\":6157:6177   */\n      calldataload\n        /* \"#utility.yul\":6195:6274   */\n      tag_155\n        /* \"#utility.yul\":6270:6273   */\n      dup5\n        /* \"#utility.yul\":6262:6268   */\n      dup3\n        /* \"#utility.yul\":6255:6259   */\n      0x20\n        /* \"#utility.yul\":6247:6253   */\n      dup7\n        /* \"#utility.yul\":6243:6260   */\n      add\n        /* \"#utility.yul\":6195:6274   */\n      tag_70\n      jump\t// in\n    tag_155:\n        /* \"#utility.yul\":6186:6274   */\n      swap2\n      pop\n        /* \"#utility.yul\":6002:6280   */\n      pop\n        /* \"#utility.yul\":5940:6280   */\n      swap3\n      swap2\n      pop\n      pop\n      jump\t// out\n        /* \"#utility.yul\":6286:6408   */\n    tag_72:\n        /* \"#utility.yul\":6359:6383   */\n      tag_157\n        /* \"#utility.yul\":6377:6382   */\n      dup2\n        /* \"#utility.yul\":6359:6383   */\n      tag_51\n      jump\t// in\n    tag_157:\n        /* \"#utility.yul\":6352:6357   */\n      dup2\n        /* \"#utility.yul\":6349:6384   */\n      eq\n        /* \"#utility.yul\":6339:6402   */\n      tag_158\n      jumpi\n        /* \"#utility.yul\":6398:6399   */\n      0x00\n        /* \"#utility.yul\":6395:6396   */\n      0x00\n        /* \"#utility.yul\":6388:6400   */\n      revert\n        /* \"#utility.yul\":6339:6402   */\n    tag_158:\n        /* \"#utility.yul\":6286:6408   */\n      pop\n      jump\t// out\n        /* \"#utility.yul\":6414:6553   */\n    tag_73:\n        /* \"#utility.yul\":6460:6465   */\n      0x00\n        /* \"#utility.yul\":6498:6504   */\n      dup2\n        /* \"#utility.yul\":6485:6505   */\n      calldataload\n        /* \"#utility.yul\":6476:6505   */\n      swap1\n      pop\n        /* \"#utility.yul\":6514:6547   */\n      tag_160\n        /* \"#utility.yul\":6541:6546   */\n      dup2\n        /* \"#utility.yul\":6514:6547   */\n      tag_72\n      jump\t// in\n    tag_160:\n        /* \"#utility.yul\":6414:6553   */\n      swap3\n      swap2\n      pop\n      pop\n      jump\t// out\n        /* \"#utility.yul\":6559:6675   */\n    tag_74:\n        /* \"#utility.yul\":6629:6650   */\n      tag_162\n        /* \"#utility.yul\":6644:6649   */\n      dup2\n        /* \"#utility.yul\":6629:6650   */\n      tag_53\n      jump\t// in\n    tag_162:\n        /* \"#utility.yul\":6622:6627   */\n      dup2\n        /* \"#utility.yul\":6619:6651   */\n      eq\n        /* \"#utility.yul\":6609:6669   */\n      tag_163\n      jumpi\n        /* \"#utility.yul\":6665:6666   */\n      0x00\n        /* \"#utility.yul\":6662:6663   */\n      0x00\n        /* \"#utility.yul\":6655:6667   */\n      revert\n        /* \"#utility.yul\":6609:6669   */\n    tag_163:\n        /* \"#utility.yul\":6559:6675   */\n      pop\n      jump\t// out\n        /* \"#utility.yul\":6681:6814   */\n    tag_75:\n        /* \"#utility.yul\":6724:6729   */\n      0x00\n        /* \"#utility.yul\":6762:6768   */\n      dup2\n        /* \"#utility.yul\":6749:6769   */\n      calldataload\n        /* \"#utility.yul\":6740:6769   */\n      swap1\n      pop\n        /* \"#utility.yul\":6778:6808   */\n      tag_165\n        /* \"#utility.yul\":6802:6807   */\n      dup2\n        /* \"#utility.yul\":6778:6808   */\n      tag_74\n      jump\t// in\n    tag_165:\n        /* \"#utility.yul\":6681:6814   */\n      swap3\n      swap2\n      pop\n      pop\n      jump\t// out\n        /* \"#utility.yul\":6820:7613   */\n    tag_17:\n        /* \"#utility.yul\":6904:6910   */\n      0x00\n        /* \"#utility.yul\":6912:6918   */\n      0x00\n        /* \"#utility.yul\":6920:6926   */\n      0x00\n        /* \"#utility.yul\":6969:6971   */\n      0x60\n        /* \"#utility.yul\":6957:6966   */\n      dup5\n        /* \"#utility.yul\":6948:6955   */\n      dup7\n        /* \"#utility.yul\":6944:6967   */\n      sub\n        /* \"#utility.yul\":6940:6972   */\n      slt\n        /* \"#utility.yul\":6937:7056   */\n      iszero\n      tag_167\n      jumpi\n        /* \"#utility.yul\":6975:7054   */\n      tag_168\n      tag_61\n      jump\t// in\n    tag_168:\n        /* \"#utility.yul\":6937:7056   */\n    tag_167:\n        /* \"#utility.yul\":7123:7124   */\n      0x00\n        /* \"#utility.yul\":7112:7121   */\n      dup5\n        /* \"#utility.yul\":7108:7125   */\n      add\n        /* \"#utility.yul\":7095:7126   */\n      calldataload\n        /* \"#utility.yul\":7153:7171   */\n      0xffffffffffffffff\n        /* \"#utility.yul\":7145:7151   */\n      dup2\n        /* \"#utility.yul\":7142:7172   */\n      gt\n        /* \"#utility.yul\":7139:7256   */\n      iszero\n      tag_169\n      jumpi\n        /* \"#utility.yul\":7175:7254   */\n      tag_170\n      tag_62\n      jump\t// in\n    tag_170:\n        /* \"#utility.yul\":7139:7256   */\n    tag_169:\n        /* \"#utility.yul\":7280:7343   */\n      tag_171\n        /* \"#utility.yul\":7335:7342   */\n      dup7\n        /* \"#utility.yul\":7326:7332   */\n      dup3\n        /* \"#utility.yul\":7315:7324   */\n      dup8\n        /* \"#utility.yul\":7311:7333   */\n      add\n        /* \"#utility.yul\":7280:7343   */\n      tag_71\n      jump\t// in\n    tag_171:\n        /* \"#utility.yul\":7270:7343   */\n      swap4\n      pop\n        /* \"#utility.yul\":7066:7353   */\n      pop\n        /* \"#utility.yul\":7392:7394   */\n      0x20\n        /* \"#utility.yul\":7418:7471   */\n      tag_172\n        /* \"#utility.yul\":7463:7470   */\n      dup7\n        /* \"#utility.yul\":7454:7460   */\n      dup3\n        /* \"#utility.yul\":7443:7452   */\n      dup8\n        /* \"#utility.yul\":7439:7461   */\n      add\n        /* \"#utility.yul\":7418:7471   */\n      tag_73\n      jump\t// in\n    tag_172:\n        /* \"#utility.yul\":7408:7471   */\n      swap3\n      pop\n        /* \"#utility.yul\":7363:7481   */\n      pop\n        /* \"#utility.yul\":7520:7522   */\n      0x40\n        /* \"#utility.yul\":7546:7596   */\n      tag_173\n        /* \"#utility.yul\":7588:7595   */\n      dup7\n        /* \"#utility.yul\":7579:7585   */\n      dup3\n        /* \"#utility.yul\":7568:7577   */\n      dup8\n        /* \"#utility.yul\":7564:7586   */\n      add\n        /* \"#utility.yul\":7546:7596   */\n      tag_75\n      jump\t// in\n    tag_173:\n        /* \"#utility.yul\":7536:7596   */\n      swap2\n      pop\n        /* \"#utility.yul\":7491:7606   */\n      pop\n        /* \"#utility.yul\":6820:7613   */\n      swap3\n      pop\n      swap3\n      pop\n      swap3\n      jump\t// out\n        /* \"#utility.yul\":7619:7932   */\n    tag_22:\n        /* \"#utility.yul\":7732:7736   */\n      0x00\n        /* \"#utility.yul\":7770:7772   */\n      0x20\n        /* \"#utility.yul\":7759:7768   */\n      dup3\n        /* \"#utility.yul\":7755:7773   */\n      add\n        /* \"#utility.yul\":7747:7773   */\n      swap1\n      pop\n        /* \"#utility.yul\":7819:7828   */\n      dup2\n        /* \"#utility.yul\":7813:7817   */\n      dup2\n        /* \"#utility.yul\":7809:7829   */\n      sub\n        /* \"#utility.yul\":7805:7806   */\n      0x00\n        /* \"#utility.yul\":7794:7803   */\n      dup4\n        /* \"#utility.yul\":7790:7807   */\n      add\n        /* \"#utility.yul\":7783:7830   */\n      mstore\n        /* \"#utility.yul\":7847:7925   */\n      tag_175\n        /* \"#utility.yul\":7920:7924   */\n      dup2\n        /* \"#utility.yul\":7911:7917   */\n      dup5\n        /* \"#utility.yul\":7847:7925   */\n      tag_50\n      jump\t// in\n    tag_175:\n        /* \"#utility.yul\":7839:7925   */\n      swap1\n      pop\n        /* \"#utility.yul\":7619:7932   */\n      swap3\n      swap2\n      pop\n      pop\n      jump\t// out\n        /* \"#utility.yul\":7938:8118   */\n    tag_76:\n        /* \"#utility.yul\":7986:8063   */\n      0x4e487b7100000000000000000000000000000000000000000000000000000000\n        /* \"#utility.yul\":7983:7984   */\n      0x00\n        /* \"#utility.yul\":7976:8064   */\n      mstore\n        /* \"#utility.yul\":8083:8087   */\n      0x22\n        /* \"#utility.yul\":8080:8081   */\n      0x04\n        /* \"#utility.yul\":8073:8088   */\n      mstore\n        /* \"#utility.yul\":8107:8111   */\n      0x24\n        /* \"#utility.yul\":8104:8105   */\n      0x00\n        /* \"#utility.yul\":8097:8112   */\n      revert\n        /* \"#utility.yul\":8124:8444   */\n    tag_24:\n        /* \"#utility.yul\":8168:8174   */\n      0x00\n        /* \"#utility.yul\":8205:8206   */\n      0x02\n        /* \"#utility.yul\":8199:8203   */\n      dup3\n        /* \"#utility.yul\":8195:8207   */\n      div\n        /* \"#utility.yul\":8185:8207   */\n      swap1\n      pop\n        /* \"#utility.yul\":8252:8253   */\n      0x01\n        /* \"#utility.yul\":8246:8250   */\n      dup3\n        /* \"#utility.yul\":8242:8254   */\n      and\n        /* \"#utility.yul\":8273:8291   */\n      dup1\n        /* \"#utility.yul\":8263:8344   */\n      tag_178\n      jumpi\n        /* \"#utility.yul\":8329:8333   */\n      0x7f\n        /* \"#utility.yul\":8321:8327   */\n      dup3\n        /* \"#utility.yul\":8317:8334   */\n      and\n        /* \"#utility.yul\":8307:8334   */\n      swap2\n      pop\n        /* \"#utility.yul\":8263:8344   */\n    tag_178:\n        /* \"#utility.yul\":8391:8393   */\n      0x20\n        /* \"#utility.yul\":8383:8389   */\n      dup3\n        /* \"#utility.yul\":8380:8394   */\n      lt\n        /* \"#utility.yul\":8360:8378   */\n      dup2\n        /* \"#utility.yul\":8357:8395   */\n      sub\n        /* \"#utility.yul\":8354:8438   */\n      tag_179\n      jumpi\n        /* \"#utility.yul\":8410:8428   */\n      tag_180\n      tag_76\n      jump\t// in\n    tag_180:\n        /* \"#utility.yul\":8354:8438   */\n    tag_179:\n        /* \"#utility.yul\":8175:8444   */\n      pop\n        /* \"#utility.yul\":8124:8444   */\n      swap2\n      swap1\n      pop\n      jump\t// out\n        /* \"#utility.yul\":8450:8591   */\n    tag_77:\n        /* \"#utility.yul\":8499:8503   */\n      0x00\n        /* \"#utility.yul\":8522:8525   */\n      dup2\n        /* \"#utility.yul\":8514:8525   */\n      swap1\n      pop\n        /* \"#utility.yul\":8545:8548   */\n      dup2\n        /* \"#utility.yul\":8542:8543   */\n      0x00\n        /* \"#utility.yul\":8535:8549   */\n      mstore\n        /* \"#utility.yul\":8579:8583   */\n      0x20\n        /* \"#utility.yul\":8576:8577   */\n      0x00\n        /* \"#utility.yul\":8566:8584   */\n      keccak256\n        /* \"#utility.yul\":8558:8584   */\n      swap1\n      pop\n        /* \"#utility.yul\":8450:8591   */\n      swap2\n      swap1\n      pop\n      jump\t// out\n        /* \"#utility.yul\":8597:8690   */\n    tag_78:\n        /* \"#utility.yul\":8634:8640   */\n      0x00\n        /* \"#utility.yul\":8681:8683   */\n      0x20\n        /* \"#utility.yul\":8676:8678   */\n      0x1f\n        /* \"#utility.yul\":8669:8674   */\n      dup4\n        /* \"#utility.yul\":8665:8679   */\n      add\n        /* \"#utility.yul\":8661:8684   */\n      div\n        /* \"#utility.yul\":8651:8684   */\n      swap1\n      pop\n        /* \"#utility.yul\":8597:8690   */\n      swap2\n      swap1\n      pop\n      jump\t// out\n        /* \"#utility.yul\":8696:8803   */\n    tag_79:\n        /* \"#utility.yul\":8740:8748   */\n      0x00\n        /* \"#utility.yul\":8790:8795   */\n      dup3\n        /* \"#utility.yul\":8784:8788   */\n      dup3\n        /* \"#utility.yul\":8780:8796   */\n      shl\n        /* \"#utility.yul\":8759:8796   */\n      swap1\n      pop\n        /* \"#utility.yul\":8696:8803   */\n      swap3\n      swap2\n      pop\n      pop\n      jump\t// out\n        /* \"#utility.yul\":8809:9202   */\n    tag_80:\n        /* \"#utility.yul\":8878:8884   */\n      0x00\n        /* \"#utility.yul\":8928:8929   */\n      0x08\n        /* \"#utility.yul\":8916:8926   */\n      dup4\n        /* \"#utility.yul\":8912:8930   */\n      mul\n        /* \"#utility.yul\":8951:9048   */\n      tag_185\n        /* \"#utility.yul\":8981:9047   */\n      0xffffffffffffffffffffffffffffffffffffffffffffffffffffffffffffffff\n        /* \"#utility.yul\":8970:8979   */\n      dup3\n        /* \"#utility.yul\":8951:9048   */\n      tag_79\n      jump\t// in\n    tag_185:\n        /* \"#utility.yul\":9069:9108   */\n      tag_186\n        /* \"#utility.yul\":9099:9107   */\n      dup7\n        /* \"#utility.yul\":9088:9097   */\n      dup4\n        /* \"#utility.yul\":9069:9108   */\n      tag_79\n      jump\t// in\n    tag_186:\n        /* \"#utility.yul\":9057:9108   */\n      swap6\n      pop\n        /* \"#utility.yul\":9141:9145   */\n      dup1\n        /* \"#utility.yul\":9137:9146   */\n      not\n        /* \"#utility.yul\":9130:9135   */\n      dup5\n        /* \"#utility.yul\":9126:9147   */\n      and\n        /* \"#utility.yul\":9117:9147   */\n      swap4\n      pop\n        /* \"#utility.yul\":9190:9194   */\n      dup1\n        /* \"#utility.yul\":9180:9188   */\n      dup7\n        /* \"#utility.yul\":9176:9195   */\n      and\n        /* \"#utility.yul\":9169:9174   */\n      dup5\n        /* \"#utility.yul\":9166:9196   */\n      or\n        /* \"#utility.yul\":9156:9196   */\n      swap3\n      pop\n        /* \"#utility.yul\":8885:9202   */\n      pop\n      pop\n        /* \"#utility.yul\":8809:9202   */\n      swap4\n      swap3\n      pop\n      pop\n      pop\n      jump\t// out\n        /* \"#utility.yul\":9208:9268   */\n    tag_81:\n        /* \"#utility.yul\":9236:9239   */\n      0x00\n        /* \"#utility.yul\":9257:9262   */\n      dup2\n        /* \"#utility.yul\":9250:9262   */\n      swap1\n      pop\n        /* \"#utility.yul\":9208:9268   */\n      swap2\n      swap1\n      pop\n      jump\t// out\n        /* \"#utility.yul\":9274:9416   */\n    tag_82:\n        /* \"#utility.yul\":9324:9333   */\n      0x00\n        /* \"#utility.yul\":9357:9410   */\n      tag_189\n        /* \"#utility.yul\":9375:9409   */\n      tag_190\n        /* \"#utility.yul\":9384:9408   */\n      tag_191\n        /* \"#utility.yul\":9402:9407   */\n      dup5\n        /* \"#utility.yul\":9384:9408   */\n      tag_51\n      jump\t// in\n    tag_191:\n        /* \"#utility.yul\":9375:9409   */\n      tag_81\n      jump\t// in\n    tag_190:\n        /* \"#utility.yul\":9357:9410   */\n      tag_51\n      jump\t// in\n    tag_189:\n        /* \"#utility.yul\":9344:9410   */\n      swap1\n      pop\n        /* \"#utility.yul\":9274:9416   */\n      swap2\n      swap1\n      pop\n      jump\t// out\n        /* \"#utility.yul\":9422:9497   */\n    tag_83:\n        /* \"#utility.yul\":9465:9468   */\n      0x00\n        /* \"#utility.yul\":9486:9491   */\n      dup2\n        /* \"#utility.yul\":9479:9491   */\n      swap1\n      pop\n        /* \"#utility.yul\":9422:9497   */\n      swap2\n      swap1\n      pop\n      jump\t// out\n        /* \"#utility.yul\":9503:9772   */\n    tag_84:\n        /* \"#utility.yul\":9613:9652   */\n      tag_194\n        /* \"#utility.yul\":9644:9651   */\n      dup4\n        /* \"#utility.yul\":9613:9652   */\n      tag_82\n      jump\t// in\n    tag_194:\n        /* \"#utility.yul\":9674:9765   */\n      tag_195\n        /* \"#utility.yul\":9723:9764   */\n      tag_196\n        /* \"#utility.yul\":9747:9763   */\n      dup3\n        /* \"#utility.yul\":9723:9764   */\n      tag_83\n      jump\t// in\n    tag_196:\n        /* \"#utility.yul\":9715:9721   */\n      dup5\n        /* \"#utility.yul\":9708:9712   */\n      dup5\n        /* \"#utility.yul\":9702:9713   */\n      sload\n        /* \"#utility.yul\":9674:9765   */\n      tag_80\n      jump\t// in\n    tag_195:\n        /* \"#utility.yul\":9668:9672   */\n      dup3\n        /* \"#utility.yul\":9661:9766   */\n      sstore\n        /* \"#utility.yul\":9579:9772   */\n      pop\n        /* \"#utility.yul\":9503:9772   */\n      pop\n      pop\n      pop\n      jump\t// out\n        /* \"#utility.yul\":9778:9851   */\n    tag_85:\n        /* \"#utility.yul\":9823:9826   */\n      0x00\n        /* \"#utility.yul\":9844:9845   */\n      0x00\n        /* \"#utility.yul\":9837:9845   */\n      swap1\n      pop\n        /* \"#utility.yul\":9778:9851   */\n      swap1\n      jump\t// out\n        /* \"#utility.yul\":9857:10046   */\n    tag_86:\n        /* \"#utility.yul\":9934:9966   */\n      tag_199\n      tag_85\n      jump\t// in\n    tag_199:\n        /* \"#utility.yul\":9975:10040   */\n      tag_200\n        /* \"#utility.yul\":10033:10039   */\n      dup2\n        /* \"#utility.yul\":10025:10031   */\n      dup5\n        /* \"#utility.yul\":10019:10023   */\n      dup5\n        /* \"#utility.yul\":9975:10040   */\n      tag_84\n      jump\t// in\n    tag_200:\n        /* \"#utility.yul\":9910:10046   */\n      pop\n        /* \"#utility.yul\":9857:10046   */\n      pop\n      pop\n      jump\t// out\n        /* \"#utility.yul\":10052:10238   */\n    tag_87:\n        /* \"#utility.yul\":10112:10232   */\n    tag_202:\n        /* \"#utility.yul\":10129:10132   */\n      dup2\n        /* \"#utility.yul\":10122:10127   */\n      dup2\n        /* \"#utility.yul\":10119:10133   */\n      lt\n        /* \"#utility.yul\":10112:10232   */\n      iszero\n      tag_204\n      jumpi\n        /* \"#utility.yul\":10183:10222   */\n      tag_205\n        /* \"#utility.yul\":10220:10221   */\n      0x00\n        /* \"#utility.yul\":10213:10218   */\n      dup3\n        /* \"#utility.yul\":10183:10222   */\n      tag_86\n      jump\t// in\n    tag_205:\n        /* \"#utility.yul\":10156:10157   */\n      0x01\n        /* \"#utility.yul\":10149:10154   */\n      dup2\n        /* \"#utility.yul\":10145:10158   */\n      add\n        /* \"#utility.yul\":10136:10158   */\n      swap1\n      pop\n        /* \"#utility.yul\":10112:10232   */\n      jump(tag_202)\n    tag_204:\n        /* \"#utility.yul\":10052:10238   */\n      pop\n      pop\n      jump\t// out\n        /* \"#utility.yul\":10244:10787   */\n    tag_88:\n        /* \"#utility.yul\":10345:10347   */\n      0x1f\n        /* \"#utility.yul\":10340:10343   */\n      dup3\n        /* \"#utility.yul\":10337:10348   */\n      gt\n        /* \"#utility.yul\":10334:10780   */\n      iszero\n      tag_207\n      jumpi\n        /* \"#utility.yul\":10379:10417   */\n      tag_208\n        /* \"#utility.yul\":10411:10416   */\n      dup2\n        /* \"#utility.yul\":10379:10417   */\n      tag_77\n      jump\t// in\n    tag_208:\n        /* \"#utility.yul\":10463:10492   */\n      tag_209\n        /* \"#utility.yul\":10481:10491   */\n      dup5\n        /* \"#utility.yul\":10463:10492   */\n      tag_78\n      jump\t// in\n    tag_209:\n        /* \"#utility.yul\":10453:10461   */\n      dup2\n        /* \"#utility.yul\":10449:10493   */\n      add\n        /* \"#utility.yul\":10646:10648   */\n      0x20\n        /* \"#utility.yul\":10634:10644   */\n      dup6\n        /* \"#utility.yul\":10631:10649   */\n      lt\n        /* \"#utility.yul\":10628:10677   */\n      iszero\n      tag_210\n      jumpi\n        /* \"#utility.yul\":10667:10675   */\n      dup2\n        /* \"#utility.yul\":10652:10675   */\n      swap1\n      pop\n        /* \"#utility.yul\":10628:10677   */\n    tag_210:\n        /* \"#utility.yul\":10690:10770   */\n      tag_211\n        /* \"#utility.yul\":10746:10768   */\n      tag_212\n        /* \"#utility.yul\":10764:10767   */\n      dup6\n        /* \"#utility.yul\":10746:10768   */\n      tag_78\n      jump\t// in\n    tag_212:\n        /* \"#utility.yul\":10736:10744   */\n      dup4\n        /* \"#utility.yul\":10732:10769   */\n      add\n        /* \"#utility.yul\":10719:10730   */\n      dup3\n        /* \"#utility.yul\":10690:10770   */\n      tag_87\n      jump\t// in\n    tag_211:\n        /* \"#utility.yul\":10349:10780   */\n      pop\n      pop\n        /* \"#utility.yul\":10334:10780   */\n    tag_207:\n        /* \"#utility.yul\":10244:10787   */\n      pop\n      pop\n      pop\n      jump\t// out\n        /* \"#utility.yul\":10793:10910   */\n    tag_89:\n        /* \"#utility.yul\":10847:10855   */\n      0x00\n        /* \"#utility.yul\":10897:10902   */\n      dup3\n        /* \"#utility.yul\":10891:10895   */\n      dup3\n        /* \"#utility.yul\":10887:10903   */\n      shr\n        /* \"#utility.yul\":10866:10903   */\n      swap1\n      pop\n        /* \"#utility.yul\":10793:10910   */\n      swap3\n      swap2\n      pop\n      pop\n      jump\t// out\n        /* \"#utility.yul\":10916:11085   */\n    tag_90:\n        /* \"#utility.yul\":10960:10966   */\n      0x00\n        /* \"#utility.yul\":10993:11044   */\n      tag_215\n        /* \"#utility.yul\":11041:11042   */\n      0x00\n        /* \"#utility.yul\":11037:11043   */\n      not\n        /* \"#utility.yul\":11029:11034   */\n      dup5\n        /* \"#utility.yul\":11026:11027   */\n      0x08\n        /* \"#utility.yul\":11022:11035   */\n      mul\n        /* \"#utility.yul\":10993:11044   */\n      tag_89\n      jump\t// in\n    tag_215:\n        /* \"#utility.yul\":10989:11045   */\n      not\n        /* \"#utility.yul\":11074:11078   */\n      dup1\n        /* \"#utility.yul\":11068:11072   */\n      dup4\n        /* \"#utility.yul\":11064:11079   */\n      and\n        /* \"#utility.yul\":11054:11079   */\n      swap2\n      pop\n        /* \"#utility.yul\":10967:11085   */\n      pop\n        /* \"#utility.yul\":10916:11085   */\n      swap3\n      swap2\n      pop\n      pop\n      jump\t// out\n        /* \"#utility.yul\":11090:11385   */\n    tag_91:\n        /* \"#utility.yul\":11166:11170   */\n      0x00\n        /* \"#utility.yul\":11312:11341   */\n      tag_217\n        /* \"#utility.yul\":11337:11340   */\n      dup4\n        /* \"#utility.yul\":11331:11335   */\n      dup4\n        /* \"#utility.yul\":11312:11341   */\n      tag_90\n      jump\t// in\n    tag_217:\n        /* \"#utility.yul\":11304:11341   */\n      swap2\n      pop\n        /* \"#utility.yul\":11374:11377   */\n      dup3\n        /* \"#utility.yul\":11371:11372   */\n      0x02\n        /* \"#utility.yul\":11367:11378   */\n      mul\n        /* \"#utility.yul\":11361:11365   */\n      dup3\n        /* \"#utility.yul\":11358:11379   */\n      or\n        /* \"#utility.yul\":11350:11379   */\n      swap1\n      pop\n        /* \"#utility.yul\":11090:11385   */\n      swap3\n      swap2\n      pop\n      pop\n      jump\t// out\n        /* \"#utility.yul\":11390:12785   */\n    tag_39:\n        /* \"#utility.yul\":11507:11544   */\n      tag_219\n        /* \"#utility.yul\":11540:11543   */\n      dup3\n        /* \"#utility.yul\":11507:11544   */\n      tag_46\n      jump\t// in\n    tag_219:\n        /* \"#utility.yul\":11609:11627   */\n      0xffffffffffffffff\n        /* \"#utility.yul\":11601:11607   */\n      dup2\n        /* \"#utility.yul\":11598:11628   */\n      gt\n        /* \"#utility.yul\":11595:11651   */\n      iszero\n      tag_220\n      jumpi\n        /* \"#utility.yul\":11631:11649   */\n      tag_221\n      tag_65\n      jump\t// in\n    tag_221:\n        /* \"#utility.yul\":11595:11651   */\n    tag_220:\n        /* \"#utility.yul\":11675:11713   */\n      tag_222\n        /* \"#utility.yul\":11707:11711   */\n      dup3\n        /* \"#utility.yul\":11701:11712   */\n      sload\n        /* \"#utility.yul\":11675:11713   */\n      tag_24\n      jump\t// in\n    tag_222:\n        /* \"#utility.yul\":11760:11827   */\n      tag_223\n        /* \"#utility.yul\":11820:11826   */\n      dup3\n        /* \"#utility.yul\":11812:11818   */\n      dup3\n        /* \"#utility.yul\":11806:11810   */\n      dup6\n        /* \"#utility.yul\":11760:11827   */\n      tag_88\n      jump\t// in\n    tag_223:\n        /* \"#utility.yul\":11854:11855   */\n      0x00\n        /* \"#utility.yul\":11878:11882   */\n      0x20\n        /* \"#utility.yul\":11865:11882   */\n      swap1\n      pop\n        /* \"#utility.yul\":11910:11912   */\n      0x1f\n        /* \"#utility.yul\":11902:11908   */\n      dup4\n        /* \"#utility.yul\":11899:11913   */\n      gt\n        /* \"#utility.yul\":11927:11928   */\n      0x01\n        /* \"#utility.yul\":11922:12540   */\n      dup2\n      eq\n      tag_225\n      jumpi\n        /* \"#utility.yul\":12584:12585   */\n      0x00\n        /* \"#utility.yul\":12601:12607   */\n      dup5\n        /* \"#utility.yul\":12598:12675   */\n      iszero\n      tag_226\n      jumpi\n        /* \"#utility.yul\":12650:12659   */\n      dup3\n        /* \"#utility.yul\":12645:12648   */\n      dup8\n        /* \"#utility.yul\":12641:12660   */\n      add\n        /* \"#utility.yul\":12635:12661   */\n      mload\n        /* \"#utility.yul\":12626:12661   */\n      swap1\n      pop\n        /* \"#utility.yul\":12598:12675   */\n    tag_226:\n        /* \"#utility.yul\":12701:12768   */\n      tag_227\n        /* \"#utility.yul\":12761:12767   */\n      dup6\n        /* \"#utility.yul\":12754:12759   */\n      dup3\n        /* \"#utility.yul\":12701:12768   */\n      tag_91\n      jump\t// in\n    tag_227:\n        /* \"#utility.yul\":12695:12699   */\n      dup7\n        /* \"#utility.yul\":12688:12769   */\n      sstore\n        /* \"#utility.yul\":12557:12779   */\n      pop\n        /* \"#utility.yul\":11892:12779   */\n      jump(tag_224)\n        /* \"#utility.yul\":11922:12540   */\n    tag_225:\n        /* \"#utility.yul\":11974:11978   */\n      0x1f\n        /* \"#utility.yul\":11970:11979   */\n      not\n        /* \"#utility.yul\":11962:11968   */\n      dup5\n        /* \"#utility.yul\":11958:11980   */\n      and\n        /* \"#utility.yul\":12008:12045   */\n      tag_228\n        /* \"#utility.yul\":12040:12044   */\n      dup7\n        /* \"#utility.yul\":12008:12045   */\n      tag_77\n      jump\t// in\n    tag_228:\n        /* \"#utility.yul\":12067:12068   */\n      0x00\n        /* \"#utility.yul\":12081:12289   */\n    tag_229:\n        /* \"#utility.yul\":12095:12102   */\n      dup3\n        /* \"#utility.yul\":12092:12093   */\n      dup2\n        /* \"#utility.yul\":12089:12103   */\n      lt\n        /* \"#utility.yul\":12081:12289   */\n      iszero\n      tag_231\n      jumpi\n        /* \"#utility.yul\":12174:12183   */\n      dup5\n        /* \"#utility.yul\":12169:12172   */\n      dup10\n        /* \"#utility.yul\":12165:12184   */\n      add\n        /* \"#utility.yul\":12159:12185   */\n      mload\n        /* \"#utility.yul\":12151:12157   */\n      dup3\n        /* \"#utility.yul\":12144:12186   */\n      sstore\n        /* \"#utility.yul\":12225:12226   */\n      0x01\n        /* \"#utility.yul\":12217:12223   */\n      dup3\n        /* \"#utility.yul\":12213:12227   */\n      add\n        /* \"#utility.yul\":12203:12227   */\n      swap2\n      pop\n        /* \"#utility.yul\":12272:12274   */\n      0x20\n        /* \"#utility.yul\":12261:12270   */\n      dup6\n        /* \"#utility.yul\":12257:12275   */\n      add\n        /* \"#utility.yul\":12244:12275   */\n      swap5\n      pop\n        /* \"#utility.yul\":12118:12122   */\n      0x20\n        /* \"#utility.yul\":12115:12116   */\n      dup2\n        /* \"#utility.yul\":12111:12123   */\n      add\n        /* \"#utility.yul\":12106:12123   */\n      swap1\n      pop\n        /* \"#utility.yul\":12081:12289   */\n      jump(tag_229)\n    tag_231:\n        /* \"#utility.yul\":12317:12323   */\n      dup7\n        /* \"#utility.yul\":12308:12315   */\n      dup4\n        /* \"#utility.yul\":12305:12324   */\n      lt\n        /* \"#utility.yul\":12302:12481   */\n      iszero\n      tag_232\n      jumpi\n        /* \"#utility.yul\":12375:12384   */\n      dup5\n        /* \"#utility.yul\":12370:12373   */\n      dup10\n        /* \"#utility.yul\":12366:12385   */\n      add\n        /* \"#utility.yul\":12360:12386   */\n      mload\n        /* \"#utility.yul\":12418:12466   */\n      tag_233\n        /* \"#utility.yul\":12460:12464   */\n      0x1f\n        /* \"#utility.yul\":12452:12458   */\n      dup10\n        /* \"#utility.yul\":12448:12465   */\n      and\n        /* \"#utility.yul\":12437:12446   */\n      dup3\n        /* \"#utility.yul\":12418:12466   */\n      tag_90\n      jump\t// in\n    tag_233:\n        /* \"#utility.yul\":12410:12416   */\n      dup4\n        /* \"#utility.yul\":12403:12467   */\n      sstore\n        /* \"#utility.yul\":12325:12481   */\n      pop\n        /* \"#utility.yul\":12302:12481   */\n    tag_232:\n        /* \"#utility.yul\":12527:12528   */\n      0x01\n        /* \"#utility.yul\":12523:12524   */\n      0x02\n        /* \"#utility.yul\":12515:12521   */\n      dup9\n        /* \"#utility.yul\":12511:12525   */\n      mul\n        /* \"#utility.yul\":12507:12529   */\n      add\n        /* \"#utility.yul\":12501:12505   */\n      dup9\n        /* \"#utility.yul\":12494:12530   */\n      sstore\n        /* \"#utility.yul\":11929:12540   */\n      pop\n      pop\n      pop\n        /* \"#utility.yul\":11892:12779   */\n    tag_224:\n      pop\n        /* \"#utility.yul\":11482:12785   */\n      pop\n      pop\n      pop\n        /* \"#utility.yul\":11390:12785   */\n      pop\n      pop\n      jump\t// out\n\n    auxdata: 0xa26469706673582212206e6d42cee9ae4b3912a644656a4dc795c1cc04ee150326169f13658c13c83cbc64736f6c634300081d0033\n}\n",
				"bytecode": {
					"linkReferences": {},
					"object": "6080604052348015600e575f5ffd5b506109f68061001c5f395ff3fe608060405234801561000f575f5ffd5b506004361061004a575f3560e01c8063699450e81461004e578063993a04b71461006e578063c30655a21461008c578063c6ea59b9146100a8575b5f5ffd5b6100566100c6565b604051610065939291906103c8565b60405180910390f35b61007661016e565b60405161008391906104b7565b60405180910390f35b6100a660048036038101906100a19190610668565b61023a565b005b6100b0610274565b6040516100bd91906106d4565b60405180910390f35b5f805f0180546100d590610721565b80601f016020809104026020016040519081016040528092919081815260200182805461010190610721565b801561014c5780601f106101235761010080835404028352916020019161014c565b820191905f5260205f20905b81548152906001019060200180831161012f57829003601f168201915b505050505090806001015490806002015f9054906101000a900460ff16905083565b610176610305565b5f6040518060600160405290815f8201805461019190610721565b80601f01602080910402602001604051908101604052809291908181526020018280546101bd90610721565b80156102085780601f106101df57610100808354040283529160200191610208565b820191905f5260205f20905b8154815290600101906020018083116101eb57829003601f168201915b5050505050815260200160018201548152602001600282015f9054906101000a900460ff161515151581525050905090565b825f5f01908161024a91906108f1565b50815f60010181905550805f6002015f6101000a81548160ff021916908315150217905550505050565b60605f5f01805461028490610721565b80601f01602080910402602001604051908101604052809291908181526020018280546102b090610721565b80156102fb5780601f106102d2576101008083540402835291602001916102fb565b820191905f5260205f20905b8154815290600101906020018083116102de57829003601f168201915b5050505050905090565b6040518060600160405280606081526020015f81526020015f151581525090565b5f81519050919050565b5f82825260208201905092915050565b8281835e5f83830152505050565b5f601f19601f8301169050919050565b5f61036882610326565b6103728185610330565b9350610382818560208601610340565b61038b8161034e565b840191505092915050565b5f819050919050565b6103a881610396565b82525050565b5f8115159050919050565b6103c2816103ae565b82525050565b5f6060820190508181035f8301526103e0818661035e565b90506103ef602083018561039f565b6103fc60408301846103b9565b949350505050565b5f82825260208201905092915050565b5f61041e82610326565b6104288185610404565b9350610438818560208601610340565b6104418161034e565b840191505092915050565b61045581610396565b82525050565b610464816103ae565b82525050565b5f606083015f8301518482035f8601526104848282610414565b9150506020830151610499602086018261044c565b5060408301516104ac604086018261045b565b508091505092915050565b5f6020820190508181035f8301526104cf818461046a565b905092915050565b5f604051905090565b5f5ffd5b5f5ffd5b5f5ffd5b5f5ffd5b7f4e487b71000000000000000000000000000000000000000000000000000000005f52604160045260245ffd5b6105268261034e565b810181811067ffffffffffffffff82111715610545576105446104f0565b5b80604052505050565b5f6105576104d7565b9050610563828261051d565b919050565b5f67ffffffffffffffff821115610582576105816104f0565b5b61058b8261034e565b9050602081019050919050565b828183375f83830152505050565b5f6105b86105b384610568565b61054e565b9050828152602081018484840111156105d4576105d36104ec565b5b6105df848285610598565b509392505050565b5f82601f8301126105fb576105fa6104e8565b5b813561060b8482602086016105a6565b91505092915050565b61061d81610396565b8114610627575f5ffd5b50565b5f8135905061063881610614565b92915050565b610647816103ae565b8114610651575f5ffd5b50565b5f813590506106628161063e565b92915050565b5f5f5f6060848603121561067f5761067e6104e0565b5b5f84013567ffffffffffffffff81111561069c5761069b6104e4565b5b6106a8868287016105e7565b93505060206106b98682870161062a565b92505060406106ca86828701610654565b9150509250925092565b5f6020820190508181035f8301526106ec818461035e565b905092915050565b7f4e487b71000000000000000000000000000000000000000000000000000000005f52602260045260245ffd5b5f600282049050600182168061073857607f821691505b60208210810361074b5761074a6106f4565b5b50919050565b5f819050815f5260205f209050919050565b5f6020601f8301049050919050565b5f82821b905092915050565b5f600883026107ad7fffffffffffffffffffffffffffffffffffffffffffffffffffffffffffffffff82610772565b6107b78683610772565b95508019841693508086168417925050509392505050565b5f819050919050565b5f6107f26107ed6107e884610396565b6107cf565b610396565b9050919050565b5f819050919050565b61080b836107d8565b61081f610817826107f9565b84845461077e565b825550505050565b5f5f905090565b610836610827565b610841818484610802565b505050565b5b81811015610864576108595f8261082e565b600181019050610847565b5050565b601f8211156108a95761087a81610751565b61088384610763565b81016020851015610892578190505b6108a661089e85610763565b830182610846565b50505b505050565b5f82821c905092915050565b5f6108c95f19846008026108ae565b1980831691505092915050565b5f6108e183836108ba565b9150826002028217905092915050565b6108fa82610326565b67ffffffffffffffff811115610913576109126104f0565b5b61091d8254610721565b610928828285610868565b5f60209050601f831160018114610959575f8415610947578287015190505b61095185826108d6565b8655506109b8565b601f19841661096786610751565b5f5b8281101561098e57848901518255600182019150602085019450602081019050610969565b868310156109ab57848901516109a7601f8916826108ba565b8355505b6001600288020188555050505b50505050505056fea26469706673582212206e6d42cee9ae4b3912a644656a4dc795c1cc04ee150326169f13658c13c83cbc64736f6c634300081d0033",
					"opcodes": "PUSH1 0x80 PUSH1 0x40 MSTORE CALLVALUE DUP1 ISZERO PUSH1 0xE JUMPI PUSH0 PUSH0 REVERT JUMPDEST POP PUSH2 0x9F6 DUP1 PUSH2 0x1C PUSH0 CODECOPY PUSH0 RETURN INVALID PUSH1 0x80 PUSH1 0x40 MSTORE CALLVALUE DUP1 ISZERO PUSH2 0xF JUMPI PUSH0 PUSH0 REVERT JUMPDEST POP PUSH1 0x4 CALLDATASIZE LT PUSH2 0x4A JUMPI PUSH0 CALLDATALOAD PUSH1 0xE0 SHR DUP1 PUSH4 0x699450E8 EQ PUSH2 0x4E JUMPI DUP1 PUSH4 0x993A04B7 EQ PUSH2 0x6E JUMPI DUP1 PUSH4 0xC30655A2 EQ PUSH2 0x8C JUMPI DUP1 PUSH4 0xC6EA59B9 EQ PUSH2 0xA8 JUMPI JUMPDEST PUSH0 PUSH0 REVERT JUMPDEST PUSH2 0x56 PUSH2 0xC6 JUMP JUMPDEST PUSH1 0x40 MLOAD PUSH2 0x65 SWAP4 SWAP3 SWAP2 SWAP1 PUSH2 0x3C8 JUMP JUMPDEST PUSH1 0x40 MLOAD DUP1 SWAP2 SUB SWAP1 RETURN JUMPDEST PUSH2 0x76 PUSH2 0x16E JUMP JUMPDEST PUSH1 0x40 MLOAD PUSH2 0x83 SWAP2 SWAP1 PUSH2 0x4B7 JUMP JUMPDEST PUSH1 0x40 MLOAD DUP1 SWAP2 SUB SWAP1 RETURN JUMPDEST PUSH2 0xA6 PUSH1 0x4 DUP1 CALLDATASIZE SUB DUP2 ADD SWAP1 PUSH2 0xA1 SWAP2 SWAP1 PUSH2 0x668 JUMP JUMPDEST PUSH2 0x23A JUMP JUMPDEST STOP JUMPDEST PUSH2 0xB0 PUSH2 0x274 JUMP JUMPDEST PUSH1 0x40 MLOAD PUSH2 0xBD SWAP2 SWAP1 PUSH2 0x6D4 JUMP JUMPDEST PUSH1 0x40 MLOAD DUP1 SWAP2 SUB SWAP1 RETURN JUMPDEST PUSH0 DUP1 PUSH0 ADD DUP1 SLOAD PUSH2 0xD5 SWAP1 PUSH2 0x721 JUMP JUMPDEST DUP1 PUSH1 0x1F ADD PUSH1 0x20 DUP1 SWAP2 DIV MUL PUSH1 0x20 ADD PUSH1 0x40 MLOAD SWAP1 DUP2 ADD PUSH1 0x40 MSTORE DUP1 SWAP3 SWAP2 SWAP1 DUP2 DUP2 MSTORE PUSH1 0x20 ADD DUP3 DUP1 SLOAD PUSH2 0x101 SWAP1 PUSH2 0x721 JUMP JUMPDEST DUP1 ISZERO PUSH2 0x14C JUMPI DUP1 PUSH1 0x1F LT PUSH2 0x123 JUMPI PUSH2 0x100 DUP1 DUP4 SLOAD DIV MUL DUP4 MSTORE SWAP2 PUSH1 0x20 ADD SWAP2 PUSH2 0x14C JUMP JUMPDEST DUP3 ADD SWAP2 SWAP1 PUSH0 MSTORE PUSH1 0x20 PUSH0 KECCAK256 SWAP1 JUMPDEST DUP2 SLOAD DUP2 MSTORE SWAP1 PUSH1 0x1 ADD SWAP1 PUSH1 0x20 ADD DUP1 DUP4 GT PUSH2 0x12F JUMPI DUP3 SWAP1 SUB PUSH1 0x1F AND DUP3 ADD SWAP2 JUMPDEST POP POP POP POP POP SWAP1 DUP1 PUSH1 0x1 ADD SLOAD SWAP1 DUP1 PUSH1 0x2 ADD PUSH0 SWAP1 SLOAD SWAP1 PUSH2 0x100 EXP SWAP1 DIV PUSH1 0xFF AND SWAP1 POP DUP4 JUMP JUMPDEST PUSH2 0x176 PUSH2 0x305 JUMP JUMPDEST PUSH0 PUSH1 0x40 MLOAD DUP1 PUSH1 0x60 ADD PUSH1 0x40 MSTORE SWAP1 DUP2 PUSH0 DUP3 ADD DUP1 SLOAD PUSH2 0x191 SWAP1 PUSH2 0x721 JUMP JUMPDEST DUP1 PUSH1 0x1F ADD PUSH1 0x20 DUP1 SWAP2 DIV MUL PUSH1 0x20 ADD PUSH1 0x40 MLOAD SWAP1 DUP2 ADD PUSH1 0x40 MSTORE DUP1 SWAP3 SWAP2 SWAP1 DUP2 DUP2 MSTORE PUSH1 0x20 ADD DUP3 DUP1 SLOAD PUSH2 0x1BD SWAP1 PUSH2 0x721 JUMP JUMPDEST DUP1 ISZERO PUSH2 0x208 JUMPI DUP1 PUSH1 0x1F LT PUSH2 0x1DF JUMPI PUSH2 0x100 DUP1 DUP4 SLOAD DIV MUL DUP4 MSTORE SWAP2 PUSH1 0x20 ADD SWAP2 PUSH2 0x208 JUMP JUMPDEST DUP3 ADD SWAP2 SWAP1 PUSH0 MSTORE PUSH1 0x20 PUSH0 KECCAK256 SWAP1 JUMPDEST DUP2 SLOAD DUP2 MSTORE SWAP1 PUSH1 0x1 ADD SWAP1 PUSH1 0x20 ADD DUP1 DUP4 GT PUSH2 0x1EB JUMPI DUP3 SWAP1 SUB PUSH1 0x1F AND DUP3 ADD SWAP2 JUMPDEST POP POP POP POP POP DUP2 MSTORE PUSH1 0x20 ADD PUSH1 0x1 DUP3 ADD SLOAD DUP2 MSTORE PUSH1 0x20 ADD PUSH1 0x2 DUP3 ADD PUSH0 SWAP1 SLOAD SWAP1 PUSH2 0x100 EXP SWAP1 DIV PUSH1 0xFF AND ISZERO ISZERO ISZERO ISZERO DUP2 MSTORE POP POP SWAP1 POP SWAP1 JUMP JUMPDEST DUP3 PUSH0 PUSH0 ADD SWAP1 DUP2 PUSH2 0x24A SWAP2 SWAP1 PUSH2 0x8F1 JUMP JUMPDEST POP DUP2 PUSH0 PUSH1 0x1 ADD DUP2 SWAP1 SSTORE POP DUP1 PUSH0 PUSH1 0x2 ADD PUSH0 PUSH2 0x100 EXP DUP2 SLOAD DUP2 PUSH1 0xFF MUL NOT AND SWAP1 DUP4 ISZERO ISZERO MUL OR SWAP1 SSTORE POP POP POP POP JUMP JUMPDEST PUSH1 0x60 PUSH0 PUSH0 ADD DUP1 SLOAD PUSH2 0x284 SWAP1 PUSH2 0x721 JUMP JUMPDEST DUP1 PUSH1 0x1F ADD PUSH1 0x20 DUP1 SWAP2 DIV MUL PUSH1 0x20 ADD PUSH1 0x40 MLOAD SWAP1 DUP2 ADD PUSH1 0x40 MSTORE DUP1 SWAP3 SWAP2 SWAP1 DUP2 DUP2 MSTORE PUSH1 0x20 ADD DUP3 DUP1 SLOAD PUSH2 0x2B0 SWAP1 PUSH2 0x721 JUMP JUMPDEST DUP1 ISZERO PUSH2 0x2FB JUMPI DUP1 PUSH1 0x1F LT PUSH2 0x2D2 JUMPI PUSH2 0x100 DUP1 DUP4 SLOAD DIV MUL DUP4 MSTORE SWAP2 PUSH1 0x20 ADD SWAP2 PUSH2 0x2FB JUMP JUMPDEST DUP3 ADD SWAP2 SWAP1 PUSH0 MSTORE PUSH1 0x20 PUSH0 KECCAK256 SWAP1 JUMPDEST DUP2 SLOAD DUP2 MSTORE SWAP1 PUSH1 0x1 ADD SWAP1 PUSH1 0x20 ADD DUP1 DUP4 GT PUSH2 0x2DE JUMPI DUP3 SWAP1 SUB PUSH1 0x1F AND DUP3 ADD SWAP2 JUMPDEST POP POP POP POP POP SWAP1 POP SWAP1 JUMP JUMPDEST PUSH1 0x40 MLOAD DUP1 PUSH1 0x60 ADD PUSH1 0x40 MSTORE DUP1 PUSH1 0x60 DUP2 MSTORE PUSH1 0x20 ADD PUSH0 DUP2 MSTORE PUSH1 0x20 ADD PUSH0 ISZERO ISZERO DUP2 MSTORE POP SWAP1 JUMP JUMPDEST PUSH0 DUP2 MLOAD SWAP1 POP SWAP2 SWAP1 POP JUMP JUMPDEST PUSH0 DUP3 DUP3 MSTORE PUSH1 0x20 DUP3 ADD SWAP1 POP SWAP3 SWAP2 POP POP JUMP JUMPDEST DUP3 DUP2 DUP4 MCOPY PUSH0 DUP4 DUP4 ADD MSTORE POP POP POP JUMP JUMPDEST PUSH0 PUSH1 0x1F NOT PUSH1 0x1F DUP4 ADD AND SWAP1 POP SWAP2 SWAP1 POP JUMP JUMPDEST PUSH0 PUSH2 0x368 DUP3 PUSH2 0x326 JUMP JUMPDEST PUSH2 0x372 DUP2 DUP6 PUSH2 0x330 JUMP JUMPDEST SWAP4 POP PUSH2 0x382 DUP2 DUP6 PUSH1 0x20 DUP7 ADD PUSH2 0x340 JUMP JUMPDEST PUSH2 0x38B DUP2 PUSH2 0x34E JUMP JUMPDEST DUP5 ADD SWAP2 POP POP SWAP3 SWAP2 POP POP JUMP JUMPDEST PUSH0 DUP2 SWAP1 POP SWAP2 SWAP1 POP JUMP JUMPDEST PUSH2 0x3A8 DUP2 PUSH2 0x396 JUMP JUMPDEST DUP3 MSTORE POP POP JUMP JUMPDEST PUSH0 DUP2 ISZERO ISZERO SWAP1 POP SWAP2 SWAP1 POP JUMP JUMPDEST PUSH2 0x3C2 DUP2 PUSH2 0x3AE JUMP JUMPDEST DUP3 MSTORE POP POP JUMP JUMPDEST PUSH0 PUSH1 0x60 DUP3 ADD SWAP1 POP DUP2 DUP2 SUB PUSH0 DUP4 ADD MSTORE PUSH2 0x3E0 DUP2 DUP7 PUSH2 0x35E JUMP JUMPDEST SWAP1 POP PUSH2 0x3EF PUSH1 0x20 DUP4 ADD DUP6 PUSH2 0x39F JUMP JUMPDEST PUSH2 0x3FC PUSH1 0x40 DUP4 ADD DUP5 PUSH2 0x3B9 JUMP JUMPDEST SWAP5 SWAP4 POP POP POP POP JUMP JUMPDEST PUSH0 DUP3 DUP3 MSTORE PUSH1 0x20 DUP3 ADD SWAP1 POP SWAP3 SWAP2 POP POP JUMP JUMPDEST PUSH0 PUSH2 0x41E DUP3 PUSH2 0x326 JUMP JUMPDEST PUSH2 0x428 DUP2 DUP6 PUSH2 0x404 JUMP JUMPDEST SWAP4 POP PUSH2 0x438 DUP2 DUP6 PUSH1 0x20 DUP7 ADD PUSH2 0x340 JUMP JUMPDEST PUSH2 0x441 DUP2 PUSH2 0x34E JUMP JUMPDEST DUP5 ADD SWAP2 POP POP SWAP3 SWAP2 POP POP JUMP JUMPDEST PUSH2 0x455 DUP2 PUSH2 0x396 JUMP JUMPDEST DUP3 MSTORE POP POP JUMP JUMPDEST PUSH2 0x464 DUP2 PUSH2 0x3AE JUMP JUMPDEST DUP3 MSTORE POP POP JUMP JUMPDEST PUSH0 PUSH1 0x60 DUP4 ADD PUSH0 DUP4 ADD MLOAD DUP5 DUP3 SUB PUSH0 DUP7 ADD MSTORE PUSH2 0x484 DUP3 DUP3 PUSH2 0x414 JUMP JUMPDEST SWAP2 POP POP PUSH1 0x20 DUP4 ADD MLOAD PUSH2 0x499 PUSH1 0x20 DUP7 ADD DUP3 PUSH2 0x44C JUMP JUMPDEST POP PUSH1 0x40 DUP4 ADD MLOAD PUSH2 0x4AC PUSH1 0x40 DUP7 ADD DUP3 PUSH2 0x45B JUMP JUMPDEST POP DUP1 SWAP2 POP POP SWAP3 SWAP2 POP POP JUMP JUMPDEST PUSH0 PUSH1 0x20 DUP3 ADD SWAP1 POP DUP2 DUP2 SUB PUSH0 DUP4 ADD MSTORE PUSH2 0x4CF DUP2 DUP5 PUSH2 0x46A JUMP JUMPDEST SWAP1 POP SWAP3 SWAP2 POP POP JUMP JUMPDEST PUSH0 PUSH1 0x40 MLOAD SWAP1 POP SWAP1 JUMP JUMPDEST PUSH0 PUSH0 REVERT JUMPDEST PUSH0 PUSH0 REVERT JUMPDEST PUSH0 PUSH0 REVERT JUMPDEST PUSH0 PUSH0 REVERT JUMPDEST PUSH32 0x4E487B7100000000000000000000000000000000000000000000000000000000 PUSH0 MSTORE PUSH1 0x41 PUSH1 0x4 MSTORE PUSH1 0x24 PUSH0 REVERT JUMPDEST PUSH2 0x526 DUP3 PUSH2 0x34E JUMP JUMPDEST DUP2 ADD DUP2 DUP2 LT PUSH8 0xFFFFFFFFFFFFFFFF DUP3 GT OR ISZERO PUSH2 0x545 JUMPI PUSH2 0x544 PUSH2 0x4F0 JUMP JUMPDEST JUMPDEST DUP1 PUSH1 0x40 MSTORE POP POP POP JUMP JUMPDEST PUSH0 PUSH2 0x557 PUSH2 0x4D7 JUMP JUMPDEST SWAP1 POP PUSH2 0x563 DUP3 DUP3 PUSH2 0x51D JUMP JUMPDEST SWAP2 SWAP1 POP JUMP JUMPDEST PUSH0 PUSH8 0xFFFFFFFFFFFFFFFF DUP3 GT ISZERO PUSH2 0x582 JUMPI PUSH2 0x581 PUSH2 0x4F0 JUMP JUMPDEST JUMPDEST PUSH2 0x58B DUP3 PUSH2 0x34E JUMP JUMPDEST SWAP1 POP PUSH1 0x20 DUP2 ADD SWAP1 POP SWAP2 SWAP1 POP JUMP JUMPDEST DUP3 DUP2 DUP4 CALLDATACOPY PUSH0 DUP4 DUP4 ADD MSTORE POP POP POP JUMP JUMPDEST PUSH0 PUSH2 0x5B8 PUSH2 0x5B3 DUP5 PUSH2 0x568 JUMP JUMPDEST PUSH2 0x54E JUMP JUMPDEST SWAP1 POP DUP3 DUP2 MSTORE PUSH1 0x20 DUP2 ADD DUP5 DUP5 DUP5 ADD GT ISZERO PUSH2 0x5D4 JUMPI PUSH2 0x5D3 PUSH2 0x4EC JUMP JUMPDEST JUMPDEST PUSH2 0x5DF DUP5 DUP3 DUP6 PUSH2 0x598 JUMP JUMPDEST POP SWAP4 SWAP3 POP POP POP JUMP JUMPDEST PUSH0 DUP3 PUSH1 0x1F DUP4 ADD SLT PUSH2 0x5FB JUMPI PUSH2 0x5FA PUSH2 0x4E8 JUMP JUMPDEST JUMPDEST DUP2 CALLDATALOAD PUSH2 0x60B DUP5 DUP3 PUSH1 0x20 DUP7 ADD PUSH2 0x5A6 JUMP JUMPDEST SWAP2 POP POP SWAP3 SWAP2 POP POP JUMP JUMPDEST PUSH2 0x61D DUP2 PUSH2 0x396 JUMP JUMPDEST DUP2 EQ PUSH2 0x627 JUMPI PUSH0 PUSH0 REVERT JUMPDEST POP JUMP JUMPDEST PUSH0 DUP2 CALLDATALOAD SWAP1 POP PUSH2 0x638 DUP2 PUSH2 0x614 JUMP JUMPDEST SWAP3 SWAP2 POP POP JUMP JUMPDEST PUSH2 0x647 DUP2 PUSH2 0x3AE JUMP JUMPDEST DUP2 EQ PUSH2 0x651 JUMPI PUSH0 PUSH0 REVERT JUMPDEST POP JUMP JUMPDEST PUSH0 DUP2 CALLDATALOAD SWAP1 POP PUSH2 0x662 DUP2 PUSH2 0x63E JUMP JUMPDEST SWAP3 SWAP2 POP POP JUMP JUMPDEST PUSH0 PUSH0 PUSH0 PUSH1 0x60 DUP5 DUP7 SUB SLT ISZERO PUSH2 0x67F JUMPI PUSH2 0x67E PUSH2 0x4E0 JUMP JUMPDEST JUMPDEST PUSH0 DUP5 ADD CALLDATALOAD PUSH8 0xFFFFFFFFFFFFFFFF DUP2 GT ISZERO PUSH2 0x69C JUMPI PUSH2 0x69B PUSH2 0x4E4 JUMP JUMPDEST JUMPDEST PUSH2 0x6A8 DUP7 DUP3 DUP8 ADD PUSH2 0x5E7 JUMP JUMPDEST SWAP4 POP POP PUSH1 0x20 PUSH2 0x6B9 DUP7 DUP3 DUP8 ADD PUSH2 0x62A JUMP JUMPDEST SWAP3 POP POP PUSH1 0x40 PUSH2 0x6CA DUP7 DUP3 DUP8 ADD PUSH2 0x654 JUMP JUMPDEST SWAP2 POP POP SWAP3 POP SWAP3 POP SWAP3 JUMP JUMPDEST PUSH0 PUSH1 0x20 DUP3 ADD SWAP1 POP DUP2 DUP2 SUB PUSH0 DUP4 ADD MSTORE PUSH2 0x6EC DUP2 DUP5 PUSH2 0x35E JUMP JUMPDEST SWAP1 POP SWAP3 SWAP2 POP POP JUMP JUMPDEST PUSH32 0x4E487B7100000000000000000000000000000000000000000000000000000000 PUSH0 MSTORE PUSH1 0x22 PUSH1 0x4 MSTORE PUSH1 0x24 PUSH0 REVERT JUMPDEST PUSH0 PUSH1 0x2 DUP3 DIV SWAP1 POP PUSH1 0x1 DUP3 AND DUP1 PUSH2 0x738 JUMPI PUSH1 0x7F DUP3 AND SWAP2 POP JUMPDEST PUSH1 0x20 DUP3 LT DUP2 SUB PUSH2 0x74B JUMPI PUSH2 0x74A PUSH2 0x6F4 JUMP JUMPDEST JUMPDEST POP SWAP2 SWAP1 POP JUMP JUMPDEST PUSH0 DUP2 SWAP1 POP DUP2 PUSH0 MSTORE PUSH1 0x20 PUSH0 KECCAK256 SWAP1 POP SWAP2 SWAP1 POP JUMP JUMPDEST PUSH0 PUSH1 0x20 PUSH1 0x1F DUP4 ADD DIV SWAP1 POP SWAP2 SWAP1 POP JUMP JUMPDEST PUSH0 DUP3 DUP3 SHL SWAP1 POP SWAP3 SWAP2 POP POP JUMP JUMPDEST PUSH0 PUSH1 0x8 DUP4 MUL PUSH2 0x7AD PUSH32 0xFFFFFFFFFFFFFFFFFFFFFFFFFFFFFFFFFFFFFFFFFFFFFFFFFFFFFFFFFFFFFFFF DUP3 PUSH2 0x772 JUMP JUMPDEST PUSH2 0x7B7 DUP7 DUP4 PUSH2 0x772 JUMP JUMPDEST SWAP6 POP DUP1 NOT DUP5 AND SWAP4 POP DUP1 DUP7 AND DUP5 OR SWAP3 POP POP POP SWAP4 SWAP3 POP POP POP JUMP JUMPDEST PUSH0 DUP2 SWAP1 POP SWAP2 SWAP1 POP JUMP JUMPDEST PUSH0 PUSH2 0x7F2 PUSH2 0x7ED PUSH2 0x7E8 DUP5 PUSH2 0x396 JUMP JUMPDEST PUSH2 0x7CF JUMP JUMPDEST PUSH2 0x396 JUMP JUMPDEST SWAP1 POP SWAP2 SWAP1 POP JUMP JUMPDEST PUSH0 DUP2 SWAP1 POP SWAP2 SWAP1 POP JUMP JUMPDEST PUSH2 0x80B DUP4 PUSH2 0x7D8 JUMP JUMPDEST PUSH2 0x81F PUSH2 0x817 DUP3 PUSH2 0x7F9 JUMP JUMPDEST DUP5 DUP5 SLOAD PUSH2 0x77E JUMP JUMPDEST DUP3 SSTORE POP POP POP POP JUMP JUMPDEST PUSH0 PUSH0 SWAP1 POP SWAP1 JUMP JUMPDEST PUSH2 0x836 PUSH2 0x827 JUMP JUMPDEST PUSH2 0x841 DUP2 DUP5 DUP5 PUSH2 0x802 JUMP JUMPDEST POP POP POP JUMP JUMPDEST JUMPDEST DUP2 DUP2 LT ISZERO PUSH2 0x864 JUMPI PUSH2 0x859 PUSH0 DUP3 PUSH2 0x82E JUMP JUMPDEST PUSH1 0x1 DUP2 ADD SWAP1 POP PUSH2 0x847 JUMP JUMPDEST POP POP JUMP JUMPDEST PUSH1 0x1F DUP3 GT ISZERO PUSH2 0x8A9 JUMPI PUSH2 0x87A DUP2 PUSH2 0x751 JUMP JUMPDEST PUSH2 0x883 DUP5 PUSH2 0x763 JUMP JUMPDEST DUP2 ADD PUSH1 0x20 DUP6 LT ISZERO PUSH2 0x892 JUMPI DUP2 SWAP1 POP JUMPDEST PUSH2 0x8A6 PUSH2 0x89E DUP6 PUSH2 0x763 JUMP JUMPDEST DUP4 ADD DUP3 PUSH2 0x846 JUMP JUMPDEST POP POP JUMPDEST POP POP POP JUMP JUMPDEST PUSH0 DUP3 DUP3 SHR SWAP1 POP SWAP3 SWAP2 POP POP JUMP JUMPDEST PUSH0 PUSH2 0x8C9 PUSH0 NOT DUP5 PUSH1 0x8 MUL PUSH2 0x8AE JUMP JUMPDEST NOT DUP1 DUP4 AND SWAP2 POP POP SWAP3 SWAP2 POP POP JUMP JUMPDEST PUSH0 PUSH2 0x8E1 DUP4 DUP4 PUSH2 0x8BA JUMP JUMPDEST SWAP2 POP DUP3 PUSH1 0x2 MUL DUP3 OR SWAP1 POP SWAP3 SWAP2 POP POP JUMP JUMPDEST PUSH2 0x8FA DUP3 PUSH2 0x326 JUMP JUMPDEST PUSH8 0xFFFFFFFFFFFFFFFF DUP2 GT ISZERO PUSH2 0x913 JUMPI PUSH2 0x912 PUSH2 0x4F0 JUMP JUMPDEST JUMPDEST PUSH2 0x91D DUP3 SLOAD PUSH2 0x721 JUMP JUMPDEST PUSH2 0x928 DUP3 DUP3 DUP6 PUSH2 0x868 JUMP JUMPDEST PUSH0 PUSH1 0x20 SWAP1 POP PUSH1 0x1F DUP4 GT PUSH1 0x1 DUP2 EQ PUSH2 0x959 JUMPI PUSH0 DUP5 ISZERO PUSH2 0x947 JUMPI DUP3 DUP8 ADD MLOAD SWAP1 POP JUMPDEST PUSH2 0x951 DUP6 DUP3 PUSH2 0x8D6 JUMP JUMPDEST DUP7 SSTORE POP PUSH2 0x9B8 JUMP JUMPDEST PUSH1 0x1F NOT DUP5 AND PUSH2 0x967 DUP7 PUSH2 0x751 JUMP JUMPDEST PUSH0 JUMPDEST DUP3 DUP2 LT ISZERO PUSH2 0x98E JUMPI DUP5 DUP10 ADD MLOAD DUP3 SSTORE PUSH1 0x1 DUP3 ADD SWAP2 POP PUSH1 0x20 DUP6 ADD SWAP5 POP PUSH1 0x20 DUP2 ADD SWAP1 POP PUSH2 0x969 JUMP JUMPDEST DUP7 DUP4 LT ISZERO PUSH2 0x9AB JUMPI DUP5 DUP10 ADD MLOAD PUSH2 0x9A7 PUSH1 0x1F DUP10 AND DUP3 PUSH2 0x8BA JUMP JUMPDEST DUP4 SSTORE POP JUMPDEST PUSH1 0x1 PUSH1 0x2 DUP9 MUL ADD DUP9 SSTORE POP POP POP JUMPDEST POP POP POP POP POP POP JUMP INVALID LOG2 PUSH5 0x6970667358 0x22 SLT KECCAK256 PUSH15 0x6D42CEE9AE4B3912A644656A4DC795 0xC1 0xCC DIV RETURNCONTRACT 0x15 SUB 0x26 AND SWAP16 SGT PUSH6 0x8C13C83CBC64 PUSH20 0x6F6C634300081D00330000000000000000000000 "
				},
				"gasEstimates": {
					"creation": {
						"codeDepositCost": "510000",
						"executionCost": "541",
						"totalCost": "510541"
					},
					"external": {
						"getname()": "infinite",
						"getter()": "infinite",
						"insert(string,uint256,bool)": "infinite",
						"student()": "infinite"
					}
				},
				"methodIdentifiers": {
					"getname()": "c6ea59b9",
					"getter()": "993a04b7",
					"insert(string,uint256,bool)": "c30655a2",
					"student()": "699450e8"
				}
			},
			"storageLayout": {
				"storage": [
					{
						"astId": 11,
						"contract": "contracts/20_struct.sol:demo",
						"label": "student",
						"offset": 0,
						"slot": "0",
						"type": "t_struct(studentsdata)8_storage"
					}
				],
				"types": {
					"t_bool": {
						"encoding": "inplace",
						"label": "bool",
						"numberOfBytes": "1"
					},
					"t_string_storage": {
						"encoding": "bytes",
						"label": "string",
						"numberOfBytes": "32"
					},
					"t_struct(studentsdata)8_storage": {
						"encoding": "inplace",
						"label": "struct demo.studentsdata",
						"members": [
							{
								"astId": 3,
								"contract": "contracts/20_struct.sol:demo",
								"label": "name",
								"offset": 0,
								"slot": "0",
								"type": "t_string_storage"
							},
							{
								"astId": 5,
								"contract": "contracts/20_struct.sol:demo",
								"label": "roll",
								"offset": 0,
								"slot": "1",
								"type": "t_uint256"
							},
							{
								"astId": 7,
								"contract": "contracts/20_struct.sol:demo",
								"label": "pass",
								"offset": 0,
								"slot": "2",
								"type": "t_bool"
							}
						],
						"numberOfBytes": "96"
					},
					"t_uint256": {
						"encoding": "inplace",
						"label": "uint256",
						"numberOfBytes": "32"
					}
				}
			},
			"userdoc": {
				"kind": "user",
				"methods": {},
				"version": 1
			}
		}
	}
}