{
	"contracts/ALU7.sol": {
		"A": {
			"abi": [
				{
					"inputs": [
						{
							"internalType": "address",
							"name": "_b",
							"type": "address"
						}
					],
					"stateMutability": "nonpayable",
					"type": "constructor"
				},
				{
					"inputs": [],
					"name": "callB",
					"outputs": [],
					"stateMutability": "payable",
					"type": "function"
				},
				{
					"inputs": [],
					"name": "errorCounter",
					"outputs": [
						{
							"internalType": "uint256",
							"name": "",
							"type": "uint256"
						}
					],
					"stateMutability": "view",
					"type": "function"
				}
			],
			"devdoc": {
				"kind": "dev",
				"methods": {},
				"version": 1
			},
			"evm": {
				"assembly": "    /* \"contracts/ALU7.sol\":108:506  contract A {... */\n  mstore(0x40, 0x80)\n    /* \"contracts/ALU7.sol\":172:173  0 */\n  0x00\n    /* \"contracts/ALU7.sol\":142:173  uint256 public errorCounter = 0 */\n  0x01\n  sstore\n    /* \"contracts/ALU7.sol\":182:230  constructor(address _b){... */\n  callvalue\n  dup1\n  iszero\n  tag_1\n  jumpi\n  revert(0x00, 0x00)\ntag_1:\n  pop\n  mload(0x40)\n  sub(codesize, bytecodeSize)\n  dup1\n  bytecodeSize\n  dup4\n  codecopy\n  dup2\n  dup2\n  add\n  0x40\n  mstore\n  dup2\n  add\n  swap1\n  tag_2\n  swap2\n  swap1\n  tag_3\n  jump\t// in\ntag_2:\n    /* \"contracts/ALU7.sol\":220:222  _b */\n  dup1\n    /* \"contracts/ALU7.sol\":216:217  b */\n  0x00\n  0x00\n    /* \"contracts/ALU7.sol\":216:222  b = _b */\n  0x0100\n  exp\n  dup2\n  sload\n  dup2\n  0xffffffffffffffffffffffffffffffffffffffff\n  mul\n  not\n  and\n  swap1\n  dup4\n  0xffffffffffffffffffffffffffffffffffffffff\n  and\n  mul\n  or\n  swap1\n  sstore\n  pop\n    /* \"contracts/ALU7.sol\":182:230  constructor(address _b){... */\n  pop\n    /* \"contracts/ALU7.sol\":108:506  contract A {... */\n  jump(tag_6)\n    /* \"#utility.yul\":88:205   */\ntag_8:\n    /* \"#utility.yul\":197:198   */\n  0x00\n    /* \"#utility.yul\":194:195   */\n  0x00\n    /* \"#utility.yul\":187:199   */\n  revert\n    /* \"#utility.yul\":334:460   */\ntag_10:\n    /* \"#utility.yul\":371:378   */\n  0x00\n    /* \"#utility.yul\":411:453   */\n  0xffffffffffffffffffffffffffffffffffffffff\n    /* \"#utility.yul\":404:409   */\n  dup3\n    /* \"#utility.yul\":400:454   */\n  and\n    /* \"#utility.yul\":389:454   */\n  swap1\n  pop\n    /* \"#utility.yul\":334:460   */\n  swap2\n  swap1\n  pop\n  jump\t// out\n    /* \"#utility.yul\":466:562   */\ntag_11:\n    /* \"#utility.yul\":503:510   */\n  0x00\n    /* \"#utility.yul\":532:556   */\n  tag_20\n    /* \"#utility.yul\":550:555   */\n  dup3\n    /* \"#utility.yul\":532:556   */\n  tag_10\n  jump\t// in\ntag_20:\n    /* \"#utility.yul\":521:556   */\n  swap1\n  pop\n    /* \"#utility.yul\":466:562   */\n  swap2\n  swap1\n  pop\n  jump\t// out\n    /* \"#utility.yul\":568:690   */\ntag_12:\n    /* \"#utility.yul\":641:665   */\n  tag_22\n    /* \"#utility.yul\":659:664   */\n  dup2\n    /* \"#utility.yul\":641:665   */\n  tag_11\n  jump\t// in\ntag_22:\n    /* \"#utility.yul\":634:639   */\n  dup2\n    /* \"#utility.yul\":631:666   */\n  eq\n    /* \"#utility.yul\":621:684   */\n  tag_23\n  jumpi\n    /* \"#utility.yul\":680:681   */\n  0x00\n    /* \"#utility.yul\":677:678   */\n  0x00\n    /* \"#utility.yul\":670:682   */\n  revert\n    /* \"#utility.yul\":621:684   */\ntag_23:\n    /* \"#utility.yul\":568:690   */\n  pop\n  jump\t// out\n    /* \"#utility.yul\":696:839   */\ntag_13:\n    /* \"#utility.yul\":753:758   */\n  0x00\n    /* \"#utility.yul\":784:790   */\n  dup2\n    /* \"#utility.yul\":778:791   */\n  mload\n    /* \"#utility.yul\":769:791   */\n  swap1\n  pop\n    /* \"#utility.yul\":800:833   */\n  tag_25\n    /* \"#utility.yul\":827:832   */\n  dup2\n    /* \"#utility.yul\":800:833   */\n  tag_12\n  jump\t// in\ntag_25:\n    /* \"#utility.yul\":696:839   */\n  swap3\n  swap2\n  pop\n  pop\n  jump\t// out\n    /* \"#utility.yul\":845:1196   */\ntag_3:\n    /* \"#utility.yul\":915:921   */\n  0x00\n    /* \"#utility.yul\":964:966   */\n  0x20\n    /* \"#utility.yul\":952:961   */\n  dup3\n    /* \"#utility.yul\":943:950   */\n  dup5\n    /* \"#utility.yul\":939:962   */\n  sub\n    /* \"#utility.yul\":935:967   */\n  slt\n    /* \"#utility.yul\":932:1051   */\n  iszero\n  tag_27\n  jumpi\n    /* \"#utility.yul\":970:1049   */\n  tag_28\n  tag_8\n  jump\t// in\ntag_28:\n    /* \"#utility.yul\":932:1051   */\ntag_27:\n    /* \"#utility.yul\":1090:1091   */\n  0x00\n    /* \"#utility.yul\":1115:1179   */\n  tag_29\n    /* \"#utility.yul\":1171:1178   */\n  dup5\n    /* \"#utility.yul\":1162:1168   */\n  dup3\n    /* \"#utility.yul\":1151:1160   */\n  dup6\n    /* \"#utility.yul\":1147:1169   */\n  add\n    /* \"#utility.yul\":1115:1179   */\n  tag_13\n  jump\t// in\ntag_29:\n    /* \"#utility.yul\":1105:1179   */\n  swap2\n  pop\n    /* \"#utility.yul\":1061:1189   */\n  pop\n    /* \"#utility.yul\":845:1196   */\n  swap3\n  swap2\n  pop\n  pop\n  jump\t// out\n    /* \"contracts/ALU7.sol\":108:506  contract A {... */\ntag_6:\n  dataSize(sub_0)\n  dup1\n  dataOffset(sub_0)\n  0x00\n  codecopy\n  0x00\n  return\nstop\n\nsub_0: assembly {\n        /* \"contracts/ALU7.sol\":108:506  contract A {... */\n      mstore(0x40, 0x80)\n      jumpi(tag_1, lt(calldatasize, 0x04))\n      shr(0xe0, calldataload(0x00))\n      dup1\n      0x26818d7d\n      eq\n      tag_2\n      jumpi\n      dup1\n      0x44fd4fa0\n      eq\n      tag_3\n      jumpi\n    tag_1:\n      revert(0x00, 0x00)\n        /* \"contracts/ALU7.sol\":142:173  uint256 public errorCounter = 0 */\n    tag_2:\n      callvalue\n      dup1\n      iszero\n      tag_4\n      jumpi\n      revert(0x00, 0x00)\n    tag_4:\n      pop\n      tag_5\n      tag_6\n      jump\t// in\n    tag_5:\n      mload(0x40)\n      tag_7\n      swap2\n      swap1\n      tag_8\n      jump\t// in\n    tag_7:\n      mload(0x40)\n      dup1\n      swap2\n      sub\n      swap1\n      return\n        /* \"contracts/ALU7.sol\":238:503  function callB() external payable {... */\n    tag_3:\n      tag_9\n      tag_10\n      jump\t// in\n    tag_9:\n      stop\n        /* \"contracts/ALU7.sol\":142:173  uint256 public errorCounter = 0 */\n    tag_6:\n      sload(0x01)\n      dup2\n      jump\t// out\n        /* \"contracts/ALU7.sol\":238:503  function callB() external payable {... */\n    tag_10:\n        /* \"contracts/ALU7.sol\":284:296  bool success */\n      0x00\n        /* \"contracts/ALU7.sol\":298:321  bytes memory returnData */\n      0x00\n        /* \"contracts/ALU7.sol\":325:326  b */\n      0x00\n      0x00\n      swap1\n      sload\n      swap1\n      0x0100\n      exp\n      swap1\n      div\n      0xffffffffffffffffffffffffffffffffffffffff\n      and\n        /* \"contracts/ALU7.sol\":325:331  b.call */\n      0xffffffffffffffffffffffffffffffffffffffff\n      and\n        /* \"contracts/ALU7.sol\":339:346  1 ether */\n      0x0de0b6b3a7640000\n        /* \"contracts/ALU7.sol\":325:351  b.call{value: 1 ether}(\"\") */\n      mload(0x40)\n      tag_12\n      swap1\n      tag_13\n      jump\t// in\n    tag_12:\n      0x00\n      mload(0x40)\n      dup1\n      dup4\n      sub\n      dup2\n      dup6\n      dup8\n      gas\n      call\n      swap3\n      pop\n      pop\n      pop\n      returndatasize\n      dup1\n      0x00\n      dup2\n      eq\n      tag_16\n      jumpi\n      mload(0x40)\n      swap2\n      pop\n      and(add(returndatasize, 0x3f), not(0x1f))\n      dup3\n      add\n      0x40\n      mstore\n      returndatasize\n      dup3\n      mstore\n      returndatasize\n      0x00\n      0x20\n      dup5\n      add\n      returndatacopy\n      jump(tag_15)\n    tag_16:\n      0x60\n      swap2\n      pop\n    tag_15:\n      pop\n        /* \"contracts/ALU7.sol\":283:351  (bool success, bytes memory returnData) = b.call{value: 1 ether}(\"\") */\n      swap2\n      pop\n      swap2\n      pop\n        /* \"contracts/ALU7.sol\":366:373  success */\n      dup2\n        /* \"contracts/ALU7.sol\":362:496  if(!success){... */\n      tag_17\n      jumpi\n        /* \"contracts/ALU7.sol\":389:417  console.logBytes(returnData) */\n      tag_18\n        /* \"contracts/ALU7.sol\":406:416  returnData */\n      dup2\n        /* \"contracts/ALU7.sol\":389:405  console.logBytes */\n      tag_19\n        /* \"contracts/ALU7.sol\":389:417  console.logBytes(returnData) */\n      jump\t// in\n    tag_18:\n        /* \"contracts/ALU7.sol\":432:484  console.logBytes32(keccak256(\"DoNotPayMe(uint256)\")) */\n      tag_20\n        /* \"contracts/ALU7.sol\":451:483  keccak256(\"DoNotPayMe(uint256)\") */\n      0x568804639171345705b794b2fd1a938758dc6b678c203b630b224e0da48a84ad\n        /* \"contracts/ALU7.sol\":432:450  console.logBytes32 */\n      tag_21\n        /* \"contracts/ALU7.sol\":432:484  console.logBytes32(keccak256(\"DoNotPayMe(uint256)\")) */\n      jump\t// in\n    tag_20:\n        /* \"contracts/ALU7.sol\":362:496  if(!success){... */\n    tag_17:\n        /* \"contracts/ALU7.sol\":272:503  {... */\n      pop\n      pop\n        /* \"contracts/ALU7.sol\":238:503  function callB() external payable {... */\n      jump\t// out\n        /* \"forge-std/console.sol\":1283:1407  function logBytes(bytes memory p0) internal view {... */\n    tag_19:\n        /* \"forge-std/console.sol\":1342:1400  _sendLogPayload(abi.encodeWithSignature(\"log(bytes)\", p0)) */\n      tag_23\n        /* \"forge-std/console.sol\":1396:1398  p0 */\n      dup2\n        /* \"forge-std/console.sol\":1358:1399  abi.encodeWithSignature(\"log(bytes)\", p0) */\n      add(0x24, mload(0x40))\n      tag_24\n      swap2\n      swap1\n      tag_25\n      jump\t// in\n    tag_24:\n      mload(0x40)\n      0x20\n      dup2\n      dup4\n      sub\n      sub\n      dup2\n      mstore\n      swap1\n      0x40\n      mstore\n      and(not(0xffffffffffffffffffffffffffffffffffffffffffffffffffffffff), 0x0be77f5600000000000000000000000000000000000000000000000000000000)\n      0x20\n      dup3\n      add\n      dup1\n      mload\n      0xffffffffffffffffffffffffffffffffffffffffffffffffffffffff\n      dup4\n      dup2\n      dup4\n      and\n      or\n      dup4\n      mstore\n      pop\n      pop\n      pop\n      pop\n        /* \"forge-std/console.sol\":1342:1357  _sendLogPayload */\n      tag_26\n        /* \"forge-std/console.sol\":1342:1400  _sendLogPayload(abi.encodeWithSignature(\"log(bytes)\", p0)) */\n      jump\t// in\n    tag_23:\n        /* \"forge-std/console.sol\":1283:1407  function logBytes(bytes memory p0) internal view {... */\n      pop\n      jump\t// out\n        /* \"forge-std/console.sol\":5385:5508  function logBytes32(bytes32 p0) internal view {... */\n    tag_21:\n        /* \"forge-std/console.sol\":5441:5501  _sendLogPayload(abi.encodeWithSignature(\"log(bytes32)\", p0)) */\n      tag_28\n        /* \"forge-std/console.sol\":5497:5499  p0 */\n      dup2\n        /* \"forge-std/console.sol\":5457:5500  abi.encodeWithSignature(\"log(bytes32)\", p0) */\n      add(0x24, mload(0x40))\n      tag_29\n      swap2\n      swap1\n      tag_30\n      jump\t// in\n    tag_29:\n      mload(0x40)\n      0x20\n      dup2\n      dup4\n      sub\n      sub\n      dup2\n      mstore\n      swap1\n      0x40\n      mstore\n      and(not(0xffffffffffffffffffffffffffffffffffffffffffffffffffffffff), 0x27b7cf8500000000000000000000000000000000000000000000000000000000)\n      0x20\n      dup3\n      add\n      dup1\n      mload\n      0xffffffffffffffffffffffffffffffffffffffffffffffffffffffff\n      dup4\n      dup2\n      dup4\n      and\n      or\n      dup4\n      mstore\n      pop\n      pop\n      pop\n      pop\n        /* \"forge-std/console.sol\":5441:5456  _sendLogPayload */\n      tag_26\n        /* \"forge-std/console.sol\":5441:5501  _sendLogPayload(abi.encodeWithSignature(\"log(bytes32)\", p0)) */\n      jump\t// in\n    tag_28:\n        /* \"forge-std/console.sol\":5385:5508  function logBytes32(bytes32 p0) internal view {... */\n      pop\n      jump\t// out\n        /* \"forge-std/console.sol\":181:557  function _sendLogPayload(bytes memory payload) private view {... */\n    tag_26:\n        /* \"forge-std/console.sol\":251:272  uint256 payloadLength */\n      0x00\n        /* \"forge-std/console.sol\":275:282  payload */\n      dup2\n        /* \"forge-std/console.sol\":275:289  payload.length */\n      mload\n        /* \"forge-std/console.sol\":251:289  uint256 payloadLength = payload.length */\n      swap1\n      pop\n        /* \"forge-std/console.sol\":299:321  address consoleAddress */\n      0x00\n        /* \"forge-std/console.sol\":131:173  0x000000000000000000636F6e736F6c652e6c6f67 */\n      0x636f6e736f6c652e6c6f67\n        /* \"forge-std/console.sol\":299:339  address consoleAddress = CONSOLE_ADDRESS */\n      swap1\n      pop\n        /* \"forge-std/console.sol\":448:450  32 */\n      0x20\n        /* \"forge-std/console.sol\":439:446  payload */\n      dup4\n        /* \"forge-std/console.sol\":435:451  add(payload, 32) */\n      add\n        /* \"forge-std/console.sol\":539:540  0 */\n      0x00\n        /* \"forge-std/console.sol\":536:537  0 */\n      0x00\n        /* \"forge-std/console.sol\":521:534  payloadLength */\n      dup5\n        /* \"forge-std/console.sol\":507:519  payloadStart */\n      dup4\n        /* \"forge-std/console.sol\":491:505  consoleAddress */\n      dup6\n        /* \"forge-std/console.sol\":484:489  gas() */\n      gas\n        /* \"forge-std/console.sol\":473:541  staticcall(gas(), consoleAddress, payloadStart, payloadLength, 0, 0) */\n      staticcall\n        /* \"forge-std/console.sol\":401:551  {... */\n      pop\n      pop\n      pop\n      pop\n        /* \"forge-std/console.sol\":181:557  function _sendLogPayload(bytes memory payload) private view {... */\n      pop\n      jump\t// out\n        /* \"#utility.yul\":7:84   */\n    tag_32:\n        /* \"#utility.yul\":44:51   */\n      0x00\n        /* \"#utility.yul\":73:78   */\n      dup2\n        /* \"#utility.yul\":62:78   */\n      swap1\n      pop\n        /* \"#utility.yul\":7:84   */\n      swap2\n      swap1\n      pop\n      jump\t// out\n        /* \"#utility.yul\":90:208   */\n    tag_33:\n        /* \"#utility.yul\":177:201   */\n      tag_47\n        /* \"#utility.yul\":195:200   */\n      dup2\n        /* \"#utility.yul\":177:201   */\n      tag_32\n      jump\t// in\n    tag_47:\n        /* \"#utility.yul\":172:175   */\n      dup3\n        /* \"#utility.yul\":165:202   */\n      mstore\n        /* \"#utility.yul\":90:208   */\n      pop\n      pop\n      jump\t// out\n        /* \"#utility.yul\":214:436   */\n    tag_8:\n        /* \"#utility.yul\":307:311   */\n      0x00\n        /* \"#utility.yul\":345:347   */\n      0x20\n        /* \"#utility.yul\":334:343   */\n      dup3\n        /* \"#utility.yul\":330:348   */\n      add\n        /* \"#utility.yul\":322:348   */\n      swap1\n      pop\n        /* \"#utility.yul\":358:429   */\n      tag_49\n        /* \"#utility.yul\":426:427   */\n      0x00\n        /* \"#utility.yul\":415:424   */\n      dup4\n        /* \"#utility.yul\":411:428   */\n      add\n        /* \"#utility.yul\":402:408   */\n      dup5\n        /* \"#utility.yul\":358:429   */\n      tag_33\n      jump\t// in\n    tag_49:\n        /* \"#utility.yul\":214:436   */\n      swap3\n      swap2\n      pop\n      pop\n      jump\t// out\n        /* \"#utility.yul\":442:589   */\n    tag_34:\n        /* \"#utility.yul\":543:554   */\n      0x00\n        /* \"#utility.yul\":580:583   */\n      dup2\n        /* \"#utility.yul\":565:583   */\n      swap1\n      pop\n        /* \"#utility.yul\":442:589   */\n      swap3\n      swap2\n      pop\n      pop\n      jump\t// out\n        /* \"#utility.yul\":595:709   */\n    tag_35:\n      pop\n      jump\t// out\n        /* \"#utility.yul\":715:1113   */\n    tag_36:\n        /* \"#utility.yul\":874:877   */\n      0x00\n        /* \"#utility.yul\":895:978   */\n      tag_53\n        /* \"#utility.yul\":976:977   */\n      0x00\n        /* \"#utility.yul\":971:974   */\n      dup4\n        /* \"#utility.yul\":895:978   */\n      tag_34\n      jump\t// in\n    tag_53:\n        /* \"#utility.yul\":888:978   */\n      swap2\n      pop\n        /* \"#utility.yul\":987:1080   */\n      tag_54\n        /* \"#utility.yul\":1076:1079   */\n      dup3\n        /* \"#utility.yul\":987:1080   */\n      tag_35\n      jump\t// in\n    tag_54:\n        /* \"#utility.yul\":1105:1106   */\n      0x00\n        /* \"#utility.yul\":1100:1103   */\n      dup3\n        /* \"#utility.yul\":1096:1107   */\n      add\n        /* \"#utility.yul\":1089:1107   */\n      swap1\n      pop\n        /* \"#utility.yul\":715:1113   */\n      swap2\n      swap1\n      pop\n      jump\t// out\n        /* \"#utility.yul\":1119:1498   */\n    tag_13:\n        /* \"#utility.yul\":1303:1306   */\n      0x00\n        /* \"#utility.yul\":1325:1472   */\n      tag_56\n        /* \"#utility.yul\":1468:1471   */\n      dup3\n        /* \"#utility.yul\":1325:1472   */\n      tag_36\n      jump\t// in\n    tag_56:\n        /* \"#utility.yul\":1318:1472   */\n      swap2\n      pop\n        /* \"#utility.yul\":1489:1492   */\n      dup2\n        /* \"#utility.yul\":1482:1492   */\n      swap1\n      pop\n        /* \"#utility.yul\":1119:1498   */\n      swap2\n      swap1\n      pop\n      jump\t// out\n        /* \"#utility.yul\":1504:1602   */\n    tag_37:\n        /* \"#utility.yul\":1555:1561   */\n      0x00\n        /* \"#utility.yul\":1589:1594   */\n      dup2\n        /* \"#utility.yul\":1583:1595   */\n      mload\n        /* \"#utility.yul\":1573:1595   */\n      swap1\n      pop\n        /* \"#utility.yul\":1504:1602   */\n      swap2\n      swap1\n      pop\n      jump\t// out\n        /* \"#utility.yul\":1608:1776   */\n    tag_38:\n        /* \"#utility.yul\":1691:1702   */\n      0x00\n        /* \"#utility.yul\":1725:1731   */\n      dup3\n        /* \"#utility.yul\":1720:1723   */\n      dup3\n        /* \"#utility.yul\":1713:1732   */\n      mstore\n        /* \"#utility.yul\":1765:1769   */\n      0x20\n        /* \"#utility.yul\":1760:1763   */\n      dup3\n        /* \"#utility.yul\":1756:1770   */\n      add\n        /* \"#utility.yul\":1741:1770   */\n      swap1\n      pop\n        /* \"#utility.yul\":1608:1776   */\n      swap3\n      swap2\n      pop\n      pop\n      jump\t// out\n        /* \"#utility.yul\":1782:1921   */\n    tag_39:\n        /* \"#utility.yul\":1871:1877   */\n      dup3\n        /* \"#utility.yul\":1866:1869   */\n      dup2\n        /* \"#utility.yul\":1861:1864   */\n      dup4\n        /* \"#utility.yul\":1855:1878   */\n      mcopy\n        /* \"#utility.yul\":1912:1913   */\n      0x00\n        /* \"#utility.yul\":1903:1909   */\n      dup4\n        /* \"#utility.yul\":1898:1901   */\n      dup4\n        /* \"#utility.yul\":1894:1910   */\n      add\n        /* \"#utility.yul\":1887:1914   */\n      mstore\n        /* \"#utility.yul\":1782:1921   */\n      pop\n      pop\n      pop\n      jump\t// out\n        /* \"#utility.yul\":1927:2029   */\n    tag_40:\n        /* \"#utility.yul\":1968:1974   */\n      0x00\n        /* \"#utility.yul\":2019:2021   */\n      0x1f\n        /* \"#utility.yul\":2015:2022   */\n      not\n        /* \"#utility.yul\":2010:2012   */\n      0x1f\n        /* \"#utility.yul\":2003:2008   */\n      dup4\n        /* \"#utility.yul\":1999:2013   */\n      add\n        /* \"#utility.yul\":1995:2023   */\n      and\n        /* \"#utility.yul\":1985:2023   */\n      swap1\n      pop\n        /* \"#utility.yul\":1927:2029   */\n      swap2\n      swap1\n      pop\n      jump\t// out\n        /* \"#utility.yul\":2035:2408   */\n    tag_41:\n        /* \"#utility.yul\":2121:2124   */\n      0x00\n        /* \"#utility.yul\":2149:2187   */\n      tag_62\n        /* \"#utility.yul\":2181:2186   */\n      dup3\n        /* \"#utility.yul\":2149:2187   */\n      tag_37\n      jump\t// in\n    tag_62:\n        /* \"#utility.yul\":2203:2273   */\n      tag_63\n        /* \"#utility.yul\":2266:2272   */\n      dup2\n        /* \"#utility.yul\":2261:2264   */\n      dup6\n        /* \"#utility.yul\":2203:2273   */\n      tag_38\n      jump\t// in\n    tag_63:\n        /* \"#utility.yul\":2196:2273   */\n      swap4\n      pop\n        /* \"#utility.yul\":2282:2347   */\n      tag_64\n        /* \"#utility.yul\":2340:2346   */\n      dup2\n        /* \"#utility.yul\":2335:2338   */\n      dup6\n        /* \"#utility.yul\":2328:2332   */\n      0x20\n        /* \"#utility.yul\":2321:2326   */\n      dup7\n        /* \"#utility.yul\":2317:2333   */\n      add\n        /* \"#utility.yul\":2282:2347   */\n      tag_39\n      jump\t// in\n    tag_64:\n        /* \"#utility.yul\":2372:2401   */\n      tag_65\n        /* \"#utility.yul\":2394:2400   */\n      dup2\n        /* \"#utility.yul\":2372:2401   */\n      tag_40\n      jump\t// in\n    tag_65:\n        /* \"#utility.yul\":2367:2370   */\n      dup5\n        /* \"#utility.yul\":2363:2402   */\n      add\n        /* \"#utility.yul\":2356:2402   */\n      swap2\n      pop\n        /* \"#utility.yul\":2125:2408   */\n      pop\n        /* \"#utility.yul\":2035:2408   */\n      swap3\n      swap2\n      pop\n      pop\n      jump\t// out\n        /* \"#utility.yul\":2414:2723   */\n    tag_25:\n        /* \"#utility.yul\":2525:2529   */\n      0x00\n        /* \"#utility.yul\":2563:2565   */\n      0x20\n        /* \"#utility.yul\":2552:2561   */\n      dup3\n        /* \"#utility.yul\":2548:2566   */\n      add\n        /* \"#utility.yul\":2540:2566   */\n      swap1\n      pop\n        /* \"#utility.yul\":2612:2621   */\n      dup2\n        /* \"#utility.yul\":2606:2610   */\n      dup2\n        /* \"#utility.yul\":2602:2622   */\n      sub\n        /* \"#utility.yul\":2598:2599   */\n      0x00\n        /* \"#utility.yul\":2587:2596   */\n      dup4\n        /* \"#utility.yul\":2583:2600   */\n      add\n        /* \"#utility.yul\":2576:2623   */\n      mstore\n        /* \"#utility.yul\":2640:2716   */\n      tag_67\n        /* \"#utility.yul\":2711:2715   */\n      dup2\n        /* \"#utility.yul\":2702:2708   */\n      dup5\n        /* \"#utility.yul\":2640:2716   */\n      tag_41\n      jump\t// in\n    tag_67:\n        /* \"#utility.yul\":2632:2716   */\n      swap1\n      pop\n        /* \"#utility.yul\":2414:2723   */\n      swap3\n      swap2\n      pop\n      pop\n      jump\t// out\n        /* \"#utility.yul\":2729:2806   */\n    tag_42:\n        /* \"#utility.yul\":2766:2773   */\n      0x00\n        /* \"#utility.yul\":2795:2800   */\n      dup2\n        /* \"#utility.yul\":2784:2800   */\n      swap1\n      pop\n        /* \"#utility.yul\":2729:2806   */\n      swap2\n      swap1\n      pop\n      jump\t// out\n        /* \"#utility.yul\":2812:2930   */\n    tag_43:\n        /* \"#utility.yul\":2899:2923   */\n      tag_70\n        /* \"#utility.yul\":2917:2922   */\n      dup2\n        /* \"#utility.yul\":2899:2923   */\n      tag_42\n      jump\t// in\n    tag_70:\n        /* \"#utility.yul\":2894:2897   */\n      dup3\n        /* \"#utility.yul\":2887:2924   */\n      mstore\n        /* \"#utility.yul\":2812:2930   */\n      pop\n      pop\n      jump\t// out\n        /* \"#utility.yul\":2936:3158   */\n    tag_30:\n        /* \"#utility.yul\":3029:3033   */\n      0x00\n        /* \"#utility.yul\":3067:3069   */\n      0x20\n        /* \"#utility.yul\":3056:3065   */\n      dup3\n        /* \"#utility.yul\":3052:3070   */\n      add\n        /* \"#utility.yul\":3044:3070   */\n      swap1\n      pop\n        /* \"#utility.yul\":3080:3151   */\n      tag_72\n        /* \"#utility.yul\":3148:3149   */\n      0x00\n        /* \"#utility.yul\":3137:3146   */\n      dup4\n        /* \"#utility.yul\":3133:3150   */\n      add\n        /* \"#utility.yul\":3124:3130   */\n      dup5\n        /* \"#utility.yul\":3080:3151   */\n      tag_43\n      jump\t// in\n    tag_72:\n        /* \"#utility.yul\":2936:3158   */\n      swap3\n      swap2\n      pop\n      pop\n      jump\t// out\n\n    auxdata: 0xa26469706673582212202bff5c15cf547490994c8069cbbff8f4319ee883984d340b4128f663a17b905164736f6c634300081d0033\n}\n",
				"bytecode": {
					"linkReferences": {},
					"object": "60806040525f600155348015610013575f5ffd5b50604051610505380380610505833981810160405281019061003591906100d8565b805f5f6101000a81548173ffffffffffffffffffffffffffffffffffffffff021916908373ffffffffffffffffffffffffffffffffffffffff16021790555050610103565b5f5ffd5b5f73ffffffffffffffffffffffffffffffffffffffff82169050919050565b5f6100a78261007e565b9050919050565b6100b78161009d565b81146100c1575f5ffd5b50565b5f815190506100d2816100ae565b92915050565b5f602082840312156100ed576100ec61007a565b5b5f6100fa848285016100c4565b91505092915050565b6103f5806101105f395ff3fe608060405260043610610028575f3560e01c806326818d7d1461002c57806344fd4fa014610056575b5f5ffd5b348015610037575f5ffd5b50610040610060565b60405161004d91906102a4565b60405180910390f35b61005e610066565b005b60015481565b5f5f5f5f9054906101000a900473ffffffffffffffffffffffffffffffffffffffff1673ffffffffffffffffffffffffffffffffffffffff16670de0b6b3a76400006040516100b4906102ea565b5f6040518083038185875af1925050503d805f81146100ee576040519150601f19603f3d011682016040523d82523d5f602084013e6100f3565b606091505b5091509150816101305761010681610134565b61012f7f568804639171345705b794b2fd1a938758dc6b678c203b630b224e0da48a84ad6101cd565b5b5050565b6101ca81604051602401610148919061036e565b6040516020818303038152906040527f0be77f56000000000000000000000000000000000000000000000000000000007bffffffffffffffffffffffffffffffffffffffffffffffffffffffff19166020820180517bffffffffffffffffffffffffffffffffffffffffffffffffffffffff8381831617835250505050610266565b50565b610263816040516024016101e191906103a6565b6040516020818303038152906040527f27b7cf85000000000000000000000000000000000000000000000000000000007bffffffffffffffffffffffffffffffffffffffffffffffffffffffff19166020820180517bffffffffffffffffffffffffffffffffffffffffffffffffffffffff8381831617835250505050610266565b50565b5f815190505f6a636f6e736f6c652e6c6f679050602083015f5f8483855afa5050505050565b5f819050919050565b61029e8161028c565b82525050565b5f6020820190506102b75f830184610295565b92915050565b5f81905092915050565b50565b5f6102d55f836102bd565b91506102e0826102c7565b5f82019050919050565b5f6102f4826102ca565b9150819050919050565b5f81519050919050565b5f82825260208201905092915050565b8281835e5f83830152505050565b5f601f19601f8301169050919050565b5f610340826102fe565b61034a8185610308565b935061035a818560208601610318565b61036381610326565b840191505092915050565b5f6020820190508181035f8301526103868184610336565b905092915050565b5f819050919050565b6103a08161038e565b82525050565b5f6020820190506103b95f830184610397565b9291505056fea26469706673582212202bff5c15cf547490994c8069cbbff8f4319ee883984d340b4128f663a17b905164736f6c634300081d0033",
					"opcodes": "PUSH1 0x80 PUSH1 0x40 MSTORE PUSH0 PUSH1 0x1 SSTORE CALLVALUE DUP1 ISZERO PUSH2 0x13 JUMPI PUSH0 PUSH0 REVERT JUMPDEST POP PUSH1 0x40 MLOAD PUSH2 0x505 CODESIZE SUB DUP1 PUSH2 0x505 DUP4 CODECOPY DUP2 DUP2 ADD PUSH1 0x40 MSTORE DUP2 ADD SWAP1 PUSH2 0x35 SWAP2 SWAP1 PUSH2 0xD8 JUMP JUMPDEST DUP1 PUSH0 PUSH0 PUSH2 0x100 EXP DUP2 SLOAD DUP2 PUSH20 0xFFFFFFFFFFFFFFFFFFFFFFFFFFFFFFFFFFFFFFFF MUL NOT AND SWAP1 DUP4 PUSH20 0xFFFFFFFFFFFFFFFFFFFFFFFFFFFFFFFFFFFFFFFF AND MUL OR SWAP1 SSTORE POP POP PUSH2 0x103 JUMP JUMPDEST PUSH0 PUSH0 REVERT JUMPDEST PUSH0 PUSH20 0xFFFFFFFFFFFFFFFFFFFFFFFFFFFFFFFFFFFFFFFF DUP3 AND SWAP1 POP SWAP2 SWAP1 POP JUMP JUMPDEST PUSH0 PUSH2 0xA7 DUP3 PUSH2 0x7E JUMP JUMPDEST SWAP1 POP SWAP2 SWAP1 POP JUMP JUMPDEST PUSH2 0xB7 DUP2 PUSH2 0x9D JUMP JUMPDEST DUP2 EQ PUSH2 0xC1 JUMPI PUSH0 PUSH0 REVERT JUMPDEST POP JUMP JUMPDEST PUSH0 DUP2 MLOAD SWAP1 POP PUSH2 0xD2 DUP2 PUSH2 0xAE JUMP JUMPDEST SWAP3 SWAP2 POP POP JUMP JUMPDEST PUSH0 PUSH1 0x20 DUP3 DUP5 SUB SLT ISZERO PUSH2 0xED JUMPI PUSH2 0xEC PUSH2 0x7A JUMP JUMPDEST JUMPDEST PUSH0 PUSH2 0xFA DUP5 DUP3 DUP6 ADD PUSH2 0xC4 JUMP JUMPDEST SWAP2 POP POP SWAP3 SWAP2 POP POP JUMP JUMPDEST PUSH2 0x3F5 DUP1 PUSH2 0x110 PUSH0 CODECOPY PUSH0 RETURN INVALID PUSH1 0x80 PUSH1 0x40 MSTORE PUSH1 0x4 CALLDATASIZE LT PUSH2 0x28 JUMPI PUSH0 CALLDATALOAD PUSH1 0xE0 SHR DUP1 PUSH4 0x26818D7D EQ PUSH2 0x2C JUMPI DUP1 PUSH4 0x44FD4FA0 EQ PUSH2 0x56 JUMPI JUMPDEST PUSH0 PUSH0 REVERT JUMPDEST CALLVALUE DUP1 ISZERO PUSH2 0x37 JUMPI PUSH0 PUSH0 REVERT JUMPDEST POP PUSH2 0x40 PUSH2 0x60 JUMP JUMPDEST PUSH1 0x40 MLOAD PUSH2 0x4D SWAP2 SWAP1 PUSH2 0x2A4 JUMP JUMPDEST PUSH1 0x40 MLOAD DUP1 SWAP2 SUB SWAP1 RETURN JUMPDEST PUSH2 0x5E PUSH2 0x66 JUMP JUMPDEST STOP JUMPDEST PUSH1 0x1 SLOAD DUP2 JUMP JUMPDEST PUSH0 PUSH0 PUSH0 PUSH0 SWAP1 SLOAD SWAP1 PUSH2 0x100 EXP SWAP1 DIV PUSH20 0xFFFFFFFFFFFFFFFFFFFFFFFFFFFFFFFFFFFFFFFF AND PUSH20 0xFFFFFFFFFFFFFFFFFFFFFFFFFFFFFFFFFFFFFFFF AND PUSH8 0xDE0B6B3A7640000 PUSH1 0x40 MLOAD PUSH2 0xB4 SWAP1 PUSH2 0x2EA JUMP JUMPDEST PUSH0 PUSH1 0x40 MLOAD DUP1 DUP4 SUB DUP2 DUP6 DUP8 GAS CALL SWAP3 POP POP POP RETURNDATASIZE DUP1 PUSH0 DUP2 EQ PUSH2 0xEE JUMPI PUSH1 0x40 MLOAD SWAP2 POP PUSH1 0x1F NOT PUSH1 0x3F RETURNDATASIZE ADD AND DUP3 ADD PUSH1 0x40 MSTORE RETURNDATASIZE DUP3 MSTORE RETURNDATASIZE PUSH0 PUSH1 0x20 DUP5 ADD RETURNDATACOPY PUSH2 0xF3 JUMP JUMPDEST PUSH1 0x60 SWAP2 POP JUMPDEST POP SWAP2 POP SWAP2 POP DUP2 PUSH2 0x130 JUMPI PUSH2 0x106 DUP2 PUSH2 0x134 JUMP JUMPDEST PUSH2 0x12F PUSH32 0x568804639171345705B794B2FD1A938758DC6B678C203B630B224E0DA48A84AD PUSH2 0x1CD JUMP JUMPDEST JUMPDEST POP POP JUMP JUMPDEST PUSH2 0x1CA DUP2 PUSH1 0x40 MLOAD PUSH1 0x24 ADD PUSH2 0x148 SWAP2 SWAP1 PUSH2 0x36E JUMP JUMPDEST PUSH1 0x40 MLOAD PUSH1 0x20 DUP2 DUP4 SUB SUB DUP2 MSTORE SWAP1 PUSH1 0x40 MSTORE PUSH32 0xBE77F5600000000000000000000000000000000000000000000000000000000 PUSH28 0xFFFFFFFFFFFFFFFFFFFFFFFFFFFFFFFFFFFFFFFFFFFFFFFFFFFFFFFF NOT AND PUSH1 0x20 DUP3 ADD DUP1 MLOAD PUSH28 0xFFFFFFFFFFFFFFFFFFFFFFFFFFFFFFFFFFFFFFFFFFFFFFFFFFFFFFFF DUP4 DUP2 DUP4 AND OR DUP4 MSTORE POP POP POP POP PUSH2 0x266 JUMP JUMPDEST POP JUMP JUMPDEST PUSH2 0x263 DUP2 PUSH1 0x40 MLOAD PUSH1 0x24 ADD PUSH2 0x1E1 SWAP2 SWAP1 PUSH2 0x3A6 JUMP JUMPDEST PUSH1 0x40 MLOAD PUSH1 0x20 DUP2 DUP4 SUB SUB DUP2 MSTORE SWAP1 PUSH1 0x40 MSTORE PUSH32 0x27B7CF8500000000000000000000000000000000000000000000000000000000 PUSH28 0xFFFFFFFFFFFFFFFFFFFFFFFFFFFFFFFFFFFFFFFFFFFFFFFFFFFFFFFF NOT AND PUSH1 0x20 DUP3 ADD DUP1 MLOAD PUSH28 0xFFFFFFFFFFFFFFFFFFFFFFFFFFFFFFFFFFFFFFFFFFFFFFFFFFFFFFFF DUP4 DUP2 DUP4 AND OR DUP4 MSTORE POP POP POP POP PUSH2 0x266 JUMP JUMPDEST POP JUMP JUMPDEST PUSH0 DUP2 MLOAD SWAP1 POP PUSH0 PUSH11 0x636F6E736F6C652E6C6F67 SWAP1 POP PUSH1 0x20 DUP4 ADD PUSH0 PUSH0 DUP5 DUP4 DUP6 GAS STATICCALL POP POP POP POP POP JUMP JUMPDEST PUSH0 DUP2 SWAP1 POP SWAP2 SWAP1 POP JUMP JUMPDEST PUSH2 0x29E DUP2 PUSH2 0x28C JUMP JUMPDEST DUP3 MSTORE POP POP JUMP JUMPDEST PUSH0 PUSH1 0x20 DUP3 ADD SWAP1 POP PUSH2 0x2B7 PUSH0 DUP4 ADD DUP5 PUSH2 0x295 JUMP JUMPDEST SWAP3 SWAP2 POP POP JUMP JUMPDEST PUSH0 DUP2 SWAP1 POP SWAP3 SWAP2 POP POP JUMP JUMPDEST POP JUMP JUMPDEST PUSH0 PUSH2 0x2D5 PUSH0 DUP4 PUSH2 0x2BD JUMP JUMPDEST SWAP2 POP PUSH2 0x2E0 DUP3 PUSH2 0x2C7 JUMP JUMPDEST PUSH0 DUP3 ADD SWAP1 POP SWAP2 SWAP1 POP JUMP JUMPDEST PUSH0 PUSH2 0x2F4 DUP3 PUSH2 0x2CA JUMP JUMPDEST SWAP2 POP DUP2 SWAP1 POP SWAP2 SWAP1 POP JUMP JUMPDEST PUSH0 DUP2 MLOAD SWAP1 POP SWAP2 SWAP1 POP JUMP JUMPDEST PUSH0 DUP3 DUP3 MSTORE PUSH1 0x20 DUP3 ADD SWAP1 POP SWAP3 SWAP2 POP POP JUMP JUMPDEST DUP3 DUP2 DUP4 MCOPY PUSH0 DUP4 DUP4 ADD MSTORE POP POP POP JUMP JUMPDEST PUSH0 PUSH1 0x1F NOT PUSH1 0x1F DUP4 ADD AND SWAP1 POP SWAP2 SWAP1 POP JUMP JUMPDEST PUSH0 PUSH2 0x340 DUP3 PUSH2 0x2FE JUMP JUMPDEST PUSH2 0x34A DUP2 DUP6 PUSH2 0x308 JUMP JUMPDEST SWAP4 POP PUSH2 0x35A DUP2 DUP6 PUSH1 0x20 DUP7 ADD PUSH2 0x318 JUMP JUMPDEST PUSH2 0x363 DUP2 PUSH2 0x326 JUMP JUMPDEST DUP5 ADD SWAP2 POP POP SWAP3 SWAP2 POP POP JUMP JUMPDEST PUSH0 PUSH1 0x20 DUP3 ADD SWAP1 POP DUP2 DUP2 SUB PUSH0 DUP4 ADD MSTORE PUSH2 0x386 DUP2 DUP5 PUSH2 0x336 JUMP JUMPDEST SWAP1 POP SWAP3 SWAP2 POP POP JUMP JUMPDEST PUSH0 DUP2 SWAP1 POP SWAP2 SWAP1 POP JUMP JUMPDEST PUSH2 0x3A0 DUP2 PUSH2 0x38E JUMP JUMPDEST DUP3 MSTORE POP POP JUMP JUMPDEST PUSH0 PUSH1 0x20 DUP3 ADD SWAP1 POP PUSH2 0x3B9 PUSH0 DUP4 ADD DUP5 PUSH2 0x397 JUMP JUMPDEST SWAP3 SWAP2 POP POP JUMP INVALID LOG2 PUSH5 0x6970667358 0x22 SLT KECCAK256 0x2B SELFDESTRUCT TLOAD ISZERO 0xCF SLOAD PUSH21 0x90994C8069CBBFF8F4319EE883984D340B4128F663 LOG1 PUSH28 0x905164736F6C634300081D0033000000000000000000000000000000 "
				},
				"gasEstimates": {
					"creation": {
						"codeDepositCost": "202600",
						"executionCost": "infinite",
						"totalCost": "infinite"
					},
					"external": {
						"callB()": "infinite",
						"errorCounter()": "2403"
					}
				},
				"methodIdentifiers": {
					"callB()": "44fd4fa0",
					"errorCounter()": "26818d7d"
				}
			},
			"storageLayout": {
				"storage": [
					{
						"astId": 4,
						"contract": "contracts/ALU7.sol:A",
						"label": "b",
						"offset": 0,
						"slot": "0",
						"type": "t_address"
					},
					{
						"astId": 7,
						"contract": "contracts/ALU7.sol:A",
						"label": "errorCounter",
						"offset": 0,
						"slot": "1",
						"type": "t_uint256"
					}
				],
				"types": {
					"t_address": {
						"encoding": "inplace",
						"label": "address",
						"numberOfBytes": "20"
					},
					"t_uint256": {
						"encoding": "inplace",
						"label": "uint256",
						"numberOfBytes": "32"
					}
				}
			},
			"userdoc": {
				"kind": "user",
				"methods": {},
				"version": 1
			}
		}
	}
}