{
	"contracts/24_map_Vs_struct.sol": {
		"demo": {
			"abi": [
				{
					"inputs": [
						{
							"internalType": "uint256",
							"name": "index",
							"type": "uint256"
						},
						{
							"internalType": "string",
							"name": "_name",
							"type": "string"
						},
						{
							"internalType": "uint256",
							"name": "_roll",
							"type": "uint256"
						},
						{
							"internalType": "bool",
							"name": "_result",
							"type": "bool"
						}
					],
					"name": "insert",
					"outputs": [],
					"stateMutability": "nonpayable",
					"type": "function"
				},
				{
					"inputs": [
						{
							"internalType": "uint256",
							"name": "",
							"type": "uint256"
						}
					],
					"name": "records",
					"outputs": [
						{
							"internalType": "string",
							"name": "name",
							"type": "string"
						},
						{
							"internalType": "uint256",
							"name": "roll",
							"type": "uint256"
						},
						{
							"internalType": "bool",
							"name": "result",
							"type": "bool"
						}
					],
					"stateMutability": "view",
					"type": "function"
				},
				{
					"inputs": [
						{
							"internalType": "uint256",
							"name": "index",
							"type": "uint256"
						}
					],
					"name": "returnValue",
					"outputs": [
						{
							"components": [
								{
									"internalType": "string",
									"name": "name",
									"type": "string"
								},
								{
									"internalType": "uint256",
									"name": "roll",
									"type": "uint256"
								},
								{
									"internalType": "bool",
									"name": "result",
									"type": "bool"
								}
							],
							"internalType": "struct demo.Student",
							"name": "",
							"type": "tuple"
						}
					],
					"stateMutability": "view",
					"type": "function"
				}
			],
			"devdoc": {
				"kind": "dev",
				"methods": {},
				"version": 1
			},
			"evm": {
				"assembly": "    /* \"contracts/24_map_Vs_struct.sol\":73:498  contract demo{... */\n  mstore(0x40, 0x80)\n  callvalue\n  dup1\n  iszero\n  tag_1\n  jumpi\n  revert(0x00, 0x00)\ntag_1:\n  pop\n  dataSize(sub_0)\n  dup1\n  dataOffset(sub_0)\n  0x00\n  codecopy\n  0x00\n  return\nstop\n\nsub_0: assembly {\n        /* \"contracts/24_map_Vs_struct.sol\":73:498  contract demo{... */\n      mstore(0x40, 0x80)\n      callvalue\n      dup1\n      iszero\n      tag_1\n      jumpi\n      revert(0x00, 0x00)\n    tag_1:\n      pop\n      jumpi(tag_2, lt(calldatasize, 0x04))\n      shr(0xe0, calldataload(0x00))\n      dup1\n      0x34461067\n      eq\n      tag_3\n      jumpi\n      dup1\n      0x82756460\n      eq\n      tag_4\n      jumpi\n      dup1\n      0xe0258db7\n      eq\n      tag_5\n      jumpi\n    tag_2:\n      revert(0x00, 0x00)\n        /* \"contracts/24_map_Vs_struct.sol\":185:225  mapping (uint => Student) public records */\n    tag_3:\n      tag_6\n      0x04\n      dup1\n      calldatasize\n      sub\n      dup2\n      add\n      swap1\n      tag_7\n      swap2\n      swap1\n      tag_8\n      jump\t// in\n    tag_7:\n      tag_9\n      jump\t// in\n    tag_6:\n      mload(0x40)\n      tag_10\n      swap4\n      swap3\n      swap2\n      swap1\n      tag_11\n      jump\t// in\n    tag_10:\n      mload(0x40)\n      dup1\n      swap2\n      sub\n      swap1\n      return\n        /* \"contracts/24_map_Vs_struct.sol\":387:495  function returnValue(uint index) public view returns(Student memory){... */\n    tag_4:\n      tag_12\n      0x04\n      dup1\n      calldatasize\n      sub\n      dup2\n      add\n      swap1\n      tag_13\n      swap2\n      swap1\n      tag_8\n      jump\t// in\n    tag_13:\n      tag_14\n      jump\t// in\n    tag_12:\n      mload(0x40)\n      tag_15\n      swap2\n      swap1\n      tag_16\n      jump\t// in\n    tag_15:\n      mload(0x40)\n      dup1\n      swap2\n      sub\n      swap1\n      return\n        /* \"contracts/24_map_Vs_struct.sol\":234:379  function insert(uint index, string memory _name, uint _roll, bool _result) public{... */\n    tag_5:\n      tag_17\n      0x04\n      dup1\n      calldatasize\n      sub\n      dup2\n      add\n      swap1\n      tag_18\n      swap2\n      swap1\n      tag_19\n      jump\t// in\n    tag_18:\n      tag_20\n      jump\t// in\n    tag_17:\n      stop\n        /* \"contracts/24_map_Vs_struct.sol\":185:225  mapping (uint => Student) public records */\n    tag_9:\n      mstore(0x20, 0x00)\n      dup1\n      0x00\n      mstore\n      keccak256(0x00, 0x40)\n      0x00\n      swap2\n      pop\n      swap1\n      pop\n      dup1\n      0x00\n      add\n      dup1\n      sload\n      tag_21\n      swap1\n      tag_22\n      jump\t// in\n    tag_21:\n      dup1\n      0x1f\n      add\n      0x20\n      dup1\n      swap2\n      div\n      mul\n      0x20\n      add\n      mload(0x40)\n      swap1\n      dup2\n      add\n      0x40\n      mstore\n      dup1\n      swap3\n      swap2\n      swap1\n      dup2\n      dup2\n      mstore\n      0x20\n      add\n      dup3\n      dup1\n      sload\n      tag_23\n      swap1\n      tag_22\n      jump\t// in\n    tag_23:\n      dup1\n      iszero\n      tag_24\n      jumpi\n      dup1\n      0x1f\n      lt\n      tag_25\n      jumpi\n      0x0100\n      dup1\n      dup4\n      sload\n      div\n      mul\n      dup4\n      mstore\n      swap2\n      0x20\n      add\n      swap2\n      jump(tag_24)\n    tag_25:\n      dup3\n      add\n      swap2\n      swap1\n      0x00\n      mstore\n      keccak256(0x00, 0x20)\n      swap1\n    tag_26:\n      dup2\n      sload\n      dup2\n      mstore\n      swap1\n      0x01\n      add\n      swap1\n      0x20\n      add\n      dup1\n      dup4\n      gt\n      tag_26\n      jumpi\n      dup3\n      swap1\n      sub\n      0x1f\n      and\n      dup3\n      add\n      swap2\n    tag_24:\n      pop\n      pop\n      pop\n      pop\n      pop\n      swap1\n      dup1\n      0x01\n      add\n      sload\n      swap1\n      dup1\n      0x02\n      add\n      0x00\n      swap1\n      sload\n      swap1\n      0x0100\n      exp\n      swap1\n      div\n      0xff\n      and\n      swap1\n      pop\n      dup4\n      jump\t// out\n        /* \"contracts/24_map_Vs_struct.sol\":387:495  function returnValue(uint index) public view returns(Student memory){... */\n    tag_14:\n        /* \"contracts/24_map_Vs_struct.sol\":440:454  Student memory */\n      tag_27\n      tag_28\n      jump\t// in\n    tag_27:\n        /* \"contracts/24_map_Vs_struct.sol\":473:480  records */\n      0x00\n        /* \"contracts/24_map_Vs_struct.sol\":473:487  records[index] */\n      0x00\n        /* \"contracts/24_map_Vs_struct.sol\":481:486  index */\n      dup4\n        /* \"contracts/24_map_Vs_struct.sol\":473:487  records[index] */\n      dup2\n      mstore\n      0x20\n      add\n      swap1\n      dup2\n      mstore\n      0x20\n      add\n      0x00\n      keccak256\n        /* \"contracts/24_map_Vs_struct.sol\":466:487  return records[index] */\n      mload(0x40)\n      dup1\n      0x60\n      add\n      0x40\n      mstore\n      swap1\n      dup2\n      0x00\n      dup3\n      add\n      dup1\n      sload\n      tag_30\n      swap1\n      tag_22\n      jump\t// in\n    tag_30:\n      dup1\n      0x1f\n      add\n      0x20\n      dup1\n      swap2\n      div\n      mul\n      0x20\n      add\n      mload(0x40)\n      swap1\n      dup2\n      add\n      0x40\n      mstore\n      dup1\n      swap3\n      swap2\n      swap1\n      dup2\n      dup2\n      mstore\n      0x20\n      add\n      dup3\n      dup1\n      sload\n      tag_31\n      swap1\n      tag_22\n      jump\t// in\n    tag_31:\n      dup1\n      iszero\n      tag_32\n      jumpi\n      dup1\n      0x1f\n      lt\n      tag_33\n      jumpi\n      0x0100\n      dup1\n      dup4\n      sload\n      div\n      mul\n      dup4\n      mstore\n      swap2\n      0x20\n      add\n      swap2\n      jump(tag_32)\n    tag_33:\n      dup3\n      add\n      swap2\n      swap1\n      0x00\n      mstore\n      keccak256(0x00, 0x20)\n      swap1\n    tag_34:\n      dup2\n      sload\n      dup2\n      mstore\n      swap1\n      0x01\n      add\n      swap1\n      0x20\n      add\n      dup1\n      dup4\n      gt\n      tag_34\n      jumpi\n      dup3\n      swap1\n      sub\n      0x1f\n      and\n      dup3\n      add\n      swap2\n    tag_32:\n      pop\n      pop\n      pop\n      pop\n      pop\n      dup2\n      mstore\n      0x20\n      add\n      0x01\n      dup3\n      add\n      sload\n      dup2\n      mstore\n      0x20\n      add\n      0x02\n      dup3\n      add\n      0x00\n      swap1\n      sload\n      swap1\n      0x0100\n      exp\n      swap1\n      div\n      0xff\n      and\n      iszero\n      iszero\n      iszero\n      iszero\n      dup2\n      mstore\n      pop\n      pop\n      swap1\n      pop\n        /* \"contracts/24_map_Vs_struct.sol\":387:495  function returnValue(uint index) public view returns(Student memory){... */\n      swap2\n      swap1\n      pop\n      jump\t// out\n        /* \"contracts/24_map_Vs_struct.sol\":234:379  function insert(uint index, string memory _name, uint _roll, bool _result) public{... */\n    tag_20:\n        /* \"contracts/24_map_Vs_struct.sol\":343:371  Student(_name,_roll,_result) */\n      mload(0x40)\n      dup1\n      0x60\n      add\n      0x40\n      mstore\n      dup1\n        /* \"contracts/24_map_Vs_struct.sol\":351:356  _name */\n      dup5\n        /* \"contracts/24_map_Vs_struct.sol\":343:371  Student(_name,_roll,_result) */\n      dup2\n      mstore\n      0x20\n      add\n        /* \"contracts/24_map_Vs_struct.sol\":357:362  _roll */\n      dup4\n        /* \"contracts/24_map_Vs_struct.sol\":343:371  Student(_name,_roll,_result) */\n      dup2\n      mstore\n      0x20\n      add\n        /* \"contracts/24_map_Vs_struct.sol\":363:370  _result */\n      dup3\n        /* \"contracts/24_map_Vs_struct.sol\":343:371  Student(_name,_roll,_result) */\n      iszero\n      iszero\n      dup2\n      mstore\n      pop\n        /* \"contracts/24_map_Vs_struct.sol\":326:333  records */\n      0x00\n        /* \"contracts/24_map_Vs_struct.sol\":326:340  records[index] */\n      0x00\n        /* \"contracts/24_map_Vs_struct.sol\":334:339  index */\n      dup7\n        /* \"contracts/24_map_Vs_struct.sol\":326:340  records[index] */\n      dup2\n      mstore\n      0x20\n      add\n      swap1\n      dup2\n      mstore\n      0x20\n      add\n      0x00\n      keccak256\n        /* \"contracts/24_map_Vs_struct.sol\":326:371  records[index] = Student(_name,_roll,_result) */\n      0x00\n      dup3\n      add\n      mload\n      dup2\n      0x00\n      add\n      swap1\n      dup2\n      tag_36\n      swap2\n      swap1\n      tag_37\n      jump\t// in\n    tag_36:\n      pop\n      0x20\n      dup3\n      add\n      mload\n      dup2\n      0x01\n      add\n      sstore\n      0x40\n      dup3\n      add\n      mload\n      dup2\n      0x02\n      add\n      exp(0x0100, 0x00)\n      dup2\n      sload\n      dup2\n      0xff\n      mul\n      not\n      and\n      swap1\n      dup4\n      iszero\n      iszero\n      mul\n      or\n      swap1\n      sstore\n      pop\n      swap1\n      pop\n      pop\n        /* \"contracts/24_map_Vs_struct.sol\":234:379  function insert(uint index, string memory _name, uint _roll, bool _result) public{... */\n      pop\n      pop\n      pop\n      pop\n      jump\t// out\n    tag_28:\n      mload(0x40)\n      dup1\n      0x60\n      add\n      0x40\n      mstore\n      dup1\n      0x60\n      dup2\n      mstore\n      0x20\n      add\n      0x00\n      dup2\n      mstore\n      0x20\n      add\n      iszero(iszero(0x00))\n      dup2\n      mstore\n      pop\n      swap1\n      jump\t// out\n        /* \"#utility.yul\":7:82   */\n    tag_38:\n        /* \"#utility.yul\":40:46   */\n      0x00\n        /* \"#utility.yul\":73:75   */\n      0x40\n        /* \"#utility.yul\":67:76   */\n      mload\n        /* \"#utility.yul\":57:76   */\n      swap1\n      pop\n        /* \"#utility.yul\":7:82   */\n      swap1\n      jump\t// out\n        /* \"#utility.yul\":88:205   */\n    tag_39:\n        /* \"#utility.yul\":197:198   */\n      0x00\n        /* \"#utility.yul\":194:195   */\n      0x00\n        /* \"#utility.yul\":187:199   */\n      revert\n        /* \"#utility.yul\":211:328   */\n    tag_40:\n        /* \"#utility.yul\":320:321   */\n      0x00\n        /* \"#utility.yul\":317:318   */\n      0x00\n        /* \"#utility.yul\":310:322   */\n      revert\n        /* \"#utility.yul\":334:411   */\n    tag_41:\n        /* \"#utility.yul\":371:378   */\n      0x00\n        /* \"#utility.yul\":400:405   */\n      dup2\n        /* \"#utility.yul\":389:405   */\n      swap1\n      pop\n        /* \"#utility.yul\":334:411   */\n      swap2\n      swap1\n      pop\n      jump\t// out\n        /* \"#utility.yul\":417:539   */\n    tag_42:\n        /* \"#utility.yul\":490:514   */\n      tag_90\n        /* \"#utility.yul\":508:513   */\n      dup2\n        /* \"#utility.yul\":490:514   */\n      tag_41\n      jump\t// in\n    tag_90:\n        /* \"#utility.yul\":483:488   */\n      dup2\n        /* \"#utility.yul\":480:515   */\n      eq\n        /* \"#utility.yul\":470:533   */\n      tag_91\n      jumpi\n        /* \"#utility.yul\":529:530   */\n      0x00\n        /* \"#utility.yul\":526:527   */\n      0x00\n        /* \"#utility.yul\":519:531   */\n      revert\n        /* \"#utility.yul\":470:533   */\n    tag_91:\n        /* \"#utility.yul\":417:539   */\n      pop\n      jump\t// out\n        /* \"#utility.yul\":545:684   */\n    tag_43:\n        /* \"#utility.yul\":591:596   */\n      0x00\n        /* \"#utility.yul\":629:635   */\n      dup2\n        /* \"#utility.yul\":616:636   */\n      calldataload\n        /* \"#utility.yul\":607:636   */\n      swap1\n      pop\n        /* \"#utility.yul\":645:678   */\n      tag_93\n        /* \"#utility.yul\":672:677   */\n      dup2\n        /* \"#utility.yul\":645:678   */\n      tag_42\n      jump\t// in\n    tag_93:\n        /* \"#utility.yul\":545:684   */\n      swap3\n      swap2\n      pop\n      pop\n      jump\t// out\n        /* \"#utility.yul\":690:1019   */\n    tag_8:\n        /* \"#utility.yul\":749:755   */\n      0x00\n        /* \"#utility.yul\":798:800   */\n      0x20\n        /* \"#utility.yul\":786:795   */\n      dup3\n        /* \"#utility.yul\":777:784   */\n      dup5\n        /* \"#utility.yul\":773:796   */\n      sub\n        /* \"#utility.yul\":769:801   */\n      slt\n        /* \"#utility.yul\":766:885   */\n      iszero\n      tag_95\n      jumpi\n        /* \"#utility.yul\":804:883   */\n      tag_96\n      tag_39\n      jump\t// in\n    tag_96:\n        /* \"#utility.yul\":766:885   */\n    tag_95:\n        /* \"#utility.yul\":924:925   */\n      0x00\n        /* \"#utility.yul\":949:1002   */\n      tag_97\n        /* \"#utility.yul\":994:1001   */\n      dup5\n        /* \"#utility.yul\":985:991   */\n      dup3\n        /* \"#utility.yul\":974:983   */\n      dup6\n        /* \"#utility.yul\":970:992   */\n      add\n        /* \"#utility.yul\":949:1002   */\n      tag_43\n      jump\t// in\n    tag_97:\n        /* \"#utility.yul\":939:1002   */\n      swap2\n      pop\n        /* \"#utility.yul\":895:1012   */\n      pop\n        /* \"#utility.yul\":690:1019   */\n      swap3\n      swap2\n      pop\n      pop\n      jump\t// out\n        /* \"#utility.yul\":1025:1124   */\n    tag_44:\n        /* \"#utility.yul\":1077:1083   */\n      0x00\n        /* \"#utility.yul\":1111:1116   */\n      dup2\n        /* \"#utility.yul\":1105:1117   */\n      mload\n        /* \"#utility.yul\":1095:1117   */\n      swap1\n      pop\n        /* \"#utility.yul\":1025:1124   */\n      swap2\n      swap1\n      pop\n      jump\t// out\n        /* \"#utility.yul\":1130:1299   */\n    tag_45:\n        /* \"#utility.yul\":1214:1225   */\n      0x00\n        /* \"#utility.yul\":1248:1254   */\n      dup3\n        /* \"#utility.yul\":1243:1246   */\n      dup3\n        /* \"#utility.yul\":1236:1255   */\n      mstore\n        /* \"#utility.yul\":1288:1292   */\n      0x20\n        /* \"#utility.yul\":1283:1286   */\n      dup3\n        /* \"#utility.yul\":1279:1293   */\n      add\n        /* \"#utility.yul\":1264:1293   */\n      swap1\n      pop\n        /* \"#utility.yul\":1130:1299   */\n      swap3\n      swap2\n      pop\n      pop\n      jump\t// out\n        /* \"#utility.yul\":1305:1444   */\n    tag_46:\n        /* \"#utility.yul\":1394:1400   */\n      dup3\n        /* \"#utility.yul\":1389:1392   */\n      dup2\n        /* \"#utility.yul\":1384:1387   */\n      dup4\n        /* \"#utility.yul\":1378:1401   */\n      mcopy\n        /* \"#utility.yul\":1435:1436   */\n      0x00\n        /* \"#utility.yul\":1426:1432   */\n      dup4\n        /* \"#utility.yul\":1421:1424   */\n      dup4\n        /* \"#utility.yul\":1417:1433   */\n      add\n        /* \"#utility.yul\":1410:1437   */\n      mstore\n        /* \"#utility.yul\":1305:1444   */\n      pop\n      pop\n      pop\n      jump\t// out\n        /* \"#utility.yul\":1450:1552   */\n    tag_47:\n        /* \"#utility.yul\":1491:1497   */\n      0x00\n        /* \"#utility.yul\":1542:1544   */\n      0x1f\n        /* \"#utility.yul\":1538:1545   */\n      not\n        /* \"#utility.yul\":1533:1535   */\n      0x1f\n        /* \"#utility.yul\":1526:1531   */\n      dup4\n        /* \"#utility.yul\":1522:1536   */\n      add\n        /* \"#utility.yul\":1518:1546   */\n      and\n        /* \"#utility.yul\":1508:1546   */\n      swap1\n      pop\n        /* \"#utility.yul\":1450:1552   */\n      swap2\n      swap1\n      pop\n      jump\t// out\n        /* \"#utility.yul\":1558:1935   */\n    tag_48:\n        /* \"#utility.yul\":1646:1649   */\n      0x00\n        /* \"#utility.yul\":1674:1713   */\n      tag_103\n        /* \"#utility.yul\":1707:1712   */\n      dup3\n        /* \"#utility.yul\":1674:1713   */\n      tag_44\n      jump\t// in\n    tag_103:\n        /* \"#utility.yul\":1729:1800   */\n      tag_104\n        /* \"#utility.yul\":1793:1799   */\n      dup2\n        /* \"#utility.yul\":1788:1791   */\n      dup6\n        /* \"#utility.yul\":1729:1800   */\n      tag_45\n      jump\t// in\n    tag_104:\n        /* \"#utility.yul\":1722:1800   */\n      swap4\n      pop\n        /* \"#utility.yul\":1809:1874   */\n      tag_105\n        /* \"#utility.yul\":1867:1873   */\n      dup2\n        /* \"#utility.yul\":1862:1865   */\n      dup6\n        /* \"#utility.yul\":1855:1859   */\n      0x20\n        /* \"#utility.yul\":1848:1853   */\n      dup7\n        /* \"#utility.yul\":1844:1860   */\n      add\n        /* \"#utility.yul\":1809:1874   */\n      tag_46\n      jump\t// in\n    tag_105:\n        /* \"#utility.yul\":1899:1928   */\n      tag_106\n        /* \"#utility.yul\":1921:1927   */\n      dup2\n        /* \"#utility.yul\":1899:1928   */\n      tag_47\n      jump\t// in\n    tag_106:\n        /* \"#utility.yul\":1894:1897   */\n      dup5\n        /* \"#utility.yul\":1890:1929   */\n      add\n        /* \"#utility.yul\":1883:1929   */\n      swap2\n      pop\n        /* \"#utility.yul\":1650:1935   */\n      pop\n        /* \"#utility.yul\":1558:1935   */\n      swap3\n      swap2\n      pop\n      pop\n      jump\t// out\n        /* \"#utility.yul\":1941:2059   */\n    tag_49:\n        /* \"#utility.yul\":2028:2052   */\n      tag_108\n        /* \"#utility.yul\":2046:2051   */\n      dup2\n        /* \"#utility.yul\":2028:2052   */\n      tag_41\n      jump\t// in\n    tag_108:\n        /* \"#utility.yul\":2023:2026   */\n      dup3\n        /* \"#utility.yul\":2016:2053   */\n      mstore\n        /* \"#utility.yul\":1941:2059   */\n      pop\n      pop\n      jump\t// out\n        /* \"#utility.yul\":2065:2155   */\n    tag_50:\n        /* \"#utility.yul\":2099:2106   */\n      0x00\n        /* \"#utility.yul\":2142:2147   */\n      dup2\n        /* \"#utility.yul\":2135:2148   */\n      iszero\n        /* \"#utility.yul\":2128:2149   */\n      iszero\n        /* \"#utility.yul\":2117:2149   */\n      swap1\n      pop\n        /* \"#utility.yul\":2065:2155   */\n      swap2\n      swap1\n      pop\n      jump\t// out\n        /* \"#utility.yul\":2161:2270   */\n    tag_51:\n        /* \"#utility.yul\":2242:2263   */\n      tag_111\n        /* \"#utility.yul\":2257:2262   */\n      dup2\n        /* \"#utility.yul\":2242:2263   */\n      tag_50\n      jump\t// in\n    tag_111:\n        /* \"#utility.yul\":2237:2240   */\n      dup3\n        /* \"#utility.yul\":2230:2264   */\n      mstore\n        /* \"#utility.yul\":2161:2270   */\n      pop\n      pop\n      jump\t// out\n        /* \"#utility.yul\":2276:2797   */\n    tag_11:\n        /* \"#utility.yul\":2439:2443   */\n      0x00\n        /* \"#utility.yul\":2477:2479   */\n      0x60\n        /* \"#utility.yul\":2466:2475   */\n      dup3\n        /* \"#utility.yul\":2462:2480   */\n      add\n        /* \"#utility.yul\":2454:2480   */\n      swap1\n      pop\n        /* \"#utility.yul\":2526:2535   */\n      dup2\n        /* \"#utility.yul\":2520:2524   */\n      dup2\n        /* \"#utility.yul\":2516:2536   */\n      sub\n        /* \"#utility.yul\":2512:2513   */\n      0x00\n        /* \"#utility.yul\":2501:2510   */\n      dup4\n        /* \"#utility.yul\":2497:2514   */\n      add\n        /* \"#utility.yul\":2490:2537   */\n      mstore\n        /* \"#utility.yul\":2554:2632   */\n      tag_113\n        /* \"#utility.yul\":2627:2631   */\n      dup2\n        /* \"#utility.yul\":2618:2624   */\n      dup7\n        /* \"#utility.yul\":2554:2632   */\n      tag_48\n      jump\t// in\n    tag_113:\n        /* \"#utility.yul\":2546:2632   */\n      swap1\n      pop\n        /* \"#utility.yul\":2642:2714   */\n      tag_114\n        /* \"#utility.yul\":2710:2712   */\n      0x20\n        /* \"#utility.yul\":2699:2708   */\n      dup4\n        /* \"#utility.yul\":2695:2713   */\n      add\n        /* \"#utility.yul\":2686:2692   */\n      dup6\n        /* \"#utility.yul\":2642:2714   */\n      tag_49\n      jump\t// in\n    tag_114:\n        /* \"#utility.yul\":2724:2790   */\n      tag_115\n        /* \"#utility.yul\":2786:2788   */\n      0x40\n        /* \"#utility.yul\":2775:2784   */\n      dup4\n        /* \"#utility.yul\":2771:2789   */\n      add\n        /* \"#utility.yul\":2762:2768   */\n      dup5\n        /* \"#utility.yul\":2724:2790   */\n      tag_51\n      jump\t// in\n    tag_115:\n        /* \"#utility.yul\":2276:2797   */\n      swap5\n      swap4\n      pop\n      pop\n      pop\n      pop\n      jump\t// out\n        /* \"#utility.yul\":2803:2962   */\n    tag_52:\n        /* \"#utility.yul\":2877:2888   */\n      0x00\n        /* \"#utility.yul\":2911:2917   */\n      dup3\n        /* \"#utility.yul\":2906:2909   */\n      dup3\n        /* \"#utility.yul\":2899:2918   */\n      mstore\n        /* \"#utility.yul\":2951:2955   */\n      0x20\n        /* \"#utility.yul\":2946:2949   */\n      dup3\n        /* \"#utility.yul\":2942:2956   */\n      add\n        /* \"#utility.yul\":2927:2956   */\n      swap1\n      pop\n        /* \"#utility.yul\":2803:2962   */\n      swap3\n      swap2\n      pop\n      pop\n      jump\t// out\n        /* \"#utility.yul\":2968:3325   */\n    tag_53:\n        /* \"#utility.yul\":3046:3049   */\n      0x00\n        /* \"#utility.yul\":3074:3113   */\n      tag_118\n        /* \"#utility.yul\":3107:3112   */\n      dup3\n        /* \"#utility.yul\":3074:3113   */\n      tag_44\n      jump\t// in\n    tag_118:\n        /* \"#utility.yul\":3129:3190   */\n      tag_119\n        /* \"#utility.yul\":3183:3189   */\n      dup2\n        /* \"#utility.yul\":3178:3181   */\n      dup6\n        /* \"#utility.yul\":3129:3190   */\n      tag_52\n      jump\t// in\n    tag_119:\n        /* \"#utility.yul\":3122:3190   */\n      swap4\n      pop\n        /* \"#utility.yul\":3199:3264   */\n      tag_120\n        /* \"#utility.yul\":3257:3263   */\n      dup2\n        /* \"#utility.yul\":3252:3255   */\n      dup6\n        /* \"#utility.yul\":3245:3249   */\n      0x20\n        /* \"#utility.yul\":3238:3243   */\n      dup7\n        /* \"#utility.yul\":3234:3250   */\n      add\n        /* \"#utility.yul\":3199:3264   */\n      tag_46\n      jump\t// in\n    tag_120:\n        /* \"#utility.yul\":3289:3318   */\n      tag_121\n        /* \"#utility.yul\":3311:3317   */\n      dup2\n        /* \"#utility.yul\":3289:3318   */\n      tag_47\n      jump\t// in\n    tag_121:\n        /* \"#utility.yul\":3284:3287   */\n      dup5\n        /* \"#utility.yul\":3280:3319   */\n      add\n        /* \"#utility.yul\":3273:3319   */\n      swap2\n      pop\n        /* \"#utility.yul\":3050:3325   */\n      pop\n        /* \"#utility.yul\":2968:3325   */\n      swap3\n      swap2\n      pop\n      pop\n      jump\t// out\n        /* \"#utility.yul\":3331:3439   */\n    tag_54:\n        /* \"#utility.yul\":3408:3432   */\n      tag_123\n        /* \"#utility.yul\":3426:3431   */\n      dup2\n        /* \"#utility.yul\":3408:3432   */\n      tag_41\n      jump\t// in\n    tag_123:\n        /* \"#utility.yul\":3403:3406   */\n      dup3\n        /* \"#utility.yul\":3396:3433   */\n      mstore\n        /* \"#utility.yul\":3331:3439   */\n      pop\n      pop\n      jump\t// out\n        /* \"#utility.yul\":3445:3544   */\n    tag_55:\n        /* \"#utility.yul\":3516:3537   */\n      tag_125\n        /* \"#utility.yul\":3531:3536   */\n      dup2\n        /* \"#utility.yul\":3516:3537   */\n      tag_50\n      jump\t// in\n    tag_125:\n        /* \"#utility.yul\":3511:3514   */\n      dup3\n        /* \"#utility.yul\":3504:3538   */\n      mstore\n        /* \"#utility.yul\":3445:3544   */\n      pop\n      pop\n      jump\t// out\n        /* \"#utility.yul\":3600:4370   */\n    tag_56:\n        /* \"#utility.yul\":3713:3716   */\n      0x00\n        /* \"#utility.yul\":3749:3753   */\n      0x60\n        /* \"#utility.yul\":3744:3747   */\n      dup4\n        /* \"#utility.yul\":3740:3754   */\n      add\n        /* \"#utility.yul\":3836:3840   */\n      0x00\n        /* \"#utility.yul\":3829:3834   */\n      dup4\n        /* \"#utility.yul\":3825:3841   */\n      add\n        /* \"#utility.yul\":3819:3842   */\n      mload\n        /* \"#utility.yul\":3889:3892   */\n      dup5\n        /* \"#utility.yul\":3883:3887   */\n      dup3\n        /* \"#utility.yul\":3879:3893   */\n      sub\n        /* \"#utility.yul\":3872:3876   */\n      0x00\n        /* \"#utility.yul\":3867:3870   */\n      dup7\n        /* \"#utility.yul\":3863:3877   */\n      add\n        /* \"#utility.yul\":3856:3894   */\n      mstore\n        /* \"#utility.yul\":3915:3988   */\n      tag_127\n        /* \"#utility.yul\":3983:3987   */\n      dup3\n        /* \"#utility.yul\":3969:3981   */\n      dup3\n        /* \"#utility.yul\":3915:3988   */\n      tag_53\n      jump\t// in\n    tag_127:\n        /* \"#utility.yul\":3907:3988   */\n      swap2\n      pop\n        /* \"#utility.yul\":3764:3999   */\n      pop\n        /* \"#utility.yul\":4081:4085   */\n      0x20\n        /* \"#utility.yul\":4074:4079   */\n      dup4\n        /* \"#utility.yul\":4070:4086   */\n      add\n        /* \"#utility.yul\":4064:4087   */\n      mload\n        /* \"#utility.yul\":4100:4163   */\n      tag_128\n        /* \"#utility.yul\":4157:4161   */\n      0x20\n        /* \"#utility.yul\":4152:4155   */\n      dup7\n        /* \"#utility.yul\":4148:4162   */\n      add\n        /* \"#utility.yul\":4134:4146   */\n      dup3\n        /* \"#utility.yul\":4100:4163   */\n      tag_54\n      jump\t// in\n    tag_128:\n        /* \"#utility.yul\":4009:4173   */\n      pop\n        /* \"#utility.yul\":4257:4261   */\n      0x40\n        /* \"#utility.yul\":4250:4255   */\n      dup4\n        /* \"#utility.yul\":4246:4262   */\n      add\n        /* \"#utility.yul\":4240:4263   */\n      mload\n        /* \"#utility.yul\":4276:4333   */\n      tag_129\n        /* \"#utility.yul\":4327:4331   */\n      0x40\n        /* \"#utility.yul\":4322:4325   */\n      dup7\n        /* \"#utility.yul\":4318:4332   */\n      add\n        /* \"#utility.yul\":4304:4316   */\n      dup3\n        /* \"#utility.yul\":4276:4333   */\n      tag_55\n      jump\t// in\n    tag_129:\n        /* \"#utility.yul\":4183:4343   */\n      pop\n        /* \"#utility.yul\":4360:4364   */\n      dup1\n        /* \"#utility.yul\":4353:4364   */\n      swap2\n      pop\n        /* \"#utility.yul\":3718:4370   */\n      pop\n        /* \"#utility.yul\":3600:4370   */\n      swap3\n      swap2\n      pop\n      pop\n      jump\t// out\n        /* \"#utility.yul\":4376:4737   */\n    tag_16:\n        /* \"#utility.yul\":4513:4517   */\n      0x00\n        /* \"#utility.yul\":4551:4553   */\n      0x20\n        /* \"#utility.yul\":4540:4549   */\n      dup3\n        /* \"#utility.yul\":4536:4554   */\n      add\n        /* \"#utility.yul\":4528:4554   */\n      swap1\n      pop\n        /* \"#utility.yul\":4600:4609   */\n      dup2\n        /* \"#utility.yul\":4594:4598   */\n      dup2\n        /* \"#utility.yul\":4590:4610   */\n      sub\n        /* \"#utility.yul\":4586:4587   */\n      0x00\n        /* \"#utility.yul\":4575:4584   */\n      dup4\n        /* \"#utility.yul\":4571:4588   */\n      add\n        /* \"#utility.yul\":4564:4611   */\n      mstore\n        /* \"#utility.yul\":4628:4730   */\n      tag_131\n        /* \"#utility.yul\":4725:4729   */\n      dup2\n        /* \"#utility.yul\":4716:4722   */\n      dup5\n        /* \"#utility.yul\":4628:4730   */\n      tag_56\n      jump\t// in\n    tag_131:\n        /* \"#utility.yul\":4620:4730   */\n      swap1\n      pop\n        /* \"#utility.yul\":4376:4737   */\n      swap3\n      swap2\n      pop\n      pop\n      jump\t// out\n        /* \"#utility.yul\":4743:4860   */\n    tag_57:\n        /* \"#utility.yul\":4852:4853   */\n      0x00\n        /* \"#utility.yul\":4849:4850   */\n      0x00\n        /* \"#utility.yul\":4842:4854   */\n      revert\n        /* \"#utility.yul\":4866:4983   */\n    tag_58:\n        /* \"#utility.yul\":4975:4976   */\n      0x00\n        /* \"#utility.yul\":4972:4973   */\n      0x00\n        /* \"#utility.yul\":4965:4977   */\n      revert\n        /* \"#utility.yul\":4989:5169   */\n    tag_59:\n        /* \"#utility.yul\":5037:5114   */\n      0x4e487b7100000000000000000000000000000000000000000000000000000000\n        /* \"#utility.yul\":5034:5035   */\n      0x00\n        /* \"#utility.yul\":5027:5115   */\n      mstore\n        /* \"#utility.yul\":5134:5138   */\n      0x41\n        /* \"#utility.yul\":5131:5132   */\n      0x04\n        /* \"#utility.yul\":5124:5139   */\n      mstore\n        /* \"#utility.yul\":5158:5162   */\n      0x24\n        /* \"#utility.yul\":5155:5156   */\n      0x00\n        /* \"#utility.yul\":5148:5163   */\n      revert\n        /* \"#utility.yul\":5175:5456   */\n    tag_60:\n        /* \"#utility.yul\":5258:5285   */\n      tag_136\n        /* \"#utility.yul\":5280:5284   */\n      dup3\n        /* \"#utility.yul\":5258:5285   */\n      tag_47\n      jump\t// in\n    tag_136:\n        /* \"#utility.yul\":5250:5256   */\n      dup2\n        /* \"#utility.yul\":5246:5286   */\n      add\n        /* \"#utility.yul\":5388:5394   */\n      dup2\n        /* \"#utility.yul\":5376:5386   */\n      dup2\n        /* \"#utility.yul\":5373:5395   */\n      lt\n        /* \"#utility.yul\":5352:5370   */\n      0xffffffffffffffff\n        /* \"#utility.yul\":5340:5350   */\n      dup3\n        /* \"#utility.yul\":5337:5371   */\n      gt\n        /* \"#utility.yul\":5334:5396   */\n      or\n        /* \"#utility.yul\":5331:5419   */\n      iszero\n      tag_137\n      jumpi\n        /* \"#utility.yul\":5399:5417   */\n      tag_138\n      tag_59\n      jump\t// in\n    tag_138:\n        /* \"#utility.yul\":5331:5419   */\n    tag_137:\n        /* \"#utility.yul\":5439:5449   */\n      dup1\n        /* \"#utility.yul\":5435:5437   */\n      0x40\n        /* \"#utility.yul\":5428:5450   */\n      mstore\n        /* \"#utility.yul\":5218:5456   */\n      pop\n        /* \"#utility.yul\":5175:5456   */\n      pop\n      pop\n      jump\t// out\n        /* \"#utility.yul\":5462:5591   */\n    tag_61:\n        /* \"#utility.yul\":5496:5502   */\n      0x00\n        /* \"#utility.yul\":5523:5543   */\n      tag_140\n      tag_38\n      jump\t// in\n    tag_140:\n        /* \"#utility.yul\":5513:5543   */\n      swap1\n      pop\n        /* \"#utility.yul\":5552:5585   */\n      tag_141\n        /* \"#utility.yul\":5580:5584   */\n      dup3\n        /* \"#utility.yul\":5572:5578   */\n      dup3\n        /* \"#utility.yul\":5552:5585   */\n      tag_60\n      jump\t// in\n    tag_141:\n        /* \"#utility.yul\":5462:5591   */\n      swap2\n      swap1\n      pop\n      jump\t// out\n        /* \"#utility.yul\":5597:5905   */\n    tag_62:\n        /* \"#utility.yul\":5659:5663   */\n      0x00\n        /* \"#utility.yul\":5749:5767   */\n      0xffffffffffffffff\n        /* \"#utility.yul\":5741:5747   */\n      dup3\n        /* \"#utility.yul\":5738:5768   */\n      gt\n        /* \"#utility.yul\":5735:5791   */\n      iszero\n      tag_143\n      jumpi\n        /* \"#utility.yul\":5771:5789   */\n      tag_144\n      tag_59\n      jump\t// in\n    tag_144:\n        /* \"#utility.yul\":5735:5791   */\n    tag_143:\n        /* \"#utility.yul\":5809:5838   */\n      tag_145\n        /* \"#utility.yul\":5831:5837   */\n      dup3\n        /* \"#utility.yul\":5809:5838   */\n      tag_47\n      jump\t// in\n    tag_145:\n        /* \"#utility.yul\":5801:5838   */\n      swap1\n      pop\n        /* \"#utility.yul\":5893:5897   */\n      0x20\n        /* \"#utility.yul\":5887:5891   */\n      dup2\n        /* \"#utility.yul\":5883:5898   */\n      add\n        /* \"#utility.yul\":5875:5898   */\n      swap1\n      pop\n        /* \"#utility.yul\":5597:5905   */\n      swap2\n      swap1\n      pop\n      jump\t// out\n        /* \"#utility.yul\":5911:6059   */\n    tag_63:\n        /* \"#utility.yul\":6009:6015   */\n      dup3\n        /* \"#utility.yul\":6004:6007   */\n      dup2\n        /* \"#utility.yul\":5999:6002   */\n      dup4\n        /* \"#utility.yul\":5986:6016   */\n      calldatacopy\n        /* \"#utility.yul\":6050:6051   */\n      0x00\n        /* \"#utility.yul\":6041:6047   */\n      dup4\n        /* \"#utility.yul\":6036:6039   */\n      dup4\n        /* \"#utility.yul\":6032:6048   */\n      add\n        /* \"#utility.yul\":6025:6052   */\n      mstore\n        /* \"#utility.yul\":5911:6059   */\n      pop\n      pop\n      pop\n      jump\t// out\n        /* \"#utility.yul\":6065:6490   */\n    tag_64:\n        /* \"#utility.yul\":6143:6148   */\n      0x00\n        /* \"#utility.yul\":6168:6234   */\n      tag_148\n        /* \"#utility.yul\":6184:6233   */\n      tag_149\n        /* \"#utility.yul\":6226:6232   */\n      dup5\n        /* \"#utility.yul\":6184:6233   */\n      tag_62\n      jump\t// in\n    tag_149:\n        /* \"#utility.yul\":6168:6234   */\n      tag_61\n      jump\t// in\n    tag_148:\n        /* \"#utility.yul\":6159:6234   */\n      swap1\n      pop\n        /* \"#utility.yul\":6257:6263   */\n      dup3\n        /* \"#utility.yul\":6250:6255   */\n      dup2\n        /* \"#utility.yul\":6243:6264   */\n      mstore\n        /* \"#utility.yul\":6295:6299   */\n      0x20\n        /* \"#utility.yul\":6288:6293   */\n      dup2\n        /* \"#utility.yul\":6284:6300   */\n      add\n        /* \"#utility.yul\":6333:6336   */\n      dup5\n        /* \"#utility.yul\":6324:6330   */\n      dup5\n        /* \"#utility.yul\":6319:6322   */\n      dup5\n        /* \"#utility.yul\":6315:6331   */\n      add\n        /* \"#utility.yul\":6312:6337   */\n      gt\n        /* \"#utility.yul\":6309:6421   */\n      iszero\n      tag_150\n      jumpi\n        /* \"#utility.yul\":6340:6419   */\n      tag_151\n      tag_58\n      jump\t// in\n    tag_151:\n        /* \"#utility.yul\":6309:6421   */\n    tag_150:\n        /* \"#utility.yul\":6430:6484   */\n      tag_152\n        /* \"#utility.yul\":6477:6483   */\n      dup5\n        /* \"#utility.yul\":6472:6475   */\n      dup3\n        /* \"#utility.yul\":6467:6470   */\n      dup6\n        /* \"#utility.yul\":6430:6484   */\n      tag_63\n      jump\t// in\n    tag_152:\n        /* \"#utility.yul\":6149:6490   */\n      pop\n        /* \"#utility.yul\":6065:6490   */\n      swap4\n      swap3\n      pop\n      pop\n      pop\n      jump\t// out\n        /* \"#utility.yul\":6510:6850   */\n    tag_65:\n        /* \"#utility.yul\":6566:6571   */\n      0x00\n        /* \"#utility.yul\":6615:6618   */\n      dup3\n        /* \"#utility.yul\":6608:6612   */\n      0x1f\n        /* \"#utility.yul\":6600:6606   */\n      dup4\n        /* \"#utility.yul\":6596:6613   */\n      add\n        /* \"#utility.yul\":6592:6619   */\n      slt\n        /* \"#utility.yul\":6582:6704   */\n      tag_154\n      jumpi\n        /* \"#utility.yul\":6623:6702   */\n      tag_155\n      tag_57\n      jump\t// in\n    tag_155:\n        /* \"#utility.yul\":6582:6704   */\n    tag_154:\n        /* \"#utility.yul\":6740:6746   */\n      dup2\n        /* \"#utility.yul\":6727:6747   */\n      calldataload\n        /* \"#utility.yul\":6765:6844   */\n      tag_156\n        /* \"#utility.yul\":6840:6843   */\n      dup5\n        /* \"#utility.yul\":6832:6838   */\n      dup3\n        /* \"#utility.yul\":6825:6829   */\n      0x20\n        /* \"#utility.yul\":6817:6823   */\n      dup7\n        /* \"#utility.yul\":6813:6830   */\n      add\n        /* \"#utility.yul\":6765:6844   */\n      tag_64\n      jump\t// in\n    tag_156:\n        /* \"#utility.yul\":6756:6844   */\n      swap2\n      pop\n        /* \"#utility.yul\":6572:6850   */\n      pop\n        /* \"#utility.yul\":6510:6850   */\n      swap3\n      swap2\n      pop\n      pop\n      jump\t// out\n        /* \"#utility.yul\":6856:6972   */\n    tag_66:\n        /* \"#utility.yul\":6926:6947   */\n      tag_158\n        /* \"#utility.yul\":6941:6946   */\n      dup2\n        /* \"#utility.yul\":6926:6947   */\n      tag_50\n      jump\t// in\n    tag_158:\n        /* \"#utility.yul\":6919:6924   */\n      dup2\n        /* \"#utility.yul\":6916:6948   */\n      eq\n        /* \"#utility.yul\":6906:6966   */\n      tag_159\n      jumpi\n        /* \"#utility.yul\":6962:6963   */\n      0x00\n        /* \"#utility.yul\":6959:6960   */\n      0x00\n        /* \"#utility.yul\":6952:6964   */\n      revert\n        /* \"#utility.yul\":6906:6966   */\n    tag_159:\n        /* \"#utility.yul\":6856:6972   */\n      pop\n      jump\t// out\n        /* \"#utility.yul\":6978:7111   */\n    tag_67:\n        /* \"#utility.yul\":7021:7026   */\n      0x00\n        /* \"#utility.yul\":7059:7065   */\n      dup2\n        /* \"#utility.yul\":7046:7066   */\n      calldataload\n        /* \"#utility.yul\":7037:7066   */\n      swap1\n      pop\n        /* \"#utility.yul\":7075:7105   */\n      tag_161\n        /* \"#utility.yul\":7099:7104   */\n      dup2\n        /* \"#utility.yul\":7075:7105   */\n      tag_66\n      jump\t// in\n    tag_161:\n        /* \"#utility.yul\":6978:7111   */\n      swap3\n      swap2\n      pop\n      pop\n      jump\t// out\n        /* \"#utility.yul\":7117:8056   */\n    tag_19:\n        /* \"#utility.yul\":7210:7216   */\n      0x00\n        /* \"#utility.yul\":7218:7224   */\n      0x00\n        /* \"#utility.yul\":7226:7232   */\n      0x00\n        /* \"#utility.yul\":7234:7240   */\n      0x00\n        /* \"#utility.yul\":7283:7286   */\n      0x80\n        /* \"#utility.yul\":7271:7280   */\n      dup6\n        /* \"#utility.yul\":7262:7269   */\n      dup8\n        /* \"#utility.yul\":7258:7281   */\n      sub\n        /* \"#utility.yul\":7254:7287   */\n      slt\n        /* \"#utility.yul\":7251:7371   */\n      iszero\n      tag_163\n      jumpi\n        /* \"#utility.yul\":7290:7369   */\n      tag_164\n      tag_39\n      jump\t// in\n    tag_164:\n        /* \"#utility.yul\":7251:7371   */\n    tag_163:\n        /* \"#utility.yul\":7410:7411   */\n      0x00\n        /* \"#utility.yul\":7435:7488   */\n      tag_165\n        /* \"#utility.yul\":7480:7487   */\n      dup8\n        /* \"#utility.yul\":7471:7477   */\n      dup3\n        /* \"#utility.yul\":7460:7469   */\n      dup9\n        /* \"#utility.yul\":7456:7478   */\n      add\n        /* \"#utility.yul\":7435:7488   */\n      tag_43\n      jump\t// in\n    tag_165:\n        /* \"#utility.yul\":7425:7488   */\n      swap5\n      pop\n        /* \"#utility.yul\":7381:7498   */\n      pop\n        /* \"#utility.yul\":7565:7567   */\n      0x20\n        /* \"#utility.yul\":7554:7563   */\n      dup6\n        /* \"#utility.yul\":7550:7568   */\n      add\n        /* \"#utility.yul\":7537:7569   */\n      calldataload\n        /* \"#utility.yul\":7596:7614   */\n      0xffffffffffffffff\n        /* \"#utility.yul\":7588:7594   */\n      dup2\n        /* \"#utility.yul\":7585:7615   */\n      gt\n        /* \"#utility.yul\":7582:7699   */\n      iszero\n      tag_166\n      jumpi\n        /* \"#utility.yul\":7618:7697   */\n      tag_167\n      tag_40\n      jump\t// in\n    tag_167:\n        /* \"#utility.yul\":7582:7699   */\n    tag_166:\n        /* \"#utility.yul\":7723:7786   */\n      tag_168\n        /* \"#utility.yul\":7778:7785   */\n      dup8\n        /* \"#utility.yul\":7769:7775   */\n      dup3\n        /* \"#utility.yul\":7758:7767   */\n      dup9\n        /* \"#utility.yul\":7754:7776   */\n      add\n        /* \"#utility.yul\":7723:7786   */\n      tag_65\n      jump\t// in\n    tag_168:\n        /* \"#utility.yul\":7713:7786   */\n      swap4\n      pop\n        /* \"#utility.yul\":7508:7796   */\n      pop\n        /* \"#utility.yul\":7835:7837   */\n      0x40\n        /* \"#utility.yul\":7861:7914   */\n      tag_169\n        /* \"#utility.yul\":7906:7913   */\n      dup8\n        /* \"#utility.yul\":7897:7903   */\n      dup3\n        /* \"#utility.yul\":7886:7895   */\n      dup9\n        /* \"#utility.yul\":7882:7904   */\n      add\n        /* \"#utility.yul\":7861:7914   */\n      tag_43\n      jump\t// in\n    tag_169:\n        /* \"#utility.yul\":7851:7914   */\n      swap3\n      pop\n        /* \"#utility.yul\":7806:7924   */\n      pop\n        /* \"#utility.yul\":7963:7965   */\n      0x60\n        /* \"#utility.yul\":7989:8039   */\n      tag_170\n        /* \"#utility.yul\":8031:8038   */\n      dup8\n        /* \"#utility.yul\":8022:8028   */\n      dup3\n        /* \"#utility.yul\":8011:8020   */\n      dup9\n        /* \"#utility.yul\":8007:8029   */\n      add\n        /* \"#utility.yul\":7989:8039   */\n      tag_67\n      jump\t// in\n    tag_170:\n        /* \"#utility.yul\":7979:8039   */\n      swap2\n      pop\n        /* \"#utility.yul\":7934:8049   */\n      pop\n        /* \"#utility.yul\":7117:8056   */\n      swap3\n      swap6\n      swap2\n      swap5\n      pop\n      swap3\n      pop\n      jump\t// out\n        /* \"#utility.yul\":8062:8242   */\n    tag_68:\n        /* \"#utility.yul\":8110:8187   */\n      0x4e487b7100000000000000000000000000000000000000000000000000000000\n        /* \"#utility.yul\":8107:8108   */\n      0x00\n        /* \"#utility.yul\":8100:8188   */\n      mstore\n        /* \"#utility.yul\":8207:8211   */\n      0x22\n        /* \"#utility.yul\":8204:8205   */\n      0x04\n        /* \"#utility.yul\":8197:8212   */\n      mstore\n        /* \"#utility.yul\":8231:8235   */\n      0x24\n        /* \"#utility.yul\":8228:8229   */\n      0x00\n        /* \"#utility.yul\":8221:8236   */\n      revert\n        /* \"#utility.yul\":8248:8568   */\n    tag_22:\n        /* \"#utility.yul\":8292:8298   */\n      0x00\n        /* \"#utility.yul\":8329:8330   */\n      0x02\n        /* \"#utility.yul\":8323:8327   */\n      dup3\n        /* \"#utility.yul\":8319:8331   */\n      div\n        /* \"#utility.yul\":8309:8331   */\n      swap1\n      pop\n        /* \"#utility.yul\":8376:8377   */\n      0x01\n        /* \"#utility.yul\":8370:8374   */\n      dup3\n        /* \"#utility.yul\":8366:8378   */\n      and\n        /* \"#utility.yul\":8397:8415   */\n      dup1\n        /* \"#utility.yul\":8387:8468   */\n      tag_173\n      jumpi\n        /* \"#utility.yul\":8453:8457   */\n      0x7f\n        /* \"#utility.yul\":8445:8451   */\n      dup3\n        /* \"#utility.yul\":8441:8458   */\n      and\n        /* \"#utility.yul\":8431:8458   */\n      swap2\n      pop\n        /* \"#utility.yul\":8387:8468   */\n    tag_173:\n        /* \"#utility.yul\":8515:8517   */\n      0x20\n        /* \"#utility.yul\":8507:8513   */\n      dup3\n        /* \"#utility.yul\":8504:8518   */\n      lt\n        /* \"#utility.yul\":8484:8502   */\n      dup2\n        /* \"#utility.yul\":8481:8519   */\n      sub\n        /* \"#utility.yul\":8478:8562   */\n      tag_174\n      jumpi\n        /* \"#utility.yul\":8534:8552   */\n      tag_175\n      tag_68\n      jump\t// in\n    tag_175:\n        /* \"#utility.yul\":8478:8562   */\n    tag_174:\n        /* \"#utility.yul\":8299:8568   */\n      pop\n        /* \"#utility.yul\":8248:8568   */\n      swap2\n      swap1\n      pop\n      jump\t// out\n        /* \"#utility.yul\":8574:8715   */\n    tag_69:\n        /* \"#utility.yul\":8623:8627   */\n      0x00\n        /* \"#utility.yul\":8646:8649   */\n      dup2\n        /* \"#utility.yul\":8638:8649   */\n      swap1\n      pop\n        /* \"#utility.yul\":8669:8672   */\n      dup2\n        /* \"#utility.yul\":8666:8667   */\n      0x00\n        /* \"#utility.yul\":8659:8673   */\n      mstore\n        /* \"#utility.yul\":8703:8707   */\n      0x20\n        /* \"#utility.yul\":8700:8701   */\n      0x00\n        /* \"#utility.yul\":8690:8708   */\n      keccak256\n        /* \"#utility.yul\":8682:8708   */\n      swap1\n      pop\n        /* \"#utility.yul\":8574:8715   */\n      swap2\n      swap1\n      pop\n      jump\t// out\n        /* \"#utility.yul\":8721:8814   */\n    tag_70:\n        /* \"#utility.yul\":8758:8764   */\n      0x00\n        /* \"#utility.yul\":8805:8807   */\n      0x20\n        /* \"#utility.yul\":8800:8802   */\n      0x1f\n        /* \"#utility.yul\":8793:8798   */\n      dup4\n        /* \"#utility.yul\":8789:8803   */\n      add\n        /* \"#utility.yul\":8785:8808   */\n      div\n        /* \"#utility.yul\":8775:8808   */\n      swap1\n      pop\n        /* \"#utility.yul\":8721:8814   */\n      swap2\n      swap1\n      pop\n      jump\t// out\n        /* \"#utility.yul\":8820:8927   */\n    tag_71:\n        /* \"#utility.yul\":8864:8872   */\n      0x00\n        /* \"#utility.yul\":8914:8919   */\n      dup3\n        /* \"#utility.yul\":8908:8912   */\n      dup3\n        /* \"#utility.yul\":8904:8920   */\n      shl\n        /* \"#utility.yul\":8883:8920   */\n      swap1\n      pop\n        /* \"#utility.yul\":8820:8927   */\n      swap3\n      swap2\n      pop\n      pop\n      jump\t// out\n        /* \"#utility.yul\":8933:9326   */\n    tag_72:\n        /* \"#utility.yul\":9002:9008   */\n      0x00\n        /* \"#utility.yul\":9052:9053   */\n      0x08\n        /* \"#utility.yul\":9040:9050   */\n      dup4\n        /* \"#utility.yul\":9036:9054   */\n      mul\n        /* \"#utility.yul\":9075:9172   */\n      tag_180\n        /* \"#utility.yul\":9105:9171   */\n      0xffffffffffffffffffffffffffffffffffffffffffffffffffffffffffffffff\n        /* \"#utility.yul\":9094:9103   */\n      dup3\n        /* \"#utility.yul\":9075:9172   */\n      tag_71\n      jump\t// in\n    tag_180:\n        /* \"#utility.yul\":9193:9232   */\n      tag_181\n        /* \"#utility.yul\":9223:9231   */\n      dup7\n        /* \"#utility.yul\":9212:9221   */\n      dup4\n        /* \"#utility.yul\":9193:9232   */\n      tag_71\n      jump\t// in\n    tag_181:\n        /* \"#utility.yul\":9181:9232   */\n      swap6\n      pop\n        /* \"#utility.yul\":9265:9269   */\n      dup1\n        /* \"#utility.yul\":9261:9270   */\n      not\n        /* \"#utility.yul\":9254:9259   */\n      dup5\n        /* \"#utility.yul\":9250:9271   */\n      and\n        /* \"#utility.yul\":9241:9271   */\n      swap4\n      pop\n        /* \"#utility.yul\":9314:9318   */\n      dup1\n        /* \"#utility.yul\":9304:9312   */\n      dup7\n        /* \"#utility.yul\":9300:9319   */\n      and\n        /* \"#utility.yul\":9293:9298   */\n      dup5\n        /* \"#utility.yul\":9290:9320   */\n      or\n        /* \"#utility.yul\":9280:9320   */\n      swap3\n      pop\n        /* \"#utility.yul\":9009:9326   */\n      pop\n      pop\n        /* \"#utility.yul\":8933:9326   */\n      swap4\n      swap3\n      pop\n      pop\n      pop\n      jump\t// out\n        /* \"#utility.yul\":9332:9392   */\n    tag_73:\n        /* \"#utility.yul\":9360:9363   */\n      0x00\n        /* \"#utility.yul\":9381:9386   */\n      dup2\n        /* \"#utility.yul\":9374:9386   */\n      swap1\n      pop\n        /* \"#utility.yul\":9332:9392   */\n      swap2\n      swap1\n      pop\n      jump\t// out\n        /* \"#utility.yul\":9398:9540   */\n    tag_74:\n        /* \"#utility.yul\":9448:9457   */\n      0x00\n        /* \"#utility.yul\":9481:9534   */\n      tag_184\n        /* \"#utility.yul\":9499:9533   */\n      tag_185\n        /* \"#utility.yul\":9508:9532   */\n      tag_186\n        /* \"#utility.yul\":9526:9531   */\n      dup5\n        /* \"#utility.yul\":9508:9532   */\n      tag_41\n      jump\t// in\n    tag_186:\n        /* \"#utility.yul\":9499:9533   */\n      tag_73\n      jump\t// in\n    tag_185:\n        /* \"#utility.yul\":9481:9534   */\n      tag_41\n      jump\t// in\n    tag_184:\n        /* \"#utility.yul\":9468:9534   */\n      swap1\n      pop\n        /* \"#utility.yul\":9398:9540   */\n      swap2\n      swap1\n      pop\n      jump\t// out\n        /* \"#utility.yul\":9546:9621   */\n    tag_75:\n        /* \"#utility.yul\":9589:9592   */\n      0x00\n        /* \"#utility.yul\":9610:9615   */\n      dup2\n        /* \"#utility.yul\":9603:9615   */\n      swap1\n      pop\n        /* \"#utility.yul\":9546:9621   */\n      swap2\n      swap1\n      pop\n      jump\t// out\n        /* \"#utility.yul\":9627:9896   */\n    tag_76:\n        /* \"#utility.yul\":9737:9776   */\n      tag_189\n        /* \"#utility.yul\":9768:9775   */\n      dup4\n        /* \"#utility.yul\":9737:9776   */\n      tag_74\n      jump\t// in\n    tag_189:\n        /* \"#utility.yul\":9798:9889   */\n      tag_190\n        /* \"#utility.yul\":9847:9888   */\n      tag_191\n        /* \"#utility.yul\":9871:9887   */\n      dup3\n        /* \"#utility.yul\":9847:9888   */\n      tag_75\n      jump\t// in\n    tag_191:\n        /* \"#utility.yul\":9839:9845   */\n      dup5\n        /* \"#utility.yul\":9832:9836   */\n      dup5\n        /* \"#utility.yul\":9826:9837   */\n      sload\n        /* \"#utility.yul\":9798:9889   */\n      tag_72\n      jump\t// in\n    tag_190:\n        /* \"#utility.yul\":9792:9796   */\n      dup3\n        /* \"#utility.yul\":9785:9890   */\n      sstore\n        /* \"#utility.yul\":9703:9896   */\n      pop\n        /* \"#utility.yul\":9627:9896   */\n      pop\n      pop\n      pop\n      jump\t// out\n        /* \"#utility.yul\":9902:9975   */\n    tag_77:\n        /* \"#utility.yul\":9947:9950   */\n      0x00\n        /* \"#utility.yul\":9968:9969   */\n      0x00\n        /* \"#utility.yul\":9961:9969   */\n      swap1\n      pop\n        /* \"#utility.yul\":9902:9975   */\n      swap1\n      jump\t// out\n        /* \"#utility.yul\":9981:10170   */\n    tag_78:\n        /* \"#utility.yul\":10058:10090   */\n      tag_194\n      tag_77\n      jump\t// in\n    tag_194:\n        /* \"#utility.yul\":10099:10164   */\n      tag_195\n        /* \"#utility.yul\":10157:10163   */\n      dup2\n        /* \"#utility.yul\":10149:10155   */\n      dup5\n        /* \"#utility.yul\":10143:10147   */\n      dup5\n        /* \"#utility.yul\":10099:10164   */\n      tag_76\n      jump\t// in\n    tag_195:\n        /* \"#utility.yul\":10034:10170   */\n      pop\n        /* \"#utility.yul\":9981:10170   */\n      pop\n      pop\n      jump\t// out\n        /* \"#utility.yul\":10176:10362   */\n    tag_79:\n        /* \"#utility.yul\":10236:10356   */\n    tag_197:\n        /* \"#utility.yul\":10253:10256   */\n      dup2\n        /* \"#utility.yul\":10246:10251   */\n      dup2\n        /* \"#utility.yul\":10243:10257   */\n      lt\n        /* \"#utility.yul\":10236:10356   */\n      iszero\n      tag_199\n      jumpi\n        /* \"#utility.yul\":10307:10346   */\n      tag_200\n        /* \"#utility.yul\":10344:10345   */\n      0x00\n        /* \"#utility.yul\":10337:10342   */\n      dup3\n        /* \"#utility.yul\":10307:10346   */\n      tag_78\n      jump\t// in\n    tag_200:\n        /* \"#utility.yul\":10280:10281   */\n      0x01\n        /* \"#utility.yul\":10273:10278   */\n      dup2\n        /* \"#utility.yul\":10269:10282   */\n      add\n        /* \"#utility.yul\":10260:10282   */\n      swap1\n      pop\n        /* \"#utility.yul\":10236:10356   */\n      jump(tag_197)\n    tag_199:\n        /* \"#utility.yul\":10176:10362   */\n      pop\n      pop\n      jump\t// out\n        /* \"#utility.yul\":10368:10911   */\n    tag_80:\n        /* \"#utility.yul\":10469:10471   */\n      0x1f\n        /* \"#utility.yul\":10464:10467   */\n      dup3\n        /* \"#utility.yul\":10461:10472   */\n      gt\n        /* \"#utility.yul\":10458:10904   */\n      iszero\n      tag_202\n      jumpi\n        /* \"#utility.yul\":10503:10541   */\n      tag_203\n        /* \"#utility.yul\":10535:10540   */\n      dup2\n        /* \"#utility.yul\":10503:10541   */\n      tag_69\n      jump\t// in\n    tag_203:\n        /* \"#utility.yul\":10587:10616   */\n      tag_204\n        /* \"#utility.yul\":10605:10615   */\n      dup5\n        /* \"#utility.yul\":10587:10616   */\n      tag_70\n      jump\t// in\n    tag_204:\n        /* \"#utility.yul\":10577:10585   */\n      dup2\n        /* \"#utility.yul\":10573:10617   */\n      add\n        /* \"#utility.yul\":10770:10772   */\n      0x20\n        /* \"#utility.yul\":10758:10768   */\n      dup6\n        /* \"#utility.yul\":10755:10773   */\n      lt\n        /* \"#utility.yul\":10752:10801   */\n      iszero\n      tag_205\n      jumpi\n        /* \"#utility.yul\":10791:10799   */\n      dup2\n        /* \"#utility.yul\":10776:10799   */\n      swap1\n      pop\n        /* \"#utility.yul\":10752:10801   */\n    tag_205:\n        /* \"#utility.yul\":10814:10894   */\n      tag_206\n        /* \"#utility.yul\":10870:10892   */\n      tag_207\n        /* \"#utility.yul\":10888:10891   */\n      dup6\n        /* \"#utility.yul\":10870:10892   */\n      tag_70\n      jump\t// in\n    tag_207:\n        /* \"#utility.yul\":10860:10868   */\n      dup4\n        /* \"#utility.yul\":10856:10893   */\n      add\n        /* \"#utility.yul\":10843:10854   */\n      dup3\n        /* \"#utility.yul\":10814:10894   */\n      tag_79\n      jump\t// in\n    tag_206:\n        /* \"#utility.yul\":10473:10904   */\n      pop\n      pop\n        /* \"#utility.yul\":10458:10904   */\n    tag_202:\n        /* \"#utility.yul\":10368:10911   */\n      pop\n      pop\n      pop\n      jump\t// out\n        /* \"#utility.yul\":10917:11034   */\n    tag_81:\n        /* \"#utility.yul\":10971:10979   */\n      0x00\n        /* \"#utility.yul\":11021:11026   */\n      dup3\n        /* \"#utility.yul\":11015:11019   */\n      dup3\n        /* \"#utility.yul\":11011:11027   */\n      shr\n        /* \"#utility.yul\":10990:11027   */\n      swap1\n      pop\n        /* \"#utility.yul\":10917:11034   */\n      swap3\n      swap2\n      pop\n      pop\n      jump\t// out\n        /* \"#utility.yul\":11040:11209   */\n    tag_82:\n        /* \"#utility.yul\":11084:11090   */\n      0x00\n        /* \"#utility.yul\":11117:11168   */\n      tag_210\n        /* \"#utility.yul\":11165:11166   */\n      0x00\n        /* \"#utility.yul\":11161:11167   */\n      not\n        /* \"#utility.yul\":11153:11158   */\n      dup5\n        /* \"#utility.yul\":11150:11151   */\n      0x08\n        /* \"#utility.yul\":11146:11159   */\n      mul\n        /* \"#utility.yul\":11117:11168   */\n      tag_81\n      jump\t// in\n    tag_210:\n        /* \"#utility.yul\":11113:11169   */\n      not\n        /* \"#utility.yul\":11198:11202   */\n      dup1\n        /* \"#utility.yul\":11192:11196   */\n      dup4\n        /* \"#utility.yul\":11188:11203   */\n      and\n        /* \"#utility.yul\":11178:11203   */\n      swap2\n      pop\n        /* \"#utility.yul\":11091:11209   */\n      pop\n        /* \"#utility.yul\":11040:11209   */\n      swap3\n      swap2\n      pop\n      pop\n      jump\t// out\n        /* \"#utility.yul\":11214:11509   */\n    tag_83:\n        /* \"#utility.yul\":11290:11294   */\n      0x00\n        /* \"#utility.yul\":11436:11465   */\n      tag_212\n        /* \"#utility.yul\":11461:11464   */\n      dup4\n        /* \"#utility.yul\":11455:11459   */\n      dup4\n        /* \"#utility.yul\":11436:11465   */\n      tag_82\n      jump\t// in\n    tag_212:\n        /* \"#utility.yul\":11428:11465   */\n      swap2\n      pop\n        /* \"#utility.yul\":11498:11501   */\n      dup3\n        /* \"#utility.yul\":11495:11496   */\n      0x02\n        /* \"#utility.yul\":11491:11502   */\n      mul\n        /* \"#utility.yul\":11485:11489   */\n      dup3\n        /* \"#utility.yul\":11482:11503   */\n      or\n        /* \"#utility.yul\":11474:11503   */\n      swap1\n      pop\n        /* \"#utility.yul\":11214:11509   */\n      swap3\n      swap2\n      pop\n      pop\n      jump\t// out\n        /* \"#utility.yul\":11514:12909   */\n    tag_37:\n        /* \"#utility.yul\":11631:11668   */\n      tag_214\n        /* \"#utility.yul\":11664:11667   */\n      dup3\n        /* \"#utility.yul\":11631:11668   */\n      tag_44\n      jump\t// in\n    tag_214:\n        /* \"#utility.yul\":11733:11751   */\n      0xffffffffffffffff\n        /* \"#utility.yul\":11725:11731   */\n      dup2\n        /* \"#utility.yul\":11722:11752   */\n      gt\n        /* \"#utility.yul\":11719:11775   */\n      iszero\n      tag_215\n      jumpi\n        /* \"#utility.yul\":11755:11773   */\n      tag_216\n      tag_59\n      jump\t// in\n    tag_216:\n        /* \"#utility.yul\":11719:11775   */\n    tag_215:\n        /* \"#utility.yul\":11799:11837   */\n      tag_217\n        /* \"#utility.yul\":11831:11835   */\n      dup3\n        /* \"#utility.yul\":11825:11836   */\n      sload\n        /* \"#utility.yul\":11799:11837   */\n      tag_22\n      jump\t// in\n    tag_217:\n        /* \"#utility.yul\":11884:11951   */\n      tag_218\n        /* \"#utility.yul\":11944:11950   */\n      dup3\n        /* \"#utility.yul\":11936:11942   */\n      dup3\n        /* \"#utility.yul\":11930:11934   */\n      dup6\n        /* \"#utility.yul\":11884:11951   */\n      tag_80\n      jump\t// in\n    tag_218:\n        /* \"#utility.yul\":11978:11979   */\n      0x00\n        /* \"#utility.yul\":12002:12006   */\n      0x20\n        /* \"#utility.yul\":11989:12006   */\n      swap1\n      pop\n        /* \"#utility.yul\":12034:12036   */\n      0x1f\n        /* \"#utility.yul\":12026:12032   */\n      dup4\n        /* \"#utility.yul\":12023:12037   */\n      gt\n        /* \"#utility.yul\":12051:12052   */\n      0x01\n        /* \"#utility.yul\":12046:12664   */\n      dup2\n      eq\n      tag_220\n      jumpi\n        /* \"#utility.yul\":12708:12709   */\n      0x00\n        /* \"#utility.yul\":12725:12731   */\n      dup5\n        /* \"#utility.yul\":12722:12799   */\n      iszero\n      tag_221\n      jumpi\n        /* \"#utility.yul\":12774:12783   */\n      dup3\n        /* \"#utility.yul\":12769:12772   */\n      dup8\n        /* \"#utility.yul\":12765:12784   */\n      add\n        /* \"#utility.yul\":12759:12785   */\n      mload\n        /* \"#utility.yul\":12750:12785   */\n      swap1\n      pop\n        /* \"#utility.yul\":12722:12799   */\n    tag_221:\n        /* \"#utility.yul\":12825:12892   */\n      tag_222\n        /* \"#utility.yul\":12885:12891   */\n      dup6\n        /* \"#utility.yul\":12878:12883   */\n      dup3\n        /* \"#utility.yul\":12825:12892   */\n      tag_83\n      jump\t// in\n    tag_222:\n        /* \"#utility.yul\":12819:12823   */\n      dup7\n        /* \"#utility.yul\":12812:12893   */\n      sstore\n        /* \"#utility.yul\":12681:12903   */\n      pop\n        /* \"#utility.yul\":12016:12903   */\n      jump(tag_219)\n        /* \"#utility.yul\":12046:12664   */\n    tag_220:\n        /* \"#utility.yul\":12098:12102   */\n      0x1f\n        /* \"#utility.yul\":12094:12103   */\n      not\n        /* \"#utility.yul\":12086:12092   */\n      dup5\n        /* \"#utility.yul\":12082:12104   */\n      and\n        /* \"#utility.yul\":12132:12169   */\n      tag_223\n        /* \"#utility.yul\":12164:12168   */\n      dup7\n        /* \"#utility.yul\":12132:12169   */\n      tag_69\n      jump\t// in\n    tag_223:\n        /* \"#utility.yul\":12191:12192   */\n      0x00\n        /* \"#utility.yul\":12205:12413   */\n    tag_224:\n        /* \"#utility.yul\":12219:12226   */\n      dup3\n        /* \"#utility.yul\":12216:12217   */\n      dup2\n        /* \"#utility.yul\":12213:12227   */\n      lt\n        /* \"#utility.yul\":12205:12413   */\n      iszero\n      tag_226\n      jumpi\n        /* \"#utility.yul\":12298:12307   */\n      dup5\n        /* \"#utility.yul\":12293:12296   */\n      dup10\n        /* \"#utility.yul\":12289:12308   */\n      add\n        /* \"#utility.yul\":12283:12309   */\n      mload\n        /* \"#utility.yul\":12275:12281   */\n      dup3\n        /* \"#utility.yul\":12268:12310   */\n      sstore\n        /* \"#utility.yul\":12349:12350   */\n      0x01\n        /* \"#utility.yul\":12341:12347   */\n      dup3\n        /* \"#utility.yul\":12337:12351   */\n      add\n        /* \"#utility.yul\":12327:12351   */\n      swap2\n      pop\n        /* \"#utility.yul\":12396:12398   */\n      0x20\n        /* \"#utility.yul\":12385:12394   */\n      dup6\n        /* \"#utility.yul\":12381:12399   */\n      add\n        /* \"#utility.yul\":12368:12399   */\n      swap5\n      pop\n        /* \"#utility.yul\":12242:12246   */\n      0x20\n        /* \"#utility.yul\":12239:12240   */\n      dup2\n        /* \"#utility.yul\":12235:12247   */\n      add\n        /* \"#utility.yul\":12230:12247   */\n      swap1\n      pop\n        /* \"#utility.yul\":12205:12413   */\n      jump(tag_224)\n    tag_226:\n        /* \"#utility.yul\":12441:12447   */\n      dup7\n        /* \"#utility.yul\":12432:12439   */\n      dup4\n        /* \"#utility.yul\":12429:12448   */\n      lt\n        /* \"#utility.yul\":12426:12605   */\n      iszero\n      tag_227\n      jumpi\n        /* \"#utility.yul\":12499:12508   */\n      dup5\n        /* \"#utility.yul\":12494:12497   */\n      dup10\n        /* \"#utility.yul\":12490:12509   */\n      add\n        /* \"#utility.yul\":12484:12510   */\n      mload\n        /* \"#utility.yul\":12542:12590   */\n      tag_228\n        /* \"#utility.yul\":12584:12588   */\n      0x1f\n        /* \"#utility.yul\":12576:12582   */\n      dup10\n        /* \"#utility.yul\":12572:12589   */\n      and\n        /* \"#utility.yul\":12561:12570   */\n      dup3\n        /* \"#utility.yul\":12542:12590   */\n      tag_82\n      jump\t// in\n    tag_228:\n        /* \"#utility.yul\":12534:12540   */\n      dup4\n        /* \"#utility.yul\":12527:12591   */\n      sstore\n        /* \"#utility.yul\":12449:12605   */\n      pop\n        /* \"#utility.yul\":12426:12605   */\n    tag_227:\n        /* \"#utility.yul\":12651:12652   */\n      0x01\n        /* \"#utility.yul\":12647:12648   */\n      0x02\n        /* \"#utility.yul\":12639:12645   */\n      dup9\n        /* \"#utility.yul\":12635:12649   */\n      mul\n        /* \"#utility.yul\":12631:12653   */\n      add\n        /* \"#utility.yul\":12625:12629   */\n      dup9\n        /* \"#utility.yul\":12618:12654   */\n      sstore\n        /* \"#utility.yul\":12053:12664   */\n      pop\n      pop\n      pop\n        /* \"#utility.yul\":12016:12903   */\n    tag_219:\n      pop\n        /* \"#utility.yul\":11606:12909   */\n      pop\n      pop\n      pop\n        /* \"#utility.yul\":11514:12909   */\n      pop\n      pop\n      jump\t// out\n\n    auxdata: 0xa2646970667358221220243d1521a41e9c709be5fa1459df8ab83d3eef6308ed290c9b03fbb743c08e7064736f6c634300081d0033\n}\n",
				"bytecode": {
					"linkReferences": {},
					"object": "6080604052348015600e575f5ffd5b506109d88061001c5f395ff3fe608060405234801561000f575f5ffd5b506004361061003f575f3560e01c806334461067146100435780638275646014610075578063e0258db7146100a5575b5f5ffd5b61005d6004803603810190610058919061032d565b6100c1565b60405161006c939291906103f1565b60405180910390f35b61008f600480360381019061008a919061032d565b610178565b60405161009c91906104e0565b60405180910390f35b6100bf60048036038101906100ba9190610656565b610255565b005b5f602052805f5260405f205f91509050805f0180546100df90610703565b80601f016020809104026020016040519081016040528092919081815260200182805461010b90610703565b80156101565780601f1061012d57610100808354040283529160200191610156565b820191905f5260205f20905b81548152906001019060200180831161013957829003601f168201915b505050505090806001015490806002015f9054906101000a900460ff16905083565b6101806102c8565b5f5f8381526020019081526020015f206040518060600160405290815f820180546101aa90610703565b80601f01602080910402602001604051908101604052809291908181526020018280546101d690610703565b80156102215780601f106101f857610100808354040283529160200191610221565b820191905f5260205f20905b81548152906001019060200180831161020457829003601f168201915b5050505050815260200160018201548152602001600282015f9054906101000a900460ff1615151515815250509050919050565b60405180606001604052808481526020018381526020018215158152505f5f8681526020019081526020015f205f820151815f01908161029591906108d3565b50602082015181600101556040820151816002015f6101000a81548160ff02191690831515021790555090505050505050565b6040518060600160405280606081526020015f81526020015f151581525090565b5f604051905090565b5f5ffd5b5f5ffd5b5f819050919050565b61030c816102fa565b8114610316575f5ffd5b50565b5f8135905061032781610303565b92915050565b5f60208284031215610342576103416102f2565b5b5f61034f84828501610319565b91505092915050565b5f81519050919050565b5f82825260208201905092915050565b8281835e5f83830152505050565b5f601f19601f8301169050919050565b5f61039a82610358565b6103a48185610362565b93506103b4818560208601610372565b6103bd81610380565b840191505092915050565b6103d1816102fa565b82525050565b5f8115159050919050565b6103eb816103d7565b82525050565b5f6060820190508181035f8301526104098186610390565b905061041860208301856103c8565b61042560408301846103e2565b949350505050565b5f82825260208201905092915050565b5f61044782610358565b610451818561042d565b9350610461818560208601610372565b61046a81610380565b840191505092915050565b61047e816102fa565b82525050565b61048d816103d7565b82525050565b5f606083015f8301518482035f8601526104ad828261043d565b91505060208301516104c26020860182610475565b5060408301516104d56040860182610484565b508091505092915050565b5f6020820190508181035f8301526104f88184610493565b905092915050565b5f5ffd5b5f5ffd5b7f4e487b71000000000000000000000000000000000000000000000000000000005f52604160045260245ffd5b61053e82610380565b810181811067ffffffffffffffff8211171561055d5761055c610508565b5b80604052505050565b5f61056f6102e9565b905061057b8282610535565b919050565b5f67ffffffffffffffff82111561059a57610599610508565b5b6105a382610380565b9050602081019050919050565b828183375f83830152505050565b5f6105d06105cb84610580565b610566565b9050828152602081018484840111156105ec576105eb610504565b5b6105f78482856105b0565b509392505050565b5f82601f83011261061357610612610500565b5b81356106238482602086016105be565b91505092915050565b610635816103d7565b811461063f575f5ffd5b50565b5f813590506106508161062c565b92915050565b5f5f5f5f6080858703121561066e5761066d6102f2565b5b5f61067b87828801610319565b945050602085013567ffffffffffffffff81111561069c5761069b6102f6565b5b6106a8878288016105ff565b93505060406106b987828801610319565b92505060606106ca87828801610642565b91505092959194509250565b7f4e487b71000000000000000000000000000000000000000000000000000000005f52602260045260245ffd5b5f600282049050600182168061071a57607f821691505b60208210810361072d5761072c6106d6565b5b50919050565b5f819050815f5260205f209050919050565b5f6020601f8301049050919050565b5f82821b905092915050565b5f6008830261078f7fffffffffffffffffffffffffffffffffffffffffffffffffffffffffffffffff82610754565b6107998683610754565b95508019841693508086168417925050509392505050565b5f819050919050565b5f6107d46107cf6107ca846102fa565b6107b1565b6102fa565b9050919050565b5f819050919050565b6107ed836107ba565b6108016107f9826107db565b848454610760565b825550505050565b5f5f905090565b610818610809565b6108238184846107e4565b505050565b5b818110156108465761083b5f82610810565b600181019050610829565b5050565b601f82111561088b5761085c81610733565b61086584610745565b81016020851015610874578190505b61088861088085610745565b830182610828565b50505b505050565b5f82821c905092915050565b5f6108ab5f1984600802610890565b1980831691505092915050565b5f6108c3838361089c565b9150826002028217905092915050565b6108dc82610358565b67ffffffffffffffff8111156108f5576108f4610508565b5b6108ff8254610703565b61090a82828561084a565b5f60209050601f83116001811461093b575f8415610929578287015190505b61093385826108b8565b86555061099a565b601f19841661094986610733565b5f5b828110156109705784890151825560018201915060208501945060208101905061094b565b8683101561098d5784890151610989601f89168261089c565b8355505b6001600288020188555050505b50505050505056fea2646970667358221220243d1521a41e9c709be5fa1459df8ab83d3eef6308ed290c9b03fbb743c08e7064736f6c634300081d0033",
					"opcodes": "PUSH1 0x80 PUSH1 0x40 MSTORE CALLVALUE DUP1 ISZERO PUSH1 0xE JUMPI PUSH0 PUSH0 REVERT JUMPDEST POP PUSH2 0x9D8 DUP1 PUSH2 0x1C PUSH0 CODECOPY PUSH0 RETURN INVALID PUSH1 0x80 PUSH1 0x40 MSTORE CALLVALUE DUP1 ISZERO PUSH2 0xF JUMPI PUSH0 PUSH0 REVERT JUMPDEST POP PUSH1 0x4 CALLDATASIZE LT PUSH2 0x3F JUMPI PUSH0 CALLDATALOAD PUSH1 0xE0 SHR DUP1 PUSH4 0x34461067 EQ PUSH2 0x43 JUMPI DUP1 PUSH4 0x82756460 EQ PUSH2 0x75 JUMPI DUP1 PUSH4 0xE0258DB7 EQ PUSH2 0xA5 JUMPI JUMPDEST PUSH0 PUSH0 REVERT JUMPDEST PUSH2 0x5D PUSH1 0x4 DUP1 CALLDATASIZE SUB DUP2 ADD SWAP1 PUSH2 0x58 SWAP2 SWAP1 PUSH2 0x32D JUMP JUMPDEST PUSH2 0xC1 JUMP JUMPDEST PUSH1 0x40 MLOAD PUSH2 0x6C SWAP4 SWAP3 SWAP2 SWAP1 PUSH2 0x3F1 JUMP JUMPDEST PUSH1 0x40 MLOAD DUP1 SWAP2 SUB SWAP1 RETURN JUMPDEST PUSH2 0x8F PUSH1 0x4 DUP1 CALLDATASIZE SUB DUP2 ADD SWAP1 PUSH2 0x8A SWAP2 SWAP1 PUSH2 0x32D JUMP JUMPDEST PUSH2 0x178 JUMP JUMPDEST PUSH1 0x40 MLOAD PUSH2 0x9C SWAP2 SWAP1 PUSH2 0x4E0 JUMP JUMPDEST PUSH1 0x40 MLOAD DUP1 SWAP2 SUB SWAP1 RETURN JUMPDEST PUSH2 0xBF PUSH1 0x4 DUP1 CALLDATASIZE SUB DUP2 ADD SWAP1 PUSH2 0xBA SWAP2 SWAP1 PUSH2 0x656 JUMP JUMPDEST PUSH2 0x255 JUMP JUMPDEST STOP JUMPDEST PUSH0 PUSH1 0x20 MSTORE DUP1 PUSH0 MSTORE PUSH1 0x40 PUSH0 KECCAK256 PUSH0 SWAP2 POP SWAP1 POP DUP1 PUSH0 ADD DUP1 SLOAD PUSH2 0xDF SWAP1 PUSH2 0x703 JUMP JUMPDEST DUP1 PUSH1 0x1F ADD PUSH1 0x20 DUP1 SWAP2 DIV MUL PUSH1 0x20 ADD PUSH1 0x40 MLOAD SWAP1 DUP2 ADD PUSH1 0x40 MSTORE DUP1 SWAP3 SWAP2 SWAP1 DUP2 DUP2 MSTORE PUSH1 0x20 ADD DUP3 DUP1 SLOAD PUSH2 0x10B SWAP1 PUSH2 0x703 JUMP JUMPDEST DUP1 ISZERO PUSH2 0x156 JUMPI DUP1 PUSH1 0x1F LT PUSH2 0x12D JUMPI PUSH2 0x100 DUP1 DUP4 SLOAD DIV MUL DUP4 MSTORE SWAP2 PUSH1 0x20 ADD SWAP2 PUSH2 0x156 JUMP JUMPDEST DUP3 ADD SWAP2 SWAP1 PUSH0 MSTORE PUSH1 0x20 PUSH0 KECCAK256 SWAP1 JUMPDEST DUP2 SLOAD DUP2 MSTORE SWAP1 PUSH1 0x1 ADD SWAP1 PUSH1 0x20 ADD DUP1 DUP4 GT PUSH2 0x139 JUMPI DUP3 SWAP1 SUB PUSH1 0x1F AND DUP3 ADD SWAP2 JUMPDEST POP POP POP POP POP SWAP1 DUP1 PUSH1 0x1 ADD SLOAD SWAP1 DUP1 PUSH1 0x2 ADD PUSH0 SWAP1 SLOAD SWAP1 PUSH2 0x100 EXP SWAP1 DIV PUSH1 0xFF AND SWAP1 POP DUP4 JUMP JUMPDEST PUSH2 0x180 PUSH2 0x2C8 JUMP JUMPDEST PUSH0 PUSH0 DUP4 DUP2 MSTORE PUSH1 0x20 ADD SWAP1 DUP2 MSTORE PUSH1 0x20 ADD PUSH0 KECCAK256 PUSH1 0x40 MLOAD DUP1 PUSH1 0x60 ADD PUSH1 0x40 MSTORE SWAP1 DUP2 PUSH0 DUP3 ADD DUP1 SLOAD PUSH2 0x1AA SWAP1 PUSH2 0x703 JUMP JUMPDEST DUP1 PUSH1 0x1F ADD PUSH1 0x20 DUP1 SWAP2 DIV MUL PUSH1 0x20 ADD PUSH1 0x40 MLOAD SWAP1 DUP2 ADD PUSH1 0x40 MSTORE DUP1 SWAP3 SWAP2 SWAP1 DUP2 DUP2 MSTORE PUSH1 0x20 ADD DUP3 DUP1 SLOAD PUSH2 0x1D6 SWAP1 PUSH2 0x703 JUMP JUMPDEST DUP1 ISZERO PUSH2 0x221 JUMPI DUP1 PUSH1 0x1F LT PUSH2 0x1F8 JUMPI PUSH2 0x100 DUP1 DUP4 SLOAD DIV MUL DUP4 MSTORE SWAP2 PUSH1 0x20 ADD SWAP2 PUSH2 0x221 JUMP JUMPDEST DUP3 ADD SWAP2 SWAP1 PUSH0 MSTORE PUSH1 0x20 PUSH0 KECCAK256 SWAP1 JUMPDEST DUP2 SLOAD DUP2 MSTORE SWAP1 PUSH1 0x1 ADD SWAP1 PUSH1 0x20 ADD DUP1 DUP4 GT PUSH2 0x204 JUMPI DUP3 SWAP1 SUB PUSH1 0x1F AND DUP3 ADD SWAP2 JUMPDEST POP POP POP POP POP DUP2 MSTORE PUSH1 0x20 ADD PUSH1 0x1 DUP3 ADD SLOAD DUP2 MSTORE PUSH1 0x20 ADD PUSH1 0x2 DUP3 ADD PUSH0 SWAP1 SLOAD SWAP1 PUSH2 0x100 EXP SWAP1 DIV PUSH1 0xFF AND ISZERO ISZERO ISZERO ISZERO DUP2 MSTORE POP POP SWAP1 POP SWAP2 SWAP1 POP JUMP JUMPDEST PUSH1 0x40 MLOAD DUP1 PUSH1 0x60 ADD PUSH1 0x40 MSTORE DUP1 DUP5 DUP2 MSTORE PUSH1 0x20 ADD DUP4 DUP2 MSTORE PUSH1 0x20 ADD DUP3 ISZERO ISZERO DUP2 MSTORE POP PUSH0 PUSH0 DUP7 DUP2 MSTORE PUSH1 0x20 ADD SWAP1 DUP2 MSTORE PUSH1 0x20 ADD PUSH0 KECCAK256 PUSH0 DUP3 ADD MLOAD DUP2 PUSH0 ADD SWAP1 DUP2 PUSH2 0x295 SWAP2 SWAP1 PUSH2 0x8D3 JUMP JUMPDEST POP PUSH1 0x20 DUP3 ADD MLOAD DUP2 PUSH1 0x1 ADD SSTORE PUSH1 0x40 DUP3 ADD MLOAD DUP2 PUSH1 0x2 ADD PUSH0 PUSH2 0x100 EXP DUP2 SLOAD DUP2 PUSH1 0xFF MUL NOT AND SWAP1 DUP4 ISZERO ISZERO MUL OR SWAP1 SSTORE POP SWAP1 POP POP POP POP POP POP JUMP JUMPDEST PUSH1 0x40 MLOAD DUP1 PUSH1 0x60 ADD PUSH1 0x40 MSTORE DUP1 PUSH1 0x60 DUP2 MSTORE PUSH1 0x20 ADD PUSH0 DUP2 MSTORE PUSH1 0x20 ADD PUSH0 ISZERO ISZERO DUP2 MSTORE POP SWAP1 JUMP JUMPDEST PUSH0 PUSH1 0x40 MLOAD SWAP1 POP SWAP1 JUMP JUMPDEST PUSH0 PUSH0 REVERT JUMPDEST PUSH0 PUSH0 REVERT JUMPDEST PUSH0 DUP2 SWAP1 POP SWAP2 SWAP1 POP JUMP JUMPDEST PUSH2 0x30C DUP2 PUSH2 0x2FA JUMP JUMPDEST DUP2 EQ PUSH2 0x316 JUMPI PUSH0 PUSH0 REVERT JUMPDEST POP JUMP JUMPDEST PUSH0 DUP2 CALLDATALOAD SWAP1 POP PUSH2 0x327 DUP2 PUSH2 0x303 JUMP JUMPDEST SWAP3 SWAP2 POP POP JUMP JUMPDEST PUSH0 PUSH1 0x20 DUP3 DUP5 SUB SLT ISZERO PUSH2 0x342 JUMPI PUSH2 0x341 PUSH2 0x2F2 JUMP JUMPDEST JUMPDEST PUSH0 PUSH2 0x34F DUP5 DUP3 DUP6 ADD PUSH2 0x319 JUMP JUMPDEST SWAP2 POP POP SWAP3 SWAP2 POP POP JUMP JUMPDEST PUSH0 DUP2 MLOAD SWAP1 POP SWAP2 SWAP1 POP JUMP JUMPDEST PUSH0 DUP3 DUP3 MSTORE PUSH1 0x20 DUP3 ADD SWAP1 POP SWAP3 SWAP2 POP POP JUMP JUMPDEST DUP3 DUP2 DUP4 MCOPY PUSH0 DUP4 DUP4 ADD MSTORE POP POP POP JUMP JUMPDEST PUSH0 PUSH1 0x1F NOT PUSH1 0x1F DUP4 ADD AND SWAP1 POP SWAP2 SWAP1 POP JUMP JUMPDEST PUSH0 PUSH2 0x39A DUP3 PUSH2 0x358 JUMP JUMPDEST PUSH2 0x3A4 DUP2 DUP6 PUSH2 0x362 JUMP JUMPDEST SWAP4 POP PUSH2 0x3B4 DUP2 DUP6 PUSH1 0x20 DUP7 ADD PUSH2 0x372 JUMP JUMPDEST PUSH2 0x3BD DUP2 PUSH2 0x380 JUMP JUMPDEST DUP5 ADD SWAP2 POP POP SWAP3 SWAP2 POP POP JUMP JUMPDEST PUSH2 0x3D1 DUP2 PUSH2 0x2FA JUMP JUMPDEST DUP3 MSTORE POP POP JUMP JUMPDEST PUSH0 DUP2 ISZERO ISZERO SWAP1 POP SWAP2 SWAP1 POP JUMP JUMPDEST PUSH2 0x3EB DUP2 PUSH2 0x3D7 JUMP JUMPDEST DUP3 MSTORE POP POP JUMP JUMPDEST PUSH0 PUSH1 0x60 DUP3 ADD SWAP1 POP DUP2 DUP2 SUB PUSH0 DUP4 ADD MSTORE PUSH2 0x409 DUP2 DUP7 PUSH2 0x390 JUMP JUMPDEST SWAP1 POP PUSH2 0x418 PUSH1 0x20 DUP4 ADD DUP6 PUSH2 0x3C8 JUMP JUMPDEST PUSH2 0x425 PUSH1 0x40 DUP4 ADD DUP5 PUSH2 0x3E2 JUMP JUMPDEST SWAP5 SWAP4 POP POP POP POP JUMP JUMPDEST PUSH0 DUP3 DUP3 MSTORE PUSH1 0x20 DUP3 ADD SWAP1 POP SWAP3 SWAP2 POP POP JUMP JUMPDEST PUSH0 PUSH2 0x447 DUP3 PUSH2 0x358 JUMP JUMPDEST PUSH2 0x451 DUP2 DUP6 PUSH2 0x42D JUMP JUMPDEST SWAP4 POP PUSH2 0x461 DUP2 DUP6 PUSH1 0x20 DUP7 ADD PUSH2 0x372 JUMP JUMPDEST PUSH2 0x46A DUP2 PUSH2 0x380 JUMP JUMPDEST DUP5 ADD SWAP2 POP POP SWAP3 SWAP2 POP POP JUMP JUMPDEST PUSH2 0x47E DUP2 PUSH2 0x2FA JUMP JUMPDEST DUP3 MSTORE POP POP JUMP JUMPDEST PUSH2 0x48D DUP2 PUSH2 0x3D7 JUMP JUMPDEST DUP3 MSTORE POP POP JUMP JUMPDEST PUSH0 PUSH1 0x60 DUP4 ADD PUSH0 DUP4 ADD MLOAD DUP5 DUP3 SUB PUSH0 DUP7 ADD MSTORE PUSH2 0x4AD DUP3 DUP3 PUSH2 0x43D JUMP JUMPDEST SWAP2 POP POP PUSH1 0x20 DUP4 ADD MLOAD PUSH2 0x4C2 PUSH1 0x20 DUP7 ADD DUP3 PUSH2 0x475 JUMP JUMPDEST POP PUSH1 0x40 DUP4 ADD MLOAD PUSH2 0x4D5 PUSH1 0x40 DUP7 ADD DUP3 PUSH2 0x484 JUMP JUMPDEST POP DUP1 SWAP2 POP POP SWAP3 SWAP2 POP POP JUMP JUMPDEST PUSH0 PUSH1 0x20 DUP3 ADD SWAP1 POP DUP2 DUP2 SUB PUSH0 DUP4 ADD MSTORE PUSH2 0x4F8 DUP2 DUP5 PUSH2 0x493 JUMP JUMPDEST SWAP1 POP SWAP3 SWAP2 POP POP JUMP JUMPDEST PUSH0 PUSH0 REVERT JUMPDEST PUSH0 PUSH0 REVERT JUMPDEST PUSH32 0x4E487B7100000000000000000000000000000000000000000000000000000000 PUSH0 MSTORE PUSH1 0x41 PUSH1 0x4 MSTORE PUSH1 0x24 PUSH0 REVERT JUMPDEST PUSH2 0x53E DUP3 PUSH2 0x380 JUMP JUMPDEST DUP2 ADD DUP2 DUP2 LT PUSH8 0xFFFFFFFFFFFFFFFF DUP3 GT OR ISZERO PUSH2 0x55D JUMPI PUSH2 0x55C PUSH2 0x508 JUMP JUMPDEST JUMPDEST DUP1 PUSH1 0x40 MSTORE POP POP POP JUMP JUMPDEST PUSH0 PUSH2 0x56F PUSH2 0x2E9 JUMP JUMPDEST SWAP1 POP PUSH2 0x57B DUP3 DUP3 PUSH2 0x535 JUMP JUMPDEST SWAP2 SWAP1 POP JUMP JUMPDEST PUSH0 PUSH8 0xFFFFFFFFFFFFFFFF DUP3 GT ISZERO PUSH2 0x59A JUMPI PUSH2 0x599 PUSH2 0x508 JUMP JUMPDEST JUMPDEST PUSH2 0x5A3 DUP3 PUSH2 0x380 JUMP JUMPDEST SWAP1 POP PUSH1 0x20 DUP2 ADD SWAP1 POP SWAP2 SWAP1 POP JUMP JUMPDEST DUP3 DUP2 DUP4 CALLDATACOPY PUSH0 DUP4 DUP4 ADD MSTORE POP POP POP JUMP JUMPDEST PUSH0 PUSH2 0x5D0 PUSH2 0x5CB DUP5 PUSH2 0x580 JUMP JUMPDEST PUSH2 0x566 JUMP JUMPDEST SWAP1 POP DUP3 DUP2 MSTORE PUSH1 0x20 DUP2 ADD DUP5 DUP5 DUP5 ADD GT ISZERO PUSH2 0x5EC JUMPI PUSH2 0x5EB PUSH2 0x504 JUMP JUMPDEST JUMPDEST PUSH2 0x5F7 DUP5 DUP3 DUP6 PUSH2 0x5B0 JUMP JUMPDEST POP SWAP4 SWAP3 POP POP POP JUMP JUMPDEST PUSH0 DUP3 PUSH1 0x1F DUP4 ADD SLT PUSH2 0x613 JUMPI PUSH2 0x612 PUSH2 0x500 JUMP JUMPDEST JUMPDEST DUP2 CALLDATALOAD PUSH2 0x623 DUP5 DUP3 PUSH1 0x20 DUP7 ADD PUSH2 0x5BE JUMP JUMPDEST SWAP2 POP POP SWAP3 SWAP2 POP POP JUMP JUMPDEST PUSH2 0x635 DUP2 PUSH2 0x3D7 JUMP JUMPDEST DUP2 EQ PUSH2 0x63F JUMPI PUSH0 PUSH0 REVERT JUMPDEST POP JUMP JUMPDEST PUSH0 DUP2 CALLDATALOAD SWAP1 POP PUSH2 0x650 DUP2 PUSH2 0x62C JUMP JUMPDEST SWAP3 SWAP2 POP POP JUMP JUMPDEST PUSH0 PUSH0 PUSH0 PUSH0 PUSH1 0x80 DUP6 DUP8 SUB SLT ISZERO PUSH2 0x66E JUMPI PUSH2 0x66D PUSH2 0x2F2 JUMP JUMPDEST JUMPDEST PUSH0 PUSH2 0x67B DUP8 DUP3 DUP9 ADD PUSH2 0x319 JUMP JUMPDEST SWAP5 POP POP PUSH1 0x20 DUP6 ADD CALLDATALOAD PUSH8 0xFFFFFFFFFFFFFFFF DUP2 GT ISZERO PUSH2 0x69C JUMPI PUSH2 0x69B PUSH2 0x2F6 JUMP JUMPDEST JUMPDEST PUSH2 0x6A8 DUP8 DUP3 DUP9 ADD PUSH2 0x5FF JUMP JUMPDEST SWAP4 POP POP PUSH1 0x40 PUSH2 0x6B9 DUP8 DUP3 DUP9 ADD PUSH2 0x319 JUMP JUMPDEST SWAP3 POP POP PUSH1 0x60 PUSH2 0x6CA DUP8 DUP3 DUP9 ADD PUSH2 0x642 JUMP JUMPDEST SWAP2 POP POP SWAP3 SWAP6 SWAP2 SWAP5 POP SWAP3 POP JUMP JUMPDEST PUSH32 0x4E487B7100000000000000000000000000000000000000000000000000000000 PUSH0 MSTORE PUSH1 0x22 PUSH1 0x4 MSTORE PUSH1 0x24 PUSH0 REVERT JUMPDEST PUSH0 PUSH1 0x2 DUP3 DIV SWAP1 POP PUSH1 0x1 DUP3 AND DUP1 PUSH2 0x71A JUMPI PUSH1 0x7F DUP3 AND SWAP2 POP JUMPDEST PUSH1 0x20 DUP3 LT DUP2 SUB PUSH2 0x72D JUMPI PUSH2 0x72C PUSH2 0x6D6 JUMP JUMPDEST JUMPDEST POP SWAP2 SWAP1 POP JUMP JUMPDEST PUSH0 DUP2 SWAP1 POP DUP2 PUSH0 MSTORE PUSH1 0x20 PUSH0 KECCAK256 SWAP1 POP SWAP2 SWAP1 POP JUMP JUMPDEST PUSH0 PUSH1 0x20 PUSH1 0x1F DUP4 ADD DIV SWAP1 POP SWAP2 SWAP1 POP JUMP JUMPDEST PUSH0 DUP3 DUP3 SHL SWAP1 POP SWAP3 SWAP2 POP POP JUMP JUMPDEST PUSH0 PUSH1 0x8 DUP4 MUL PUSH2 0x78F PUSH32 0xFFFFFFFFFFFFFFFFFFFFFFFFFFFFFFFFFFFFFFFFFFFFFFFFFFFFFFFFFFFFFFFF DUP3 PUSH2 0x754 JUMP JUMPDEST PUSH2 0x799 DUP7 DUP4 PUSH2 0x754 JUMP JUMPDEST SWAP6 POP DUP1 NOT DUP5 AND SWAP4 POP DUP1 DUP7 AND DUP5 OR SWAP3 POP POP POP SWAP4 SWAP3 POP POP POP JUMP JUMPDEST PUSH0 DUP2 SWAP1 POP SWAP2 SWAP1 POP JUMP JUMPDEST PUSH0 PUSH2 0x7D4 PUSH2 0x7CF PUSH2 0x7CA DUP5 PUSH2 0x2FA JUMP JUMPDEST PUSH2 0x7B1 JUMP JUMPDEST PUSH2 0x2FA JUMP JUMPDEST SWAP1 POP SWAP2 SWAP1 POP JUMP JUMPDEST PUSH0 DUP2 SWAP1 POP SWAP2 SWAP1 POP JUMP JUMPDEST PUSH2 0x7ED DUP4 PUSH2 0x7BA JUMP JUMPDEST PUSH2 0x801 PUSH2 0x7F9 DUP3 PUSH2 0x7DB JUMP JUMPDEST DUP5 DUP5 SLOAD PUSH2 0x760 JUMP JUMPDEST DUP3 SSTORE POP POP POP POP JUMP JUMPDEST PUSH0 PUSH0 SWAP1 POP SWAP1 JUMP JUMPDEST PUSH2 0x818 PUSH2 0x809 JUMP JUMPDEST PUSH2 0x823 DUP2 DUP5 DUP5 PUSH2 0x7E4 JUMP JUMPDEST POP POP POP JUMP JUMPDEST JUMPDEST DUP2 DUP2 LT ISZERO PUSH2 0x846 JUMPI PUSH2 0x83B PUSH0 DUP3 PUSH2 0x810 JUMP JUMPDEST PUSH1 0x1 DUP2 ADD SWAP1 POP PUSH2 0x829 JUMP JUMPDEST POP POP JUMP JUMPDEST PUSH1 0x1F DUP3 GT ISZERO PUSH2 0x88B JUMPI PUSH2 0x85C DUP2 PUSH2 0x733 JUMP JUMPDEST PUSH2 0x865 DUP5 PUSH2 0x745 JUMP JUMPDEST DUP2 ADD PUSH1 0x20 DUP6 LT ISZERO PUSH2 0x874 JUMPI DUP2 SWAP1 POP JUMPDEST PUSH2 0x888 PUSH2 0x880 DUP6 PUSH2 0x745 JUMP JUMPDEST DUP4 ADD DUP3 PUSH2 0x828 JUMP JUMPDEST POP POP JUMPDEST POP POP POP JUMP JUMPDEST PUSH0 DUP3 DUP3 SHR SWAP1 POP SWAP3 SWAP2 POP POP JUMP JUMPDEST PUSH0 PUSH2 0x8AB PUSH0 NOT DUP5 PUSH1 0x8 MUL PUSH2 0x890 JUMP JUMPDEST NOT DUP1 DUP4 AND SWAP2 POP POP SWAP3 SWAP2 POP POP JUMP JUMPDEST PUSH0 PUSH2 0x8C3 DUP4 DUP4 PUSH2 0x89C JUMP JUMPDEST SWAP2 POP DUP3 PUSH1 0x2 MUL DUP3 OR SWAP1 POP SWAP3 SWAP2 POP POP JUMP JUMPDEST PUSH2 0x8DC DUP3 PUSH2 0x358 JUMP JUMPDEST PUSH8 0xFFFFFFFFFFFFFFFF DUP2 GT ISZERO PUSH2 0x8F5 JUMPI PUSH2 0x8F4 PUSH2 0x508 JUMP JUMPDEST JUMPDEST PUSH2 0x8FF DUP3 SLOAD PUSH2 0x703 JUMP JUMPDEST PUSH2 0x90A DUP3 DUP3 DUP6 PUSH2 0x84A JUMP JUMPDEST PUSH0 PUSH1 0x20 SWAP1 POP PUSH1 0x1F DUP4 GT PUSH1 0x1 DUP2 EQ PUSH2 0x93B JUMPI PUSH0 DUP5 ISZERO PUSH2 0x929 JUMPI DUP3 DUP8 ADD MLOAD SWAP1 POP JUMPDEST PUSH2 0x933 DUP6 DUP3 PUSH2 0x8B8 JUMP JUMPDEST DUP7 SSTORE POP PUSH2 0x99A JUMP JUMPDEST PUSH1 0x1F NOT DUP5 AND PUSH2 0x949 DUP7 PUSH2 0x733 JUMP JUMPDEST PUSH0 JUMPDEST DUP3 DUP2 LT ISZERO PUSH2 0x970 JUMPI DUP5 DUP10 ADD MLOAD DUP3 SSTORE PUSH1 0x1 DUP3 ADD SWAP2 POP PUSH1 0x20 DUP6 ADD SWAP5 POP PUSH1 0x20 DUP2 ADD SWAP1 POP PUSH2 0x94B JUMP JUMPDEST DUP7 DUP4 LT ISZERO PUSH2 0x98D JUMPI DUP5 DUP10 ADD MLOAD PUSH2 0x989 PUSH1 0x1F DUP10 AND DUP3 PUSH2 0x89C JUMP JUMPDEST DUP4 SSTORE POP JUMPDEST PUSH1 0x1 PUSH1 0x2 DUP9 MUL ADD DUP9 SSTORE POP POP POP JUMPDEST POP POP POP POP POP POP JUMP INVALID LOG2 PUSH5 0x6970667358 0x22 SLT KECCAK256 0x24 RETURNDATASIZE ISZERO 0x21 LOG4 0x1E SWAP13 PUSH17 0x9BE5FA1459DF8AB83D3EEF6308ED290C9B SUB EXTSTATICCALL 0xB7 NUMBER 0xC0 DUP15 PUSH17 0x64736F6C634300081D0033000000000000 "
				},
				"gasEstimates": {
					"creation": {
						"codeDepositCost": "504000",
						"executionCost": "535",
						"totalCost": "504535"
					},
					"external": {
						"insert(uint256,string,uint256,bool)": "infinite",
						"records(uint256)": "infinite",
						"returnValue(uint256)": "infinite"
					}
				},
				"methodIdentifiers": {
					"insert(uint256,string,uint256,bool)": "e0258db7",
					"records(uint256)": "34461067",
					"returnValue(uint256)": "82756460"
				}
			},
			"storageLayout": {
				"storage": [
					{
						"astId": 13,
						"contract": "contracts/24_map_Vs_struct.sol:demo",
						"label": "records",
						"offset": 0,
						"slot": "0",
						"type": "t_mapping(t_uint256,t_struct(Student)8_storage)"
					}
				],
				"types": {
					"t_bool": {
						"encoding": "inplace",
						"label": "bool",
						"numberOfBytes": "1"
					},
					"t_mapping(t_uint256,t_struct(Student)8_storage)": {
						"encoding": "mapping",
						"key": "t_uint256",
						"label": "mapping(uint256 => struct demo.Student)",
						"numberOfBytes": "32",
						"value": "t_struct(Student)8_storage"
					},
					"t_string_storage": {
						"encoding": "bytes",
						"label": "string",
						"numberOfBytes": "32"
					},
					"t_struct(Student)8_storage": {
						"encoding": "inplace",
						"label": "struct demo.Student",
						"members": [
							{
								"astId": 3,
								"contract": "contracts/24_map_Vs_struct.sol:demo",
								"label": "name",
								"offset": 0,
								"slot": "0",
								"type": "t_string_storage"
							},
							{
								"astId": 5,
								"contract": "contracts/24_map_Vs_struct.sol:demo",
								"label": "roll",
								"offset": 0,
								"slot": "1",
								"type": "t_uint256"
							},
							{
								"astId": 7,
								"contract": "contracts/24_map_Vs_struct.sol:demo",
								"label": "result",
								"offset": 0,
								"slot": "2",
								"type": "t_bool"
							}
						],
						"numberOfBytes": "96"
					},
					"t_uint256": {
						"encoding": "inplace",
						"label": "uint256",
						"numberOfBytes": "32"
					}
				}
			},
			"userdoc": {
				"kind": "user",
				"methods": {},
				"version": 1
			}
		}
	}
}