{
	"contracts/21_struct2.sol": {
		"demo": {
			"abi": [
				{
					"inputs": [
						{
							"internalType": "uint256",
							"name": "index",
							"type": "uint256"
						},
						{
							"internalType": "string",
							"name": "_name",
							"type": "string"
						},
						{
							"internalType": "uint256",
							"name": "_roll",
							"type": "uint256"
						},
						{
							"internalType": "bool",
							"name": "_result",
							"type": "bool"
						}
					],
					"name": "insert",
					"outputs": [],
					"stateMutability": "nonpayable",
					"type": "function"
				},
				{
					"inputs": [
						{
							"internalType": "uint256",
							"name": "index",
							"type": "uint256"
						}
					],
					"name": "returnStudent",
					"outputs": [
						{
							"components": [
								{
									"internalType": "string",
									"name": "name",
									"type": "string"
								},
								{
									"internalType": "uint256",
									"name": "roll",
									"type": "uint256"
								},
								{
									"internalType": "bool",
									"name": "result",
									"type": "bool"
								}
							],
							"internalType": "struct demo.Studentdata",
							"name": "",
							"type": "tuple"
						}
					],
					"stateMutability": "view",
					"type": "function"
				},
				{
					"inputs": [
						{
							"internalType": "uint256",
							"name": "",
							"type": "uint256"
						}
					],
					"name": "student",
					"outputs": [
						{
							"internalType": "string",
							"name": "name",
							"type": "string"
						},
						{
							"internalType": "uint256",
							"name": "roll",
							"type": "uint256"
						},
						{
							"internalType": "bool",
							"name": "result",
							"type": "bool"
						}
					],
					"stateMutability": "view",
					"type": "function"
				}
			],
			"devdoc": {
				"kind": "dev",
				"methods": {},
				"version": 1
			},
			"evm": {
				"assembly": "    /* \"contracts/21_struct2.sol\":73:649  contract demo{... */\n  mstore(0x40, 0x80)\n  callvalue\n  dup1\n  iszero\n  tag_1\n  jumpi\n  revert(0x00, 0x00)\ntag_1:\n  pop\n  dataSize(sub_0)\n  dup1\n  dataOffset(sub_0)\n  0x00\n  codecopy\n  0x00\n  return\nstop\n\nsub_0: assembly {\n        /* \"contracts/21_struct2.sol\":73:649  contract demo{... */\n      mstore(0x40, 0x80)\n      callvalue\n      dup1\n      iszero\n      tag_1\n      jumpi\n      revert(0x00, 0x00)\n    tag_1:\n      pop\n      jumpi(tag_2, lt(calldatasize, 0x04))\n      shr(0xe0, calldataload(0x00))\n      dup1\n      0x35f34232\n      eq\n      tag_3\n      jumpi\n      dup1\n      0xe0258db7\n      eq\n      tag_4\n      jumpi\n      dup1\n      0xec07504f\n      eq\n      tag_5\n      jumpi\n    tag_2:\n      revert(0x00, 0x00)\n        /* \"contracts/21_struct2.sol\":191:220  Studentdata[4] public student */\n    tag_3:\n      tag_6\n      0x04\n      dup1\n      calldatasize\n      sub\n      dup2\n      add\n      swap1\n      tag_7\n      swap2\n      swap1\n      tag_8\n      jump\t// in\n    tag_7:\n      tag_9\n      jump\t// in\n    tag_6:\n      mload(0x40)\n      tag_10\n      swap4\n      swap3\n      swap2\n      swap1\n      tag_11\n      jump\t// in\n    tag_10:\n      mload(0x40)\n      dup1\n      swap2\n      sub\n      swap1\n      return\n        /* \"contracts/21_struct2.sol\":314:524  function insert(uint index, string memory _name, uint _roll, bool _result ) public {... */\n    tag_4:\n      tag_12\n      0x04\n      dup1\n      calldatasize\n      sub\n      dup2\n      add\n      swap1\n      tag_13\n      swap2\n      swap1\n      tag_14\n      jump\t// in\n    tag_13:\n      tag_15\n      jump\t// in\n    tag_12:\n      stop\n        /* \"contracts/21_struct2.sol\":532:646  function returnStudent(uint index) public view returns(Studentdata memory){... */\n    tag_5:\n      tag_16\n      0x04\n      dup1\n      calldatasize\n      sub\n      dup2\n      add\n      swap1\n      tag_17\n      swap2\n      swap1\n      tag_8\n      jump\t// in\n    tag_17:\n      tag_18\n      jump\t// in\n    tag_16:\n      mload(0x40)\n      tag_19\n      swap2\n      swap1\n      tag_20\n      jump\t// in\n    tag_19:\n      mload(0x40)\n      dup1\n      swap2\n      sub\n      swap1\n      return\n        /* \"contracts/21_struct2.sol\":191:220  Studentdata[4] public student */\n    tag_9:\n      0x00\n      dup2\n      0x04\n      dup2\n      lt\n      tag_21\n      jumpi\n      0x00\n      dup1\n      revert\n    tag_21:\n      0x03\n      mul\n      add\n      0x00\n      swap2\n      pop\n      swap1\n      pop\n      dup1\n      0x00\n      add\n      dup1\n      sload\n      tag_23\n      swap1\n      tag_24\n      jump\t// in\n    tag_23:\n      dup1\n      0x1f\n      add\n      0x20\n      dup1\n      swap2\n      div\n      mul\n      0x20\n      add\n      mload(0x40)\n      swap1\n      dup2\n      add\n      0x40\n      mstore\n      dup1\n      swap3\n      swap2\n      swap1\n      dup2\n      dup2\n      mstore\n      0x20\n      add\n      dup3\n      dup1\n      sload\n      tag_25\n      swap1\n      tag_24\n      jump\t// in\n    tag_25:\n      dup1\n      iszero\n      tag_26\n      jumpi\n      dup1\n      0x1f\n      lt\n      tag_27\n      jumpi\n      0x0100\n      dup1\n      dup4\n      sload\n      div\n      mul\n      dup4\n      mstore\n      swap2\n      0x20\n      add\n      swap2\n      jump(tag_26)\n    tag_27:\n      dup3\n      add\n      swap2\n      swap1\n      0x00\n      mstore\n      keccak256(0x00, 0x20)\n      swap1\n    tag_28:\n      dup2\n      sload\n      dup2\n      mstore\n      swap1\n      0x01\n      add\n      swap1\n      0x20\n      add\n      dup1\n      dup4\n      gt\n      tag_28\n      jumpi\n      dup3\n      swap1\n      sub\n      0x1f\n      and\n      dup3\n      add\n      swap2\n    tag_26:\n      pop\n      pop\n      pop\n      pop\n      pop\n      swap1\n      dup1\n      0x01\n      add\n      sload\n      swap1\n      dup1\n      0x02\n      add\n      0x00\n      swap1\n      sload\n      swap1\n      0x0100\n      exp\n      swap1\n      div\n      0xff\n      and\n      swap1\n      pop\n      dup4\n      jump\t// out\n        /* \"contracts/21_struct2.sol\":314:524  function insert(uint index, string memory _name, uint _roll, bool _result ) public {... */\n    tag_15:\n        /* \"contracts/21_struct2.sol\":425:459  Studentdata(_name, _roll, _result) */\n      mload(0x40)\n      dup1\n      0x60\n      add\n      0x40\n      mstore\n      dup1\n        /* \"contracts/21_struct2.sol\":437:442  _name */\n      dup5\n        /* \"contracts/21_struct2.sol\":425:459  Studentdata(_name, _roll, _result) */\n      dup2\n      mstore\n      0x20\n      add\n        /* \"contracts/21_struct2.sol\":444:449  _roll */\n      dup4\n        /* \"contracts/21_struct2.sol\":425:459  Studentdata(_name, _roll, _result) */\n      dup2\n      mstore\n      0x20\n      add\n        /* \"contracts/21_struct2.sol\":451:458  _result */\n      dup3\n        /* \"contracts/21_struct2.sol\":425:459  Studentdata(_name, _roll, _result) */\n      iszero\n      iszero\n      dup2\n      mstore\n      pop\n        /* \"contracts/21_struct2.sol\":408:415  student */\n      0x00\n        /* \"contracts/21_struct2.sol\":416:421  index */\n      dup6\n        /* \"contracts/21_struct2.sol\":408:422  student[index] */\n      0x04\n      dup2\n      lt\n      tag_30\n      jumpi\n      tag_31\n      tag_32\n      jump\t// in\n    tag_31:\n    tag_30:\n      0x03\n      mul\n      add\n        /* \"contracts/21_struct2.sol\":408:459  student[index] = Studentdata(_name, _roll, _result) */\n      0x00\n      dup3\n      add\n      mload\n      dup2\n      0x00\n      add\n      swap1\n      dup2\n      tag_34\n      swap2\n      swap1\n      tag_35\n      jump\t// in\n    tag_34:\n      pop\n      0x20\n      dup3\n      add\n      mload\n      dup2\n      0x01\n      add\n      sstore\n      0x40\n      dup3\n      add\n      mload\n      dup2\n      0x02\n      add\n      exp(0x0100, 0x00)\n      dup2\n      sload\n      dup2\n      0xff\n      mul\n      not\n      and\n      swap1\n      dup4\n      iszero\n      iszero\n      mul\n      or\n      swap1\n      sstore\n      pop\n      swap1\n      pop\n      pop\n        /* \"contracts/21_struct2.sol\":314:524  function insert(uint index, string memory _name, uint _roll, bool _result ) public {... */\n      pop\n      pop\n      pop\n      pop\n      jump\t// out\n        /* \"contracts/21_struct2.sol\":532:646  function returnStudent(uint index) public view returns(Studentdata memory){... */\n    tag_18:\n        /* \"contracts/21_struct2.sol\":587:605  Studentdata memory */\n      tag_36\n      tag_37\n      jump\t// in\n    tag_36:\n        /* \"contracts/21_struct2.sol\":624:631  student */\n      0x00\n        /* \"contracts/21_struct2.sol\":632:637  index */\n      dup3\n        /* \"contracts/21_struct2.sol\":624:638  student[index] */\n      0x04\n      dup2\n      lt\n      tag_39\n      jumpi\n      tag_40\n      tag_32\n      jump\t// in\n    tag_40:\n    tag_39:\n      0x03\n      mul\n      add\n        /* \"contracts/21_struct2.sol\":617:638  return student[index] */\n      mload(0x40)\n      dup1\n      0x60\n      add\n      0x40\n      mstore\n      swap1\n      dup2\n      0x00\n      dup3\n      add\n      dup1\n      sload\n      tag_42\n      swap1\n      tag_24\n      jump\t// in\n    tag_42:\n      dup1\n      0x1f\n      add\n      0x20\n      dup1\n      swap2\n      div\n      mul\n      0x20\n      add\n      mload(0x40)\n      swap1\n      dup2\n      add\n      0x40\n      mstore\n      dup1\n      swap3\n      swap2\n      swap1\n      dup2\n      dup2\n      mstore\n      0x20\n      add\n      dup3\n      dup1\n      sload\n      tag_43\n      swap1\n      tag_24\n      jump\t// in\n    tag_43:\n      dup1\n      iszero\n      tag_44\n      jumpi\n      dup1\n      0x1f\n      lt\n      tag_45\n      jumpi\n      0x0100\n      dup1\n      dup4\n      sload\n      div\n      mul\n      dup4\n      mstore\n      swap2\n      0x20\n      add\n      swap2\n      jump(tag_44)\n    tag_45:\n      dup3\n      add\n      swap2\n      swap1\n      0x00\n      mstore\n      keccak256(0x00, 0x20)\n      swap1\n    tag_46:\n      dup2\n      sload\n      dup2\n      mstore\n      swap1\n      0x01\n      add\n      swap1\n      0x20\n      add\n      dup1\n      dup4\n      gt\n      tag_46\n      jumpi\n      dup3\n      swap1\n      sub\n      0x1f\n      and\n      dup3\n      add\n      swap2\n    tag_44:\n      pop\n      pop\n      pop\n      pop\n      pop\n      dup2\n      mstore\n      0x20\n      add\n      0x01\n      dup3\n      add\n      sload\n      dup2\n      mstore\n      0x20\n      add\n      0x02\n      dup3\n      add\n      0x00\n      swap1\n      sload\n      swap1\n      0x0100\n      exp\n      swap1\n      div\n      0xff\n      and\n      iszero\n      iszero\n      iszero\n      iszero\n      dup2\n      mstore\n      pop\n      pop\n      swap1\n      pop\n        /* \"contracts/21_struct2.sol\":532:646  function returnStudent(uint index) public view returns(Studentdata memory){... */\n      swap2\n      swap1\n      pop\n      jump\t// out\n    tag_37:\n      mload(0x40)\n      dup1\n      0x60\n      add\n      0x40\n      mstore\n      dup1\n      0x60\n      dup2\n      mstore\n      0x20\n      add\n      0x00\n      dup2\n      mstore\n      0x20\n      add\n      iszero(iszero(0x00))\n      dup2\n      mstore\n      pop\n      swap1\n      jump\t// out\n        /* \"#utility.yul\":7:82   */\n    tag_47:\n        /* \"#utility.yul\":40:46   */\n      0x00\n        /* \"#utility.yul\":73:75   */\n      0x40\n        /* \"#utility.yul\":67:76   */\n      mload\n        /* \"#utility.yul\":57:76   */\n      swap1\n      pop\n        /* \"#utility.yul\":7:82   */\n      swap1\n      jump\t// out\n        /* \"#utility.yul\":88:205   */\n    tag_48:\n        /* \"#utility.yul\":197:198   */\n      0x00\n        /* \"#utility.yul\":194:195   */\n      0x00\n        /* \"#utility.yul\":187:199   */\n      revert\n        /* \"#utility.yul\":211:328   */\n    tag_49:\n        /* \"#utility.yul\":320:321   */\n      0x00\n        /* \"#utility.yul\":317:318   */\n      0x00\n        /* \"#utility.yul\":310:322   */\n      revert\n        /* \"#utility.yul\":334:411   */\n    tag_50:\n        /* \"#utility.yul\":371:378   */\n      0x00\n        /* \"#utility.yul\":400:405   */\n      dup2\n        /* \"#utility.yul\":389:405   */\n      swap1\n      pop\n        /* \"#utility.yul\":334:411   */\n      swap2\n      swap1\n      pop\n      jump\t// out\n        /* \"#utility.yul\":417:539   */\n    tag_51:\n        /* \"#utility.yul\":490:514   */\n      tag_99\n        /* \"#utility.yul\":508:513   */\n      dup2\n        /* \"#utility.yul\":490:514   */\n      tag_50\n      jump\t// in\n    tag_99:\n        /* \"#utility.yul\":483:488   */\n      dup2\n        /* \"#utility.yul\":480:515   */\n      eq\n        /* \"#utility.yul\":470:533   */\n      tag_100\n      jumpi\n        /* \"#utility.yul\":529:530   */\n      0x00\n        /* \"#utility.yul\":526:527   */\n      0x00\n        /* \"#utility.yul\":519:531   */\n      revert\n        /* \"#utility.yul\":470:533   */\n    tag_100:\n        /* \"#utility.yul\":417:539   */\n      pop\n      jump\t// out\n        /* \"#utility.yul\":545:684   */\n    tag_52:\n        /* \"#utility.yul\":591:596   */\n      0x00\n        /* \"#utility.yul\":629:635   */\n      dup2\n        /* \"#utility.yul\":616:636   */\n      calldataload\n        /* \"#utility.yul\":607:636   */\n      swap1\n      pop\n        /* \"#utility.yul\":645:678   */\n      tag_102\n        /* \"#utility.yul\":672:677   */\n      dup2\n        /* \"#utility.yul\":645:678   */\n      tag_51\n      jump\t// in\n    tag_102:\n        /* \"#utility.yul\":545:684   */\n      swap3\n      swap2\n      pop\n      pop\n      jump\t// out\n        /* \"#utility.yul\":690:1019   */\n    tag_8:\n        /* \"#utility.yul\":749:755   */\n      0x00\n        /* \"#utility.yul\":798:800   */\n      0x20\n        /* \"#utility.yul\":786:795   */\n      dup3\n        /* \"#utility.yul\":777:784   */\n      dup5\n        /* \"#utility.yul\":773:796   */\n      sub\n        /* \"#utility.yul\":769:801   */\n      slt\n        /* \"#utility.yul\":766:885   */\n      iszero\n      tag_104\n      jumpi\n        /* \"#utility.yul\":804:883   */\n      tag_105\n      tag_48\n      jump\t// in\n    tag_105:\n        /* \"#utility.yul\":766:885   */\n    tag_104:\n        /* \"#utility.yul\":924:925   */\n      0x00\n        /* \"#utility.yul\":949:1002   */\n      tag_106\n        /* \"#utility.yul\":994:1001   */\n      dup5\n        /* \"#utility.yul\":985:991   */\n      dup3\n        /* \"#utility.yul\":974:983   */\n      dup6\n        /* \"#utility.yul\":970:992   */\n      add\n        /* \"#utility.yul\":949:1002   */\n      tag_52\n      jump\t// in\n    tag_106:\n        /* \"#utility.yul\":939:1002   */\n      swap2\n      pop\n        /* \"#utility.yul\":895:1012   */\n      pop\n        /* \"#utility.yul\":690:1019   */\n      swap3\n      swap2\n      pop\n      pop\n      jump\t// out\n        /* \"#utility.yul\":1025:1124   */\n    tag_53:\n        /* \"#utility.yul\":1077:1083   */\n      0x00\n        /* \"#utility.yul\":1111:1116   */\n      dup2\n        /* \"#utility.yul\":1105:1117   */\n      mload\n        /* \"#utility.yul\":1095:1117   */\n      swap1\n      pop\n        /* \"#utility.yul\":1025:1124   */\n      swap2\n      swap1\n      pop\n      jump\t// out\n        /* \"#utility.yul\":1130:1299   */\n    tag_54:\n        /* \"#utility.yul\":1214:1225   */\n      0x00\n        /* \"#utility.yul\":1248:1254   */\n      dup3\n        /* \"#utility.yul\":1243:1246   */\n      dup3\n        /* \"#utility.yul\":1236:1255   */\n      mstore\n        /* \"#utility.yul\":1288:1292   */\n      0x20\n        /* \"#utility.yul\":1283:1286   */\n      dup3\n        /* \"#utility.yul\":1279:1293   */\n      add\n        /* \"#utility.yul\":1264:1293   */\n      swap1\n      pop\n        /* \"#utility.yul\":1130:1299   */\n      swap3\n      swap2\n      pop\n      pop\n      jump\t// out\n        /* \"#utility.yul\":1305:1444   */\n    tag_55:\n        /* \"#utility.yul\":1394:1400   */\n      dup3\n        /* \"#utility.yul\":1389:1392   */\n      dup2\n        /* \"#utility.yul\":1384:1387   */\n      dup4\n        /* \"#utility.yul\":1378:1401   */\n      mcopy\n        /* \"#utility.yul\":1435:1436   */\n      0x00\n        /* \"#utility.yul\":1426:1432   */\n      dup4\n        /* \"#utility.yul\":1421:1424   */\n      dup4\n        /* \"#utility.yul\":1417:1433   */\n      add\n        /* \"#utility.yul\":1410:1437   */\n      mstore\n        /* \"#utility.yul\":1305:1444   */\n      pop\n      pop\n      pop\n      jump\t// out\n        /* \"#utility.yul\":1450:1552   */\n    tag_56:\n        /* \"#utility.yul\":1491:1497   */\n      0x00\n        /* \"#utility.yul\":1542:1544   */\n      0x1f\n        /* \"#utility.yul\":1538:1545   */\n      not\n        /* \"#utility.yul\":1533:1535   */\n      0x1f\n        /* \"#utility.yul\":1526:1531   */\n      dup4\n        /* \"#utility.yul\":1522:1536   */\n      add\n        /* \"#utility.yul\":1518:1546   */\n      and\n        /* \"#utility.yul\":1508:1546   */\n      swap1\n      pop\n        /* \"#utility.yul\":1450:1552   */\n      swap2\n      swap1\n      pop\n      jump\t// out\n        /* \"#utility.yul\":1558:1935   */\n    tag_57:\n        /* \"#utility.yul\":1646:1649   */\n      0x00\n        /* \"#utility.yul\":1674:1713   */\n      tag_112\n        /* \"#utility.yul\":1707:1712   */\n      dup3\n        /* \"#utility.yul\":1674:1713   */\n      tag_53\n      jump\t// in\n    tag_112:\n        /* \"#utility.yul\":1729:1800   */\n      tag_113\n        /* \"#utility.yul\":1793:1799   */\n      dup2\n        /* \"#utility.yul\":1788:1791   */\n      dup6\n        /* \"#utility.yul\":1729:1800   */\n      tag_54\n      jump\t// in\n    tag_113:\n        /* \"#utility.yul\":1722:1800   */\n      swap4\n      pop\n        /* \"#utility.yul\":1809:1874   */\n      tag_114\n        /* \"#utility.yul\":1867:1873   */\n      dup2\n        /* \"#utility.yul\":1862:1865   */\n      dup6\n        /* \"#utility.yul\":1855:1859   */\n      0x20\n        /* \"#utility.yul\":1848:1853   */\n      dup7\n        /* \"#utility.yul\":1844:1860   */\n      add\n        /* \"#utility.yul\":1809:1874   */\n      tag_55\n      jump\t// in\n    tag_114:\n        /* \"#utility.yul\":1899:1928   */\n      tag_115\n        /* \"#utility.yul\":1921:1927   */\n      dup2\n        /* \"#utility.yul\":1899:1928   */\n      tag_56\n      jump\t// in\n    tag_115:\n        /* \"#utility.yul\":1894:1897   */\n      dup5\n        /* \"#utility.yul\":1890:1929   */\n      add\n        /* \"#utility.yul\":1883:1929   */\n      swap2\n      pop\n        /* \"#utility.yul\":1650:1935   */\n      pop\n        /* \"#utility.yul\":1558:1935   */\n      swap3\n      swap2\n      pop\n      pop\n      jump\t// out\n        /* \"#utility.yul\":1941:2059   */\n    tag_58:\n        /* \"#utility.yul\":2028:2052   */\n      tag_117\n        /* \"#utility.yul\":2046:2051   */\n      dup2\n        /* \"#utility.yul\":2028:2052   */\n      tag_50\n      jump\t// in\n    tag_117:\n        /* \"#utility.yul\":2023:2026   */\n      dup3\n        /* \"#utility.yul\":2016:2053   */\n      mstore\n        /* \"#utility.yul\":1941:2059   */\n      pop\n      pop\n      jump\t// out\n        /* \"#utility.yul\":2065:2155   */\n    tag_59:\n        /* \"#utility.yul\":2099:2106   */\n      0x00\n        /* \"#utility.yul\":2142:2147   */\n      dup2\n        /* \"#utility.yul\":2135:2148   */\n      iszero\n        /* \"#utility.yul\":2128:2149   */\n      iszero\n        /* \"#utility.yul\":2117:2149   */\n      swap1\n      pop\n        /* \"#utility.yul\":2065:2155   */\n      swap2\n      swap1\n      pop\n      jump\t// out\n        /* \"#utility.yul\":2161:2270   */\n    tag_60:\n        /* \"#utility.yul\":2242:2263   */\n      tag_120\n        /* \"#utility.yul\":2257:2262   */\n      dup2\n        /* \"#utility.yul\":2242:2263   */\n      tag_59\n      jump\t// in\n    tag_120:\n        /* \"#utility.yul\":2237:2240   */\n      dup3\n        /* \"#utility.yul\":2230:2264   */\n      mstore\n        /* \"#utility.yul\":2161:2270   */\n      pop\n      pop\n      jump\t// out\n        /* \"#utility.yul\":2276:2797   */\n    tag_11:\n        /* \"#utility.yul\":2439:2443   */\n      0x00\n        /* \"#utility.yul\":2477:2479   */\n      0x60\n        /* \"#utility.yul\":2466:2475   */\n      dup3\n        /* \"#utility.yul\":2462:2480   */\n      add\n        /* \"#utility.yul\":2454:2480   */\n      swap1\n      pop\n        /* \"#utility.yul\":2526:2535   */\n      dup2\n        /* \"#utility.yul\":2520:2524   */\n      dup2\n        /* \"#utility.yul\":2516:2536   */\n      sub\n        /* \"#utility.yul\":2512:2513   */\n      0x00\n        /* \"#utility.yul\":2501:2510   */\n      dup4\n        /* \"#utility.yul\":2497:2514   */\n      add\n        /* \"#utility.yul\":2490:2537   */\n      mstore\n        /* \"#utility.yul\":2554:2632   */\n      tag_122\n        /* \"#utility.yul\":2627:2631   */\n      dup2\n        /* \"#utility.yul\":2618:2624   */\n      dup7\n        /* \"#utility.yul\":2554:2632   */\n      tag_57\n      jump\t// in\n    tag_122:\n        /* \"#utility.yul\":2546:2632   */\n      swap1\n      pop\n        /* \"#utility.yul\":2642:2714   */\n      tag_123\n        /* \"#utility.yul\":2710:2712   */\n      0x20\n        /* \"#utility.yul\":2699:2708   */\n      dup4\n        /* \"#utility.yul\":2695:2713   */\n      add\n        /* \"#utility.yul\":2686:2692   */\n      dup6\n        /* \"#utility.yul\":2642:2714   */\n      tag_58\n      jump\t// in\n    tag_123:\n        /* \"#utility.yul\":2724:2790   */\n      tag_124\n        /* \"#utility.yul\":2786:2788   */\n      0x40\n        /* \"#utility.yul\":2775:2784   */\n      dup4\n        /* \"#utility.yul\":2771:2789   */\n      add\n        /* \"#utility.yul\":2762:2768   */\n      dup5\n        /* \"#utility.yul\":2724:2790   */\n      tag_60\n      jump\t// in\n    tag_124:\n        /* \"#utility.yul\":2276:2797   */\n      swap5\n      swap4\n      pop\n      pop\n      pop\n      pop\n      jump\t// out\n        /* \"#utility.yul\":2803:2920   */\n    tag_61:\n        /* \"#utility.yul\":2912:2913   */\n      0x00\n        /* \"#utility.yul\":2909:2910   */\n      0x00\n        /* \"#utility.yul\":2902:2914   */\n      revert\n        /* \"#utility.yul\":2926:3043   */\n    tag_62:\n        /* \"#utility.yul\":3035:3036   */\n      0x00\n        /* \"#utility.yul\":3032:3033   */\n      0x00\n        /* \"#utility.yul\":3025:3037   */\n      revert\n        /* \"#utility.yul\":3049:3229   */\n    tag_63:\n        /* \"#utility.yul\":3097:3174   */\n      0x4e487b7100000000000000000000000000000000000000000000000000000000\n        /* \"#utility.yul\":3094:3095   */\n      0x00\n        /* \"#utility.yul\":3087:3175   */\n      mstore\n        /* \"#utility.yul\":3194:3198   */\n      0x41\n        /* \"#utility.yul\":3191:3192   */\n      0x04\n        /* \"#utility.yul\":3184:3199   */\n      mstore\n        /* \"#utility.yul\":3218:3222   */\n      0x24\n        /* \"#utility.yul\":3215:3216   */\n      0x00\n        /* \"#utility.yul\":3208:3223   */\n      revert\n        /* \"#utility.yul\":3235:3516   */\n    tag_64:\n        /* \"#utility.yul\":3318:3345   */\n      tag_129\n        /* \"#utility.yul\":3340:3344   */\n      dup3\n        /* \"#utility.yul\":3318:3345   */\n      tag_56\n      jump\t// in\n    tag_129:\n        /* \"#utility.yul\":3310:3316   */\n      dup2\n        /* \"#utility.yul\":3306:3346   */\n      add\n        /* \"#utility.yul\":3448:3454   */\n      dup2\n        /* \"#utility.yul\":3436:3446   */\n      dup2\n        /* \"#utility.yul\":3433:3455   */\n      lt\n        /* \"#utility.yul\":3412:3430   */\n      0xffffffffffffffff\n        /* \"#utility.yul\":3400:3410   */\n      dup3\n        /* \"#utility.yul\":3397:3431   */\n      gt\n        /* \"#utility.yul\":3394:3456   */\n      or\n        /* \"#utility.yul\":3391:3479   */\n      iszero\n      tag_130\n      jumpi\n        /* \"#utility.yul\":3459:3477   */\n      tag_131\n      tag_63\n      jump\t// in\n    tag_131:\n        /* \"#utility.yul\":3391:3479   */\n    tag_130:\n        /* \"#utility.yul\":3499:3509   */\n      dup1\n        /* \"#utility.yul\":3495:3497   */\n      0x40\n        /* \"#utility.yul\":3488:3510   */\n      mstore\n        /* \"#utility.yul\":3278:3516   */\n      pop\n        /* \"#utility.yul\":3235:3516   */\n      pop\n      pop\n      jump\t// out\n        /* \"#utility.yul\":3522:3651   */\n    tag_65:\n        /* \"#utility.yul\":3556:3562   */\n      0x00\n        /* \"#utility.yul\":3583:3603   */\n      tag_133\n      tag_47\n      jump\t// in\n    tag_133:\n        /* \"#utility.yul\":3573:3603   */\n      swap1\n      pop\n        /* \"#utility.yul\":3612:3645   */\n      tag_134\n        /* \"#utility.yul\":3640:3644   */\n      dup3\n        /* \"#utility.yul\":3632:3638   */\n      dup3\n        /* \"#utility.yul\":3612:3645   */\n      tag_64\n      jump\t// in\n    tag_134:\n        /* \"#utility.yul\":3522:3651   */\n      swap2\n      swap1\n      pop\n      jump\t// out\n        /* \"#utility.yul\":3657:3965   */\n    tag_66:\n        /* \"#utility.yul\":3719:3723   */\n      0x00\n        /* \"#utility.yul\":3809:3827   */\n      0xffffffffffffffff\n        /* \"#utility.yul\":3801:3807   */\n      dup3\n        /* \"#utility.yul\":3798:3828   */\n      gt\n        /* \"#utility.yul\":3795:3851   */\n      iszero\n      tag_136\n      jumpi\n        /* \"#utility.yul\":3831:3849   */\n      tag_137\n      tag_63\n      jump\t// in\n    tag_137:\n        /* \"#utility.yul\":3795:3851   */\n    tag_136:\n        /* \"#utility.yul\":3869:3898   */\n      tag_138\n        /* \"#utility.yul\":3891:3897   */\n      dup3\n        /* \"#utility.yul\":3869:3898   */\n      tag_56\n      jump\t// in\n    tag_138:\n        /* \"#utility.yul\":3861:3898   */\n      swap1\n      pop\n        /* \"#utility.yul\":3953:3957   */\n      0x20\n        /* \"#utility.yul\":3947:3951   */\n      dup2\n        /* \"#utility.yul\":3943:3958   */\n      add\n        /* \"#utility.yul\":3935:3958   */\n      swap1\n      pop\n        /* \"#utility.yul\":3657:3965   */\n      swap2\n      swap1\n      pop\n      jump\t// out\n        /* \"#utility.yul\":3971:4119   */\n    tag_67:\n        /* \"#utility.yul\":4069:4075   */\n      dup3\n        /* \"#utility.yul\":4064:4067   */\n      dup2\n        /* \"#utility.yul\":4059:4062   */\n      dup4\n        /* \"#utility.yul\":4046:4076   */\n      calldatacopy\n        /* \"#utility.yul\":4110:4111   */\n      0x00\n        /* \"#utility.yul\":4101:4107   */\n      dup4\n        /* \"#utility.yul\":4096:4099   */\n      dup4\n        /* \"#utility.yul\":4092:4108   */\n      add\n        /* \"#utility.yul\":4085:4112   */\n      mstore\n        /* \"#utility.yul\":3971:4119   */\n      pop\n      pop\n      pop\n      jump\t// out\n        /* \"#utility.yul\":4125:4550   */\n    tag_68:\n        /* \"#utility.yul\":4203:4208   */\n      0x00\n        /* \"#utility.yul\":4228:4294   */\n      tag_141\n        /* \"#utility.yul\":4244:4293   */\n      tag_142\n        /* \"#utility.yul\":4286:4292   */\n      dup5\n        /* \"#utility.yul\":4244:4293   */\n      tag_66\n      jump\t// in\n    tag_142:\n        /* \"#utility.yul\":4228:4294   */\n      tag_65\n      jump\t// in\n    tag_141:\n        /* \"#utility.yul\":4219:4294   */\n      swap1\n      pop\n        /* \"#utility.yul\":4317:4323   */\n      dup3\n        /* \"#utility.yul\":4310:4315   */\n      dup2\n        /* \"#utility.yul\":4303:4324   */\n      mstore\n        /* \"#utility.yul\":4355:4359   */\n      0x20\n        /* \"#utility.yul\":4348:4353   */\n      dup2\n        /* \"#utility.yul\":4344:4360   */\n      add\n        /* \"#utility.yul\":4393:4396   */\n      dup5\n        /* \"#utility.yul\":4384:4390   */\n      dup5\n        /* \"#utility.yul\":4379:4382   */\n      dup5\n        /* \"#utility.yul\":4375:4391   */\n      add\n        /* \"#utility.yul\":4372:4397   */\n      gt\n        /* \"#utility.yul\":4369:4481   */\n      iszero\n      tag_143\n      jumpi\n        /* \"#utility.yul\":4400:4479   */\n      tag_144\n      tag_62\n      jump\t// in\n    tag_144:\n        /* \"#utility.yul\":4369:4481   */\n    tag_143:\n        /* \"#utility.yul\":4490:4544   */\n      tag_145\n        /* \"#utility.yul\":4537:4543   */\n      dup5\n        /* \"#utility.yul\":4532:4535   */\n      dup3\n        /* \"#utility.yul\":4527:4530   */\n      dup6\n        /* \"#utility.yul\":4490:4544   */\n      tag_67\n      jump\t// in\n    tag_145:\n        /* \"#utility.yul\":4209:4550   */\n      pop\n        /* \"#utility.yul\":4125:4550   */\n      swap4\n      swap3\n      pop\n      pop\n      pop\n      jump\t// out\n        /* \"#utility.yul\":4570:4910   */\n    tag_69:\n        /* \"#utility.yul\":4626:4631   */\n      0x00\n        /* \"#utility.yul\":4675:4678   */\n      dup3\n        /* \"#utility.yul\":4668:4672   */\n      0x1f\n        /* \"#utility.yul\":4660:4666   */\n      dup4\n        /* \"#utility.yul\":4656:4673   */\n      add\n        /* \"#utility.yul\":4652:4679   */\n      slt\n        /* \"#utility.yul\":4642:4764   */\n      tag_147\n      jumpi\n        /* \"#utility.yul\":4683:4762   */\n      tag_148\n      tag_61\n      jump\t// in\n    tag_148:\n        /* \"#utility.yul\":4642:4764   */\n    tag_147:\n        /* \"#utility.yul\":4800:4806   */\n      dup2\n        /* \"#utility.yul\":4787:4807   */\n      calldataload\n        /* \"#utility.yul\":4825:4904   */\n      tag_149\n        /* \"#utility.yul\":4900:4903   */\n      dup5\n        /* \"#utility.yul\":4892:4898   */\n      dup3\n        /* \"#utility.yul\":4885:4889   */\n      0x20\n        /* \"#utility.yul\":4877:4883   */\n      dup7\n        /* \"#utility.yul\":4873:4890   */\n      add\n        /* \"#utility.yul\":4825:4904   */\n      tag_68\n      jump\t// in\n    tag_149:\n        /* \"#utility.yul\":4816:4904   */\n      swap2\n      pop\n        /* \"#utility.yul\":4632:4910   */\n      pop\n        /* \"#utility.yul\":4570:4910   */\n      swap3\n      swap2\n      pop\n      pop\n      jump\t// out\n        /* \"#utility.yul\":4916:5032   */\n    tag_70:\n        /* \"#utility.yul\":4986:5007   */\n      tag_151\n        /* \"#utility.yul\":5001:5006   */\n      dup2\n        /* \"#utility.yul\":4986:5007   */\n      tag_59\n      jump\t// in\n    tag_151:\n        /* \"#utility.yul\":4979:4984   */\n      dup2\n        /* \"#utility.yul\":4976:5008   */\n      eq\n        /* \"#utility.yul\":4966:5026   */\n      tag_152\n      jumpi\n        /* \"#utility.yul\":5022:5023   */\n      0x00\n        /* \"#utility.yul\":5019:5020   */\n      0x00\n        /* \"#utility.yul\":5012:5024   */\n      revert\n        /* \"#utility.yul\":4966:5026   */\n    tag_152:\n        /* \"#utility.yul\":4916:5032   */\n      pop\n      jump\t// out\n        /* \"#utility.yul\":5038:5171   */\n    tag_71:\n        /* \"#utility.yul\":5081:5086   */\n      0x00\n        /* \"#utility.yul\":5119:5125   */\n      dup2\n        /* \"#utility.yul\":5106:5126   */\n      calldataload\n        /* \"#utility.yul\":5097:5126   */\n      swap1\n      pop\n        /* \"#utility.yul\":5135:5165   */\n      tag_154\n        /* \"#utility.yul\":5159:5164   */\n      dup2\n        /* \"#utility.yul\":5135:5165   */\n      tag_70\n      jump\t// in\n    tag_154:\n        /* \"#utility.yul\":5038:5171   */\n      swap3\n      swap2\n      pop\n      pop\n      jump\t// out\n        /* \"#utility.yul\":5177:6116   */\n    tag_14:\n        /* \"#utility.yul\":5270:5276   */\n      0x00\n        /* \"#utility.yul\":5278:5284   */\n      0x00\n        /* \"#utility.yul\":5286:5292   */\n      0x00\n        /* \"#utility.yul\":5294:5300   */\n      0x00\n        /* \"#utility.yul\":5343:5346   */\n      0x80\n        /* \"#utility.yul\":5331:5340   */\n      dup6\n        /* \"#utility.yul\":5322:5329   */\n      dup8\n        /* \"#utility.yul\":5318:5341   */\n      sub\n        /* \"#utility.yul\":5314:5347   */\n      slt\n        /* \"#utility.yul\":5311:5431   */\n      iszero\n      tag_156\n      jumpi\n        /* \"#utility.yul\":5350:5429   */\n      tag_157\n      tag_48\n      jump\t// in\n    tag_157:\n        /* \"#utility.yul\":5311:5431   */\n    tag_156:\n        /* \"#utility.yul\":5470:5471   */\n      0x00\n        /* \"#utility.yul\":5495:5548   */\n      tag_158\n        /* \"#utility.yul\":5540:5547   */\n      dup8\n        /* \"#utility.yul\":5531:5537   */\n      dup3\n        /* \"#utility.yul\":5520:5529   */\n      dup9\n        /* \"#utility.yul\":5516:5538   */\n      add\n        /* \"#utility.yul\":5495:5548   */\n      tag_52\n      jump\t// in\n    tag_158:\n        /* \"#utility.yul\":5485:5548   */\n      swap5\n      pop\n        /* \"#utility.yul\":5441:5558   */\n      pop\n        /* \"#utility.yul\":5625:5627   */\n      0x20\n        /* \"#utility.yul\":5614:5623   */\n      dup6\n        /* \"#utility.yul\":5610:5628   */\n      add\n        /* \"#utility.yul\":5597:5629   */\n      calldataload\n        /* \"#utility.yul\":5656:5674   */\n      0xffffffffffffffff\n        /* \"#utility.yul\":5648:5654   */\n      dup2\n        /* \"#utility.yul\":5645:5675   */\n      gt\n        /* \"#utility.yul\":5642:5759   */\n      iszero\n      tag_159\n      jumpi\n        /* \"#utility.yul\":5678:5757   */\n      tag_160\n      tag_49\n      jump\t// in\n    tag_160:\n        /* \"#utility.yul\":5642:5759   */\n    tag_159:\n        /* \"#utility.yul\":5783:5846   */\n      tag_161\n        /* \"#utility.yul\":5838:5845   */\n      dup8\n        /* \"#utility.yul\":5829:5835   */\n      dup3\n        /* \"#utility.yul\":5818:5827   */\n      dup9\n        /* \"#utility.yul\":5814:5836   */\n      add\n        /* \"#utility.yul\":5783:5846   */\n      tag_69\n      jump\t// in\n    tag_161:\n        /* \"#utility.yul\":5773:5846   */\n      swap4\n      pop\n        /* \"#utility.yul\":5568:5856   */\n      pop\n        /* \"#utility.yul\":5895:5897   */\n      0x40\n        /* \"#utility.yul\":5921:5974   */\n      tag_162\n        /* \"#utility.yul\":5966:5973   */\n      dup8\n        /* \"#utility.yul\":5957:5963   */\n      dup3\n        /* \"#utility.yul\":5946:5955   */\n      dup9\n        /* \"#utility.yul\":5942:5964   */\n      add\n        /* \"#utility.yul\":5921:5974   */\n      tag_52\n      jump\t// in\n    tag_162:\n        /* \"#utility.yul\":5911:5974   */\n      swap3\n      pop\n        /* \"#utility.yul\":5866:5984   */\n      pop\n        /* \"#utility.yul\":6023:6025   */\n      0x60\n        /* \"#utility.yul\":6049:6099   */\n      tag_163\n        /* \"#utility.yul\":6091:6098   */\n      dup8\n        /* \"#utility.yul\":6082:6088   */\n      dup3\n        /* \"#utility.yul\":6071:6080   */\n      dup9\n        /* \"#utility.yul\":6067:6089   */\n      add\n        /* \"#utility.yul\":6049:6099   */\n      tag_71\n      jump\t// in\n    tag_163:\n        /* \"#utility.yul\":6039:6099   */\n      swap2\n      pop\n        /* \"#utility.yul\":5994:6109   */\n      pop\n        /* \"#utility.yul\":5177:6116   */\n      swap3\n      swap6\n      swap2\n      swap5\n      pop\n      swap3\n      pop\n      jump\t// out\n        /* \"#utility.yul\":6122:6281   */\n    tag_72:\n        /* \"#utility.yul\":6196:6207   */\n      0x00\n        /* \"#utility.yul\":6230:6236   */\n      dup3\n        /* \"#utility.yul\":6225:6228   */\n      dup3\n        /* \"#utility.yul\":6218:6237   */\n      mstore\n        /* \"#utility.yul\":6270:6274   */\n      0x20\n        /* \"#utility.yul\":6265:6268   */\n      dup3\n        /* \"#utility.yul\":6261:6275   */\n      add\n        /* \"#utility.yul\":6246:6275   */\n      swap1\n      pop\n        /* \"#utility.yul\":6122:6281   */\n      swap3\n      swap2\n      pop\n      pop\n      jump\t// out\n        /* \"#utility.yul\":6287:6644   */\n    tag_73:\n        /* \"#utility.yul\":6365:6368   */\n      0x00\n        /* \"#utility.yul\":6393:6432   */\n      tag_166\n        /* \"#utility.yul\":6426:6431   */\n      dup3\n        /* \"#utility.yul\":6393:6432   */\n      tag_53\n      jump\t// in\n    tag_166:\n        /* \"#utility.yul\":6448:6509   */\n      tag_167\n        /* \"#utility.yul\":6502:6508   */\n      dup2\n        /* \"#utility.yul\":6497:6500   */\n      dup6\n        /* \"#utility.yul\":6448:6509   */\n      tag_72\n      jump\t// in\n    tag_167:\n        /* \"#utility.yul\":6441:6509   */\n      swap4\n      pop\n        /* \"#utility.yul\":6518:6583   */\n      tag_168\n        /* \"#utility.yul\":6576:6582   */\n      dup2\n        /* \"#utility.yul\":6571:6574   */\n      dup6\n        /* \"#utility.yul\":6564:6568   */\n      0x20\n        /* \"#utility.yul\":6557:6562   */\n      dup7\n        /* \"#utility.yul\":6553:6569   */\n      add\n        /* \"#utility.yul\":6518:6583   */\n      tag_55\n      jump\t// in\n    tag_168:\n        /* \"#utility.yul\":6608:6637   */\n      tag_169\n        /* \"#utility.yul\":6630:6636   */\n      dup2\n        /* \"#utility.yul\":6608:6637   */\n      tag_56\n      jump\t// in\n    tag_169:\n        /* \"#utility.yul\":6603:6606   */\n      dup5\n        /* \"#utility.yul\":6599:6638   */\n      add\n        /* \"#utility.yul\":6592:6638   */\n      swap2\n      pop\n        /* \"#utility.yul\":6369:6644   */\n      pop\n        /* \"#utility.yul\":6287:6644   */\n      swap3\n      swap2\n      pop\n      pop\n      jump\t// out\n        /* \"#utility.yul\":6650:6758   */\n    tag_74:\n        /* \"#utility.yul\":6727:6751   */\n      tag_171\n        /* \"#utility.yul\":6745:6750   */\n      dup2\n        /* \"#utility.yul\":6727:6751   */\n      tag_50\n      jump\t// in\n    tag_171:\n        /* \"#utility.yul\":6722:6725   */\n      dup3\n        /* \"#utility.yul\":6715:6752   */\n      mstore\n        /* \"#utility.yul\":6650:6758   */\n      pop\n      pop\n      jump\t// out\n        /* \"#utility.yul\":6764:6863   */\n    tag_75:\n        /* \"#utility.yul\":6835:6856   */\n      tag_173\n        /* \"#utility.yul\":6850:6855   */\n      dup2\n        /* \"#utility.yul\":6835:6856   */\n      tag_59\n      jump\t// in\n    tag_173:\n        /* \"#utility.yul\":6830:6833   */\n      dup3\n        /* \"#utility.yul\":6823:6857   */\n      mstore\n        /* \"#utility.yul\":6764:6863   */\n      pop\n      pop\n      jump\t// out\n        /* \"#utility.yul\":6927:7705   */\n    tag_76:\n        /* \"#utility.yul\":7048:7051   */\n      0x00\n        /* \"#utility.yul\":7084:7088   */\n      0x60\n        /* \"#utility.yul\":7079:7082   */\n      dup4\n        /* \"#utility.yul\":7075:7089   */\n      add\n        /* \"#utility.yul\":7171:7175   */\n      0x00\n        /* \"#utility.yul\":7164:7169   */\n      dup4\n        /* \"#utility.yul\":7160:7176   */\n      add\n        /* \"#utility.yul\":7154:7177   */\n      mload\n        /* \"#utility.yul\":7224:7227   */\n      dup5\n        /* \"#utility.yul\":7218:7222   */\n      dup3\n        /* \"#utility.yul\":7214:7228   */\n      sub\n        /* \"#utility.yul\":7207:7211   */\n      0x00\n        /* \"#utility.yul\":7202:7205   */\n      dup7\n        /* \"#utility.yul\":7198:7212   */\n      add\n        /* \"#utility.yul\":7191:7229   */\n      mstore\n        /* \"#utility.yul\":7250:7323   */\n      tag_175\n        /* \"#utility.yul\":7318:7322   */\n      dup3\n        /* \"#utility.yul\":7304:7316   */\n      dup3\n        /* \"#utility.yul\":7250:7323   */\n      tag_73\n      jump\t// in\n    tag_175:\n        /* \"#utility.yul\":7242:7323   */\n      swap2\n      pop\n        /* \"#utility.yul\":7099:7334   */\n      pop\n        /* \"#utility.yul\":7416:7420   */\n      0x20\n        /* \"#utility.yul\":7409:7414   */\n      dup4\n        /* \"#utility.yul\":7405:7421   */\n      add\n        /* \"#utility.yul\":7399:7422   */\n      mload\n        /* \"#utility.yul\":7435:7498   */\n      tag_176\n        /* \"#utility.yul\":7492:7496   */\n      0x20\n        /* \"#utility.yul\":7487:7490   */\n      dup7\n        /* \"#utility.yul\":7483:7497   */\n      add\n        /* \"#utility.yul\":7469:7481   */\n      dup3\n        /* \"#utility.yul\":7435:7498   */\n      tag_74\n      jump\t// in\n    tag_176:\n        /* \"#utility.yul\":7344:7508   */\n      pop\n        /* \"#utility.yul\":7592:7596   */\n      0x40\n        /* \"#utility.yul\":7585:7590   */\n      dup4\n        /* \"#utility.yul\":7581:7597   */\n      add\n        /* \"#utility.yul\":7575:7598   */\n      mload\n        /* \"#utility.yul\":7611:7668   */\n      tag_177\n        /* \"#utility.yul\":7662:7666   */\n      0x40\n        /* \"#utility.yul\":7657:7660   */\n      dup7\n        /* \"#utility.yul\":7653:7667   */\n      add\n        /* \"#utility.yul\":7639:7651   */\n      dup3\n        /* \"#utility.yul\":7611:7668   */\n      tag_75\n      jump\t// in\n    tag_177:\n        /* \"#utility.yul\":7518:7678   */\n      pop\n        /* \"#utility.yul\":7695:7699   */\n      dup1\n        /* \"#utility.yul\":7688:7699   */\n      swap2\n      pop\n        /* \"#utility.yul\":7053:7705   */\n      pop\n        /* \"#utility.yul\":6927:7705   */\n      swap3\n      swap2\n      pop\n      pop\n      jump\t// out\n        /* \"#utility.yul\":7711:8088   */\n    tag_20:\n        /* \"#utility.yul\":7856:7860   */\n      0x00\n        /* \"#utility.yul\":7894:7896   */\n      0x20\n        /* \"#utility.yul\":7883:7892   */\n      dup3\n        /* \"#utility.yul\":7879:7897   */\n      add\n        /* \"#utility.yul\":7871:7897   */\n      swap1\n      pop\n        /* \"#utility.yul\":7943:7952   */\n      dup2\n        /* \"#utility.yul\":7937:7941   */\n      dup2\n        /* \"#utility.yul\":7933:7953   */\n      sub\n        /* \"#utility.yul\":7929:7930   */\n      0x00\n        /* \"#utility.yul\":7918:7927   */\n      dup4\n        /* \"#utility.yul\":7914:7931   */\n      add\n        /* \"#utility.yul\":7907:7954   */\n      mstore\n        /* \"#utility.yul\":7971:8081   */\n      tag_179\n        /* \"#utility.yul\":8076:8080   */\n      dup2\n        /* \"#utility.yul\":8067:8073   */\n      dup5\n        /* \"#utility.yul\":7971:8081   */\n      tag_76\n      jump\t// in\n    tag_179:\n        /* \"#utility.yul\":7963:8081   */\n      swap1\n      pop\n        /* \"#utility.yul\":7711:8088   */\n      swap3\n      swap2\n      pop\n      pop\n      jump\t// out\n        /* \"#utility.yul\":8094:8274   */\n    tag_77:\n        /* \"#utility.yul\":8142:8219   */\n      0x4e487b7100000000000000000000000000000000000000000000000000000000\n        /* \"#utility.yul\":8139:8140   */\n      0x00\n        /* \"#utility.yul\":8132:8220   */\n      mstore\n        /* \"#utility.yul\":8239:8243   */\n      0x22\n        /* \"#utility.yul\":8236:8237   */\n      0x04\n        /* \"#utility.yul\":8229:8244   */\n      mstore\n        /* \"#utility.yul\":8263:8267   */\n      0x24\n        /* \"#utility.yul\":8260:8261   */\n      0x00\n        /* \"#utility.yul\":8253:8268   */\n      revert\n        /* \"#utility.yul\":8280:8600   */\n    tag_24:\n        /* \"#utility.yul\":8324:8330   */\n      0x00\n        /* \"#utility.yul\":8361:8362   */\n      0x02\n        /* \"#utility.yul\":8355:8359   */\n      dup3\n        /* \"#utility.yul\":8351:8363   */\n      div\n        /* \"#utility.yul\":8341:8363   */\n      swap1\n      pop\n        /* \"#utility.yul\":8408:8409   */\n      0x01\n        /* \"#utility.yul\":8402:8406   */\n      dup3\n        /* \"#utility.yul\":8398:8410   */\n      and\n        /* \"#utility.yul\":8429:8447   */\n      dup1\n        /* \"#utility.yul\":8419:8500   */\n      tag_182\n      jumpi\n        /* \"#utility.yul\":8485:8489   */\n      0x7f\n        /* \"#utility.yul\":8477:8483   */\n      dup3\n        /* \"#utility.yul\":8473:8490   */\n      and\n        /* \"#utility.yul\":8463:8490   */\n      swap2\n      pop\n        /* \"#utility.yul\":8419:8500   */\n    tag_182:\n        /* \"#utility.yul\":8547:8549   */\n      0x20\n        /* \"#utility.yul\":8539:8545   */\n      dup3\n        /* \"#utility.yul\":8536:8550   */\n      lt\n        /* \"#utility.yul\":8516:8534   */\n      dup2\n        /* \"#utility.yul\":8513:8551   */\n      sub\n        /* \"#utility.yul\":8510:8594   */\n      tag_183\n      jumpi\n        /* \"#utility.yul\":8566:8584   */\n      tag_184\n      tag_77\n      jump\t// in\n    tag_184:\n        /* \"#utility.yul\":8510:8594   */\n    tag_183:\n        /* \"#utility.yul\":8331:8600   */\n      pop\n        /* \"#utility.yul\":8280:8600   */\n      swap2\n      swap1\n      pop\n      jump\t// out\n        /* \"#utility.yul\":8606:8786   */\n    tag_32:\n        /* \"#utility.yul\":8654:8731   */\n      0x4e487b7100000000000000000000000000000000000000000000000000000000\n        /* \"#utility.yul\":8651:8652   */\n      0x00\n        /* \"#utility.yul\":8644:8732   */\n      mstore\n        /* \"#utility.yul\":8751:8755   */\n      0x32\n        /* \"#utility.yul\":8748:8749   */\n      0x04\n        /* \"#utility.yul\":8741:8756   */\n      mstore\n        /* \"#utility.yul\":8775:8779   */\n      0x24\n        /* \"#utility.yul\":8772:8773   */\n      0x00\n        /* \"#utility.yul\":8765:8780   */\n      revert\n        /* \"#utility.yul\":8792:8933   */\n    tag_78:\n        /* \"#utility.yul\":8841:8845   */\n      0x00\n        /* \"#utility.yul\":8864:8867   */\n      dup2\n        /* \"#utility.yul\":8856:8867   */\n      swap1\n      pop\n        /* \"#utility.yul\":8887:8890   */\n      dup2\n        /* \"#utility.yul\":8884:8885   */\n      0x00\n        /* \"#utility.yul\":8877:8891   */\n      mstore\n        /* \"#utility.yul\":8921:8925   */\n      0x20\n        /* \"#utility.yul\":8918:8919   */\n      0x00\n        /* \"#utility.yul\":8908:8926   */\n      keccak256\n        /* \"#utility.yul\":8900:8926   */\n      swap1\n      pop\n        /* \"#utility.yul\":8792:8933   */\n      swap2\n      swap1\n      pop\n      jump\t// out\n        /* \"#utility.yul\":8939:9032   */\n    tag_79:\n        /* \"#utility.yul\":8976:8982   */\n      0x00\n        /* \"#utility.yul\":9023:9025   */\n      0x20\n        /* \"#utility.yul\":9018:9020   */\n      0x1f\n        /* \"#utility.yul\":9011:9016   */\n      dup4\n        /* \"#utility.yul\":9007:9021   */\n      add\n        /* \"#utility.yul\":9003:9026   */\n      div\n        /* \"#utility.yul\":8993:9026   */\n      swap1\n      pop\n        /* \"#utility.yul\":8939:9032   */\n      swap2\n      swap1\n      pop\n      jump\t// out\n        /* \"#utility.yul\":9038:9145   */\n    tag_80:\n        /* \"#utility.yul\":9082:9090   */\n      0x00\n        /* \"#utility.yul\":9132:9137   */\n      dup3\n        /* \"#utility.yul\":9126:9130   */\n      dup3\n        /* \"#utility.yul\":9122:9138   */\n      shl\n        /* \"#utility.yul\":9101:9138   */\n      swap1\n      pop\n        /* \"#utility.yul\":9038:9145   */\n      swap3\n      swap2\n      pop\n      pop\n      jump\t// out\n        /* \"#utility.yul\":9151:9544   */\n    tag_81:\n        /* \"#utility.yul\":9220:9226   */\n      0x00\n        /* \"#utility.yul\":9270:9271   */\n      0x08\n        /* \"#utility.yul\":9258:9268   */\n      dup4\n        /* \"#utility.yul\":9254:9272   */\n      mul\n        /* \"#utility.yul\":9293:9390   */\n      tag_190\n        /* \"#utility.yul\":9323:9389   */\n      0xffffffffffffffffffffffffffffffffffffffffffffffffffffffffffffffff\n        /* \"#utility.yul\":9312:9321   */\n      dup3\n        /* \"#utility.yul\":9293:9390   */\n      tag_80\n      jump\t// in\n    tag_190:\n        /* \"#utility.yul\":9411:9450   */\n      tag_191\n        /* \"#utility.yul\":9441:9449   */\n      dup7\n        /* \"#utility.yul\":9430:9439   */\n      dup4\n        /* \"#utility.yul\":9411:9450   */\n      tag_80\n      jump\t// in\n    tag_191:\n        /* \"#utility.yul\":9399:9450   */\n      swap6\n      pop\n        /* \"#utility.yul\":9483:9487   */\n      dup1\n        /* \"#utility.yul\":9479:9488   */\n      not\n        /* \"#utility.yul\":9472:9477   */\n      dup5\n        /* \"#utility.yul\":9468:9489   */\n      and\n        /* \"#utility.yul\":9459:9489   */\n      swap4\n      pop\n        /* \"#utility.yul\":9532:9536   */\n      dup1\n        /* \"#utility.yul\":9522:9530   */\n      dup7\n        /* \"#utility.yul\":9518:9537   */\n      and\n        /* \"#utility.yul\":9511:9516   */\n      dup5\n        /* \"#utility.yul\":9508:9538   */\n      or\n        /* \"#utility.yul\":9498:9538   */\n      swap3\n      pop\n        /* \"#utility.yul\":9227:9544   */\n      pop\n      pop\n        /* \"#utility.yul\":9151:9544   */\n      swap4\n      swap3\n      pop\n      pop\n      pop\n      jump\t// out\n        /* \"#utility.yul\":9550:9610   */\n    tag_82:\n        /* \"#utility.yul\":9578:9581   */\n      0x00\n        /* \"#utility.yul\":9599:9604   */\n      dup2\n        /* \"#utility.yul\":9592:9604   */\n      swap1\n      pop\n        /* \"#utility.yul\":9550:9610   */\n      swap2\n      swap1\n      pop\n      jump\t// out\n        /* \"#utility.yul\":9616:9758   */\n    tag_83:\n        /* \"#utility.yul\":9666:9675   */\n      0x00\n        /* \"#utility.yul\":9699:9752   */\n      tag_194\n        /* \"#utility.yul\":9717:9751   */\n      tag_195\n        /* \"#utility.yul\":9726:9750   */\n      tag_196\n        /* \"#utility.yul\":9744:9749   */\n      dup5\n        /* \"#utility.yul\":9726:9750   */\n      tag_50\n      jump\t// in\n    tag_196:\n        /* \"#utility.yul\":9717:9751   */\n      tag_82\n      jump\t// in\n    tag_195:\n        /* \"#utility.yul\":9699:9752   */\n      tag_50\n      jump\t// in\n    tag_194:\n        /* \"#utility.yul\":9686:9752   */\n      swap1\n      pop\n        /* \"#utility.yul\":9616:9758   */\n      swap2\n      swap1\n      pop\n      jump\t// out\n        /* \"#utility.yul\":9764:9839   */\n    tag_84:\n        /* \"#utility.yul\":9807:9810   */\n      0x00\n        /* \"#utility.yul\":9828:9833   */\n      dup2\n        /* \"#utility.yul\":9821:9833   */\n      swap1\n      pop\n        /* \"#utility.yul\":9764:9839   */\n      swap2\n      swap1\n      pop\n      jump\t// out\n        /* \"#utility.yul\":9845:10114   */\n    tag_85:\n        /* \"#utility.yul\":9955:9994   */\n      tag_199\n        /* \"#utility.yul\":9986:9993   */\n      dup4\n        /* \"#utility.yul\":9955:9994   */\n      tag_83\n      jump\t// in\n    tag_199:\n        /* \"#utility.yul\":10016:10107   */\n      tag_200\n        /* \"#utility.yul\":10065:10106   */\n      tag_201\n        /* \"#utility.yul\":10089:10105   */\n      dup3\n        /* \"#utility.yul\":10065:10106   */\n      tag_84\n      jump\t// in\n    tag_201:\n        /* \"#utility.yul\":10057:10063   */\n      dup5\n        /* \"#utility.yul\":10050:10054   */\n      dup5\n        /* \"#utility.yul\":10044:10055   */\n      sload\n        /* \"#utility.yul\":10016:10107   */\n      tag_81\n      jump\t// in\n    tag_200:\n        /* \"#utility.yul\":10010:10014   */\n      dup3\n        /* \"#utility.yul\":10003:10108   */\n      sstore\n        /* \"#utility.yul\":9921:10114   */\n      pop\n        /* \"#utility.yul\":9845:10114   */\n      pop\n      pop\n      pop\n      jump\t// out\n        /* \"#utility.yul\":10120:10193   */\n    tag_86:\n        /* \"#utility.yul\":10165:10168   */\n      0x00\n        /* \"#utility.yul\":10186:10187   */\n      0x00\n        /* \"#utility.yul\":10179:10187   */\n      swap1\n      pop\n        /* \"#utility.yul\":10120:10193   */\n      swap1\n      jump\t// out\n        /* \"#utility.yul\":10199:10388   */\n    tag_87:\n        /* \"#utility.yul\":10276:10308   */\n      tag_204\n      tag_86\n      jump\t// in\n    tag_204:\n        /* \"#utility.yul\":10317:10382   */\n      tag_205\n        /* \"#utility.yul\":10375:10381   */\n      dup2\n        /* \"#utility.yul\":10367:10373   */\n      dup5\n        /* \"#utility.yul\":10361:10365   */\n      dup5\n        /* \"#utility.yul\":10317:10382   */\n      tag_85\n      jump\t// in\n    tag_205:\n        /* \"#utility.yul\":10252:10388   */\n      pop\n        /* \"#utility.yul\":10199:10388   */\n      pop\n      pop\n      jump\t// out\n        /* \"#utility.yul\":10394:10580   */\n    tag_88:\n        /* \"#utility.yul\":10454:10574   */\n    tag_207:\n        /* \"#utility.yul\":10471:10474   */\n      dup2\n        /* \"#utility.yul\":10464:10469   */\n      dup2\n        /* \"#utility.yul\":10461:10475   */\n      lt\n        /* \"#utility.yul\":10454:10574   */\n      iszero\n      tag_209\n      jumpi\n        /* \"#utility.yul\":10525:10564   */\n      tag_210\n        /* \"#utility.yul\":10562:10563   */\n      0x00\n        /* \"#utility.yul\":10555:10560   */\n      dup3\n        /* \"#utility.yul\":10525:10564   */\n      tag_87\n      jump\t// in\n    tag_210:\n        /* \"#utility.yul\":10498:10499   */\n      0x01\n        /* \"#utility.yul\":10491:10496   */\n      dup2\n        /* \"#utility.yul\":10487:10500   */\n      add\n        /* \"#utility.yul\":10478:10500   */\n      swap1\n      pop\n        /* \"#utility.yul\":10454:10574   */\n      jump(tag_207)\n    tag_209:\n        /* \"#utility.yul\":10394:10580   */\n      pop\n      pop\n      jump\t// out\n        /* \"#utility.yul\":10586:11129   */\n    tag_89:\n        /* \"#utility.yul\":10687:10689   */\n      0x1f\n        /* \"#utility.yul\":10682:10685   */\n      dup3\n        /* \"#utility.yul\":10679:10690   */\n      gt\n        /* \"#utility.yul\":10676:11122   */\n      iszero\n      tag_212\n      jumpi\n        /* \"#utility.yul\":10721:10759   */\n      tag_213\n        /* \"#utility.yul\":10753:10758   */\n      dup2\n        /* \"#utility.yul\":10721:10759   */\n      tag_78\n      jump\t// in\n    tag_213:\n        /* \"#utility.yul\":10805:10834   */\n      tag_214\n        /* \"#utility.yul\":10823:10833   */\n      dup5\n        /* \"#utility.yul\":10805:10834   */\n      tag_79\n      jump\t// in\n    tag_214:\n        /* \"#utility.yul\":10795:10803   */\n      dup2\n        /* \"#utility.yul\":10791:10835   */\n      add\n        /* \"#utility.yul\":10988:10990   */\n      0x20\n        /* \"#utility.yul\":10976:10986   */\n      dup6\n        /* \"#utility.yul\":10973:10991   */\n      lt\n        /* \"#utility.yul\":10970:11019   */\n      iszero\n      tag_215\n      jumpi\n        /* \"#utility.yul\":11009:11017   */\n      dup2\n        /* \"#utility.yul\":10994:11017   */\n      swap1\n      pop\n        /* \"#utility.yul\":10970:11019   */\n    tag_215:\n        /* \"#utility.yul\":11032:11112   */\n      tag_216\n        /* \"#utility.yul\":11088:11110   */\n      tag_217\n        /* \"#utility.yul\":11106:11109   */\n      dup6\n        /* \"#utility.yul\":11088:11110   */\n      tag_79\n      jump\t// in\n    tag_217:\n        /* \"#utility.yul\":11078:11086   */\n      dup4\n        /* \"#utility.yul\":11074:11111   */\n      add\n        /* \"#utility.yul\":11061:11072   */\n      dup3\n        /* \"#utility.yul\":11032:11112   */\n      tag_88\n      jump\t// in\n    tag_216:\n        /* \"#utility.yul\":10691:11122   */\n      pop\n      pop\n        /* \"#utility.yul\":10676:11122   */\n    tag_212:\n        /* \"#utility.yul\":10586:11129   */\n      pop\n      pop\n      pop\n      jump\t// out\n        /* \"#utility.yul\":11135:11252   */\n    tag_90:\n        /* \"#utility.yul\":11189:11197   */\n      0x00\n        /* \"#utility.yul\":11239:11244   */\n      dup3\n        /* \"#utility.yul\":11233:11237   */\n      dup3\n        /* \"#utility.yul\":11229:11245   */\n      shr\n        /* \"#utility.yul\":11208:11245   */\n      swap1\n      pop\n        /* \"#utility.yul\":11135:11252   */\n      swap3\n      swap2\n      pop\n      pop\n      jump\t// out\n        /* \"#utility.yul\":11258:11427   */\n    tag_91:\n        /* \"#utility.yul\":11302:11308   */\n      0x00\n        /* \"#utility.yul\":11335:11386   */\n      tag_220\n        /* \"#utility.yul\":11383:11384   */\n      0x00\n        /* \"#utility.yul\":11379:11385   */\n      not\n        /* \"#utility.yul\":11371:11376   */\n      dup5\n        /* \"#utility.yul\":11368:11369   */\n      0x08\n        /* \"#utility.yul\":11364:11377   */\n      mul\n        /* \"#utility.yul\":11335:11386   */\n      tag_90\n      jump\t// in\n    tag_220:\n        /* \"#utility.yul\":11331:11387   */\n      not\n        /* \"#utility.yul\":11416:11420   */\n      dup1\n        /* \"#utility.yul\":11410:11414   */\n      dup4\n        /* \"#utility.yul\":11406:11421   */\n      and\n        /* \"#utility.yul\":11396:11421   */\n      swap2\n      pop\n        /* \"#utility.yul\":11309:11427   */\n      pop\n        /* \"#utility.yul\":11258:11427   */\n      swap3\n      swap2\n      pop\n      pop\n      jump\t// out\n        /* \"#utility.yul\":11432:11727   */\n    tag_92:\n        /* \"#utility.yul\":11508:11512   */\n      0x00\n        /* \"#utility.yul\":11654:11683   */\n      tag_222\n        /* \"#utility.yul\":11679:11682   */\n      dup4\n        /* \"#utility.yul\":11673:11677   */\n      dup4\n        /* \"#utility.yul\":11654:11683   */\n      tag_91\n      jump\t// in\n    tag_222:\n        /* \"#utility.yul\":11646:11683   */\n      swap2\n      pop\n        /* \"#utility.yul\":11716:11719   */\n      dup3\n        /* \"#utility.yul\":11713:11714   */\n      0x02\n        /* \"#utility.yul\":11709:11720   */\n      mul\n        /* \"#utility.yul\":11703:11707   */\n      dup3\n        /* \"#utility.yul\":11700:11721   */\n      or\n        /* \"#utility.yul\":11692:11721   */\n      swap1\n      pop\n        /* \"#utility.yul\":11432:11727   */\n      swap3\n      swap2\n      pop\n      pop\n      jump\t// out\n        /* \"#utility.yul\":11732:13127   */\n    tag_35:\n        /* \"#utility.yul\":11849:11886   */\n      tag_224\n        /* \"#utility.yul\":11882:11885   */\n      dup3\n        /* \"#utility.yul\":11849:11886   */\n      tag_53\n      jump\t// in\n    tag_224:\n        /* \"#utility.yul\":11951:11969   */\n      0xffffffffffffffff\n        /* \"#utility.yul\":11943:11949   */\n      dup2\n        /* \"#utility.yul\":11940:11970   */\n      gt\n        /* \"#utility.yul\":11937:11993   */\n      iszero\n      tag_225\n      jumpi\n        /* \"#utility.yul\":11973:11991   */\n      tag_226\n      tag_63\n      jump\t// in\n    tag_226:\n        /* \"#utility.yul\":11937:11993   */\n    tag_225:\n        /* \"#utility.yul\":12017:12055   */\n      tag_227\n        /* \"#utility.yul\":12049:12053   */\n      dup3\n        /* \"#utility.yul\":12043:12054   */\n      sload\n        /* \"#utility.yul\":12017:12055   */\n      tag_24\n      jump\t// in\n    tag_227:\n        /* \"#utility.yul\":12102:12169   */\n      tag_228\n        /* \"#utility.yul\":12162:12168   */\n      dup3\n        /* \"#utility.yul\":12154:12160   */\n      dup3\n        /* \"#utility.yul\":12148:12152   */\n      dup6\n        /* \"#utility.yul\":12102:12169   */\n      tag_89\n      jump\t// in\n    tag_228:\n        /* \"#utility.yul\":12196:12197   */\n      0x00\n        /* \"#utility.yul\":12220:12224   */\n      0x20\n        /* \"#utility.yul\":12207:12224   */\n      swap1\n      pop\n        /* \"#utility.yul\":12252:12254   */\n      0x1f\n        /* \"#utility.yul\":12244:12250   */\n      dup4\n        /* \"#utility.yul\":12241:12255   */\n      gt\n        /* \"#utility.yul\":12269:12270   */\n      0x01\n        /* \"#utility.yul\":12264:12882   */\n      dup2\n      eq\n      tag_230\n      jumpi\n        /* \"#utility.yul\":12926:12927   */\n      0x00\n        /* \"#utility.yul\":12943:12949   */\n      dup5\n        /* \"#utility.yul\":12940:13017   */\n      iszero\n      tag_231\n      jumpi\n        /* \"#utility.yul\":12992:13001   */\n      dup3\n        /* \"#utility.yul\":12987:12990   */\n      dup8\n        /* \"#utility.yul\":12983:13002   */\n      add\n        /* \"#utility.yul\":12977:13003   */\n      mload\n        /* \"#utility.yul\":12968:13003   */\n      swap1\n      pop\n        /* \"#utility.yul\":12940:13017   */\n    tag_231:\n        /* \"#utility.yul\":13043:13110   */\n      tag_232\n        /* \"#utility.yul\":13103:13109   */\n      dup6\n        /* \"#utility.yul\":13096:13101   */\n      dup3\n        /* \"#utility.yul\":13043:13110   */\n      tag_92\n      jump\t// in\n    tag_232:\n        /* \"#utility.yul\":13037:13041   */\n      dup7\n        /* \"#utility.yul\":13030:13111   */\n      sstore\n        /* \"#utility.yul\":12899:13121   */\n      pop\n        /* \"#utility.yul\":12234:13121   */\n      jump(tag_229)\n        /* \"#utility.yul\":12264:12882   */\n    tag_230:\n        /* \"#utility.yul\":12316:12320   */\n      0x1f\n        /* \"#utility.yul\":12312:12321   */\n      not\n        /* \"#utility.yul\":12304:12310   */\n      dup5\n        /* \"#utility.yul\":12300:12322   */\n      and\n        /* \"#utility.yul\":12350:12387   */\n      tag_233\n        /* \"#utility.yul\":12382:12386   */\n      dup7\n        /* \"#utility.yul\":12350:12387   */\n      tag_78\n      jump\t// in\n    tag_233:\n        /* \"#utility.yul\":12409:12410   */\n      0x00\n        /* \"#utility.yul\":12423:12631   */\n    tag_234:\n        /* \"#utility.yul\":12437:12444   */\n      dup3\n        /* \"#utility.yul\":12434:12435   */\n      dup2\n        /* \"#utility.yul\":12431:12445   */\n      lt\n        /* \"#utility.yul\":12423:12631   */\n      iszero\n      tag_236\n      jumpi\n        /* \"#utility.yul\":12516:12525   */\n      dup5\n        /* \"#utility.yul\":12511:12514   */\n      dup10\n        /* \"#utility.yul\":12507:12526   */\n      add\n        /* \"#utility.yul\":12501:12527   */\n      mload\n        /* \"#utility.yul\":12493:12499   */\n      dup3\n        /* \"#utility.yul\":12486:12528   */\n      sstore\n        /* \"#utility.yul\":12567:12568   */\n      0x01\n        /* \"#utility.yul\":12559:12565   */\n      dup3\n        /* \"#utility.yul\":12555:12569   */\n      add\n        /* \"#utility.yul\":12545:12569   */\n      swap2\n      pop\n        /* \"#utility.yul\":12614:12616   */\n      0x20\n        /* \"#utility.yul\":12603:12612   */\n      dup6\n        /* \"#utility.yul\":12599:12617   */\n      add\n        /* \"#utility.yul\":12586:12617   */\n      swap5\n      pop\n        /* \"#utility.yul\":12460:12464   */\n      0x20\n        /* \"#utility.yul\":12457:12458   */\n      dup2\n        /* \"#utility.yul\":12453:12465   */\n      add\n        /* \"#utility.yul\":12448:12465   */\n      swap1\n      pop\n        /* \"#utility.yul\":12423:12631   */\n      jump(tag_234)\n    tag_236:\n        /* \"#utility.yul\":12659:12665   */\n      dup7\n        /* \"#utility.yul\":12650:12657   */\n      dup4\n        /* \"#utility.yul\":12647:12666   */\n      lt\n        /* \"#utility.yul\":12644:12823   */\n      iszero\n      tag_237\n      jumpi\n        /* \"#utility.yul\":12717:12726   */\n      dup5\n        /* \"#utility.yul\":12712:12715   */\n      dup10\n        /* \"#utility.yul\":12708:12727   */\n      add\n        /* \"#utility.yul\":12702:12728   */\n      mload\n        /* \"#utility.yul\":12760:12808   */\n      tag_238\n        /* \"#utility.yul\":12802:12806   */\n      0x1f\n        /* \"#utility.yul\":12794:12800   */\n      dup10\n        /* \"#utility.yul\":12790:12807   */\n      and\n        /* \"#utility.yul\":12779:12788   */\n      dup3\n        /* \"#utility.yul\":12760:12808   */\n      tag_91\n      jump\t// in\n    tag_238:\n        /* \"#utility.yul\":12752:12758   */\n      dup4\n        /* \"#utility.yul\":12745:12809   */\n      sstore\n        /* \"#utility.yul\":12667:12823   */\n      pop\n        /* \"#utility.yul\":12644:12823   */\n    tag_237:\n        /* \"#utility.yul\":12869:12870   */\n      0x01\n        /* \"#utility.yul\":12865:12866   */\n      0x02\n        /* \"#utility.yul\":12857:12863   */\n      dup9\n        /* \"#utility.yul\":12853:12867   */\n      mul\n        /* \"#utility.yul\":12849:12871   */\n      add\n        /* \"#utility.yul\":12843:12847   */\n      dup9\n        /* \"#utility.yul\":12836:12872   */\n      sstore\n        /* \"#utility.yul\":12271:12882   */\n      pop\n      pop\n      pop\n        /* \"#utility.yul\":12234:13121   */\n    tag_229:\n      pop\n        /* \"#utility.yul\":11824:13127   */\n      pop\n      pop\n      pop\n        /* \"#utility.yul\":11732:13127   */\n      pop\n      pop\n      jump\t// out\n\n    auxdata: 0xa26469706673582212207d4aa2df011a2aaa83c8e4f606cb1b3e9fe0c25a7d612fa1110f860d75a01e8064736f6c634300081d0033\n}\n",
				"bytecode": {
					"linkReferences": {},
					"object": "6080604052348015600e575f5ffd5b50610a1a8061001c5f395ff3fe608060405234801561000f575f5ffd5b506004361061003f575f3560e01c806335f3423214610043578063e0258db714610075578063ec07504f14610091575b5f5ffd5b61005d60048036038101906100589190610342565b6100c1565b60405161006c93929190610406565b60405180910390f35b61008f600480360381019061008a9190610598565b61017f565b005b6100ab60048036038101906100a69190610342565b6101f9565b6040516100b891906106cb565b60405180910390f35b5f81600481106100cf575f80fd5b600302015f91509050805f0180546100e690610718565b80601f016020809104026020016040519081016040528092919081815260200182805461011290610718565b801561015d5780601f106101345761010080835404028352916020019161015d565b820191905f5260205f20905b81548152906001019060200180831161014057829003601f168201915b505050505090806001015490806002015f9054906101000a900460ff16905083565b60405180606001604052808481526020018381526020018215158152505f85600481106101af576101ae610748565b5b600302015f820151815f0190816101c69190610915565b50602082015181600101556040820151816002015f6101000a81548160ff02191690831515021790555090505050505050565b6102016102dd565b5f826004811061021457610213610748565b5b600302016040518060600160405290815f8201805461023290610718565b80601f016020809104026020016040519081016040528092919081815260200182805461025e90610718565b80156102a95780601f10610280576101008083540402835291602001916102a9565b820191905f5260205f20905b81548152906001019060200180831161028c57829003601f168201915b5050505050815260200160018201548152602001600282015f9054906101000a900460ff1615151515815250509050919050565b6040518060600160405280606081526020015f81526020015f151581525090565b5f604051905090565b5f5ffd5b5f5ffd5b5f819050919050565b6103218161030f565b811461032b575f5ffd5b50565b5f8135905061033c81610318565b92915050565b5f6020828403121561035757610356610307565b5b5f6103648482850161032e565b91505092915050565b5f81519050919050565b5f82825260208201905092915050565b8281835e5f83830152505050565b5f601f19601f8301169050919050565b5f6103af8261036d565b6103b98185610377565b93506103c9818560208601610387565b6103d281610395565b840191505092915050565b6103e68161030f565b82525050565b5f8115159050919050565b610400816103ec565b82525050565b5f6060820190508181035f83015261041e81866103a5565b905061042d60208301856103dd565b61043a60408301846103f7565b949350505050565b5f5ffd5b5f5ffd5b7f4e487b71000000000000000000000000000000000000000000000000000000005f52604160045260245ffd5b61048082610395565b810181811067ffffffffffffffff8211171561049f5761049e61044a565b5b80604052505050565b5f6104b16102fe565b90506104bd8282610477565b919050565b5f67ffffffffffffffff8211156104dc576104db61044a565b5b6104e582610395565b9050602081019050919050565b828183375f83830152505050565b5f61051261050d846104c2565b6104a8565b90508281526020810184848401111561052e5761052d610446565b5b6105398482856104f2565b509392505050565b5f82601f83011261055557610554610442565b5b8135610565848260208601610500565b91505092915050565b610577816103ec565b8114610581575f5ffd5b50565b5f813590506105928161056e565b92915050565b5f5f5f5f608085870312156105b0576105af610307565b5b5f6105bd8782880161032e565b945050602085013567ffffffffffffffff8111156105de576105dd61030b565b5b6105ea87828801610541565b93505060406105fb8782880161032e565b925050606061060c87828801610584565b91505092959194509250565b5f82825260208201905092915050565b5f6106328261036d565b61063c8185610618565b935061064c818560208601610387565b61065581610395565b840191505092915050565b6106698161030f565b82525050565b610678816103ec565b82525050565b5f606083015f8301518482035f8601526106988282610628565b91505060208301516106ad6020860182610660565b5060408301516106c0604086018261066f565b508091505092915050565b5f6020820190508181035f8301526106e3818461067e565b905092915050565b7f4e487b71000000000000000000000000000000000000000000000000000000005f52602260045260245ffd5b5f600282049050600182168061072f57607f821691505b602082108103610742576107416106eb565b5b50919050565b7f4e487b71000000000000000000000000000000000000000000000000000000005f52603260045260245ffd5b5f819050815f5260205f209050919050565b5f6020601f8301049050919050565b5f82821b905092915050565b5f600883026107d17fffffffffffffffffffffffffffffffffffffffffffffffffffffffffffffffff82610796565b6107db8683610796565b95508019841693508086168417925050509392505050565b5f819050919050565b5f61081661081161080c8461030f565b6107f3565b61030f565b9050919050565b5f819050919050565b61082f836107fc565b61084361083b8261081d565b8484546107a2565b825550505050565b5f5f905090565b61085a61084b565b610865818484610826565b505050565b5b818110156108885761087d5f82610852565b60018101905061086b565b5050565b601f8211156108cd5761089e81610775565b6108a784610787565b810160208510156108b6578190505b6108ca6108c285610787565b83018261086a565b50505b505050565b5f82821c905092915050565b5f6108ed5f19846008026108d2565b1980831691505092915050565b5f61090583836108de565b9150826002028217905092915050565b61091e8261036d565b67ffffffffffffffff8111156109375761093661044a565b5b6109418254610718565b61094c82828561088c565b5f60209050601f83116001811461097d575f841561096b578287015190505b61097585826108fa565b8655506109dc565b601f19841661098b86610775565b5f5b828110156109b25784890151825560018201915060208501945060208101905061098d565b868310156109cf57848901516109cb601f8916826108de565b8355505b6001600288020188555050505b50505050505056fea26469706673582212207d4aa2df011a2aaa83c8e4f606cb1b3e9fe0c25a7d612fa1110f860d75a01e8064736f6c634300081d0033",
					"opcodes": "PUSH1 0x80 PUSH1 0x40 MSTORE CALLVALUE DUP1 ISZERO PUSH1 0xE JUMPI PUSH0 PUSH0 REVERT JUMPDEST POP PUSH2 0xA1A DUP1 PUSH2 0x1C PUSH0 CODECOPY PUSH0 RETURN INVALID PUSH1 0x80 PUSH1 0x40 MSTORE CALLVALUE DUP1 ISZERO PUSH2 0xF JUMPI PUSH0 PUSH0 REVERT JUMPDEST POP PUSH1 0x4 CALLDATASIZE LT PUSH2 0x3F JUMPI PUSH0 CALLDATALOAD PUSH1 0xE0 SHR DUP1 PUSH4 0x35F34232 EQ PUSH2 0x43 JUMPI DUP1 PUSH4 0xE0258DB7 EQ PUSH2 0x75 JUMPI DUP1 PUSH4 0xEC07504F EQ PUSH2 0x91 JUMPI JUMPDEST PUSH0 PUSH0 REVERT JUMPDEST PUSH2 0x5D PUSH1 0x4 DUP1 CALLDATASIZE SUB DUP2 ADD SWAP1 PUSH2 0x58 SWAP2 SWAP1 PUSH2 0x342 JUMP JUMPDEST PUSH2 0xC1 JUMP JUMPDEST PUSH1 0x40 MLOAD PUSH2 0x6C SWAP4 SWAP3 SWAP2 SWAP1 PUSH2 0x406 JUMP JUMPDEST PUSH1 0x40 MLOAD DUP1 SWAP2 SUB SWAP1 RETURN JUMPDEST PUSH2 0x8F PUSH1 0x4 DUP1 CALLDATASIZE SUB DUP2 ADD SWAP1 PUSH2 0x8A SWAP2 SWAP1 PUSH2 0x598 JUMP JUMPDEST PUSH2 0x17F JUMP JUMPDEST STOP JUMPDEST PUSH2 0xAB PUSH1 0x4 DUP1 CALLDATASIZE SUB DUP2 ADD SWAP1 PUSH2 0xA6 SWAP2 SWAP1 PUSH2 0x342 JUMP JUMPDEST PUSH2 0x1F9 JUMP JUMPDEST PUSH1 0x40 MLOAD PUSH2 0xB8 SWAP2 SWAP1 PUSH2 0x6CB JUMP JUMPDEST PUSH1 0x40 MLOAD DUP1 SWAP2 SUB SWAP1 RETURN JUMPDEST PUSH0 DUP2 PUSH1 0x4 DUP2 LT PUSH2 0xCF JUMPI PUSH0 DUP1 REVERT JUMPDEST PUSH1 0x3 MUL ADD PUSH0 SWAP2 POP SWAP1 POP DUP1 PUSH0 ADD DUP1 SLOAD PUSH2 0xE6 SWAP1 PUSH2 0x718 JUMP JUMPDEST DUP1 PUSH1 0x1F ADD PUSH1 0x20 DUP1 SWAP2 DIV MUL PUSH1 0x20 ADD PUSH1 0x40 MLOAD SWAP1 DUP2 ADD PUSH1 0x40 MSTORE DUP1 SWAP3 SWAP2 SWAP1 DUP2 DUP2 MSTORE PUSH1 0x20 ADD DUP3 DUP1 SLOAD PUSH2 0x112 SWAP1 PUSH2 0x718 JUMP JUMPDEST DUP1 ISZERO PUSH2 0x15D JUMPI DUP1 PUSH1 0x1F LT PUSH2 0x134 JUMPI PUSH2 0x100 DUP1 DUP4 SLOAD DIV MUL DUP4 MSTORE SWAP2 PUSH1 0x20 ADD SWAP2 PUSH2 0x15D JUMP JUMPDEST DUP3 ADD SWAP2 SWAP1 PUSH0 MSTORE PUSH1 0x20 PUSH0 KECCAK256 SWAP1 JUMPDEST DUP2 SLOAD DUP2 MSTORE SWAP1 PUSH1 0x1 ADD SWAP1 PUSH1 0x20 ADD DUP1 DUP4 GT PUSH2 0x140 JUMPI DUP3 SWAP1 SUB PUSH1 0x1F AND DUP3 ADD SWAP2 JUMPDEST POP POP POP POP POP SWAP1 DUP1 PUSH1 0x1 ADD SLOAD SWAP1 DUP1 PUSH1 0x2 ADD PUSH0 SWAP1 SLOAD SWAP1 PUSH2 0x100 EXP SWAP1 DIV PUSH1 0xFF AND SWAP1 POP DUP4 JUMP JUMPDEST PUSH1 0x40 MLOAD DUP1 PUSH1 0x60 ADD PUSH1 0x40 MSTORE DUP1 DUP5 DUP2 MSTORE PUSH1 0x20 ADD DUP4 DUP2 MSTORE PUSH1 0x20 ADD DUP3 ISZERO ISZERO DUP2 MSTORE POP PUSH0 DUP6 PUSH1 0x4 DUP2 LT PUSH2 0x1AF JUMPI PUSH2 0x1AE PUSH2 0x748 JUMP JUMPDEST JUMPDEST PUSH1 0x3 MUL ADD PUSH0 DUP3 ADD MLOAD DUP2 PUSH0 ADD SWAP1 DUP2 PUSH2 0x1C6 SWAP2 SWAP1 PUSH2 0x915 JUMP JUMPDEST POP PUSH1 0x20 DUP3 ADD MLOAD DUP2 PUSH1 0x1 ADD SSTORE PUSH1 0x40 DUP3 ADD MLOAD DUP2 PUSH1 0x2 ADD PUSH0 PUSH2 0x100 EXP DUP2 SLOAD DUP2 PUSH1 0xFF MUL NOT AND SWAP1 DUP4 ISZERO ISZERO MUL OR SWAP1 SSTORE POP SWAP1 POP POP POP POP POP POP JUMP JUMPDEST PUSH2 0x201 PUSH2 0x2DD JUMP JUMPDEST PUSH0 DUP3 PUSH1 0x4 DUP2 LT PUSH2 0x214 JUMPI PUSH2 0x213 PUSH2 0x748 JUMP JUMPDEST JUMPDEST PUSH1 0x3 MUL ADD PUSH1 0x40 MLOAD DUP1 PUSH1 0x60 ADD PUSH1 0x40 MSTORE SWAP1 DUP2 PUSH0 DUP3 ADD DUP1 SLOAD PUSH2 0x232 SWAP1 PUSH2 0x718 JUMP JUMPDEST DUP1 PUSH1 0x1F ADD PUSH1 0x20 DUP1 SWAP2 DIV MUL PUSH1 0x20 ADD PUSH1 0x40 MLOAD SWAP1 DUP2 ADD PUSH1 0x40 MSTORE DUP1 SWAP3 SWAP2 SWAP1 DUP2 DUP2 MSTORE PUSH1 0x20 ADD DUP3 DUP1 SLOAD PUSH2 0x25E SWAP1 PUSH2 0x718 JUMP JUMPDEST DUP1 ISZERO PUSH2 0x2A9 JUMPI DUP1 PUSH1 0x1F LT PUSH2 0x280 JUMPI PUSH2 0x100 DUP1 DUP4 SLOAD DIV MUL DUP4 MSTORE SWAP2 PUSH1 0x20 ADD SWAP2 PUSH2 0x2A9 JUMP JUMPDEST DUP3 ADD SWAP2 SWAP1 PUSH0 MSTORE PUSH1 0x20 PUSH0 KECCAK256 SWAP1 JUMPDEST DUP2 SLOAD DUP2 MSTORE SWAP1 PUSH1 0x1 ADD SWAP1 PUSH1 0x20 ADD DUP1 DUP4 GT PUSH2 0x28C JUMPI DUP3 SWAP1 SUB PUSH1 0x1F AND DUP3 ADD SWAP2 JUMPDEST POP POP POP POP POP DUP2 MSTORE PUSH1 0x20 ADD PUSH1 0x1 DUP3 ADD SLOAD DUP2 MSTORE PUSH1 0x20 ADD PUSH1 0x2 DUP3 ADD PUSH0 SWAP1 SLOAD SWAP1 PUSH2 0x100 EXP SWAP1 DIV PUSH1 0xFF AND ISZERO ISZERO ISZERO ISZERO DUP2 MSTORE POP POP SWAP1 POP SWAP2 SWAP1 POP JUMP JUMPDEST PUSH1 0x40 MLOAD DUP1 PUSH1 0x60 ADD PUSH1 0x40 MSTORE DUP1 PUSH1 0x60 DUP2 MSTORE PUSH1 0x20 ADD PUSH0 DUP2 MSTORE PUSH1 0x20 ADD PUSH0 ISZERO ISZERO DUP2 MSTORE POP SWAP1 JUMP JUMPDEST PUSH0 PUSH1 0x40 MLOAD SWAP1 POP SWAP1 JUMP JUMPDEST PUSH0 PUSH0 REVERT JUMPDEST PUSH0 PUSH0 REVERT JUMPDEST PUSH0 DUP2 SWAP1 POP SWAP2 SWAP1 POP JUMP JUMPDEST PUSH2 0x321 DUP2 PUSH2 0x30F JUMP JUMPDEST DUP2 EQ PUSH2 0x32B JUMPI PUSH0 PUSH0 REVERT JUMPDEST POP JUMP JUMPDEST PUSH0 DUP2 CALLDATALOAD SWAP1 POP PUSH2 0x33C DUP2 PUSH2 0x318 JUMP JUMPDEST SWAP3 SWAP2 POP POP JUMP JUMPDEST PUSH0 PUSH1 0x20 DUP3 DUP5 SUB SLT ISZERO PUSH2 0x357 JUMPI PUSH2 0x356 PUSH2 0x307 JUMP JUMPDEST JUMPDEST PUSH0 PUSH2 0x364 DUP5 DUP3 DUP6 ADD PUSH2 0x32E JUMP JUMPDEST SWAP2 POP POP SWAP3 SWAP2 POP POP JUMP JUMPDEST PUSH0 DUP2 MLOAD SWAP1 POP SWAP2 SWAP1 POP JUMP JUMPDEST PUSH0 DUP3 DUP3 MSTORE PUSH1 0x20 DUP3 ADD SWAP1 POP SWAP3 SWAP2 POP POP JUMP JUMPDEST DUP3 DUP2 DUP4 MCOPY PUSH0 DUP4 DUP4 ADD MSTORE POP POP POP JUMP JUMPDEST PUSH0 PUSH1 0x1F NOT PUSH1 0x1F DUP4 ADD AND SWAP1 POP SWAP2 SWAP1 POP JUMP JUMPDEST PUSH0 PUSH2 0x3AF DUP3 PUSH2 0x36D JUMP JUMPDEST PUSH2 0x3B9 DUP2 DUP6 PUSH2 0x377 JUMP JUMPDEST SWAP4 POP PUSH2 0x3C9 DUP2 DUP6 PUSH1 0x20 DUP7 ADD PUSH2 0x387 JUMP JUMPDEST PUSH2 0x3D2 DUP2 PUSH2 0x395 JUMP JUMPDEST DUP5 ADD SWAP2 POP POP SWAP3 SWAP2 POP POP JUMP JUMPDEST PUSH2 0x3E6 DUP2 PUSH2 0x30F JUMP JUMPDEST DUP3 MSTORE POP POP JUMP JUMPDEST PUSH0 DUP2 ISZERO ISZERO SWAP1 POP SWAP2 SWAP1 POP JUMP JUMPDEST PUSH2 0x400 DUP2 PUSH2 0x3EC JUMP JUMPDEST DUP3 MSTORE POP POP JUMP JUMPDEST PUSH0 PUSH1 0x60 DUP3 ADD SWAP1 POP DUP2 DUP2 SUB PUSH0 DUP4 ADD MSTORE PUSH2 0x41E DUP2 DUP7 PUSH2 0x3A5 JUMP JUMPDEST SWAP1 POP PUSH2 0x42D PUSH1 0x20 DUP4 ADD DUP6 PUSH2 0x3DD JUMP JUMPDEST PUSH2 0x43A PUSH1 0x40 DUP4 ADD DUP5 PUSH2 0x3F7 JUMP JUMPDEST SWAP5 SWAP4 POP POP POP POP JUMP JUMPDEST PUSH0 PUSH0 REVERT JUMPDEST PUSH0 PUSH0 REVERT JUMPDEST PUSH32 0x4E487B7100000000000000000000000000000000000000000000000000000000 PUSH0 MSTORE PUSH1 0x41 PUSH1 0x4 MSTORE PUSH1 0x24 PUSH0 REVERT JUMPDEST PUSH2 0x480 DUP3 PUSH2 0x395 JUMP JUMPDEST DUP2 ADD DUP2 DUP2 LT PUSH8 0xFFFFFFFFFFFFFFFF DUP3 GT OR ISZERO PUSH2 0x49F JUMPI PUSH2 0x49E PUSH2 0x44A JUMP JUMPDEST JUMPDEST DUP1 PUSH1 0x40 MSTORE POP POP POP JUMP JUMPDEST PUSH0 PUSH2 0x4B1 PUSH2 0x2FE JUMP JUMPDEST SWAP1 POP PUSH2 0x4BD DUP3 DUP3 PUSH2 0x477 JUMP JUMPDEST SWAP2 SWAP1 POP JUMP JUMPDEST PUSH0 PUSH8 0xFFFFFFFFFFFFFFFF DUP3 GT ISZERO PUSH2 0x4DC JUMPI PUSH2 0x4DB PUSH2 0x44A JUMP JUMPDEST JUMPDEST PUSH2 0x4E5 DUP3 PUSH2 0x395 JUMP JUMPDEST SWAP1 POP PUSH1 0x20 DUP2 ADD SWAP1 POP SWAP2 SWAP1 POP JUMP JUMPDEST DUP3 DUP2 DUP4 CALLDATACOPY PUSH0 DUP4 DUP4 ADD MSTORE POP POP POP JUMP JUMPDEST PUSH0 PUSH2 0x512 PUSH2 0x50D DUP5 PUSH2 0x4C2 JUMP JUMPDEST PUSH2 0x4A8 JUMP JUMPDEST SWAP1 POP DUP3 DUP2 MSTORE PUSH1 0x20 DUP2 ADD DUP5 DUP5 DUP5 ADD GT ISZERO PUSH2 0x52E JUMPI PUSH2 0x52D PUSH2 0x446 JUMP JUMPDEST JUMPDEST PUSH2 0x539 DUP5 DUP3 DUP6 PUSH2 0x4F2 JUMP JUMPDEST POP SWAP4 SWAP3 POP POP POP JUMP JUMPDEST PUSH0 DUP3 PUSH1 0x1F DUP4 ADD SLT PUSH2 0x555 JUMPI PUSH2 0x554 PUSH2 0x442 JUMP JUMPDEST JUMPDEST DUP2 CALLDATALOAD PUSH2 0x565 DUP5 DUP3 PUSH1 0x20 DUP7 ADD PUSH2 0x500 JUMP JUMPDEST SWAP2 POP POP SWAP3 SWAP2 POP POP JUMP JUMPDEST PUSH2 0x577 DUP2 PUSH2 0x3EC JUMP JUMPDEST DUP2 EQ PUSH2 0x581 JUMPI PUSH0 PUSH0 REVERT JUMPDEST POP JUMP JUMPDEST PUSH0 DUP2 CALLDATALOAD SWAP1 POP PUSH2 0x592 DUP2 PUSH2 0x56E JUMP JUMPDEST SWAP3 SWAP2 POP POP JUMP JUMPDEST PUSH0 PUSH0 PUSH0 PUSH0 PUSH1 0x80 DUP6 DUP8 SUB SLT ISZERO PUSH2 0x5B0 JUMPI PUSH2 0x5AF PUSH2 0x307 JUMP JUMPDEST JUMPDEST PUSH0 PUSH2 0x5BD DUP8 DUP3 DUP9 ADD PUSH2 0x32E JUMP JUMPDEST SWAP5 POP POP PUSH1 0x20 DUP6 ADD CALLDATALOAD PUSH8 0xFFFFFFFFFFFFFFFF DUP2 GT ISZERO PUSH2 0x5DE JUMPI PUSH2 0x5DD PUSH2 0x30B JUMP JUMPDEST JUMPDEST PUSH2 0x5EA DUP8 DUP3 DUP9 ADD PUSH2 0x541 JUMP JUMPDEST SWAP4 POP POP PUSH1 0x40 PUSH2 0x5FB DUP8 DUP3 DUP9 ADD PUSH2 0x32E JUMP JUMPDEST SWAP3 POP POP PUSH1 0x60 PUSH2 0x60C DUP8 DUP3 DUP9 ADD PUSH2 0x584 JUMP JUMPDEST SWAP2 POP POP SWAP3 SWAP6 SWAP2 SWAP5 POP SWAP3 POP JUMP JUMPDEST PUSH0 DUP3 DUP3 MSTORE PUSH1 0x20 DUP3 ADD SWAP1 POP SWAP3 SWAP2 POP POP JUMP JUMPDEST PUSH0 PUSH2 0x632 DUP3 PUSH2 0x36D JUMP JUMPDEST PUSH2 0x63C DUP2 DUP6 PUSH2 0x618 JUMP JUMPDEST SWAP4 POP PUSH2 0x64C DUP2 DUP6 PUSH1 0x20 DUP7 ADD PUSH2 0x387 JUMP JUMPDEST PUSH2 0x655 DUP2 PUSH2 0x395 JUMP JUMPDEST DUP5 ADD SWAP2 POP POP SWAP3 SWAP2 POP POP JUMP JUMPDEST PUSH2 0x669 DUP2 PUSH2 0x30F JUMP JUMPDEST DUP3 MSTORE POP POP JUMP JUMPDEST PUSH2 0x678 DUP2 PUSH2 0x3EC JUMP JUMPDEST DUP3 MSTORE POP POP JUMP JUMPDEST PUSH0 PUSH1 0x60 DUP4 ADD PUSH0 DUP4 ADD MLOAD DUP5 DUP3 SUB PUSH0 DUP7 ADD MSTORE PUSH2 0x698 DUP3 DUP3 PUSH2 0x628 JUMP JUMPDEST SWAP2 POP POP PUSH1 0x20 DUP4 ADD MLOAD PUSH2 0x6AD PUSH1 0x20 DUP7 ADD DUP3 PUSH2 0x660 JUMP JUMPDEST POP PUSH1 0x40 DUP4 ADD MLOAD PUSH2 0x6C0 PUSH1 0x40 DUP7 ADD DUP3 PUSH2 0x66F JUMP JUMPDEST POP DUP1 SWAP2 POP POP SWAP3 SWAP2 POP POP JUMP JUMPDEST PUSH0 PUSH1 0x20 DUP3 ADD SWAP1 POP DUP2 DUP2 SUB PUSH0 DUP4 ADD MSTORE PUSH2 0x6E3 DUP2 DUP5 PUSH2 0x67E JUMP JUMPDEST SWAP1 POP SWAP3 SWAP2 POP POP JUMP JUMPDEST PUSH32 0x4E487B7100000000000000000000000000000000000000000000000000000000 PUSH0 MSTORE PUSH1 0x22 PUSH1 0x4 MSTORE PUSH1 0x24 PUSH0 REVERT JUMPDEST PUSH0 PUSH1 0x2 DUP3 DIV SWAP1 POP PUSH1 0x1 DUP3 AND DUP1 PUSH2 0x72F JUMPI PUSH1 0x7F DUP3 AND SWAP2 POP JUMPDEST PUSH1 0x20 DUP3 LT DUP2 SUB PUSH2 0x742 JUMPI PUSH2 0x741 PUSH2 0x6EB JUMP JUMPDEST JUMPDEST POP SWAP2 SWAP1 POP JUMP JUMPDEST PUSH32 0x4E487B7100000000000000000000000000000000000000000000000000000000 PUSH0 MSTORE PUSH1 0x32 PUSH1 0x4 MSTORE PUSH1 0x24 PUSH0 REVERT JUMPDEST PUSH0 DUP2 SWAP1 POP DUP2 PUSH0 MSTORE PUSH1 0x20 PUSH0 KECCAK256 SWAP1 POP SWAP2 SWAP1 POP JUMP JUMPDEST PUSH0 PUSH1 0x20 PUSH1 0x1F DUP4 ADD DIV SWAP1 POP SWAP2 SWAP1 POP JUMP JUMPDEST PUSH0 DUP3 DUP3 SHL SWAP1 POP SWAP3 SWAP2 POP POP JUMP JUMPDEST PUSH0 PUSH1 0x8 DUP4 MUL PUSH2 0x7D1 PUSH32 0xFFFFFFFFFFFFFFFFFFFFFFFFFFFFFFFFFFFFFFFFFFFFFFFFFFFFFFFFFFFFFFFF DUP3 PUSH2 0x796 JUMP JUMPDEST PUSH2 0x7DB DUP7 DUP4 PUSH2 0x796 JUMP JUMPDEST SWAP6 POP DUP1 NOT DUP5 AND SWAP4 POP DUP1 DUP7 AND DUP5 OR SWAP3 POP POP POP SWAP4 SWAP3 POP POP POP JUMP JUMPDEST PUSH0 DUP2 SWAP1 POP SWAP2 SWAP1 POP JUMP JUMPDEST PUSH0 PUSH2 0x816 PUSH2 0x811 PUSH2 0x80C DUP5 PUSH2 0x30F JUMP JUMPDEST PUSH2 0x7F3 JUMP JUMPDEST PUSH2 0x30F JUMP JUMPDEST SWAP1 POP SWAP2 SWAP1 POP JUMP JUMPDEST PUSH0 DUP2 SWAP1 POP SWAP2 SWAP1 POP JUMP JUMPDEST PUSH2 0x82F DUP4 PUSH2 0x7FC JUMP JUMPDEST PUSH2 0x843 PUSH2 0x83B DUP3 PUSH2 0x81D JUMP JUMPDEST DUP5 DUP5 SLOAD PUSH2 0x7A2 JUMP JUMPDEST DUP3 SSTORE POP POP POP POP JUMP JUMPDEST PUSH0 PUSH0 SWAP1 POP SWAP1 JUMP JUMPDEST PUSH2 0x85A PUSH2 0x84B JUMP JUMPDEST PUSH2 0x865 DUP2 DUP5 DUP5 PUSH2 0x826 JUMP JUMPDEST POP POP POP JUMP JUMPDEST JUMPDEST DUP2 DUP2 LT ISZERO PUSH2 0x888 JUMPI PUSH2 0x87D PUSH0 DUP3 PUSH2 0x852 JUMP JUMPDEST PUSH1 0x1 DUP2 ADD SWAP1 POP PUSH2 0x86B JUMP JUMPDEST POP POP JUMP JUMPDEST PUSH1 0x1F DUP3 GT ISZERO PUSH2 0x8CD JUMPI PUSH2 0x89E DUP2 PUSH2 0x775 JUMP JUMPDEST PUSH2 0x8A7 DUP5 PUSH2 0x787 JUMP JUMPDEST DUP2 ADD PUSH1 0x20 DUP6 LT ISZERO PUSH2 0x8B6 JUMPI DUP2 SWAP1 POP JUMPDEST PUSH2 0x8CA PUSH2 0x8C2 DUP6 PUSH2 0x787 JUMP JUMPDEST DUP4 ADD DUP3 PUSH2 0x86A JUMP JUMPDEST POP POP JUMPDEST POP POP POP JUMP JUMPDEST PUSH0 DUP3 DUP3 SHR SWAP1 POP SWAP3 SWAP2 POP POP JUMP JUMPDEST PUSH0 PUSH2 0x8ED PUSH0 NOT DUP5 PUSH1 0x8 MUL PUSH2 0x8D2 JUMP JUMPDEST NOT DUP1 DUP4 AND SWAP2 POP POP SWAP3 SWAP2 POP POP JUMP JUMPDEST PUSH0 PUSH2 0x905 DUP4 DUP4 PUSH2 0x8DE JUMP JUMPDEST SWAP2 POP DUP3 PUSH1 0x2 MUL DUP3 OR SWAP1 POP SWAP3 SWAP2 POP POP JUMP JUMPDEST PUSH2 0x91E DUP3 PUSH2 0x36D JUMP JUMPDEST PUSH8 0xFFFFFFFFFFFFFFFF DUP2 GT ISZERO PUSH2 0x937 JUMPI PUSH2 0x936 PUSH2 0x44A JUMP JUMPDEST JUMPDEST PUSH2 0x941 DUP3 SLOAD PUSH2 0x718 JUMP JUMPDEST PUSH2 0x94C DUP3 DUP3 DUP6 PUSH2 0x88C JUMP JUMPDEST PUSH0 PUSH1 0x20 SWAP1 POP PUSH1 0x1F DUP4 GT PUSH1 0x1 DUP2 EQ PUSH2 0x97D JUMPI PUSH0 DUP5 ISZERO PUSH2 0x96B JUMPI DUP3 DUP8 ADD MLOAD SWAP1 POP JUMPDEST PUSH2 0x975 DUP6 DUP3 PUSH2 0x8FA JUMP JUMPDEST DUP7 SSTORE POP PUSH2 0x9DC JUMP JUMPDEST PUSH1 0x1F NOT DUP5 AND PUSH2 0x98B DUP7 PUSH2 0x775 JUMP JUMPDEST PUSH0 JUMPDEST DUP3 DUP2 LT ISZERO PUSH2 0x9B2 JUMPI DUP5 DUP10 ADD MLOAD DUP3 SSTORE PUSH1 0x1 DUP3 ADD SWAP2 POP PUSH1 0x20 DUP6 ADD SWAP5 POP PUSH1 0x20 DUP2 ADD SWAP1 POP PUSH2 0x98D JUMP JUMPDEST DUP7 DUP4 LT ISZERO PUSH2 0x9CF JUMPI DUP5 DUP10 ADD MLOAD PUSH2 0x9CB PUSH1 0x1F DUP10 AND DUP3 PUSH2 0x8DE JUMP JUMPDEST DUP4 SSTORE POP JUMPDEST PUSH1 0x1 PUSH1 0x2 DUP9 MUL ADD DUP9 SSTORE POP POP POP JUMPDEST POP POP POP POP POP POP JUMP INVALID LOG2 PUSH5 0x6970667358 0x22 SLT KECCAK256 PUSH30 0x4AA2DF011A2AAA83C8E4F606CB1B3E9FE0C25A7D612FA1110F860D75A01E DUP1 PUSH5 0x736F6C6343 STOP ADDMOD SAR STOP CALLER "
				},
				"gasEstimates": {
					"creation": {
						"codeDepositCost": "517200",
						"executionCost": "547",
						"totalCost": "517747"
					},
					"external": {
						"insert(uint256,string,uint256,bool)": "infinite",
						"returnStudent(uint256)": "infinite",
						"student(uint256)": "infinite"
					}
				},
				"methodIdentifiers": {
					"insert(uint256,string,uint256,bool)": "e0258db7",
					"returnStudent(uint256)": "ec07504f",
					"student(uint256)": "35f34232"
				}
			},
			"storageLayout": {
				"storage": [
					{
						"astId": 13,
						"contract": "contracts/21_struct2.sol:demo",
						"label": "student",
						"offset": 0,
						"slot": "0",
						"type": "t_array(t_struct(Studentdata)8_storage)4_storage"
					}
				],
				"types": {
					"t_array(t_struct(Studentdata)8_storage)4_storage": {
						"base": "t_struct(Studentdata)8_storage",
						"encoding": "inplace",
						"label": "struct demo.Studentdata[4]",
						"numberOfBytes": "384"
					},
					"t_bool": {
						"encoding": "inplace",
						"label": "bool",
						"numberOfBytes": "1"
					},
					"t_string_storage": {
						"encoding": "bytes",
						"label": "string",
						"numberOfBytes": "32"
					},
					"t_struct(Studentdata)8_storage": {
						"encoding": "inplace",
						"label": "struct demo.Studentdata",
						"members": [
							{
								"astId": 3,
								"contract": "contracts/21_struct2.sol:demo",
								"label": "name",
								"offset": 0,
								"slot": "0",
								"type": "t_string_storage"
							},
							{
								"astId": 5,
								"contract": "contracts/21_struct2.sol:demo",
								"label": "roll",
								"offset": 0,
								"slot": "1",
								"type": "t_uint256"
							},
							{
								"astId": 7,
								"contract": "contracts/21_struct2.sol:demo",
								"label": "result",
								"offset": 0,
								"slot": "2",
								"type": "t_bool"
							}
						],
						"numberOfBytes": "96"
					},
					"t_uint256": {
						"encoding": "inplace",
						"label": "uint256",
						"numberOfBytes": "32"
					}
				}
			},
			"userdoc": {
				"kind": "user",
				"methods": {},
				"version": 1
			}
		}
	}
}