{
	"contracts/25_Nested_Mapping.sol": {
		"demo": {
			"abi": [
				{
					"inputs": [
						{
							"internalType": "uint256",
							"name": "row",
							"type": "uint256"
						},
						{
							"internalType": "uint256",
							"name": "column",
							"type": "uint256"
						}
					],
					"name": "Result",
					"outputs": [
						{
							"internalType": "bool",
							"name": "",
							"type": "bool"
						}
					],
					"stateMutability": "view",
					"type": "function"
				},
				{
					"inputs": [
						{
							"internalType": "uint256",
							"name": "",
							"type": "uint256"
						},
						{
							"internalType": "uint256",
							"name": "",
							"type": "uint256"
						}
					],
					"name": "data",
					"outputs": [
						{
							"internalType": "bool",
							"name": "",
							"type": "bool"
						}
					],
					"stateMutability": "view",
					"type": "function"
				},
				{
					"inputs": [
						{
							"internalType": "uint256",
							"name": "row",
							"type": "uint256"
						},
						{
							"internalType": "uint256",
							"name": "column",
							"type": "uint256"
						},
						{
							"internalType": "bool",
							"name": "value",
							"type": "bool"
						}
					],
					"name": "insert",
					"outputs": [],
					"stateMutability": "nonpayable",
					"type": "function"
				}
			],
			"devdoc": {
				"kind": "dev",
				"methods": {},
				"version": 1
			},
			"evm": {
				"assembly": "    /* \"contracts/25_Nested_Mapping.sol\":149:441  contract demo{... */\n  mstore(0x40, 0x80)\n  callvalue\n  dup1\n  iszero\n  tag_1\n  jumpi\n  revert(0x00, 0x00)\ntag_1:\n  pop\n  dataSize(sub_0)\n  dup1\n  dataOffset(sub_0)\n  0x00\n  codecopy\n  0x00\n  return\nstop\n\nsub_0: assembly {\n        /* \"contracts/25_Nested_Mapping.sol\":149:441  contract demo{... */\n      mstore(0x40, 0x80)\n      callvalue\n      dup1\n      iszero\n      tag_1\n      jumpi\n      revert(0x00, 0x00)\n    tag_1:\n      pop\n      jumpi(tag_2, lt(calldatasize, 0x04))\n      shr(0xe0, calldataload(0x00))\n      dup1\n      0x16ccef1c\n      eq\n      tag_3\n      jumpi\n      dup1\n      0x34fa6274\n      eq\n      tag_4\n      jumpi\n      dup1\n      0x5173bd1e\n      eq\n      tag_5\n      jumpi\n    tag_2:\n      revert(0x00, 0x00)\n        /* \"contracts/25_Nested_Mapping.sol\":224:325  function insert(uint row, uint column, bool value) public{... */\n    tag_3:\n      tag_6\n      0x04\n      dup1\n      calldatasize\n      sub\n      dup2\n      add\n      swap1\n      tag_7\n      swap2\n      swap1\n      tag_8\n      jump\t// in\n    tag_7:\n      tag_9\n      jump\t// in\n    tag_6:\n      stop\n        /* \"contracts/25_Nested_Mapping.sol\":331:438  function Result(uint row, uint column) public view returns(bool){... */\n    tag_4:\n      tag_10\n      0x04\n      dup1\n      calldatasize\n      sub\n      dup2\n      add\n      swap1\n      tag_11\n      swap2\n      swap1\n      tag_12\n      jump\t// in\n    tag_11:\n      tag_13\n      jump\t// in\n    tag_10:\n      mload(0x40)\n      tag_14\n      swap2\n      swap1\n      tag_15\n      jump\t// in\n    tag_14:\n      mload(0x40)\n      dup1\n      swap2\n      sub\n      swap1\n      return\n        /* \"contracts/25_Nested_Mapping.sol\":169:215  mapping(uint=>mapping(uint=>bool)) public data */\n    tag_5:\n      tag_16\n      0x04\n      dup1\n      calldatasize\n      sub\n      dup2\n      add\n      swap1\n      tag_17\n      swap2\n      swap1\n      tag_12\n      jump\t// in\n    tag_17:\n      tag_18\n      jump\t// in\n    tag_16:\n      mload(0x40)\n      tag_19\n      swap2\n      swap1\n      tag_15\n      jump\t// in\n    tag_19:\n      mload(0x40)\n      dup1\n      swap2\n      sub\n      swap1\n      return\n        /* \"contracts/25_Nested_Mapping.sol\":224:325  function insert(uint row, uint column, bool value) public{... */\n    tag_9:\n        /* \"contracts/25_Nested_Mapping.sol\":312:317  value */\n      dup1\n        /* \"contracts/25_Nested_Mapping.sol\":292:296  data */\n      0x00\n        /* \"contracts/25_Nested_Mapping.sol\":292:301  data[row] */\n      0x00\n        /* \"contracts/25_Nested_Mapping.sol\":297:300  row */\n      dup6\n        /* \"contracts/25_Nested_Mapping.sol\":292:301  data[row] */\n      dup2\n      mstore\n      0x20\n      add\n      swap1\n      dup2\n      mstore\n      0x20\n      add\n      0x00\n      keccak256\n        /* \"contracts/25_Nested_Mapping.sol\":292:309  data[row][column] */\n      0x00\n        /* \"contracts/25_Nested_Mapping.sol\":302:308  column */\n      dup5\n        /* \"contracts/25_Nested_Mapping.sol\":292:309  data[row][column] */\n      dup2\n      mstore\n      0x20\n      add\n      swap1\n      dup2\n      mstore\n      0x20\n      add\n      0x00\n      keccak256\n      0x00\n        /* \"contracts/25_Nested_Mapping.sol\":292:317  data[row][column] = value */\n      0x0100\n      exp\n      dup2\n      sload\n      dup2\n      0xff\n      mul\n      not\n      and\n      swap1\n      dup4\n      iszero\n      iszero\n      mul\n      or\n      swap1\n      sstore\n      pop\n        /* \"contracts/25_Nested_Mapping.sol\":224:325  function insert(uint row, uint column, bool value) public{... */\n      pop\n      pop\n      pop\n      jump\t// out\n        /* \"contracts/25_Nested_Mapping.sol\":331:438  function Result(uint row, uint column) public view returns(bool){... */\n    tag_13:\n        /* \"contracts/25_Nested_Mapping.sol\":390:394  bool */\n      0x00\n        /* \"contracts/25_Nested_Mapping.sol\":413:417  data */\n      0x00\n        /* \"contracts/25_Nested_Mapping.sol\":413:422  data[row] */\n      0x00\n        /* \"contracts/25_Nested_Mapping.sol\":418:421  row */\n      dup5\n        /* \"contracts/25_Nested_Mapping.sol\":413:422  data[row] */\n      dup2\n      mstore\n      0x20\n      add\n      swap1\n      dup2\n      mstore\n      0x20\n      add\n      0x00\n      keccak256\n        /* \"contracts/25_Nested_Mapping.sol\":413:430  data[row][column] */\n      0x00\n        /* \"contracts/25_Nested_Mapping.sol\":423:429  column */\n      dup4\n        /* \"contracts/25_Nested_Mapping.sol\":413:430  data[row][column] */\n      dup2\n      mstore\n      0x20\n      add\n      swap1\n      dup2\n      mstore\n      0x20\n      add\n      0x00\n      keccak256\n      0x00\n      swap1\n      sload\n      swap1\n      0x0100\n      exp\n      swap1\n      div\n      0xff\n      and\n        /* \"contracts/25_Nested_Mapping.sol\":406:430  return data[row][column] */\n      swap1\n      pop\n        /* \"contracts/25_Nested_Mapping.sol\":331:438  function Result(uint row, uint column) public view returns(bool){... */\n      swap3\n      swap2\n      pop\n      pop\n      jump\t// out\n        /* \"contracts/25_Nested_Mapping.sol\":169:215  mapping(uint=>mapping(uint=>bool)) public data */\n    tag_18:\n      mstore(0x20, 0x00)\n      dup2\n      0x00\n      mstore\n      mstore(0x20, keccak256(0x00, 0x40))\n      dup1\n      0x00\n      mstore\n      keccak256(0x00, 0x40)\n      0x00\n      swap2\n      pop\n      swap2\n      pop\n      swap1\n      sload\n      swap1\n      0x0100\n      exp\n      swap1\n      div\n      0xff\n      and\n      dup2\n      jump\t// out\n        /* \"#utility.yul\":88:205   */\n    tag_23:\n        /* \"#utility.yul\":197:198   */\n      0x00\n        /* \"#utility.yul\":194:195   */\n      0x00\n        /* \"#utility.yul\":187:199   */\n      revert\n        /* \"#utility.yul\":334:411   */\n    tag_25:\n        /* \"#utility.yul\":371:378   */\n      0x00\n        /* \"#utility.yul\":400:405   */\n      dup2\n        /* \"#utility.yul\":389:405   */\n      swap1\n      pop\n        /* \"#utility.yul\":334:411   */\n      swap2\n      swap1\n      pop\n      jump\t// out\n        /* \"#utility.yul\":417:539   */\n    tag_26:\n        /* \"#utility.yul\":490:514   */\n      tag_38\n        /* \"#utility.yul\":508:513   */\n      dup2\n        /* \"#utility.yul\":490:514   */\n      tag_25\n      jump\t// in\n    tag_38:\n        /* \"#utility.yul\":483:488   */\n      dup2\n        /* \"#utility.yul\":480:515   */\n      eq\n        /* \"#utility.yul\":470:533   */\n      tag_39\n      jumpi\n        /* \"#utility.yul\":529:530   */\n      0x00\n        /* \"#utility.yul\":526:527   */\n      0x00\n        /* \"#utility.yul\":519:531   */\n      revert\n        /* \"#utility.yul\":470:533   */\n    tag_39:\n        /* \"#utility.yul\":417:539   */\n      pop\n      jump\t// out\n        /* \"#utility.yul\":545:684   */\n    tag_27:\n        /* \"#utility.yul\":591:596   */\n      0x00\n        /* \"#utility.yul\":629:635   */\n      dup2\n        /* \"#utility.yul\":616:636   */\n      calldataload\n        /* \"#utility.yul\":607:636   */\n      swap1\n      pop\n        /* \"#utility.yul\":645:678   */\n      tag_41\n        /* \"#utility.yul\":672:677   */\n      dup2\n        /* \"#utility.yul\":645:678   */\n      tag_26\n      jump\t// in\n    tag_41:\n        /* \"#utility.yul\":545:684   */\n      swap3\n      swap2\n      pop\n      pop\n      jump\t// out\n        /* \"#utility.yul\":690:780   */\n    tag_28:\n        /* \"#utility.yul\":724:731   */\n      0x00\n        /* \"#utility.yul\":767:772   */\n      dup2\n        /* \"#utility.yul\":760:773   */\n      iszero\n        /* \"#utility.yul\":753:774   */\n      iszero\n        /* \"#utility.yul\":742:774   */\n      swap1\n      pop\n        /* \"#utility.yul\":690:780   */\n      swap2\n      swap1\n      pop\n      jump\t// out\n        /* \"#utility.yul\":786:902   */\n    tag_29:\n        /* \"#utility.yul\":856:877   */\n      tag_44\n        /* \"#utility.yul\":871:876   */\n      dup2\n        /* \"#utility.yul\":856:877   */\n      tag_28\n      jump\t// in\n    tag_44:\n        /* \"#utility.yul\":849:854   */\n      dup2\n        /* \"#utility.yul\":846:878   */\n      eq\n        /* \"#utility.yul\":836:896   */\n      tag_45\n      jumpi\n        /* \"#utility.yul\":892:893   */\n      0x00\n        /* \"#utility.yul\":889:890   */\n      0x00\n        /* \"#utility.yul\":882:894   */\n      revert\n        /* \"#utility.yul\":836:896   */\n    tag_45:\n        /* \"#utility.yul\":786:902   */\n      pop\n      jump\t// out\n        /* \"#utility.yul\":908:1041   */\n    tag_30:\n        /* \"#utility.yul\":951:956   */\n      0x00\n        /* \"#utility.yul\":989:995   */\n      dup2\n        /* \"#utility.yul\":976:996   */\n      calldataload\n        /* \"#utility.yul\":967:996   */\n      swap1\n      pop\n        /* \"#utility.yul\":1005:1035   */\n      tag_47\n        /* \"#utility.yul\":1029:1034   */\n      dup2\n        /* \"#utility.yul\":1005:1035   */\n      tag_29\n      jump\t// in\n    tag_47:\n        /* \"#utility.yul\":908:1041   */\n      swap3\n      swap2\n      pop\n      pop\n      jump\t// out\n        /* \"#utility.yul\":1047:1660   */\n    tag_8:\n        /* \"#utility.yul\":1121:1127   */\n      0x00\n        /* \"#utility.yul\":1129:1135   */\n      0x00\n        /* \"#utility.yul\":1137:1143   */\n      0x00\n        /* \"#utility.yul\":1186:1188   */\n      0x60\n        /* \"#utility.yul\":1174:1183   */\n      dup5\n        /* \"#utility.yul\":1165:1172   */\n      dup7\n        /* \"#utility.yul\":1161:1184   */\n      sub\n        /* \"#utility.yul\":1157:1189   */\n      slt\n        /* \"#utility.yul\":1154:1273   */\n      iszero\n      tag_49\n      jumpi\n        /* \"#utility.yul\":1192:1271   */\n      tag_50\n      tag_23\n      jump\t// in\n    tag_50:\n        /* \"#utility.yul\":1154:1273   */\n    tag_49:\n        /* \"#utility.yul\":1312:1313   */\n      0x00\n        /* \"#utility.yul\":1337:1390   */\n      tag_51\n        /* \"#utility.yul\":1382:1389   */\n      dup7\n        /* \"#utility.yul\":1373:1379   */\n      dup3\n        /* \"#utility.yul\":1362:1371   */\n      dup8\n        /* \"#utility.yul\":1358:1380   */\n      add\n        /* \"#utility.yul\":1337:1390   */\n      tag_27\n      jump\t// in\n    tag_51:\n        /* \"#utility.yul\":1327:1390   */\n      swap4\n      pop\n        /* \"#utility.yul\":1283:1400   */\n      pop\n        /* \"#utility.yul\":1439:1441   */\n      0x20\n        /* \"#utility.yul\":1465:1518   */\n      tag_52\n        /* \"#utility.yul\":1510:1517   */\n      dup7\n        /* \"#utility.yul\":1501:1507   */\n      dup3\n        /* \"#utility.yul\":1490:1499   */\n      dup8\n        /* \"#utility.yul\":1486:1508   */\n      add\n        /* \"#utility.yul\":1465:1518   */\n      tag_27\n      jump\t// in\n    tag_52:\n        /* \"#utility.yul\":1455:1518   */\n      swap3\n      pop\n        /* \"#utility.yul\":1410:1528   */\n      pop\n        /* \"#utility.yul\":1567:1569   */\n      0x40\n        /* \"#utility.yul\":1593:1643   */\n      tag_53\n        /* \"#utility.yul\":1635:1642   */\n      dup7\n        /* \"#utility.yul\":1626:1632   */\n      dup3\n        /* \"#utility.yul\":1615:1624   */\n      dup8\n        /* \"#utility.yul\":1611:1633   */\n      add\n        /* \"#utility.yul\":1593:1643   */\n      tag_30\n      jump\t// in\n    tag_53:\n        /* \"#utility.yul\":1583:1643   */\n      swap2\n      pop\n        /* \"#utility.yul\":1538:1653   */\n      pop\n        /* \"#utility.yul\":1047:1660   */\n      swap3\n      pop\n      swap3\n      pop\n      swap3\n      jump\t// out\n        /* \"#utility.yul\":1666:2140   */\n    tag_12:\n        /* \"#utility.yul\":1734:1740   */\n      0x00\n        /* \"#utility.yul\":1742:1748   */\n      0x00\n        /* \"#utility.yul\":1791:1793   */\n      0x40\n        /* \"#utility.yul\":1779:1788   */\n      dup4\n        /* \"#utility.yul\":1770:1777   */\n      dup6\n        /* \"#utility.yul\":1766:1789   */\n      sub\n        /* \"#utility.yul\":1762:1794   */\n      slt\n        /* \"#utility.yul\":1759:1878   */\n      iszero\n      tag_55\n      jumpi\n        /* \"#utility.yul\":1797:1876   */\n      tag_56\n      tag_23\n      jump\t// in\n    tag_56:\n        /* \"#utility.yul\":1759:1878   */\n    tag_55:\n        /* \"#utility.yul\":1917:1918   */\n      0x00\n        /* \"#utility.yul\":1942:1995   */\n      tag_57\n        /* \"#utility.yul\":1987:1994   */\n      dup6\n        /* \"#utility.yul\":1978:1984   */\n      dup3\n        /* \"#utility.yul\":1967:1976   */\n      dup7\n        /* \"#utility.yul\":1963:1985   */\n      add\n        /* \"#utility.yul\":1942:1995   */\n      tag_27\n      jump\t// in\n    tag_57:\n        /* \"#utility.yul\":1932:1995   */\n      swap3\n      pop\n        /* \"#utility.yul\":1888:2005   */\n      pop\n        /* \"#utility.yul\":2044:2046   */\n      0x20\n        /* \"#utility.yul\":2070:2123   */\n      tag_58\n        /* \"#utility.yul\":2115:2122   */\n      dup6\n        /* \"#utility.yul\":2106:2112   */\n      dup3\n        /* \"#utility.yul\":2095:2104   */\n      dup7\n        /* \"#utility.yul\":2091:2113   */\n      add\n        /* \"#utility.yul\":2070:2123   */\n      tag_27\n      jump\t// in\n    tag_58:\n        /* \"#utility.yul\":2060:2123   */\n      swap2\n      pop\n        /* \"#utility.yul\":2015:2133   */\n      pop\n        /* \"#utility.yul\":1666:2140   */\n      swap3\n      pop\n      swap3\n      swap1\n      pop\n      jump\t// out\n        /* \"#utility.yul\":2146:2255   */\n    tag_31:\n        /* \"#utility.yul\":2227:2248   */\n      tag_60\n        /* \"#utility.yul\":2242:2247   */\n      dup2\n        /* \"#utility.yul\":2227:2248   */\n      tag_28\n      jump\t// in\n    tag_60:\n        /* \"#utility.yul\":2222:2225   */\n      dup3\n        /* \"#utility.yul\":2215:2249   */\n      mstore\n        /* \"#utility.yul\":2146:2255   */\n      pop\n      pop\n      jump\t// out\n        /* \"#utility.yul\":2261:2471   */\n    tag_15:\n        /* \"#utility.yul\":2348:2352   */\n      0x00\n        /* \"#utility.yul\":2386:2388   */\n      0x20\n        /* \"#utility.yul\":2375:2384   */\n      dup3\n        /* \"#utility.yul\":2371:2389   */\n      add\n        /* \"#utility.yul\":2363:2389   */\n      swap1\n      pop\n        /* \"#utility.yul\":2399:2464   */\n      tag_62\n        /* \"#utility.yul\":2461:2462   */\n      0x00\n        /* \"#utility.yul\":2450:2459   */\n      dup4\n        /* \"#utility.yul\":2446:2463   */\n      add\n        /* \"#utility.yul\":2437:2443   */\n      dup5\n        /* \"#utility.yul\":2399:2464   */\n      tag_31\n      jump\t// in\n    tag_62:\n        /* \"#utility.yul\":2261:2471   */\n      swap3\n      swap2\n      pop\n      pop\n      jump\t// out\n\n    auxdata: 0xa2646970667358221220a2ea1918a49b2df09ca14ee43eeca0cd13b5265c0c6924e941eab83891a546bc64736f6c634300081d0033\n}\n",
				"bytecode": {
					"linkReferences": {},
					"object": "6080604052348015600e575f5ffd5b506102b08061001c5f395ff3fe608060405234801561000f575f5ffd5b506004361061003f575f3560e01c806316ccef1c1461004357806334fa62741461005f5780635173bd1e1461008f575b5f5ffd5b61005d600480360381019061005891906101c4565b6100bf565b005b61007960048036038101906100749190610214565b6100fa565b6040516100869190610261565b60405180910390f35b6100a960048036038101906100a49190610214565b61012f565b6040516100b69190610261565b60405180910390f35b805f5f8581526020019081526020015f205f8481526020019081526020015f205f6101000a81548160ff021916908315150217905550505050565b5f5f5f8481526020019081526020015f205f8381526020019081526020015f205f9054906101000a900460ff16905092915050565b5f602052815f5260405f20602052805f5260405f205f915091509054906101000a900460ff1681565b5f5ffd5b5f819050919050565b61016e8161015c565b8114610178575f5ffd5b50565b5f8135905061018981610165565b92915050565b5f8115159050919050565b6101a38161018f565b81146101ad575f5ffd5b50565b5f813590506101be8161019a565b92915050565b5f5f5f606084860312156101db576101da610158565b5b5f6101e88682870161017b565b93505060206101f98682870161017b565b925050604061020a868287016101b0565b9150509250925092565b5f5f6040838503121561022a57610229610158565b5b5f6102378582860161017b565b92505060206102488582860161017b565b9150509250929050565b61025b8161018f565b82525050565b5f6020820190506102745f830184610252565b9291505056fea2646970667358221220a2ea1918a49b2df09ca14ee43eeca0cd13b5265c0c6924e941eab83891a546bc64736f6c634300081d0033",
					"opcodes": "PUSH1 0x80 PUSH1 0x40 MSTORE CALLVALUE DUP1 ISZERO PUSH1 0xE JUMPI PUSH0 PUSH0 REVERT JUMPDEST POP PUSH2 0x2B0 DUP1 PUSH2 0x1C PUSH0 CODECOPY PUSH0 RETURN INVALID PUSH1 0x80 PUSH1 0x40 MSTORE CALLVALUE DUP1 ISZERO PUSH2 0xF JUMPI PUSH0 PUSH0 REVERT JUMPDEST POP PUSH1 0x4 CALLDATASIZE LT PUSH2 0x3F JUMPI PUSH0 CALLDATALOAD PUSH1 0xE0 SHR DUP1 PUSH4 0x16CCEF1C EQ PUSH2 0x43 JUMPI DUP1 PUSH4 0x34FA6274 EQ PUSH2 0x5F JUMPI DUP1 PUSH4 0x5173BD1E EQ PUSH2 0x8F JUMPI JUMPDEST PUSH0 PUSH0 REVERT JUMPDEST PUSH2 0x5D PUSH1 0x4 DUP1 CALLDATASIZE SUB DUP2 ADD SWAP1 PUSH2 0x58 SWAP2 SWAP1 PUSH2 0x1C4 JUMP JUMPDEST PUSH2 0xBF JUMP JUMPDEST STOP JUMPDEST PUSH2 0x79 PUSH1 0x4 DUP1 CALLDATASIZE SUB DUP2 ADD SWAP1 PUSH2 0x74 SWAP2 SWAP1 PUSH2 0x214 JUMP JUMPDEST PUSH2 0xFA JUMP JUMPDEST PUSH1 0x40 MLOAD PUSH2 0x86 SWAP2 SWAP1 PUSH2 0x261 JUMP JUMPDEST PUSH1 0x40 MLOAD DUP1 SWAP2 SUB SWAP1 RETURN JUMPDEST PUSH2 0xA9 PUSH1 0x4 DUP1 CALLDATASIZE SUB DUP2 ADD SWAP1 PUSH2 0xA4 SWAP2 SWAP1 PUSH2 0x214 JUMP JUMPDEST PUSH2 0x12F JUMP JUMPDEST PUSH1 0x40 MLOAD PUSH2 0xB6 SWAP2 SWAP1 PUSH2 0x261 JUMP JUMPDEST PUSH1 0x40 MLOAD DUP1 SWAP2 SUB SWAP1 RETURN JUMPDEST DUP1 PUSH0 PUSH0 DUP6 DUP2 MSTORE PUSH1 0x20 ADD SWAP1 DUP2 MSTORE PUSH1 0x20 ADD PUSH0 KECCAK256 PUSH0 DUP5 DUP2 MSTORE PUSH1 0x20 ADD SWAP1 DUP2 MSTORE PUSH1 0x20 ADD PUSH0 KECCAK256 PUSH0 PUSH2 0x100 EXP DUP2 SLOAD DUP2 PUSH1 0xFF MUL NOT AND SWAP1 DUP4 ISZERO ISZERO MUL OR SWAP1 SSTORE POP POP POP POP JUMP JUMPDEST PUSH0 PUSH0 PUSH0 DUP5 DUP2 MSTORE PUSH1 0x20 ADD SWAP1 DUP2 MSTORE PUSH1 0x20 ADD PUSH0 KECCAK256 PUSH0 DUP4 DUP2 MSTORE PUSH1 0x20 ADD SWAP1 DUP2 MSTORE PUSH1 0x20 ADD PUSH0 KECCAK256 PUSH0 SWAP1 SLOAD SWAP1 PUSH2 0x100 EXP SWAP1 DIV PUSH1 0xFF AND SWAP1 POP SWAP3 SWAP2 POP POP JUMP JUMPDEST PUSH0 PUSH1 0x20 MSTORE DUP2 PUSH0 MSTORE PUSH1 0x40 PUSH0 KECCAK256 PUSH1 0x20 MSTORE DUP1 PUSH0 MSTORE PUSH1 0x40 PUSH0 KECCAK256 PUSH0 SWAP2 POP SWAP2 POP SWAP1 SLOAD SWAP1 PUSH2 0x100 EXP SWAP1 DIV PUSH1 0xFF AND DUP2 JUMP JUMPDEST PUSH0 PUSH0 REVERT JUMPDEST PUSH0 DUP2 SWAP1 POP SWAP2 SWAP1 POP JUMP JUMPDEST PUSH2 0x16E DUP2 PUSH2 0x15C JUMP JUMPDEST DUP2 EQ PUSH2 0x178 JUMPI PUSH0 PUSH0 REVERT JUMPDEST POP JUMP JUMPDEST PUSH0 DUP2 CALLDATALOAD SWAP1 POP PUSH2 0x189 DUP2 PUSH2 0x165 JUMP JUMPDEST SWAP3 SWAP2 POP POP JUMP JUMPDEST PUSH0 DUP2 ISZERO ISZERO SWAP1 POP SWAP2 SWAP1 POP JUMP JUMPDEST PUSH2 0x1A3 DUP2 PUSH2 0x18F JUMP JUMPDEST DUP2 EQ PUSH2 0x1AD JUMPI PUSH0 PUSH0 REVERT JUMPDEST POP JUMP JUMPDEST PUSH0 DUP2 CALLDATALOAD SWAP1 POP PUSH2 0x1BE DUP2 PUSH2 0x19A JUMP JUMPDEST SWAP3 SWAP2 POP POP JUMP JUMPDEST PUSH0 PUSH0 PUSH0 PUSH1 0x60 DUP5 DUP7 SUB SLT ISZERO PUSH2 0x1DB JUMPI PUSH2 0x1DA PUSH2 0x158 JUMP JUMPDEST JUMPDEST PUSH0 PUSH2 0x1E8 DUP7 DUP3 DUP8 ADD PUSH2 0x17B JUMP JUMPDEST SWAP4 POP POP PUSH1 0x20 PUSH2 0x1F9 DUP7 DUP3 DUP8 ADD PUSH2 0x17B JUMP JUMPDEST SWAP3 POP POP PUSH1 0x40 PUSH2 0x20A DUP7 DUP3 DUP8 ADD PUSH2 0x1B0 JUMP JUMPDEST SWAP2 POP POP SWAP3 POP SWAP3 POP SWAP3 JUMP JUMPDEST PUSH0 PUSH0 PUSH1 0x40 DUP4 DUP6 SUB SLT ISZERO PUSH2 0x22A JUMPI PUSH2 0x229 PUSH2 0x158 JUMP JUMPDEST JUMPDEST PUSH0 PUSH2 0x237 DUP6 DUP3 DUP7 ADD PUSH2 0x17B JUMP JUMPDEST SWAP3 POP POP PUSH1 0x20 PUSH2 0x248 DUP6 DUP3 DUP7 ADD PUSH2 0x17B JUMP JUMPDEST SWAP2 POP POP SWAP3 POP SWAP3 SWAP1 POP JUMP JUMPDEST PUSH2 0x25B DUP2 PUSH2 0x18F JUMP JUMPDEST DUP3 MSTORE POP POP JUMP JUMPDEST PUSH0 PUSH1 0x20 DUP3 ADD SWAP1 POP PUSH2 0x274 PUSH0 DUP4 ADD DUP5 PUSH2 0x252 JUMP JUMPDEST SWAP3 SWAP2 POP POP JUMP INVALID LOG2 PUSH5 0x6970667358 0x22 SLT KECCAK256 LOG2 0xEA NOT XOR LOG4 SWAP12 0x2D CREATE SWAP13 LOG1 0x4E RETF RETURNDATACOPY EOFCREATE 0xA0 0xCD SGT 0xB5 0x26 TLOAD 0xC PUSH10 0x24E941EAB83891A546BC PUSH5 0x736F6C6343 STOP ADDMOD SAR STOP CALLER "
				},
				"gasEstimates": {
					"creation": {
						"codeDepositCost": "137600",
						"executionCost": "181",
						"totalCost": "137781"
					},
					"external": {
						"Result(uint256,uint256)": "infinite",
						"data(uint256,uint256)": "infinite",
						"insert(uint256,uint256,bool)": "infinite"
					}
				},
				"methodIdentifiers": {
					"Result(uint256,uint256)": "34fa6274",
					"data(uint256,uint256)": "5173bd1e",
					"insert(uint256,uint256,bool)": "16ccef1c"
				}
			},
			"storageLayout": {
				"storage": [
					{
						"astId": 7,
						"contract": "contracts/25_Nested_Mapping.sol:demo",
						"label": "data",
						"offset": 0,
						"slot": "0",
						"type": "t_mapping(t_uint256,t_mapping(t_uint256,t_bool))"
					}
				],
				"types": {
					"t_bool": {
						"encoding": "inplace",
						"label": "bool",
						"numberOfBytes": "1"
					},
					"t_mapping(t_uint256,t_bool)": {
						"encoding": "mapping",
						"key": "t_uint256",
						"label": "mapping(uint256 => bool)",
						"numberOfBytes": "32",
						"value": "t_bool"
					},
					"t_mapping(t_uint256,t_mapping(t_uint256,t_bool))": {
						"encoding": "mapping",
						"key": "t_uint256",
						"label": "mapping(uint256 => mapping(uint256 => bool))",
						"numberOfBytes": "32",
						"value": "t_mapping(t_uint256,t_bool)"
					},
					"t_uint256": {
						"encoding": "inplace",
						"label": "uint256",
						"numberOfBytes": "32"
					}
				}
			},
			"userdoc": {
				"kind": "user",
				"methods": {},
				"version": 1
			}
		}
	}
}