{
	"contracts/22_enum.sol": {
		"demo": {
			"abi": [
				{
					"inputs": [
						{
							"internalType": "enum demo.Button",
							"name": "_click",
							"type": "uint8"
						}
					],
					"name": "changeStatus",
					"outputs": [],
					"stateMutability": "nonpayable",
					"type": "function"
				},
				{
					"inputs": [],
					"name": "checkStatus",
					"outputs": [
						{
							"internalType": "enum demo.Button",
							"name": "",
							"type": "uint8"
						}
					],
					"stateMutability": "view",
					"type": "function"
				},
				{
					"inputs": [],
					"name": "like",
					"outputs": [
						{
							"internalType": "enum demo.Button",
							"name": "",
							"type": "uint8"
						}
					],
					"stateMutability": "view",
					"type": "function"
				},
				{
					"inputs": [],
					"name": "returnStatus",
					"outputs": [
						{
							"internalType": "string",
							"name": "",
							"type": "string"
						}
					],
					"stateMutability": "view",
					"type": "function"
				}
			],
			"devdoc": {
				"kind": "dev",
				"methods": {},
				"version": 1
			},
			"evm": {
				"assembly": "    /* \"contracts/22_enum.sol\":235:1147  contract demo{... */\n  mstore(0x40, 0x80)\n  callvalue\n  dup1\n  iszero\n  tag_1\n  jumpi\n  revert(0x00, 0x00)\ntag_1:\n  pop\n  dataSize(sub_0)\n  dup1\n  dataOffset(sub_0)\n  0x00\n  codecopy\n  0x00\n  return\nstop\n\nsub_0: assembly {\n        /* \"contracts/22_enum.sol\":235:1147  contract demo{... */\n      mstore(0x40, 0x80)\n      callvalue\n      dup1\n      iszero\n      tag_1\n      jumpi\n      revert(0x00, 0x00)\n    tag_1:\n      pop\n      jumpi(tag_2, lt(calldatasize, 0x04))\n      shr(0xe0, calldataload(0x00))\n      dup1\n      0x32aec755\n      eq\n      tag_3\n      jumpi\n      dup1\n      0x3b7104f2\n      eq\n      tag_4\n      jumpi\n      dup1\n      0x95bc9538\n      eq\n      tag_5\n      jumpi\n      dup1\n      0xa523b88a\n      eq\n      tag_6\n      jumpi\n    tag_2:\n      revert(0x00, 0x00)\n        /* \"contracts/22_enum.sol\":904:1144  function returnStatus() public view returns(string memory){... */\n    tag_3:\n      tag_7\n      tag_8\n      jump\t// in\n    tag_7:\n      mload(0x40)\n      tag_9\n      swap2\n      swap1\n      tag_10\n      jump\t// in\n    tag_9:\n      mload(0x40)\n      dup1\n      swap2\n      sub\n      swap1\n      return\n        /* \"contracts/22_enum.sol\":733:813  function checkStatus() public view returns(Button){... */\n    tag_4:\n      tag_11\n      tag_12\n      jump\t// in\n    tag_11:\n      mload(0x40)\n      tag_13\n      swap2\n      swap1\n      tag_14\n      jump\t// in\n    tag_13:\n      mload(0x40)\n      dup1\n      swap2\n      sub\n      swap1\n      return\n        /* \"contracts/22_enum.sol\":821:896  function changeStatus(Button _click) public{... */\n    tag_5:\n      tag_15\n      0x04\n      dup1\n      calldatasize\n      sub\n      dup2\n      add\n      swap1\n      tag_16\n      swap2\n      swap1\n      tag_17\n      jump\t// in\n    tag_16:\n      tag_18\n      jump\t// in\n    tag_15:\n      stop\n        /* \"contracts/22_enum.sol\":706:724  Button public like */\n    tag_6:\n      tag_19\n      tag_20\n      jump\t// in\n    tag_19:\n      mload(0x40)\n      tag_21\n      swap2\n      swap1\n      tag_14\n      jump\t// in\n    tag_21:\n      mload(0x40)\n      dup1\n      swap2\n      sub\n      swap1\n      return\n        /* \"contracts/22_enum.sol\":904:1144  function returnStatus() public view returns(string memory){... */\n    tag_8:\n        /* \"contracts/22_enum.sol\":948:961  string memory */\n      0x60\n        /* \"contracts/22_enum.sol\":984:1004  Button.Not_Intrested */\n      0x00\n        /* \"contracts/22_enum.sol\":976:1004  like == Button.Not_Intrested */\n      0x02\n      dup2\n      gt\n      iszero\n      tag_23\n      jumpi\n      tag_24\n      tag_25\n      jump\t// in\n    tag_24:\n    tag_23:\n        /* \"contracts/22_enum.sol\":976:980  like */\n      0x00\n      0x00\n      swap1\n      sload\n      swap1\n      0x0100\n      exp\n      swap1\n      div\n      0xff\n      and\n        /* \"contracts/22_enum.sol\":976:1004  like == Button.Not_Intrested */\n      0x02\n      dup2\n      gt\n      iszero\n      tag_26\n      jumpi\n      tag_27\n      tag_25\n      jump\t// in\n    tag_27:\n    tag_26:\n      sub\n        /* \"contracts/22_enum.sol\":973:1137  if(like == Button.Not_Intrested){... */\n      tag_28\n      jumpi\n        /* \"contracts/22_enum.sol\":1020:1049  return \"She is Not_Intrested\" */\n      mload(0x40)\n      dup1\n      0x40\n      add\n      0x40\n      mstore\n      dup1\n      0x14\n      dup2\n      mstore\n      0x20\n      add\n      0x536865206973204e6f745f496e74726573746564000000000000000000000000\n      dup2\n      mstore\n      pop\n      swap1\n      pop\n      jump(tag_22)\n        /* \"contracts/22_enum.sol\":973:1137  if(like == Button.Not_Intrested){... */\n    tag_28:\n        /* \"contracts/22_enum.sol\":1090:1125  return \"Luckey Guy ! She Likes You\" */\n      mload(0x40)\n      dup1\n      0x40\n      add\n      0x40\n      mstore\n      dup1\n      0x1a\n      dup2\n      mstore\n      0x20\n      add\n      0x4c75636b657920477579202120536865204c696b657320596f75000000000000\n      dup2\n      mstore\n      pop\n      swap1\n      pop\n        /* \"contracts/22_enum.sol\":904:1144  function returnStatus() public view returns(string memory){... */\n    tag_22:\n      swap1\n      jump\t// out\n        /* \"contracts/22_enum.sol\":733:813  function checkStatus() public view returns(Button){... */\n    tag_12:\n        /* \"contracts/22_enum.sol\":776:782  Button */\n      0x00\n        /* \"contracts/22_enum.sol\":801:805  like */\n      0x00\n      0x00\n      swap1\n      sload\n      swap1\n      0x0100\n      exp\n      swap1\n      div\n      0xff\n      and\n        /* \"contracts/22_enum.sol\":794:805  return like */\n      swap1\n      pop\n        /* \"contracts/22_enum.sol\":733:813  function checkStatus() public view returns(Button){... */\n      swap1\n      jump\t// out\n        /* \"contracts/22_enum.sol\":821:896  function changeStatus(Button _click) public{... */\n    tag_18:\n        /* \"contracts/22_enum.sol\":882:888  _click */\n      dup1\n        /* \"contracts/22_enum.sol\":875:879  like */\n      0x00\n      0x00\n        /* \"contracts/22_enum.sol\":875:888  like = _click */\n      0x0100\n      exp\n      dup2\n      sload\n      dup2\n      0xff\n      mul\n      not\n      and\n      swap1\n      dup4\n      0x02\n      dup2\n      gt\n      iszero\n      tag_32\n      jumpi\n      tag_33\n      tag_25\n      jump\t// in\n    tag_33:\n    tag_32:\n      mul\n      or\n      swap1\n      sstore\n      pop\n        /* \"contracts/22_enum.sol\":821:896  function changeStatus(Button _click) public{... */\n      pop\n      jump\t// out\n        /* \"contracts/22_enum.sol\":706:724  Button public like */\n    tag_20:\n      0x00\n      0x00\n      swap1\n      sload\n      swap1\n      0x0100\n      exp\n      swap1\n      div\n      0xff\n      and\n      dup2\n      jump\t// out\n        /* \"#utility.yul\":7:106   */\n    tag_34:\n        /* \"#utility.yul\":59:65   */\n      0x00\n        /* \"#utility.yul\":93:98   */\n      dup2\n        /* \"#utility.yul\":87:99   */\n      mload\n        /* \"#utility.yul\":77:99   */\n      swap1\n      pop\n        /* \"#utility.yul\":7:106   */\n      swap2\n      swap1\n      pop\n      jump\t// out\n        /* \"#utility.yul\":112:281   */\n    tag_35:\n        /* \"#utility.yul\":196:207   */\n      0x00\n        /* \"#utility.yul\":230:236   */\n      dup3\n        /* \"#utility.yul\":225:228   */\n      dup3\n        /* \"#utility.yul\":218:237   */\n      mstore\n        /* \"#utility.yul\":270:274   */\n      0x20\n        /* \"#utility.yul\":265:268   */\n      dup3\n        /* \"#utility.yul\":261:275   */\n      add\n        /* \"#utility.yul\":246:275   */\n      swap1\n      pop\n        /* \"#utility.yul\":112:281   */\n      swap3\n      swap2\n      pop\n      pop\n      jump\t// out\n        /* \"#utility.yul\":287:426   */\n    tag_36:\n        /* \"#utility.yul\":376:382   */\n      dup3\n        /* \"#utility.yul\":371:374   */\n      dup2\n        /* \"#utility.yul\":366:369   */\n      dup4\n        /* \"#utility.yul\":360:383   */\n      mcopy\n        /* \"#utility.yul\":417:418   */\n      0x00\n        /* \"#utility.yul\":408:414   */\n      dup4\n        /* \"#utility.yul\":403:406   */\n      dup4\n        /* \"#utility.yul\":399:415   */\n      add\n        /* \"#utility.yul\":392:419   */\n      mstore\n        /* \"#utility.yul\":287:426   */\n      pop\n      pop\n      pop\n      jump\t// out\n        /* \"#utility.yul\":432:534   */\n    tag_37:\n        /* \"#utility.yul\":473:479   */\n      0x00\n        /* \"#utility.yul\":524:526   */\n      0x1f\n        /* \"#utility.yul\":520:527   */\n      not\n        /* \"#utility.yul\":515:517   */\n      0x1f\n        /* \"#utility.yul\":508:513   */\n      dup4\n        /* \"#utility.yul\":504:518   */\n      add\n        /* \"#utility.yul\":500:528   */\n      and\n        /* \"#utility.yul\":490:528   */\n      swap1\n      pop\n        /* \"#utility.yul\":432:534   */\n      swap2\n      swap1\n      pop\n      jump\t// out\n        /* \"#utility.yul\":540:917   */\n    tag_38:\n        /* \"#utility.yul\":628:631   */\n      0x00\n        /* \"#utility.yul\":656:695   */\n      tag_54\n        /* \"#utility.yul\":689:694   */\n      dup3\n        /* \"#utility.yul\":656:695   */\n      tag_34\n      jump\t// in\n    tag_54:\n        /* \"#utility.yul\":711:782   */\n      tag_55\n        /* \"#utility.yul\":775:781   */\n      dup2\n        /* \"#utility.yul\":770:773   */\n      dup6\n        /* \"#utility.yul\":711:782   */\n      tag_35\n      jump\t// in\n    tag_55:\n        /* \"#utility.yul\":704:782   */\n      swap4\n      pop\n        /* \"#utility.yul\":791:856   */\n      tag_56\n        /* \"#utility.yul\":849:855   */\n      dup2\n        /* \"#utility.yul\":844:847   */\n      dup6\n        /* \"#utility.yul\":837:841   */\n      0x20\n        /* \"#utility.yul\":830:835   */\n      dup7\n        /* \"#utility.yul\":826:842   */\n      add\n        /* \"#utility.yul\":791:856   */\n      tag_36\n      jump\t// in\n    tag_56:\n        /* \"#utility.yul\":881:910   */\n      tag_57\n        /* \"#utility.yul\":903:909   */\n      dup2\n        /* \"#utility.yul\":881:910   */\n      tag_37\n      jump\t// in\n    tag_57:\n        /* \"#utility.yul\":876:879   */\n      dup5\n        /* \"#utility.yul\":872:911   */\n      add\n        /* \"#utility.yul\":865:911   */\n      swap2\n      pop\n        /* \"#utility.yul\":632:917   */\n      pop\n        /* \"#utility.yul\":540:917   */\n      swap3\n      swap2\n      pop\n      pop\n      jump\t// out\n        /* \"#utility.yul\":923:1236   */\n    tag_10:\n        /* \"#utility.yul\":1036:1040   */\n      0x00\n        /* \"#utility.yul\":1074:1076   */\n      0x20\n        /* \"#utility.yul\":1063:1072   */\n      dup3\n        /* \"#utility.yul\":1059:1077   */\n      add\n        /* \"#utility.yul\":1051:1077   */\n      swap1\n      pop\n        /* \"#utility.yul\":1123:1132   */\n      dup2\n        /* \"#utility.yul\":1117:1121   */\n      dup2\n        /* \"#utility.yul\":1113:1133   */\n      sub\n        /* \"#utility.yul\":1109:1110   */\n      0x00\n        /* \"#utility.yul\":1098:1107   */\n      dup4\n        /* \"#utility.yul\":1094:1111   */\n      add\n        /* \"#utility.yul\":1087:1134   */\n      mstore\n        /* \"#utility.yul\":1151:1229   */\n      tag_59\n        /* \"#utility.yul\":1224:1228   */\n      dup2\n        /* \"#utility.yul\":1215:1221   */\n      dup5\n        /* \"#utility.yul\":1151:1229   */\n      tag_38\n      jump\t// in\n    tag_59:\n        /* \"#utility.yul\":1143:1229   */\n      swap1\n      pop\n        /* \"#utility.yul\":923:1236   */\n      swap3\n      swap2\n      pop\n      pop\n      jump\t// out\n        /* \"#utility.yul\":1242:1422   */\n    tag_25:\n        /* \"#utility.yul\":1290:1367   */\n      0x4e487b7100000000000000000000000000000000000000000000000000000000\n        /* \"#utility.yul\":1287:1288   */\n      0x00\n        /* \"#utility.yul\":1280:1368   */\n      mstore\n        /* \"#utility.yul\":1387:1391   */\n      0x21\n        /* \"#utility.yul\":1384:1385   */\n      0x04\n        /* \"#utility.yul\":1377:1392   */\n      mstore\n        /* \"#utility.yul\":1411:1415   */\n      0x24\n        /* \"#utility.yul\":1408:1409   */\n      0x00\n        /* \"#utility.yul\":1401:1416   */\n      revert\n        /* \"#utility.yul\":1428:1541   */\n    tag_39:\n        /* \"#utility.yul\":1509:1510   */\n      0x03\n        /* \"#utility.yul\":1502:1507   */\n      dup2\n        /* \"#utility.yul\":1499:1511   */\n      lt\n        /* \"#utility.yul\":1489:1535   */\n      tag_62\n      jumpi\n        /* \"#utility.yul\":1515:1533   */\n      tag_63\n      tag_25\n      jump\t// in\n    tag_63:\n        /* \"#utility.yul\":1489:1535   */\n    tag_62:\n        /* \"#utility.yul\":1428:1541   */\n      pop\n      jump\t// out\n        /* \"#utility.yul\":1547:1674   */\n    tag_40:\n        /* \"#utility.yul\":1592:1599   */\n      0x00\n        /* \"#utility.yul\":1621:1626   */\n      dup2\n        /* \"#utility.yul\":1610:1626   */\n      swap1\n      pop\n        /* \"#utility.yul\":1627:1668   */\n      tag_65\n        /* \"#utility.yul\":1662:1667   */\n      dup3\n        /* \"#utility.yul\":1627:1668   */\n      tag_39\n      jump\t// in\n    tag_65:\n        /* \"#utility.yul\":1547:1674   */\n      swap2\n      swap1\n      pop\n      jump\t// out\n        /* \"#utility.yul\":1680:1807   */\n    tag_41:\n        /* \"#utility.yul\":1736:1745   */\n      0x00\n        /* \"#utility.yul\":1769:1801   */\n      tag_67\n        /* \"#utility.yul\":1795:1800   */\n      dup3\n        /* \"#utility.yul\":1769:1801   */\n      tag_40\n      jump\t// in\n    tag_67:\n        /* \"#utility.yul\":1756:1801   */\n      swap1\n      pop\n        /* \"#utility.yul\":1680:1807   */\n      swap2\n      swap1\n      pop\n      jump\t// out\n        /* \"#utility.yul\":1813:1956   */\n    tag_42:\n        /* \"#utility.yul\":1906:1949   */\n      tag_69\n        /* \"#utility.yul\":1943:1948   */\n      dup2\n        /* \"#utility.yul\":1906:1949   */\n      tag_41\n      jump\t// in\n    tag_69:\n        /* \"#utility.yul\":1901:1904   */\n      dup3\n        /* \"#utility.yul\":1894:1950   */\n      mstore\n        /* \"#utility.yul\":1813:1956   */\n      pop\n      pop\n      jump\t// out\n        /* \"#utility.yul\":1962:2196   */\n    tag_14:\n        /* \"#utility.yul\":2061:2065   */\n      0x00\n        /* \"#utility.yul\":2099:2101   */\n      0x20\n        /* \"#utility.yul\":2088:2097   */\n      dup3\n        /* \"#utility.yul\":2084:2102   */\n      add\n        /* \"#utility.yul\":2076:2102   */\n      swap1\n      pop\n        /* \"#utility.yul\":2112:2189   */\n      tag_71\n        /* \"#utility.yul\":2186:2187   */\n      0x00\n        /* \"#utility.yul\":2175:2184   */\n      dup4\n        /* \"#utility.yul\":2171:2188   */\n      add\n        /* \"#utility.yul\":2162:2168   */\n      dup5\n        /* \"#utility.yul\":2112:2189   */\n      tag_42\n      jump\t// in\n    tag_71:\n        /* \"#utility.yul\":1962:2196   */\n      swap3\n      swap2\n      pop\n      pop\n      jump\t// out\n        /* \"#utility.yul\":2283:2400   */\n    tag_44:\n        /* \"#utility.yul\":2392:2393   */\n      0x00\n        /* \"#utility.yul\":2389:2390   */\n      0x00\n        /* \"#utility.yul\":2382:2394   */\n      revert\n        /* \"#utility.yul\":2529:2636   */\n    tag_46:\n        /* \"#utility.yul\":2610:2611   */\n      0x03\n        /* \"#utility.yul\":2603:2608   */\n      dup2\n        /* \"#utility.yul\":2600:2612   */\n      lt\n        /* \"#utility.yul\":2590:2630   */\n      tag_76\n      jumpi\n        /* \"#utility.yul\":2626:2627   */\n      0x00\n        /* \"#utility.yul\":2623:2624   */\n      0x00\n        /* \"#utility.yul\":2616:2628   */\n      revert\n        /* \"#utility.yul\":2590:2630   */\n    tag_76:\n        /* \"#utility.yul\":2529:2636   */\n      pop\n      jump\t// out\n        /* \"#utility.yul\":2642:2797   */\n    tag_47:\n        /* \"#utility.yul\":2696:2701   */\n      0x00\n        /* \"#utility.yul\":2734:2740   */\n      dup2\n        /* \"#utility.yul\":2721:2741   */\n      calldataload\n        /* \"#utility.yul\":2712:2741   */\n      swap1\n      pop\n        /* \"#utility.yul\":2750:2791   */\n      tag_78\n        /* \"#utility.yul\":2785:2790   */\n      dup2\n        /* \"#utility.yul\":2750:2791   */\n      tag_46\n      jump\t// in\n    tag_78:\n        /* \"#utility.yul\":2642:2797   */\n      swap3\n      swap2\n      pop\n      pop\n      jump\t// out\n        /* \"#utility.yul\":2803:3148   */\n    tag_17:\n        /* \"#utility.yul\":2870:2876   */\n      0x00\n        /* \"#utility.yul\":2919:2921   */\n      0x20\n        /* \"#utility.yul\":2907:2916   */\n      dup3\n        /* \"#utility.yul\":2898:2905   */\n      dup5\n        /* \"#utility.yul\":2894:2917   */\n      sub\n        /* \"#utility.yul\":2890:2922   */\n      slt\n        /* \"#utility.yul\":2887:3006   */\n      iszero\n      tag_80\n      jumpi\n        /* \"#utility.yul\":2925:3004   */\n      tag_81\n      tag_44\n      jump\t// in\n    tag_81:\n        /* \"#utility.yul\":2887:3006   */\n    tag_80:\n        /* \"#utility.yul\":3045:3046   */\n      0x00\n        /* \"#utility.yul\":3070:3131   */\n      tag_82\n        /* \"#utility.yul\":3123:3130   */\n      dup5\n        /* \"#utility.yul\":3114:3120   */\n      dup3\n        /* \"#utility.yul\":3103:3112   */\n      dup6\n        /* \"#utility.yul\":3099:3121   */\n      add\n        /* \"#utility.yul\":3070:3131   */\n      tag_47\n      jump\t// in\n    tag_82:\n        /* \"#utility.yul\":3060:3131   */\n      swap2\n      pop\n        /* \"#utility.yul\":3016:3141   */\n      pop\n        /* \"#utility.yul\":2803:3148   */\n      swap3\n      swap2\n      pop\n      pop\n      jump\t// out\n\n    auxdata: 0xa26469706673582212208598cf50fc7e252c801547732c5246b3190709e3b72cab4845aa0a4833e3d6ac64736f6c634300081d0033\n}\n",
				"bytecode": {
					"linkReferences": {},
					"object": "6080604052348015600e575f5ffd5b5061036b8061001c5f395ff3fe608060405234801561000f575f5ffd5b506004361061004a575f3560e01c806332aec7551461004e5780633b7104f21461006c57806395bc95381461008a578063a523b88a146100a6575b5f5ffd5b6100566100c4565b6040516100639190610237565b60405180910390f35b610074610177565b60405161008191906102ca565b60405180910390f35b6100a4600480360381019061009f919061030a565b61018b565b005b6100ae6101b6565b6040516100bb91906102ca565b60405180910390f35b60605f60028111156100d9576100d8610257565b5b5f5f9054906101000a900460ff1660028111156100f9576100f8610257565b5b0361013b576040518060400160405280601481526020017f536865206973204e6f745f496e747265737465640000000000000000000000008152509050610174565b6040518060400160405280601a81526020017f4c75636b657920477579202120536865204c696b657320596f7500000000000081525090505b90565b5f5f5f9054906101000a900460ff16905090565b805f5f6101000a81548160ff021916908360028111156101ae576101ad610257565b5b021790555050565b5f5f9054906101000a900460ff1681565b5f81519050919050565b5f82825260208201905092915050565b8281835e5f83830152505050565b5f601f19601f8301169050919050565b5f610209826101c7565b61021381856101d1565b93506102238185602086016101e1565b61022c816101ef565b840191505092915050565b5f6020820190508181035f83015261024f81846101ff565b905092915050565b7f4e487b71000000000000000000000000000000000000000000000000000000005f52602160045260245ffd5b6003811061029557610294610257565b5b50565b5f8190506102a582610284565b919050565b5f6102b482610298565b9050919050565b6102c4816102aa565b82525050565b5f6020820190506102dd5f8301846102bb565b92915050565b5f5ffd5b600381106102f3575f5ffd5b50565b5f81359050610304816102e7565b92915050565b5f6020828403121561031f5761031e6102e3565b5b5f61032c848285016102f6565b9150509291505056fea26469706673582212208598cf50fc7e252c801547732c5246b3190709e3b72cab4845aa0a4833e3d6ac64736f6c634300081d0033",
					"opcodes": "PUSH1 0x80 PUSH1 0x40 MSTORE CALLVALUE DUP1 ISZERO PUSH1 0xE JUMPI PUSH0 PUSH0 REVERT JUMPDEST POP PUSH2 0x36B DUP1 PUSH2 0x1C PUSH0 CODECOPY PUSH0 RETURN INVALID PUSH1 0x80 PUSH1 0x40 MSTORE CALLVALUE DUP1 ISZERO PUSH2 0xF JUMPI PUSH0 PUSH0 REVERT JUMPDEST POP PUSH1 0x4 CALLDATASIZE LT PUSH2 0x4A JUMPI PUSH0 CALLDATALOAD PUSH1 0xE0 SHR DUP1 PUSH4 0x32AEC755 EQ PUSH2 0x4E JUMPI DUP1 PUSH4 0x3B7104F2 EQ PUSH2 0x6C JUMPI DUP1 PUSH4 0x95BC9538 EQ PUSH2 0x8A JUMPI DUP1 PUSH4 0xA523B88A EQ PUSH2 0xA6 JUMPI JUMPDEST PUSH0 PUSH0 REVERT JUMPDEST PUSH2 0x56 PUSH2 0xC4 JUMP JUMPDEST PUSH1 0x40 MLOAD PUSH2 0x63 SWAP2 SWAP1 PUSH2 0x237 JUMP JUMPDEST PUSH1 0x40 MLOAD DUP1 SWAP2 SUB SWAP1 RETURN JUMPDEST PUSH2 0x74 PUSH2 0x177 JUMP JUMPDEST PUSH1 0x40 MLOAD PUSH2 0x81 SWAP2 SWAP1 PUSH2 0x2CA JUMP JUMPDEST PUSH1 0x40 MLOAD DUP1 SWAP2 SUB SWAP1 RETURN JUMPDEST PUSH2 0xA4 PUSH1 0x4 DUP1 CALLDATASIZE SUB DUP2 ADD SWAP1 PUSH2 0x9F SWAP2 SWAP1 PUSH2 0x30A JUMP JUMPDEST PUSH2 0x18B JUMP JUMPDEST STOP JUMPDEST PUSH2 0xAE PUSH2 0x1B6 JUMP JUMPDEST PUSH1 0x40 MLOAD PUSH2 0xBB SWAP2 SWAP1 PUSH2 0x2CA JUMP JUMPDEST PUSH1 0x40 MLOAD DUP1 SWAP2 SUB SWAP1 RETURN JUMPDEST PUSH1 0x60 PUSH0 PUSH1 0x2 DUP2 GT ISZERO PUSH2 0xD9 JUMPI PUSH2 0xD8 PUSH2 0x257 JUMP JUMPDEST JUMPDEST PUSH0 PUSH0 SWAP1 SLOAD SWAP1 PUSH2 0x100 EXP SWAP1 DIV PUSH1 0xFF AND PUSH1 0x2 DUP2 GT ISZERO PUSH2 0xF9 JUMPI PUSH2 0xF8 PUSH2 0x257 JUMP JUMPDEST JUMPDEST SUB PUSH2 0x13B JUMPI PUSH1 0x40 MLOAD DUP1 PUSH1 0x40 ADD PUSH1 0x40 MSTORE DUP1 PUSH1 0x14 DUP2 MSTORE PUSH1 0x20 ADD PUSH32 0x536865206973204E6F745F496E74726573746564000000000000000000000000 DUP2 MSTORE POP SWAP1 POP PUSH2 0x174 JUMP JUMPDEST PUSH1 0x40 MLOAD DUP1 PUSH1 0x40 ADD PUSH1 0x40 MSTORE DUP1 PUSH1 0x1A DUP2 MSTORE PUSH1 0x20 ADD PUSH32 0x4C75636B657920477579202120536865204C696B657320596F75000000000000 DUP2 MSTORE POP SWAP1 POP JUMPDEST SWAP1 JUMP JUMPDEST PUSH0 PUSH0 PUSH0 SWAP1 SLOAD SWAP1 PUSH2 0x100 EXP SWAP1 DIV PUSH1 0xFF AND SWAP1 POP SWAP1 JUMP JUMPDEST DUP1 PUSH0 PUSH0 PUSH2 0x100 EXP DUP2 SLOAD DUP2 PUSH1 0xFF MUL NOT AND SWAP1 DUP4 PUSH1 0x2 DUP2 GT ISZERO PUSH2 0x1AE JUMPI PUSH2 0x1AD PUSH2 0x257 JUMP JUMPDEST JUMPDEST MUL OR SWAP1 SSTORE POP POP JUMP JUMPDEST PUSH0 PUSH0 SWAP1 SLOAD SWAP1 PUSH2 0x100 EXP SWAP1 DIV PUSH1 0xFF AND DUP2 JUMP JUMPDEST PUSH0 DUP2 MLOAD SWAP1 POP SWAP2 SWAP1 POP JUMP JUMPDEST PUSH0 DUP3 DUP3 MSTORE PUSH1 0x20 DUP3 ADD SWAP1 POP SWAP3 SWAP2 POP POP JUMP JUMPDEST DUP3 DUP2 DUP4 MCOPY PUSH0 DUP4 DUP4 ADD MSTORE POP POP POP JUMP JUMPDEST PUSH0 PUSH1 0x1F NOT PUSH1 0x1F DUP4 ADD AND SWAP1 POP SWAP2 SWAP1 POP JUMP JUMPDEST PUSH0 PUSH2 0x209 DUP3 PUSH2 0x1C7 JUMP JUMPDEST PUSH2 0x213 DUP2 DUP6 PUSH2 0x1D1 JUMP JUMPDEST SWAP4 POP PUSH2 0x223 DUP2 DUP6 PUSH1 0x20 DUP7 ADD PUSH2 0x1E1 JUMP JUMPDEST PUSH2 0x22C DUP2 PUSH2 0x1EF JUMP JUMPDEST DUP5 ADD SWAP2 POP POP SWAP3 SWAP2 POP POP JUMP JUMPDEST PUSH0 PUSH1 0x20 DUP3 ADD SWAP1 POP DUP2 DUP2 SUB PUSH0 DUP4 ADD MSTORE PUSH2 0x24F DUP2 DUP5 PUSH2 0x1FF JUMP JUMPDEST SWAP1 POP SWAP3 SWAP2 POP POP JUMP JUMPDEST PUSH32 0x4E487B7100000000000000000000000000000000000000000000000000000000 PUSH0 MSTORE PUSH1 0x21 PUSH1 0x4 MSTORE PUSH1 0x24 PUSH0 REVERT JUMPDEST PUSH1 0x3 DUP2 LT PUSH2 0x295 JUMPI PUSH2 0x294 PUSH2 0x257 JUMP JUMPDEST JUMPDEST POP JUMP JUMPDEST PUSH0 DUP2 SWAP1 POP PUSH2 0x2A5 DUP3 PUSH2 0x284 JUMP JUMPDEST SWAP2 SWAP1 POP JUMP JUMPDEST PUSH0 PUSH2 0x2B4 DUP3 PUSH2 0x298 JUMP JUMPDEST SWAP1 POP SWAP2 SWAP1 POP JUMP JUMPDEST PUSH2 0x2C4 DUP2 PUSH2 0x2AA JUMP JUMPDEST DUP3 MSTORE POP POP JUMP JUMPDEST PUSH0 PUSH1 0x20 DUP3 ADD SWAP1 POP PUSH2 0x2DD PUSH0 DUP4 ADD DUP5 PUSH2 0x2BB JUMP JUMPDEST SWAP3 SWAP2 POP POP JUMP JUMPDEST PUSH0 PUSH0 REVERT JUMPDEST PUSH1 0x3 DUP2 LT PUSH2 0x2F3 JUMPI PUSH0 PUSH0 REVERT JUMPDEST POP JUMP JUMPDEST PUSH0 DUP2 CALLDATALOAD SWAP1 POP PUSH2 0x304 DUP2 PUSH2 0x2E7 JUMP JUMPDEST SWAP3 SWAP2 POP POP JUMP JUMPDEST PUSH0 PUSH1 0x20 DUP3 DUP5 SUB SLT ISZERO PUSH2 0x31F JUMPI PUSH2 0x31E PUSH2 0x2E3 JUMP JUMPDEST JUMPDEST PUSH0 PUSH2 0x32C DUP5 DUP3 DUP6 ADD PUSH2 0x2F6 JUMP JUMPDEST SWAP2 POP POP SWAP3 SWAP2 POP POP JUMP INVALID LOG2 PUSH5 0x6970667358 0x22 SLT KECCAK256 DUP6 SWAP9 0xCF POP 0xFC PUSH31 0x252C801547732C5246B3190709E3B72CAB4845AA0A4833E3D6AC64736F6C63 NUMBER STOP ADDMOD SAR STOP CALLER "
				},
				"gasEstimates": {
					"creation": {
						"codeDepositCost": "175000",
						"executionCost": "218",
						"totalCost": "175218"
					},
					"external": {
						"changeStatus(uint8)": "24666",
						"checkStatus()": "2560",
						"like()": "2597",
						"returnStatus()": "infinite"
					}
				},
				"methodIdentifiers": {
					"changeStatus(uint8)": "95bc9538",
					"checkStatus()": "3b7104f2",
					"like()": "a523b88a",
					"returnStatus()": "32aec755"
				}
			},
			"storageLayout": {
				"storage": [
					{
						"astId": 8,
						"contract": "contracts/22_enum.sol:demo",
						"label": "like",
						"offset": 0,
						"slot": "0",
						"type": "t_enum(Button)5"
					}
				],
				"types": {
					"t_enum(Button)5": {
						"encoding": "inplace",
						"label": "enum demo.Button",
						"numberOfBytes": "1"
					}
				}
			},
			"userdoc": {
				"kind": "user",
				"methods": {},
				"version": 1
			}
		}
	}
}