{
	"contracts/ALU1.sol": {
		"demo1": {
			"abi": [
				{
					"inputs": [],
					"name": "example3",
					"outputs": [],
					"stateMutability": "payable",
					"type": "function"
				},
				{
					"inputs": [],
					"name": "example4",
					"outputs": [],
					"stateMutability": "nonpayable",
					"type": "function"
				}
			],
			"devdoc": {
				"kind": "dev",
				"methods": {},
				"version": 1
			},
			"evm": {
				"assembly": "    /* \"contracts/ALU1.sol\":73:648  contract demo1{... */\n  mstore(0x40, 0x80)\n  callvalue\n  dup1\n  iszero\n  tag_1\n  jumpi\n  revert(0x00, 0x00)\ntag_1:\n  pop\n  dataSize(sub_0)\n  dup1\n  dataOffset(sub_0)\n  0x00\n  codecopy\n  0x00\n  return\nstop\n\nsub_0: assembly {\n        /* \"contracts/ALU1.sol\":73:648  contract demo1{... */\n      mstore(0x40, 0x80)\n      jumpi(tag_1, lt(calldatasize, 0x04))\n      shr(0xe0, calldataload(0x00))\n      dup1\n      0xaf5cb55b\n      eq\n      tag_2\n      jumpi\n      dup1\n      0xc0aa88e2\n      eq\n      tag_3\n      jumpi\n    tag_1:\n      revert(0x00, 0x00)\n        /* \"contracts/ALU1.sol\":404:546  function example3() public payable{... */\n    tag_2:\n      tag_4\n      tag_5\n      jump\t// in\n    tag_4:\n      stop\n        /* \"contracts/ALU1.sol\":552:645  function example4() external {... */\n    tag_3:\n      callvalue\n      dup1\n      iszero\n      tag_6\n      jumpi\n      revert(0x00, 0x00)\n    tag_6:\n      pop\n      tag_7\n      tag_8\n      jump\t// in\n    tag_7:\n      stop\n        /* \"contracts/ALU1.sol\":404:546  function example3() public payable{... */\n    tag_5:\n      jump\t// out\n        /* \"contracts/ALU1.sol\":552:645  function example4() external {... */\n    tag_8:\n      jump\t// out\n\n    auxdata: 0xa26469706673582212206e19af3ba30f1485898fafee91c1feda03a60637f1b9790a832f74b3f2ca81f264736f6c634300081d0033\n}\n",
				"bytecode": {
					"linkReferences": {},
					"object": "6080604052348015600e575f5ffd5b50607e80601a5f395ff3fe6080604052600436106025575f3560e01c8063af5cb55b146029578063c0aa88e2146031575b5f5ffd5b602f6044565b005b348015603b575f5ffd5b5060426046565b005b565b56fea26469706673582212206e19af3ba30f1485898fafee91c1feda03a60637f1b9790a832f74b3f2ca81f264736f6c634300081d0033",
					"opcodes": "PUSH1 0x80 PUSH1 0x40 MSTORE CALLVALUE DUP1 ISZERO PUSH1 0xE JUMPI PUSH0 PUSH0 REVERT JUMPDEST POP PUSH1 0x7E DUP1 PUSH1 0x1A PUSH0 CODECOPY PUSH0 RETURN INVALID PUSH1 0x80 PUSH1 0x40 MSTORE PUSH1 0x4 CALLDATASIZE LT PUSH1 0x25 JUMPI PUSH0 CALLDATALOAD PUSH1 0xE0 SHR DUP1 PUSH4 0xAF5CB55B EQ PUSH1 0x29 JUMPI DUP1 PUSH4 0xC0AA88E2 EQ PUSH1 0x31 JUMPI JUMPDEST PUSH0 PUSH0 REVERT JUMPDEST PUSH1 0x2F PUSH1 0x44 JUMP JUMPDEST STOP JUMPDEST CALLVALUE DUP1 ISZERO PUSH1 0x3B JUMPI PUSH0 PUSH0 REVERT JUMPDEST POP PUSH1 0x42 PUSH1 0x46 JUMP JUMPDEST STOP JUMPDEST JUMP JUMPDEST JUMP INVALID LOG2 PUSH5 0x6970667358 0x22 SLT KECCAK256 PUSH15 0x19AF3BA30F1485898FAFEE91C1FEDA SUB 0xA6 MOD CALLDATACOPY CALL 0xB9 PUSH26 0xA832F74B3F2CA81F264736F6C634300081D0033000000000000 "
				},
				"gasEstimates": {
					"creation": {
						"codeDepositCost": "25200",
						"executionCost": "73",
						"totalCost": "25273"
					},
					"external": {
						"example3()": "97",
						"example4()": "143"
					},
					"internal": {
						"example1()": "infinite",
						"example2()": "infinite"
					}
				},
				"methodIdentifiers": {
					"example3()": "af5cb55b",
					"example4()": "c0aa88e2"
				}
			},
			"storageLayout": {
				"storage": [],
				"types": null
			},
			"userdoc": {
				"kind": "user",
				"methods": {},
				"version": 1
			}
		}
	}
}