{
	"data": {
		"bytecode": {
			"linkReferences": {},
			"object": "608060405234801561000f575f5ffd5b506040516101ef3803806101ef83398181016040528101906100319190610099565b610041828261004d60201b60201c565b5f819055505050610137565b5f818361005a9190610104565b905092915050565b5f5ffd5b5f819050919050565b61007881610066565b8114610082575f5ffd5b50565b5f815190506100938161006f565b92915050565b5f5f604083850312156100af576100ae610062565b5b5f6100bc85828601610085565b92505060206100cd85828601610085565b9150509250929050565b7f4e487b71000000000000000000000000000000000000000000000000000000005f52601160045260245ffd5b5f61010e82610066565b915061011983610066565b9250828201905080821115610131576101306100d7565b5b92915050565b60ac806101435f395ff3fe6080604052348015600e575f5ffd5b50600436106026575f3560e01c8063853255cc14602a575b5f5ffd5b60306044565b604051603b9190605f565b60405180910390f35b5f5481565b5f819050919050565b6059816049565b82525050565b5f60208201905060705f8301846052565b9291505056fea26469706673582212206c23baa12c9e8f8160391bf67cd6e0a68fc7272e5d35228303e4ae2340379e0a64736f6c634300081d0033",
			"opcodes": "PUSH1 0x80 PUSH1 0x40 MSTORE CALLVALUE DUP1 ISZERO PUSH2 0xF JUMPI PUSH0 PUSH0 REVERT JUMPDEST POP PUSH1 0x40 MLOAD PUSH2 0x1EF CODESIZE SUB DUP1 PUSH2 0x1EF DUP4 CODECOPY DUP2 DUP2 ADD PUSH1 0x40 MSTORE DUP2 ADD SWAP1 PUSH2 0x31 SWAP2 SWAP1 PUSH2 0x99 JUMP JUMPDEST PUSH2 0x41 DUP3 DUP3 PUSH2 0x4D PUSH1 0x20 SHL PUSH1 0x20 SHR JUMP JUMPDEST PUSH0 DUP2 SWAP1 SSTORE POP POP POP PUSH2 0x137 JUMP JUMPDEST PUSH0 DUP2 DUP4 PUSH2 0x5A SWAP2 SWAP1 PUSH2 0x104 JUMP JUMPDEST SWAP1 POP SWAP3 SWAP2 POP POP JUMP JUMPDEST PUSH0 PUSH0 REVERT JUMPDEST PUSH0 DUP2 SWAP1 POP SWAP2 SWAP1 POP JUMP JUMPDEST PUSH2 0x78 DUP2 PUSH2 0x66 JUMP JUMPDEST DUP2 EQ PUSH2 0x82 JUMPI PUSH0 PUSH0 REVERT JUMPDEST POP JUMP JUMPDEST PUSH0 DUP2 MLOAD SWAP1 POP PUSH2 0x93 DUP2 PUSH2 0x6F JUMP JUMPDEST SWAP3 SWAP2 POP POP JUMP JUMPDEST PUSH0 PUSH0 PUSH1 0x40 DUP4 DUP6 SUB SLT ISZERO PUSH2 0xAF JUMPI PUSH2 0xAE PUSH2 0x62 JUMP JUMPDEST JUMPDEST PUSH0 PUSH2 0xBC DUP6 DUP3 DUP7 ADD PUSH2 0x85 JUMP JUMPDEST SWAP3 POP POP PUSH1 0x20 PUSH2 0xCD DUP6 DUP3 DUP7 ADD PUSH2 0x85 JUMP JUMPDEST SWAP2 POP POP SWAP3 POP SWAP3 SWAP1 POP JUMP JUMPDEST PUSH32 0x4E487B7100000000000000000000000000000000000000000000000000000000 PUSH0 MSTORE PUSH1 0x11 PUSH1 0x4 MSTORE PUSH1 0x24 PUSH0 REVERT JUMPDEST PUSH0 PUSH2 0x10E DUP3 PUSH2 0x66 JUMP JUMPDEST SWAP2 POP PUSH2 0x119 DUP4 PUSH2 0x66 JUMP JUMPDEST SWAP3 POP DUP3 DUP3 ADD SWAP1 POP DUP1 DUP3 GT ISZERO PUSH2 0x131 JUMPI PUSH2 0x130 PUSH2 0xD7 JUMP JUMPDEST JUMPDEST SWAP3 SWAP2 POP POP JUMP JUMPDEST PUSH1 0xAC DUP1 PUSH2 0x143 PUSH0 CODECOPY PUSH0 RETURN INVALID PUSH1 0x80 PUSH1 0x40 MSTORE CALLVALUE DUP1 ISZERO PUSH1 0xE JUMPI PUSH0 PUSH0 REVERT JUMPDEST POP PUSH1 0x4 CALLDATASIZE LT PUSH1 0x26 JUMPI PUSH0 CALLDATALOAD PUSH1 0xE0 SHR DUP1 PUSH4 0x853255CC EQ PUSH1 0x2A JUMPI JUMPDEST PUSH0 PUSH0 REVERT JUMPDEST PUSH1 0x30 PUSH1 0x44 JUMP JUMPDEST PUSH1 0x40 MLOAD PUSH1 0x3B SWAP2 SWAP1 PUSH1 0x5F JUMP JUMPDEST PUSH1 0x40 MLOAD DUP1 SWAP2 SUB SWAP1 RETURN JUMPDEST PUSH0 SLOAD DUP2 JUMP JUMPDEST PUSH0 DUP2 SWAP1 POP SWAP2 SWAP1 POP JUMP JUMPDEST PUSH1 0x59 DUP2 PUSH1 0x49 JUMP JUMPDEST DUP3 MSTORE POP POP JUMP JUMPDEST PUSH0 PUSH1 0x20 DUP3 ADD SWAP1 POP PUSH1 0x70 PUSH0 DUP4 ADD DUP5 PUSH1 0x52 JUMP JUMPDEST SWAP3 SWAP2 POP POP JUMP INVALID LOG2 PUSH5 0x6970667358 0x22 SLT KECCAK256 PUSH13 0x23BAA12C9E8F8160391BF67CD6 RJUMP 0xA68F 0xC7 0x27 0x2E TSTORE CALLDATALOAD 0x22 DUP4 SUB RETF 0xAE 0x23 BLOCKHASH CALLDATACOPY SWAP15 EXP PUSH5 0x736F6C6343 STOP ADDMOD SAR STOP CALLER "
		},
		"gasEstimates": {
			"creation": {
				"codeDepositCost": "34400",
				"executionCost": "infinite",
				"totalCost": "infinite"
			},
			"external": {
				"sum()": "2402"
			},
			"internal": {
				"add(uint256,uint256)": "infinite"
			}
		},
		"methodIdentifiers": {
			"sum()": "853255cc"
		}
	},
	"abi": [
		{
			"inputs": [
				{
					"internalType": "uint256",
					"name": "x",
					"type": "uint256"
				},
				{
					"internalType": "uint256",
					"name": "y",
					"type": "uint256"
				}
			],
			"stateMutability": "nonpayable",
			"type": "constructor"
		},
		{
			"inputs": [],
			"name": "sum",
			"outputs": [
				{
					"internalType": "uint256",
					"name": "",
					"type": "uint256"
				}
			],
			"stateMutability": "view",
			"type": "function"
		}
	]
}