{
	"data": {
		"bytecode": {
			"linkReferences": {},
			"object": "608060405260145f5f6101000a81548160ff02191690835f0b60ff160217905550348015602a575f5ffd5b5060b98060365f395ff3fe6080604052348015600e575f5ffd5b50600436106026575f3560e01c80637c75023a14602a575b5f5ffd5b60306044565b604051603b9190606c565b60405180910390f35b5f5f9054906101000a90045f0b81565b5f815f0b9050919050565b6066816054565b82525050565b5f602082019050607d5f830184605f565b9291505056fea2646970667358221220b22fe62a45d43ff3d08a232cab3d118841d176b2d69cb6ed6e9bc56307f3946d64736f6c634300081d0033",
			"opcodes": "PUSH1 0x80 PUSH1 0x40 MSTORE PUSH1 0x14 PUSH0 PUSH0 PUSH2 0x100 EXP DUP2 SLOAD DUP2 PUSH1 0xFF MUL NOT AND SWAP1 DUP4 PUSH0 SIGNEXTEND PUSH1 0xFF AND MUL OR SWAP1 SSTORE POP CALLVALUE DUP1 ISZERO PUSH1 0x2A JUMPI PUSH0 PUSH0 REVERT JUMPDEST POP PUSH1 0xB9 DUP1 PUSH1 0x36 PUSH0 CODECOPY PUSH0 RETURN INVALID PUSH1 0x80 PUSH1 0x40 MSTORE CALLVALUE DUP1 ISZERO PUSH1 0xE JUMPI PUSH0 PUSH0 REVERT JUMPDEST POP PUSH1 0x4 CALLDATASIZE LT PUSH1 0x26 JUMPI PUSH0 CALLDATALOAD PUSH1 0xE0 SHR DUP1 PUSH4 0x7C75023A EQ PUSH1 0x2A JUMPI JUMPDEST PUSH0 PUSH0 REVERT JUMPDEST PUSH1 0x30 PUSH1 0x44 JUMP JUMPDEST PUSH1 0x40 MLOAD PUSH1 0x3B SWAP2 SWAP1 PUSH1 0x6C JUMP JUMPDEST PUSH1 0x40 MLOAD DUP1 SWAP2 SUB SWAP1 RETURN JUMPDEST PUSH0 PUSH0 SWAP1 SLOAD SWAP1 PUSH2 0x100 EXP SWAP1 DIV PUSH0 SIGNEXTEND DUP2 JUMP JUMPDEST PUSH0 DUP2 PUSH0 SIGNEXTEND SWAP1 POP SWAP2 SWAP1 POP JUMP JUMPDEST PUSH1 0x66 DUP2 PUSH1 0x54 JUMP JUMPDEST DUP3 MSTORE POP POP JUMP JUMPDEST PUSH0 PUSH1 0x20 DUP3 ADD SWAP1 POP PUSH1 0x7D PUSH0 DUP4 ADD DUP5 PUSH1 0x5F JUMP JUMPDEST SWAP3 SWAP2 POP POP JUMP INVALID LOG2 PUSH5 0x6970667358 0x22 SLT KECCAK256 0xB2 0x2F DUPN 0x2A GASLIMIT 0xD4 EXTCODEHASH RETURN 0xD0 DUP11 0x23 0x2C 0xAB RETURNDATASIZE GT DUP9 COINBASE DATALOADN 0x76B2 0xD6 SWAP13 0xB6 0xED PUSH15 0x9BC56307F3946D64736F6C63430008 SAR STOP CALLER "
		},
		"gasEstimates": {
			"creation": {
				"codeDepositCost": "37000",
				"executionCost": "24357",
				"totalCost": "61357"
			},
			"external": {
				"num4()": "2445"
			}
		},
		"methodIdentifiers": {
			"num4()": "7c75023a"
		}
	},
	"abi": [
		{
			"inputs": [],
			"name": "num4",
			"outputs": [
				{
					"internalType": "int8",
					"name": "",
					"type": "int8"
				}
			],
			"stateMutability": "view",
			"type": "function"
		}
	]
}