{
	"data": {
		"bytecode": {
			"linkReferences": {},
			"object": "6080604052348015600e575f5ffd5b50607e80601a5f395ff3fe6080604052600436106025575f3560e01c8063af5cb55b146029578063c0aa88e2146031575b5f5ffd5b602f6044565b005b348015603b575f5ffd5b5060426046565b005b565b56fea2646970667358221220135c60dd93dbce9dbad2ab9d0ada9679c786296ca7927f04a3c7c070a8ab6a6464736f6c634300081d0033",
			"opcodes": "PUSH1 0x80 PUSH1 0x40 MSTORE CALLVALUE DUP1 ISZERO PUSH1 0xE JUMPI PUSH0 PUSH0 REVERT JUMPDEST POP PUSH1 0x7E DUP1 PUSH1 0x1A PUSH0 CODECOPY PUSH0 RETURN INVALID PUSH1 0x80 PUSH1 0x40 MSTORE PUSH1 0x4 CALLDATASIZE LT PUSH1 0x25 JUMPI PUSH0 CALLDATALOAD PUSH1 0xE0 SHR DUP1 PUSH4 0xAF5CB55B EQ PUSH1 0x29 JUMPI DUP1 PUSH4 0xC0AA88E2 EQ PUSH1 0x31 JUMPI JUMPDEST PUSH0 PUSH0 REVERT JUMPDEST PUSH1 0x2F PUSH1 0x44 JUMP JUMPDEST STOP JUMPDEST CALLVALUE DUP1 ISZERO PUSH1 0x3B JUMPI PUSH0 PUSH0 REVERT JUMPDEST POP PUSH1 0x42 PUSH1 0x46 JUMP JUMPDEST STOP JUMPDEST JUMP JUMPDEST JUMP INVALID LOG2 PUSH5 0x6970667358 0x22 SLT KECCAK256 SGT TLOAD PUSH1 0xDD SWAP4 0xDB 0xCE SWAP14 0xBA 0xD2 0xAB SWAP14 EXP 0xDA SWAP7 PUSH26 0xC786296CA7927F04A3C7C070A8AB6A6464736F6C634300081D00 CALLER "
		},
		"gasEstimates": {
			"creation": {
				"codeDepositCost": "25200",
				"executionCost": "73",
				"totalCost": "25273"
			},
			"external": {
				"example3()": "97",
				"example4()": "143"
			},
			"internal": {
				"example1()": "infinite",
				"example2()": "infinite"
			}
		},
		"methodIdentifiers": {
			"example3()": "af5cb55b",
			"example4()": "c0aa88e2"
		}
	},
	"abi": [
		{
			"inputs": [],
			"name": "example3",
			"outputs": [],
			"stateMutability": "payable",
			"type": "function"
		},
		{
			"inputs": [],
			"name": "example4",
			"outputs": [],
			"stateMutability": "nonpayable",
			"type": "function"
		}
	]
}