{
	"data": {
		"bytecode": {
			"linkReferences": {},
			"object": "6080604052348015600e575f5ffd5b506102788061001c5f395ff3fe608060405234801561000f575f5ffd5b5060043610610029575f3560e01c8063921ff39e1461002d575b5f5ffd5b610035610037565b005b6100756040518060400160405280600581526020017f55707065720000000000000000000000000000000000000000000000000000008152506100f3565b6100b36040518060400160405280600681526020017f6d6964646c6500000000000000000000000000000000000000000000000000008152506100f3565b6100f16040518060400160405280600581526020017f6c6f7765720000000000000000000000000000000000000000000000000000008152506100f3565b565b610189816040516024016101079190610222565b6040516020818303038152906040527f41304fac000000000000000000000000000000000000000000000000000000007bffffffffffffffffffffffffffffffffffffffffffffffffffffffff19166020820180517bffffffffffffffffffffffffffffffffffffffffffffffffffffffff838183161783525050505061018c565b50565b5f815190505f6a636f6e736f6c652e6c6f679050602083015f5f8483855afa5050505050565b5f81519050919050565b5f82825260208201905092915050565b8281835e5f83830152505050565b5f601f19601f8301169050919050565b5f6101f4826101b2565b6101fe81856101bc565b935061020e8185602086016101cc565b610217816101da565b840191505092915050565b5f6020820190508181035f83015261023a81846101ea565b90509291505056fea26469706673582212209b529326893d5729e6518f41b0f3af10ac932f96888d300d52b8ba6fe6989cec64736f6c634300081d0033",
			"opcodes": "PUSH1 0x80 PUSH1 0x40 MSTORE CALLVALUE DUP1 ISZERO PUSH1 0xE JUMPI PUSH0 PUSH0 REVERT JUMPDEST POP PUSH2 0x278 DUP1 PUSH2 0x1C PUSH0 CODECOPY PUSH0 RETURN INVALID PUSH1 0x80 PUSH1 0x40 MSTORE CALLVALUE DUP1 ISZERO PUSH2 0xF JUMPI PUSH0 PUSH0 REVERT JUMPDEST POP PUSH1 0x4 CALLDATASIZE LT PUSH2 0x29 JUMPI PUSH0 CALLDATALOAD PUSH1 0xE0 SHR DUP1 PUSH4 0x921FF39E EQ PUSH2 0x2D JUMPI JUMPDEST PUSH0 PUSH0 REVERT JUMPDEST PUSH2 0x35 PUSH2 0x37 JUMP JUMPDEST STOP JUMPDEST PUSH2 0x75 PUSH1 0x40 MLOAD DUP1 PUSH1 0x40 ADD PUSH1 0x40 MSTORE DUP1 PUSH1 0x5 DUP2 MSTORE PUSH1 0x20 ADD PUSH32 0x5570706572000000000000000000000000000000000000000000000000000000 DUP2 MSTORE POP PUSH2 0xF3 JUMP JUMPDEST PUSH2 0xB3 PUSH1 0x40 MLOAD DUP1 PUSH1 0x40 ADD PUSH1 0x40 MSTORE DUP1 PUSH1 0x6 DUP2 MSTORE PUSH1 0x20 ADD PUSH32 0x6D6964646C650000000000000000000000000000000000000000000000000000 DUP2 MSTORE POP PUSH2 0xF3 JUMP JUMPDEST PUSH2 0xF1 PUSH1 0x40 MLOAD DUP1 PUSH1 0x40 ADD PUSH1 0x40 MSTORE DUP1 PUSH1 0x5 DUP2 MSTORE PUSH1 0x20 ADD PUSH32 0x6C6F776572000000000000000000000000000000000000000000000000000000 DUP2 MSTORE POP PUSH2 0xF3 JUMP JUMPDEST JUMP JUMPDEST PUSH2 0x189 DUP2 PUSH1 0x40 MLOAD PUSH1 0x24 ADD PUSH2 0x107 SWAP2 SWAP1 PUSH2 0x222 JUMP JUMPDEST PUSH1 0x40 MLOAD PUSH1 0x20 DUP2 DUP4 SUB SUB DUP2 MSTORE SWAP1 PUSH1 0x40 MSTORE PUSH32 0x41304FAC00000000000000000000000000000000000000000000000000000000 PUSH28 0xFFFFFFFFFFFFFFFFFFFFFFFFFFFFFFFFFFFFFFFFFFFFFFFFFFFFFFFF NOT AND PUSH1 0x20 DUP3 ADD DUP1 MLOAD PUSH28 0xFFFFFFFFFFFFFFFFFFFFFFFFFFFFFFFFFFFFFFFFFFFFFFFFFFFFFFFF DUP4 DUP2 DUP4 AND OR DUP4 MSTORE POP POP POP POP PUSH2 0x18C JUMP JUMPDEST POP JUMP JUMPDEST PUSH0 DUP2 MLOAD SWAP1 POP PUSH0 PUSH11 0x636F6E736F6C652E6C6F67 SWAP1 POP PUSH1 0x20 DUP4 ADD PUSH0 PUSH0 DUP5 DUP4 DUP6 GAS STATICCALL POP POP POP POP POP JUMP JUMPDEST PUSH0 DUP2 MLOAD SWAP1 POP SWAP2 SWAP1 POP JUMP JUMPDEST PUSH0 DUP3 DUP3 MSTORE PUSH1 0x20 DUP3 ADD SWAP1 POP SWAP3 SWAP2 POP POP JUMP JUMPDEST DUP3 DUP2 DUP4 MCOPY PUSH0 DUP4 DUP4 ADD MSTORE POP POP POP JUMP JUMPDEST PUSH0 PUSH1 0x1F NOT PUSH1 0x1F DUP4 ADD AND SWAP1 POP SWAP2 SWAP1 POP JUMP JUMPDEST PUSH0 PUSH2 0x1F4 DUP3 PUSH2 0x1B2 JUMP JUMPDEST PUSH2 0x1FE DUP2 DUP6 PUSH2 0x1BC JUMP JUMPDEST SWAP4 POP PUSH2 0x20E DUP2 DUP6 PUSH1 0x20 DUP7 ADD PUSH2 0x1CC JUMP JUMPDEST PUSH2 0x217 DUP2 PUSH2 0x1DA JUMP JUMPDEST DUP5 ADD SWAP2 POP POP SWAP3 SWAP2 POP POP JUMP JUMPDEST PUSH0 PUSH1 0x20 DUP3 ADD SWAP1 POP DUP2 DUP2 SUB PUSH0 DUP4 ADD MSTORE PUSH2 0x23A DUP2 DUP5 PUSH2 0x1EA JUMP JUMPDEST SWAP1 POP SWAP3 SWAP2 POP POP JUMP INVALID LOG2 PUSH5 0x6970667358 0x22 SLT KECCAK256 SWAP12 MSTORE SWAP4 0x26 DUP10 RETURNDATASIZE JUMPI 0x29 DUPN 0x51 DUP16 COINBASE 0xB0 RETURN 0xAF LT 0xAC SWAP4 0x2F SWAP7 DUP9 DUP14 ADDRESS 0xD MSTORE 0xB8 0xBA PUSH16 0xE6989CEC64736F6C634300081D003300 "
		},
		"gasEstimates": {
			"creation": {
				"codeDepositCost": "126400",
				"executionCost": "169",
				"totalCost": "126569"
			},
			"external": {
				"logmsg()": "infinite"
			}
		},
		"methodIdentifiers": {
			"logmsg()": "921ff39e"
		}
	},
	"abi": [
		{
			"inputs": [],
			"name": "logmsg",
			"outputs": [],
			"stateMutability": "view",
			"type": "function"
		}
	]
}